S015000053696D706C6554657374696E672E73726563C7
S11300000C942A000C944C010C9447000C94470067
S11300100C9447000C947B010C9447000C944F0003
S11300200C9447000C9447000C9447000C94470030
S11300300C9447000C94DE010C9447000C94470088
S11300400C9447000C9447000C9447000C94470010
S11300500C94470011241FBECFE5D8E0DEBFCDBF0E
S113006010E0A0E6B0E0E4EDF5E002C005900D92EA
S1130070A23AB107D9F721E0A2EAB0E001C01D928B
S1130080AD35B207E1F70E9495010C94E8020C9497
S1130090000084E380B986B7856486BF08951F9203
S11300A00F920FB60F9211242F933F934F935F93A8
S11300B08F939F93AF93BF938091A500843009F4ED
S11300C06DC064F4813069F11CF48823C9F0D7C091
S11300D08230E9F1833009F0D2C04AC0873009F494
S11300E095C03CF4853009F46AC0863009F0C7C075
S11300F07CC0883009F4A0C0893009F0C0C0ADC00C
S1130100C09A8091600090916100A0916200B091CA
S113011063009BBD8ABD8091A5008F5F8093A5007D
S1130120AEC0C0988091600090916100A09162007F
S1130130B091630020E737E1A901481B590B5BBD6F
S11301404ABD8091A5008F5F8093A50098C0C19A95
S11301508091640090916500A0916600B091670061
S11301609BBD8ABD8091A5008F5F8093A50087C049
S1130170C1988091640090916500A0916600B0914F
S1130180670020E737E1A901481B590B5BBD4ABD55
S11301908091A5008F5F8093A50071C0C29A809161
S11301A0680090916900A0916A00B0916B009BBDBA
S11301B08ABD8091A5008F5F8093A50060C0C2981E
S11301C08091680090916900A0916A00B0916B00E1
S11301D020E737E1A901481B590B5BBD4ABD80915B
S11301E0A5008F5F8093A5004AC0C39A80916C00DC
S11301F090916D00A0916E00B0916F009BBD8ABD7F
S11302008091A5008F5F8093A50039C0C398809129
S11302106C0090916D00A0916E00B0916F0020E78A
S113022037E1A901481B590B5BBD4ABD8091A5006C
S11302308F5F8093A50023C0C49A80917000909131
S11302407100A0917200B09173009BBD8ABD809132
S1130250A5008F5F8093A50012C0C49880917000A0
S113026090917100A0917200B091730020E737E182
S1130270A901481B590B5BBD4ABD1092A500BF9153
S1130280AF919F918F915F914F913F912F910F90DB
S11302900FBE0F901F9018951F920F920FB60F92DA
S11302A011242F938F939F93EF93FF938091A20038
S11302B09091A300019729F41092A3001092A20038
S11302C00FC02091A400E22FF0E084B590E0EE0F7F
S11302D0FF1FEA55FF4F918380832F5F2093A40073
S11302E014BCFF91EF919F918F912F910F900FBEAE
S11302F00F901F9018951F920F920FB60F92112412
S11303008F939F931092A40081E090E09093A300B8
S11303108093A2009F918F910F900FBE0F901F901A
S1130320189581B58D6081BD08950E94D10104B6F0
S113033003FE05C084E790E00E9461021CC004B67D
S113034000FE05C08CE790E00E94610214C004B670
S113035002FE05C085E890E00E9461020CC004B66C
S113036001FE05C080E990E00E94610204C084B7E8
S113037090E00E94850284B7807F84BF2FE78FE4DA
S113038092E1215080409040E1F700C000000E94BB
S113039049000E94910187E990E00E947102A895AA
S11303A0FACFF89488E98AB986E880BD10BC89E15F
S11303B089B978948CB15F99FDCF08951F920F92FB
S11303C00FB60F9211242F933F938F939F93EF9324
S11303D0FF938CB18093BA001092BB008093B90054
S11303E08091B9008C32F1F42091B800822F9927C2
S11303F087FD909530915C01FC01EE0FFF1FEE0F1D
S1130400FF1FEE0FFF1FE80FF91FE30FF11D37FD6C
S1130410FA95E454FF4F108210925C012F5F2093F1
S1130420B80040C08091B9008D30E1F48091B800EB
S1130430992787FD909520915C01FC01EE0FFF1F29
S1130440EE0FFF1FEE0FFF1FE80FF91FE20FF11D64
S113045027FDFA95E454FF4F108210925C0110922C
S1130460B80020C08091B9008A30E1F08091B800D2
S1130470992787FD909520915C013091B900FC018A
S1130480EE0FFF1FEE0FFF1FEE0FFF1FE80FF91F08
S1130490E20FF11D27FDFA95E454FF4F30832F5FDF
S11304A020935C01FF91EF919F918F913F912F9148
S11304B00F900FBE0F901F9018955D9BFECF8CB9C7
S11304C00895CF93DF93EC018881882339F0219636
S11304D090E00E945D0289918111FACFDF91CF9162
S11304E00895CF93DF93EC018881882339F0219616
S11304F090E00E945D0289918111FACF8FE990E02A
S11305000E946102DF91CF910895CF93DF93CDB71D
S1130510DEB72F970FB6F894DEBF0FBECDBF4AE00B
S113052050E0BE016F5F7F4F0E94B702CE0101967B
S11305300E9461022F960FB6F894DEBF0FBECDBFA6
S1130540DF91CF910895AA1BBB1B51E107C0AA1FDD
S1130550BB1FA617B70710F0A61BB70B881F991F60
S11305605A95A9F780959095BC01CD010895FB019A
S11305709F01E8944230C4F04532B4F44A3029F47F
S113058097FB1EF4909581959F4F642F77270E94C7
S1130590A302805D8A330CF0895D8193CB010097BF
S11305A0A1F716F45DE251931082C9010C94D802AC
S11305B0DC01FC01672F71917723E1F7329704C0C6
S11305C07C916D9370836291AE17BF07C8F3089551
S10705D0F894FFCFC9
S11305D4CA080000CA080000CA080000CA080000CB
S11305E4E605000057646F675273740050777255C0
S11305F470527374004272776E4F75745273740040
S11306044578745273740052756E6E696E67000D8A
S10506140A00D6
S9030000FC
