S015000053696D706C6554657374696E672E73726563C7
S11300000C9441000C94590A0C945E000C945E000C
S11300100C945E000C94880A0C945E000C940909FC
S11300200C945E000C945E000C94B30A0C945E0075
S11300300C945E000C94D91C0C945E000C945E002D
S11300400C945E000C945E000C945E000C945E00B4
S11300500C945E00084AD73B3BCE016E84BCBFFDC6
S1130060C12F3D6C74319ABD56833DDA3D00C77F84
S113007011BED9E4BB4C3E916BAAAABE000000801D
S11300803F0011241FBECFE5D8E0DEBFCDBF12E094
S1130090A0E6B0E0E0EFF1E402C005900D92A231D9
S11300A0B107D9F725E0A2E1B2E001C01D92A83F53
S11300B0B207E1F70E94130B0C94F6200C94000095
S11300C0CF93DF93D82FC62F0E94760882E390E067
S11300D00E9492088D2F90E00E949D088C2F90E042
S11300E00E94A8080E94C308DF91CF91089567E495
S11300F080E20E94600060E183E20E9460008EE87A
S113010090E00E945F1D08950F931F93CF93DF9398
S1130110EC010E94760882E390E00E94920888EA4B
S113012090E00E949D080E94800883E390E00E9472
S113013086080E94BB08809322020E94BB08809319
S113014023020E94BB0880931C020E94BB08809378
S11301501D020E94BB08809316020E94B30880937C
S113016017020E94C30880912302992787FD909566
S1130170982F882720912202822B95958795959513
S1130180879595958795959587959093210280936A
S1130190200200911D02112707FD1095102F002742
S11301A020911C02022B1595079515950795159519
S11301B007951595079510931B0200931A02409119
S11301C01702552747FD5095542F442720911602B6
S11301D0422B559547955595479555954795559572
S11301E047955093150240931402880F991F9093DA
S11301F01F0280931E02000F111F10931902009317
S11302001802440F551F5093130240931202AA2759
S113021097FDA095BA2F88839983AA83BB8322274D
S113022017FD2095322F0C831D832E833F83662771
S113023057FD6095762F488759876A877B87CE015B
S1130240DF91CF911F910F910895CF93DF93D82F12
S1130250C62F0E94760880EC90E00E9492088D2FB1
S113026090E00E949D088C2F90E00E94A8080E94B4
S1130270C308DF91CF91089569EB86E20E942501BE
S113028060E889E20E94250166EC84E10E94250170
S11302906BE585E10E94250167E083E10E94250169
S11302A08AE990E00E945F1D0895CF930E9476082A
S11302B080EC90E00E94920880E090E00E949D080B
S11302C00E94800881EC90E00E9486080E94B30896
S11302D0C82F0E94C30880912A0232C0CE3E81F505
S11302E00E94760880EC90E00E94920881E090E001
S11302F00E949D080E94800881EC90E00E9486087C
S11303000E94BB0880932D020E94BB0880932C029C
S11303100E94B30880932B020E94C30820912D02EF
S1130320332727FD3095322F222780912C02282B4A
S1130330309327022093260281E080932A023FC053
S1130340882361F2CE3EB9F50E94760880EC90E0F5
S11303500E94920881E090E00E949D080E9480081B
S113036081EC90E00E9486080E94BB0880932D02D5
S11303700E94BB0880932C020E94B30880932B0236
S11303800E94C30820912D02332727FD3095322F78
S1130390222780912C02282B3093270220932602B7
S11303A08091280290912902281B390B3093250251
S11303B02093240204C02091240230912502822F2C
S11303C0932FCF9108950E94550190932902809311
S11303D0280287EA90E00E944F1D609128027091E4
S11303E02902882777FD8095982F0E94911D0895F2
S11303F01ABA80E487B987E886B984EB90E00E9452
S11304005F1D089583E087B9369A3699FECF24B1EB
S113041030E030932F0220932E0245B1942F80E0D8
S1130420282B392B30932F0220932E02822F932FC7
S11304300895CF93DF93D82FC62F0E94760886EDB8
S113044090E00E9492088D2F90E00E949D088C2FCE
S113045090E00E94A8080E94C308DF91CF910895FC
S11304606FE080E20E94190260E281E20E941902B8
S113047060E184E20E94190288EC90E00E945F1D12
S113048008958F929F92AF92BF92CF92DF92EF9294
S1130490FF920F931F93CF93DF93EC010E94760892
S11304A086ED90E00E94920888EA90E00E949D0800
S11304B00E94800887ED90E00E9486080E94BB0895
S11304C0809342020E94BB08809343020E94BB08AF
S11304D080933E020E94BB0880933F020E94BB08A7
S11304E080933A020E94B30880933B020E94C3089F
S11304F060914302772767FD7095762F6627809178
S11305004202682B7093410260934002E0903F02E4
S1130510FF24E7FCF094FE2CEE2480913E02E82AAE
S1130520F0923D02E0923C0200913B02112707FD4C
S11305301095102F002780913A02082B109339024E
S113054000933802882777FD8095982F0E94191F01
S113055029E23CE54FE05CE30E94F91F0E94E61E9D
S11305604B015C01B701882777FD8095982F0E9485
S1130570191F29E23CE54FE05CE30E94F91F0E9449
S1130580E61E6B017C01B801882777FD8095982FC2
S11305900E94191F29E23CE54FE05CE30E94F91F29
S11305A00E94E61E20913002309131022130310543
S11305B021F50091360210913702222717FD20956C
S11305C0322F801A910AA20AB30A009134021091C0
S11305D03502222717FD2095322FC01AD10AE20ACC
S11305E0F30A0091320210913302222717FD20955D
S11305F0322F601B710B820B930B88829982AA8223
S1130600BB82CC82DD82EE82FF82688779878A870B
S11306109B87CE01DF91CF911F910F91FF90EF90B7
S1130620DF90CF90BF90AF909F908F9008951F93CD
S1130630CF93DF93CDB7DEB72C970FB6F894DEBF18
S11306400FBECDBF12E3CE0101960E94410220915C
S113065036023091370289819A81820F931F9093D9
S113066037028093360220913402309135028D8115
S11306709E81820F931F90933502809334022091C0
S113068032023091330289859A85820F931F9093A9
S11306903302809332021150B1F680913602909168
S11306A0370222E330E0B9010E945F2070933702E1
S11306B0609336028091340290913502B9010E9410
S11306C05F207093350260933402809132029091DE
S11306D03302B9010E945F207093330260933202A7
S11306E085ED90E00E945F1D83EE90E00E944F1D17
S11306F06091360270913702882777FD8095982F94
S11307000E94911D87EE90E00E944F1D609134027B
S113071070913502882777FD8095982F0E94911D4E
S11307208BEE90E00E944F1D609132027091330273
S1130730882777FD8095982F0E94911D2FE78FE4DD
S113074092E1215080409040E1F700C0000081E038
S113075090E090933102809330028FEE90E00E94FB
S11307605F1D2C960FB6F894DEBF0FBECDBFDF9190
S1130770CF911F910895CF93C82F0E94E5084C2F65
S113078060E888E70E94CF080E94C308CF910895CB
S1130790CF93C82F0E94E5084C2F60E488E70E949D
S11307A0CF080E94C308CF9108958EEA0E94BB032C
S11307B084EA0E94BB0380E20E94BB0382E00E94A1
S11307C0BB0381EA0E94BB0388EC0E94BB0386EA58
S11307D00E94BB0381E80E94BB038FEA0E94BB0313
S11307E086ED0E94BB0381E00E94BB032FE789EAE8
S11307F093E0215080409040E1F700C000008FEA70
S11308000E94BB030895CF93DF9386EA0E94BB0343
S11308108EEA0E94BB0380E20E94BB0380E00E9438
S1130820BB0380EB0E94BB0380E40E94BB0380E017
S11308300E94BB0380E10E94BB03C0E0D4E080E0DF
S11308400E94C8032197D9F781E80E94BB038FEA6D
S11308500E94BB038FEA0E94BB0380EB0E94BB0390
S1130860DF91CF910895CF93C82F862F80550E9492
S1130870BB038C2F880F880F880F88700E94BB03DE
S11308808C2F90E0969587958F709927805F0E94B2
S1130890BB03CF91089580EB0E94BB0380E00E94CC
S11308A0BB0380E10E94BB0308958EE70E94C80346
S11308B081E10E94C80381E10E94C80381E10E9492
S11308C0C8038EE70E94C80380E00E94C80380E04A
S11308D00E94C80308958FE70E94C80381E40E9420
S11308E0C80381E40E94C80382E20E94C8038CE129
S11308F00E94C80380E00E94C80380E00E94C803ED
S113090008958FE70E94C80389E40E94C80389E41C
S11309100E94C80389E40E94C80381E40E94C803BA
S113092080E00E94C80380E00E94C80308958FE716
S11309300E94C80389E00E94C80389E00E94C8039A
S113094089E00E94C80381E00E94C80380E00E94FD
S1130950C80380E00E94C80308958EE30E94C80380
S113096081E40E94C80389E40E94C80389E40E94C8
S1130970C8038AE70E94C80380E00E94C80380E09D
S11309800E94C80308958FE70E94C80388E00E946C
S1130990C80388E00E94C80388E00E94C8038FE768
S11309A00E94C80380E00E94C80380E00E94C8033C
S11309B0089580E00E94C80381E40E94C8038FE781
S11309C00E94C80381E40E94C80380E00E94C80317
S11309D080E00E94C80380E00E94C80308958FE766
S11309E00E94C80380E40E94C80380E40E94C803F4
S11309F080E40E94C80380E40E94C80380E00E944F
S1130A00C80380E00E94C80308958FE70E94C803CA
S1130A1082E00E94C8038CE00E94C80382E00E9426
S1130A20C8038FE70E94C80380E00E94C80380E0E7
S1130A300E94C80308958FE70E94C80384E00E94BF
S1130A40C80388E00E94C80380E10E94C8038FE7BE
S1130A500E94C80380E00E94C80380E00E94C8038B
S1130A6008958EE30E94C80381E40E94C80381E4D0
S1130A700E94C80381E40E94C8038EE30E94C80355
S1130A8080E00E94C80380E00E94C80308958FE7B5
S1130A900E94C80389E00E94C80389E00E94C80339
S1130AA089E00E94C80386E00E94C80380E00E9497
S1130AB0C80380E00E94C80308958FE70E94C8031A
S1130AC089E00E94C80389E10E94C80389E20E9468
S1130AD0C80386E40E94C80380E00E94C80380E043
S1130AE00E94C803089586E40E94C80389E40E9412
S1130AF0C80389E40E94C80389E40E94C80381E30F
S1130B000E94C80380E00E94C80380E00E94C803DA
S1130B10089581E00E94C80381E00E94C8038FE722
S1130B200E94C80381E00E94C80381E00E94C803B8
S1130B3080E00E94C80380E00E94C80308958111E8
S1130B4030C00E94EF040E94D9040E94AD040E94A8
S1130B50C3040E94890561E080E00E9433040E947E
S1130B60C3040E9431050E9405050E94810462E0CD
S1130B7080E00E9433040E9405050E9431050E9412
S1130B806B040E94810463E080E00E9433040E94AD
S1130B90C3040E9481040E9455040E946B040E94B5
S1130BA04B04089580E00E94C80380E00E94C803BB
S1130BB080E00E94C80380E00E94C80380E00E9495
S1130BC0C80380E00E94C80380E00E94C80308951F
S1130BD0CF93DF93C82FD62F0E944B046D2F8C2FF9
S1130BE00E94330488EF0E94C80388EF0E94C80360
S1130BF088E00E94C80388EF0E94C8038CEF0E941B
S1130C00C80384EF0E94C80384EF0E94C80384EFE2
S1130C100E94C80384EF0E94C80384EF0E94C803A3
S1130C208CEF0E94C80388EF0E94C80388E00E94EA
S1130C30C80388EF0E94C80388EF0E94C8036D2F81
S1130C406F5F8C2F0E9433048FEF0E94C8038FEFD5
S1130C500E94C80380E80E94C8038FEF0E94C80363
S1130C608FEF0E94C8038FEF0E94C8038FEF0E948A
S1130C70C8038FEF0E94C8038FEF0E94C8038FEF51
S1130C800E94C8038FEF0E94C8038FEF0E94C8031D
S1130C9080E80E94C8038FEF0E94C8038FEF0E9470
S1130CA0C803DF91CF910895CF93DF93C82FD62F38
S1130CB00E944B046D2F8C2F0E94330488EF0E94F6
S1130CC0C80388EF0E94C80388E00E94C80388EC28
S1130CD00E94C8038CEC0E94C80384EC0E94C803E1
S1130CE084EC0E94C80384EC0E94C80384EC0E9434
S1130CF0C80384EC0E94C8038CEC0E94C80388ECEF
S1130D000E94C80388E00E94C80388EF0E94C803B9
S1130D1088EF0E94C8036D2F6F5F8C2F0E943304ED
S1130D208FEF0E94C8038FEF0E94C80380E80E94DF
S1130D30C8038FEF0E94C8038FEF0E94C8038FEF90
S1130D400E94C8038FEF0E94C8038FEF0E94C8035C
S1130D508FEF0E94C8038FEF0E94C8038FEF0E9499
S1130D60C8038FEF0E94C80380E80E94C8038FEF76
S1130D700E94C8038FEF0E94C803DF91CF910895AA
S1130D80CF93DF93C82FD62F0E944B046D2F8C2F47
S1130D900E94330488EF0E94C80388EF0E94C803AE
S1130DA088E00E94C80388E00E94C8038CE00E9487
S1130DB0C80384E00E94C80384E00E94C80384E05E
S1130DC00E94C80384E00E94C80384E00E94C80310
S1130DD08CE00E94C80388E00E94C80388E00E9457
S1130DE0C80388EF0E94C80388EF0E94C8036D2FD0
S1130DF06F5F8C2F0E9433048FEF0E94C8038FEF24
S1130E000E94C80380E80E94C8038FEF0E94C803B1
S1130E108FEF0E94C8038FEF0E94C8038FEF0E94D8
S1130E20C8038FEF0E94C8038FEF0E94C8038FEF9F
S1130E300E94C8038FEF0E94C8038FEF0E94C8036B
S1130E4080E80E94C8038FEF0E94C8038FEF0E94BE
S1130E50C803DF91CF910895CF93DF93C82FD62F86
S1130E600E944B046D2F8C2F0E94330488EF0E9444
S1130E70C80388EF0E94C80388E00E94C80388E082
S1130E800E94C8038CE00E94C80384E00E94C80347
S1130E9084E00E94C80384E00E94C80384E00E94A6
S1130EA0C80384E00E94C8038CE00E94C80388E061
S1130EB00E94C80388E00E94C80388EF0E94C80308
S1130EC088EF0E94C8036D2F6F5F8C2F0E9433043C
S1130ED08FEF0E94C8038FEF0E94C80380E80E942E
S1130EE0C8038CEF0E94C8038CEF0E94C8038CEFE8
S1130EF00E94C8038CEF0E94C8038CEF0E94C803B1
S1130F008CEF0E94C8038CEF0E94C8038CEF0E94F0
S1130F10C8038CEF0E94C80380E80E94C8038FEFC7
S1130F200E94C8038FEF0E94C803DF91CF910895F8
S1130F30CF93DF93C82FD62F0E944B046D2F8C2F95
S1130F400E94330488EF0E94C80388EF0E94C803FC
S1130F5088E00E94C80388E00E94C8038CE00E94D5
S1130F60C80384E00E94C80384E00E94C80384E0AC
S1130F700E94C80384E00E94C80384E00E94C8035E
S1130F808CE00E94C80388E00E94C80388E00E94A5
S1130F90C80388EF0E94C80388EF0E94C8036D2F1E
S1130FA06F5F8C2F0E9433048FEF0E94C8038FEF72
S1130FB00E94C80380E80E94C80380EF0E94C8030F
S1130FC080EF0E94C80380EF0E94C80380EF0E9454
S1130FD0C80380EF0E94C80380EF0E94C80380EF1B
S1130FE00E94C80380EF0E94C80380EF0E94C803D8
S1130FF080E80E94C8038FEF0E94C8038FEF0E940D
S1131000C803DF91CF910895CF93DF93C82FD62FD4
S11310100E944B046D2F8C2F0E94330488EF0E9492
S1131020C80388EF0E94C80388E00E94C80388E0D0
S11310300E94C8038CE00E94C80384E00E94C80395
S113104084E00E94C80384E00E94C80384E00E94F4
S1131050C80384E00E94C8038CE00E94C80388E0AF
S11310600E94C80388E00E94C80388EF0E94C80356
S113107088EF0E94C8036D2F6F5F8C2F0E9433048A
S11310808FEF0E94C8038FEF0E94C80380E80E947C
S1131090C80380E80E94C80380E80E94C80380E86F
S11310A00E94C80380E80E94C80380E80E94C80325
S11310B080E80E94C80380E80E94C80380E80E9478
S11310C0C80380E80E94C80380E80E94C8038FEF29
S11310D00E94C8038FEF0E94C803DF91CF91089547
S11310E087E080B986B7856486BF089584EA86BFA1
S11310F006B607FEFDCF81B1887F8830E1F70895F9
S113110084EA86BF06B607FEFDCF089583B986B785
S1131110846C86BF06B607FEFDCF81B1887F80341C
S1131120E1F7089583B984E886BF06B607FEFDCFCC
S113113081B1887F8831E1F7089583B984E886BF57
S113114006B607FEFDCF81B1887F8832E1F70895A6
S113115083B984E886BF06B607FEFDCF81B1887FD8
S11311608832E1F7089584E886BF06B607FEFDCF0E
S113117083B190E0089584EC86BF06B607FEFDCFE8
S113118083B190E0089513B886B7846986BF06B624
S113119004FCFDCF089506B607FEFDCF08951F9306
S11311A0CF93DF93162FD42F83B9C4E8C6BF0E9410
S11311B0CB0813B9C6BF0E94CB08D3B9C6BF0E94DF
S11311C0CB08DF91CF911F91089584EA86BF0E94D6
S11311D0CB08089587B38F6187BB8AB383608ABBCA
S11311E088B3807E88BB8BB38C7F8BBB1FBC8AE0AB
S11311F08EBD8AEC98E09BBD8ABD80E48BBF83E002
S113120085BF85E085BD14BC81E091E00E945F1D2F
S113121008951F920F920FB60F9211242F933F93AC
S11312204F935F938F939F93AF93BF9380914702A4
S1131230863009F499C084F4823009F447C034F448
S11312408823E9F0813009F027C12AC0843009F4E9
S113125064C00CF073C04BC08A3009F4D3C034F4BA
S1131260883009F4A8C00CF0B7C08FC08C3009F4E2
S1131270F0C00CF4D8C08D3009F00EC1FBC0C09A88
S11312808091600090916100A0916200B091630030
S11312909BBD8ABD809147028F5F80934702FCC04B
S11312A0C0988091600090916100A0916200B0911B
S11312B0630020EA3FE0A901481B590B5BBD4ABD0E
S11312C0809147028F5F80934702E6C0C19A809164
S11312D0640090916500A0916600B09167009BBD89
S11312E08ABD809147028F5F80934702D5C0C19821
S11312F08091640090916500A0916600B0916700B0
S113130020EA3FE0A901481B590B5BBD4ABD80910F
S113131047028F5F80934702BFC0C29A80916800E2
S113132090916900A0916A00B0916B009BBD8ABD49
S1131330809147028F5F80934702AEC0C29880912C
S1131340680090916900A0916A00B0916B0020EA56
S11313503FE0A901481B590B5BBD4ABD8091470280
S11313608F5F8093470298C0C39A80916C009091DC
S11313706D00A0916E00B0916F009BBD8ABD8091FD
S113138047028F5F8093470287C0C39880916C00A7
S113139090916D00A0916E00B0916F0020EA3FE043
S11313A0A901481B590B5BBD4ABD809147028F5F61
S11313B08093470271C0C49A80917000909171002B
S11313C0A0917200B09173009BBD8ABD80914702C9
S11313D08F5F8093470260C0C498809170009091A1
S11313E07100A0917200B091730020EA3FE0A9015E
S11313F0481B590B5BBD4ABD809147028F5F8093A8
S113140047024AC0D89A8091740090917500A091C7
S11314107600B09177009BBD8ABD809147028F5FB3
S11314208093470239C0D8988091740090917500D8
S1131430A0917600B091770020EA3FE0A901481B13
S1131440590B5BBD4ABD809147028F5F8093470271
S113145023C0D99A8091780090917900A0917A0064
S1131460B0917B009BBD8ABD809147028F5F8093C2
S1131470470212C0D9988091780090917900A09188
S11314807A00B0917B0020EA3FE0A901481B590B88
S11314905BBD4ABD10924702BF91AF919F918F915E
S11314A05F914F913F912F910F900FBE0F901F901E
S11314B018951F920F920FB60F9211242F938F93AA
S11314C09F93EF93FF93809144029091450201977B
S11314D029F410924502109244020FC02091460252
S11314E0E22FF0E084B590E0EE0FFF1FE058FD4FCF
S11314F0918380832F5F2093460214BCFF91EF9168
S11315009F918F912F910F900FBE0F901F90189560
S11315101F920F920FB60F9211248F939F931092E4
S1131520460281E090E090934502809344029F91AB
S11315308F910F900FBE0F901F9018958DE083BF71
S113154085E78CBF8FE892ECA5EFBCE38093920211
S113155090939302A0939402B093950283E191E057
S11315600E945F1D08951F920F920FB60F921124CF
S11315708F93809196028F5F80939602833028F038
S113158081E080939702109296028F910F900FBE84
S11315900F901F90189581B58D6081BD08950F93AC
S11315A01F93FC014191442381F1842F80538A309D
S11315B080F500E010E0980104C0842F80538A3045
S11315C058F5D901C801880F991FAA1FBB1F8C01A8
S11315D09D01000F111F221F331F000F111F221F17
S11315E0331F800F911FA21FB31F042F10E000535D
S11315F01109222717FD2095322F080F191F2A1FC2
S11316003B1F41914111D9CF07C000E010E0980180
S113161003C000E010E09801602F712F822F932FF8
S11316201F910F910895CF93DF93CDB7DEB7C455C3
S1131630D1090FB6F894DEBF0FBECDBF0E94CC1CFB
S113164004B603FE05C08FE291E00E944F1D1EC048
S113165004B600FE05C087E391E00E944F1D16C04A
S113166004B602FE05C080E491E00E944F1D0EC046
S113167004B601FE05C08BE491E00E944F1D06C034
S113168064B770E080E090E00E94731D84B7807FAF
S113169084BF2FE73FE482E1215030408040E1F7EE
S11316A000C000000E9470080E9430020E941703CC
S11316B00E9477000E943C010E94E3010E94F8010D
S11316C00E94D5030E94030480E00E949F05F894C1
S11316D00E949E0A0E94EA0882E589BF78940E94CB
S11316E0CB0A81B3806F81BB82B38F7082BB949A23
S11316F0809108038130B1F562E571E08CE694E0F5
S11317000E94A920282F392F232B81F4ECE6F4E042
S1131710A9E0B3E080EB01900D928A95E1F7ECE645
S1131720F4E0DF0120EB1D922A95E9F768E571E00A
S11317308CE694E00E94A920282F392F232B81F4D2
S1131740ECE6F4E0A9EBB3E080EB01900D928A950E
S1131750E1F7ECE6F4E0DF0120EB1D922A95E9F7CE
S11317601092080380919702813011F00C94C91CE7
S113177010929702CE010D960E9441022D8520936E
S1131780B90599899093EC058D898093AD052093D3
S1131790D7059093C4058093DF02CE0101960E9481
S11317A08400A980BA80B092B005A092AF050D81E3
S11317B01E811093E5050093E40569857A8570938D
S11317C0BF056093BE05719561957109882777FD02
S11317D08095982F0E94191F6B017C01B501882701
S11317E077FD8095982F0E94191FA70196010E94EA
S11317F0271E20E030E044E353E40E94F91F2BED60
S11318003FE049E450E40E947E1E6093C702709357
S1131810C8028093C9029093CA0266277727601B87
S1131820710B882777FD8095982F0E94191FA701B7
S113183096010E94271E20E030E044E353E40E9416
S1131840F91F2BED3FE049E450E40E947E1E6093B3
S1131850C3027093C4028093C5029093C6020E948F
S113186055019093D2058093D105C0908800D09003
S11318708900E0908A00F0908B00BC01882777FDF6
S11318808095982F0E94191F4B015C01A7019601B6
S113189060E070E080E89FE30E94B31D9B01AC010F
S11318A0C501B4010E94F91F4B015C016091C70599
S11318B07091C805882777FD8095982F0E94191F7D
S11318C09B01AC01C701B6010E94F91F9B01AC0149
S11318D0C501B4010E94B41D0E94E61E7093C805A0
S11318E06093C7058091E002883009F082C00E94AD
S11318F0020290938405809383058091980281115C
S11319003AC08F5F809398020E940202BC0188272C
S113191077FD8095982F0E94191F9B01AC0160915F
S1131920E5027091E6028091E7029091E8020E943C
S1131930B41D6093E5027093E6028093E7029093EE
S1131940E802809198028A30E0F220E030E040E240
S113195051E46091E5027091E6028091E702909172
S1131960E8020E947E1E6093E5027093E602809373
S1131970E7029093E80260918305709184058827BB
S113198077FD8095982F0E94191F2091E5023091D0
S1131990E6024091E7025091E8020E94B31D2DEC4B
S11319A03CEC4CEC5DE30E94F91F6B017C016091FF
S11319B0E9027091EA02882777FD8095982F0E94AA
S11319C0191F26E636E646E65FE30E94F91F9B01EF
S11319D0AC01C701B6010E94B41D0E94E61E7093BB
S11319E08805609387057093EA026093E902109278
S11319F0E0028091E0028F5F8093E0028091BF0259
S1131A009091C002A091C102B091C20225968CAF00
S1131A109DAFAEAFBFAF2597809092029090930296
S1131A20A0909402B09095026091D8057091D90568
S1131A30882777FD8095982F0E94191F6B017C01E0
S1131A406091C405772767FD7095872F972F0E94B3
S1131A50191F25962CAD3DAD4EAD5FAD25970E9467
S1131A60B31DA50194010E94F91F9B01AC01C7019C
S1131A70B6010E94B41D0E94E61E8B01750164012B
S1131A80F7FAF094F7F8F09440909D0550909E0575
S1131A9060909F057090A0058091840090918500CE
S1131AA0A0918600B0918700898F9A8FAB8FBC8FED
S1131AB02091A9053091AA054091AB055091AC0540
S1131AC0C301B2010E94B41D298D3A8D4B8D5C8DEA
S1131AD00E94B31D9B01AC01C701B6010E94F91F0E
S1131AE02091BA053091BB054091BC055091BD05CC
S1131AF00E94B41D6F8F78A389A39AA38091BB021F
S1131B009091BC02A091BD02B091BE0229968CAF07
S1131B109DAFAEAFBFAF29979C01AD01C701B60120
S1131B200E94F91F9B01AC01C301B2010E94B41DC4
S1131B306BA37CA38DA39EA3209180003091810090
S1131B404091820050918300C501B4010E94F91FA5
S1131B5062966FAF629763967FAF639764968FAF19
S1131B60649765969FAF65978091B3029091B40294
S1131B70A091B502B091B6022D968CAF9DAFAEAFD9
S1131B80BFAF2D976091DB027091DC02882777FD4F
S1131B908095982F0E94191F2B013C016091D70555
S1131BA0772767FD7095872F972F0E94191F2D9611
S1131BB02CAD3DAD4EAD5FAD2D970E94B31D9B0185
S1131BC0AC01C501B4010E94F91F9B01AC01C30122
S1131BD0B2010E94B41D0E94E61E7E8F6D8F40905C
S1131BE0DE055090DF056090E0057090E1052091DE
S1131BF0DA053091DB054091DC055091DD05C30128
S1131C00B2010E94B41D298D3A8D4B8D5C8D0E94CA
S1131C10B31D9B01AC01C701B6010E94F91F2091BD
S1131C208F053091900540919105509192050E9445
S1131C30B41D698F7FA388A799A78091AF02909163
S1131C40B002A091B102B091B20261968CAF9DAF87
S1131C50AEAFBFAF61979C01AD01C701B6010E9451
S1131C60F91F9B01AC01C301B2010E94B41D6AA714
S1131C707BA78CA79DA7B801882777FD8095982F0F
S1131C800E94191F4B015C019B01AC016091C702CA
S1131C907091C8028091C9029091CA020E94B31D3A
S1131CA069AF7AAF8BAF9CAF472F382F292F862F80
S1131CB0942FA32FB22F8093B1059093B205A093D4
S1131CC0B305B093B40540907C0050907D006090C3
S1131CD07E0070907F00A3019201BF8DA8A1F9A19D
S1131CE0EAA16B2F7A2F8F2F9E2F0E94B41D162FDF
S1131CF0072FF82EE92E862F902FAF2DBE2D80931F
S1131D007D0590937E05A0937F05B0938005212FD8
S1131D10302F4A2F5B2FBF8DA8A1F9A1EAA16B2F09
S1131D207A2F8F2F9E2F0E947E1E362E272E8EA74F
S1131D309FA7382F292F862F922DA32FB22F809360
S1131D406B0590936C05A0936D05B0936E05212FE0
S1131D50302F4F2D5E2DBBA1ACA1FDA1EEA16B2FA9
S1131D607A2F8F2F9E2F0E947E1E68AB79AB8AAB91
S1131D709BAB472F382F292F862F942FA32FB22FB9
S1131D808093B7029093B802A093B902B093BA02B9
S1131D90AD8DBE8DBD01882777FD8095982F0E945B
S1131DA0191F6B017C019B01AC016091C30270910E
S1131DB0C4028091C5029091C6020E94B31D6DAF0A
S1131DC07EAF8FAF21969FAF2197472F382F292FB2
S1131DD0862F942FA32FB22F8093E6059093E705C7
S1131DE0A093E805B093E905A3019201B98DAFA1D1
S1131DF0F8A5E9A56B2F7A2F8F2F9E2F0E94B41D73
S1131E00162F072F782E692E862F902FA72DB62DEB
S1131E108093D3059093D405A093D505B093D605AC
S1131E20212F302F4A2F5B2FB98DAFA1F8A5E9A53B
S1131E306B2F7A2F8F2F9E2F0E947E1E6D8F7CAB6F
S1131E40482E592E472F862F942FA42DB52D8093DD
S1131E50ED059093EE05A093EF05B093F005212FC7
S1131E60302F472D562DBAA5ABA5FCA5EDA56B2F9C
S1131E707A2F8F2F9E2F0E947E1E6DAB7EAB8FAB71
S1131E8098AF472F382F292F862F942FA32FB22FA7
S1131E908093AB029093AC02A093AD02B093AE02D8
S1131EA09EA58FA5232D322D492F582FB9ADAAAD4C
S1131EB0FBADECAD6B2F7A2F8F2F9E2F0E94F91F55
S1131EC09B01AC01C501B4010E94B41D0E94E61E31
S1131ED07093D9056093D80578A969A99AA98BA9A3
S1131EE0272F362F492F582FB9ADAAADFBADECAD36
S1131EF06B2F7A2F8F2F9E2F0E94F91F9B01AC010D
S1131F0025966CAD7DAD8EAD9FAD25970E94B41D19
S1131F106093BF027093C0028093C1029093C20287
S1131F209EA58FA5232D322D492F582FBF8DA8A1F3
S1131F30F9A1EAA16B2F7A2F8F2F9E2F0E94F91FF0
S1131F409B01AC01BF8DA8A1F9A1EAA16B2F7A2F47
S1131F508F2F9E2F0E94B31D162F072FB82EA92E48
S1131F60862F902FAB2DBA2D8093BA059093BB0585
S1131F70A093BC05B093BD059EA58FA5232D322D3E
S1131F80492F582FBBA1ACA1FDA1EEA16B2F7A2F35
S1131F908F2F9E2F0E94F91F9B01AC01BBA1ACA106
S1131FA0FDA1EEA16B2F7A2F8F2F9E2F0E94B31DC0
S1131FB0762E672E282E392E862F962DA22DB32D00
S1131FC080939D0590939E05A0939F05B093A005D3
S1131FD0212F302F4B2D5A2DB8A9A9A9FAA9EBA965
S1131FE06B2F7A2F8F2F9E2F0E94F91F9B01AC011C
S1131FF0BBA1ACA1FDA1EEA16B2F7A2F8F2F9E2F39
S11320000E94B31D6093A9057093AA058093AB0544
S11320109093AC0562967FAD629763966FAD6397BC
S113202064969FAD649765968FAD6597272F362F7D
S1132030492F582F29966CAD7DAD8EAD9FAD299754
S11320400E94B41D4B015C01272D362D422D532DCA
S1132050B8A9A9A9FAA9EBA96B2F7A2F8F2F9E2FC4
S11320600E94F91F9B01AC01C501B4010E94B31D7C
S11320706093BB027093BC028093BD029093BE0236
S11320807D8D6CA9272F362F442D552DBDADAEADBA
S1132090FFAD2196EFAD21976B2F7A2F8F2F9E2FB7
S11320A00E94F91F9B01AC01C701B6010E94B41D37
S11320B00E94E61E7093DC026093DB027DA96EA988
S11320C09FA988AD272F362F492F582FBDADAEAD10
S11320D0FFAD2196EFAD21976B2F7A2F8F2F9E2F77
S11320E00E94F91F9B01AC012D966CAD7DAD8EADA8
S11320F09FAD2D970E94B41D6093B3027093B402F8
S11321008093B5029093B6027D8D6CA9272F362F4C
S1132110442D552DB98DAFA1F8A5E9A56B2F7A2FC4
S11321208F2F9E2F0E94F91F9B01AC01B98DAFA187
S1132130F8A5E9A56B2F7A2F8F2F9E2F0E94B31D30
S1132140E62EF72E082F192F862F9F2DA02FB12FA3
S113215080938F0590939005A0939105B093920579
S11321607D8D6CA9272F362F442D552DBAA5ABA5EF
S1132170FCA5EDA56B2F7A2F8F2F9E2F0E94F91FA0
S11321809B01AC01BAA5ABA5FCA5EDA56B2F7A2FDD
S11321908F2F9E2F0E94B31DA62EB72EC82ED92E88
S11321A0862F9B2DAC2DBD2D8093DE059093DF05EE
S11321B0A093E005B093E1052E2D3F2D402F512F24
S11321C0BDA9AEA9FFA9E8AD6B2F7A2F8F2F9E2F43
S11321D00E94F91F9B01AC01BAA5ABA5FCA5EDA516
S11321E06B2F7A2F8F2F9E2F0E94B31D6093DA05D9
S11321F07093DB058093DC059093DD0561962CAD2F
S11322003DAD4EAD5FAD61976296BFAD629763968B
S1132210AFAD63976496FFAD64976596EFAD659730
S11322206B2F7A2F8F2F9E2F0E94B41D2B013C0100
S11322302A2D3B2D4C2D5D2DBDA9AEA9FFA9E8ADDE
S11322406B2F7A2F8F2F9E2F0E94F91F9B01AC01B9
S1132250C301B2010E94B31D6093AF027093B00238
S11322608093B1029093B20280E493E00E94CF0A7B
S11322706093C9057093CA058093CB059093CC05F0
S11322808AE293E00E94CF0A6093B5057093B60585
S11322908093B7059093B80581E693E00E94CF0A36
S11322A024E630E040E050E00E9473203093AA021C
S11322B02093A902E0E8F2E0808191818E369105B5
S11322C00CF07AC0A6E8B2E08D919C91803B910518
S11322D00CF472C080918402909185028B3A91052E
S11322E00CF46AC080918202909183028B3A91052A
S11322F00CF462C08091A00281113EC080919F02C3
S113230081115CC081E080939F028093A00280E4ED
S113231093E00E94CF0A60937305709374058093D1
S11323207505909376058AE293E00E94CF0A609344
S113233095057093960580939705909398058EE57F
S113234091E00E944F1D60919505709196058091D2
S11323509705909198050E94731D8CE691E00E9468
S11323604F1D60917305709174058091750590916E
S113237076050E94911D22C0813001F580919F0253
S113238081111CC081E080939F021092A0021092E0
S113239073051092740510927505109276051092CB
S11323A0950510929605109297051092980583E76B
S11323B091E00E945F1D02C010929F02E0E8F2E0EB
S11323C0808191818E36910584F5A6E8B2E08D91E5
S11323D09C91803B91054CF18091840290918502FF
S11323E08E36910514F580918202909183028B3A86
S11323F09105DCF080919E0281110AC090919D02AA
S113240091114CC081E080939D0280939E0213C081
S1132410813009F043C080919D0281110CC081E09C
S113242080939D0210929E023BC010929D02809167
S11324309E02813099F5969A80918C0090918D003E
S11324408C36B7E09B0719F08C3F984011F4959AAD
S113245001C0959880919C028F5F80939C02843187
S113246009F4979A80919C02863109F49798809197
S11324709C02883209F4949A80919C028A3209F46D
S1132480949880919C028E3209F4949A80919C02D3
S1132490803349F4949810929C0205C0811103C0C2
S11324A082B38F7082BBAAE8B2E08D919C9181398E
S11324B0910524F083E08093060312C0EAE8F2E079
S11324C0808191818C38910544F08081918180399B
S11324D091051CF41092060303C082E08093060366
S11324E08091060390910503981721F091E0909351
S11324F0040302C010920403823009F4AAC120F438
S1132500882351F00C941E1B833009F474C3843067
S113251011F00C941E1BFAC080910403813021F445
S113252085E891E00E945F1DA0E8B2E02D913C9106
S1132530220F331FC901880F991F880F991F880F15
S1132540991F821B930B8E5D9E4FAA2797FDA09522
S1132550BA2FE0E6F0E080839183A283B3832091D5
S11325608202309183024FE0429FC001439F900D4D
S113257011248A569F4FAA2797FDA095BA2FE4E607
S1132580F0E080839183A283B3832091840230910D
S11325908502429FC001439F900D1124AA2797FDF5
S11325A0A095BA2FE8E6F0E080839183A283B383F9
S11325B0A6E8B2E02D913C91220F331FC901880F88
S11325C0991F880F991F880F991F821B930B8E5D8B
S11325D09E4FAA2797FDA095BA2FECE6F0E08083E2
S11325E09183A283B3838091880290918902873872
S11325F0910574F48091880290918902893791053C
S11326003CF086EE95E090938D0080938C0029C079
S113261080918802909189028639910574F48091A1
S1132620880290918902883891053CF08CE697E005
S113263090938D0080938C0014C0809188029091B7
S11326408902803A91056CF4809188029091890204
S11326508739910534F08CEF98E090938D00809346
S11326608C00A0E7B0E04D915D916D917C918091DB
S11326708C0090918D00A0E0B0E0481759076A07DC
S11326807B0774F4E0E7F0E080819181A281B3815B
S11326900A96A11DB11D80839183A283B3831DC0BB
S11326A0E0E7F0E0408151816281738184179507EE
S11326B0A607B70764F480819181A281B3810A9748
S11326C0A109B10980839183A283B38306C0E0E7A3
S11326D0F0E080839183A283B3838AEC98E0A0E046
S11326E0B0E08093740090937500A0937600B0934B
S11326F0770085E892E0A0E0B0E0809378009093C2
S11327007900A0937A00B0937B0098C7809104036A
S1132710813009F056C081E991E00E945F1DA0E676
S1132720B0E00D911D912D913C910093FB0210930B
S1132730FC022093FD023093FE02E4E6F0E04081C7
S11327405181628173814093F7025093F802609340
S1132750F9027093FA02A8E6B0E0CD90DD90ED9016
S1132760FC90C092FF02D0920003E0920103F09229
S11327700203ECE6F0E080819181A281B381809331
S1132780F3029093F402A093F502B093F602E8E604
S1132790F0E0C082D182E282F382E0E6F0E00083DE
S11327A0118322833383E4E6F0E040835183628320
S11327B07383ECE6F0E080839183A283B38380E0AB
S11327C004C08091990288321CF48F5F809399022F
S11327D0809199028832B9F486EA91E00E945F1DE3
S11327E0E4E6F0E080819181A281B3818C509E4F18
S11327F0AF4FBF4F80839183A283B38380919902AB
S11328008F5F8093990280919902982F9952903109
S113281018F48F5F8093990280919902893309F0AB
S11328200DC786EA91E00E945F1DE4E6F0E0808136
S11328309181A281B381845F9140A109B109808310
S11328409183A283B383809199028F5F80939902CD
S1132850F5C680910403813009F0EAC08FEA91E063
S11328600E945F1D8091C7059091C80590938A05C9
S1132870809389059093F2028093F1028091F5058B
S11328809091F6059093EB058093EA056091DB0245
S11328907091DC02882777FD8095982F0E94191F7C
S11328A06093D7027093D8028093D9029093DA028E
S11328B060938B0570938C0580938D0590938E05A2
S11328C08091D8059091D9059093A2058093A10594
S11328D080E090E0A0E7B1E48093F1059093F205E5
S11328E0A093F305B093F405E8E6F0E080819181CC
S11328F0A281B3818093FF0290930003A09301030C
S1132900B0930203E4E6F0E080819181A281B38177
S11329108093F7029093F802A093F902B093FA021D
S1132920E0E6F0E080819181A281B3818093FB0293
S11329309093FC02A093FD02B093FE02ECE6F0E05B
S113294080819181A281B3818093F3029093F402F8
S1132950A093F502B093F6021092F0021092EF02E7
S11329601092EE021092ED021092EC021092EB0221
S11329701092990510929A0510929B0510929C054D
S11329801092CD051092CE051092CF051092D0056D
S113299010929405109293051092C6051092C505E5
S11329A01092DE021092DD021092D3021092D40231
S11329B01092D5021092D6021092CF021092D00239
S11329C01092D1021092D2021092CB021092CC0239
S11329D01092CD021092CE028EEB91E00E944F1D18
S11329E06091890570918A05882777FD8095982FD5
S11329F00E94731D8BED91E00E944F1D6091EA05CA
S1132A007091EB05882777FD8095982F0E94731DA0
S1132A108BED91E00E944F1D6091F1057091F205DC
S1132A208091F3059091F4050E94E61E0E94911D89
S1132A30A6E8B2E02D913C91220F331FC901880F03
S1132A40991F880F991F880F991F821B930B8E5D06
S1132A509E4FAA2797FDA095BA2FECE6F0E080835D
S1132A609183A283B3832091C405332727FD309536
S1132A70C901880F991F880F991F880F991F821BFE
S1132A80930BAA2797FDA095BA2F40E552E0FA01CF
S1132A9080839183A283B3832091D705332727FDB5
S1132AA03095C901880F991F880F991F880F991FA6
S1132AB0821B930BAA2797FDA095BA2F2CE432E032
S1132AC0F90180839183A283B3838091DF029927E4
S1132AD087FD9095BC01660F771F660F771F860FE1
S1132AE0971FAA2797FDA095BA2F0F2EF4E5EF2E76
S1132AF0F2E0FF2EF02DF70180839183A283B3834C
S1132B00E0918402F0918502DA014D915D916D911D
S1132B107C911FE01E9FC0011F9F900D1124AA27C6
S1132B2097FDA095BA2F841B950BA60BB70BE8E66F
S1132B30F0E080839183A283B383A0918202B09159
S1132B408302F90140815181628173811A9FC0011E
S1132B501B9F900D11248A569F4FAA2797FDA0957D
S1132B60BA2F841B950BA60BB70BE4E6F0E0808329
S1132B709183A283B383A6E8B2E02D913C91F7013F
S1132B804081518162817381220F331FC901880FF3
S1132B90991F880F991F880F991F821B930B8E5DB5
S1132BA09E4FAA2797FDA095BA2F840F951FA61FA5
S1132BB0B71FECE6F0E080839183A283B383A0E89F
S1132BC0B2E02D913C91220F331FC901880F991F48
S1132BD0880F991F880F991F821B930B8E5D9E4F40
S1132BE0AA2797FDA095BA2FE0E6F0E080839183B1
S1132BF0A283B38323C580910403813009F0FCC010
S1132C008FED91E00E945F1D8091C7059091C805EA
S1132C1090938A05809389059093F2028093F10240
S1132C208091A9029091AA029093EB058093EA0502
S1132C306091DB027091DC02882777FD8095982FE4
S1132C400E94191F6093D7027093D8028093D9020F
S1132C509093DA0260938B0570938C0580938D05B5
S1132C6090938E058091D8059091D9059093A205F3
S1132C708093A1056091870570918805882777FD69
S1132C808095982F0E94191F6093F1057093F205A7
S1132C908093F3059093F405E8E6F0E08081918158
S1132CA0A281B3818093FF0290930003A093010358
S1132CB0B0930203E4E6F0E080819181A281B381C4
S1132CC08093F7029093F802A093F902B093FA026A
S1132CD0E0E6F0E080819181A281B3818093FB02E0
S1132CE09093FC02A093FD02B093FE02ECE6F0E0A8
S1132CF080819181A281B3818093F3029093F40245
S1132D00A093F502B093F6021092F0021092EF0233
S1132D101092EE021092ED021092EC021092EB026D
S1132D201092990510929A0510929B0510929C0599
S1132D301092CD051092CE051092CF051092D005B9
S1132D4010929405109293051092C6051092C50531
S1132D501092DE021092DD021092D3021092D4027D
S1132D601092D5021092D6021092CF021092D00285
S1132D701092D1021092D2021092CB021092CC0285
S1132D801092CD021092CE0263E085E00E943304DB
S1132D900E94C3040E9431050E94EF040E946B0448
S1132DA08EEB91E00E944F1D6091890570918A0518
S1132DB0882777FD8095982F0E94731D8BED91E0F5
S1132DC00E944F1D6091EA057091EB05882777FDFD
S1132DD08095982F0E94731D8BED91E00E944F1DEA
S1132DE06091F1057091F2058091F3059091F405DD
S1132DF00E94E61E0E94911D80918C0290918D028A
S1132E008B5991094E974CF48091F1029091F20202
S1132E1090938A058093890509C08091F10290916D
S1132E20F2020A9690938A05809389050091D80549
S1132E301091D9058091A1059091A205081B190B49
S1132E401093940500939305A090C505B090C60512
S1132E50A00EB11EB092C605A092C505C090920204
S1132E60D0909302E0909402F0909502B801660F1E
S1132E70771FC801880F991F880F991F880F991F02
S1132E80680F791F882777FD8095982F0E94191F56
S1132E902B013C01B501660F771FAA0CBB1CAA0CC1
S1132EA0BB1CAA0CBB1C6A0D7B1D882777FD809573
S1132EB0982F0E94191FA70196010E94F91F9B01D8
S1132EC0AC01C301B2010E94B41D4B015C01A70116
S1132ED0960160E070E0CB010E947E1E9B01AC0174
S1132EE0C501B4010E94B41D0E94E61E2CE632E026
S1132EF0D9016D937D938D939C9313971093DE0268
S1132F000093DD024091C405552747FD5095CA0141
S1132F10880F991F880F991F880F991F841B950B81
S1132F20AA2797FDA095BA2FE0E5F2E0808391836C
S1132F30A283B383D9010D911D912D913C914081C0
S1132F405181628173818091FF0290910003A0916D
S1132F500103B0910203801B910BA20BB30B841BE2
S1132F60950BA60BB70BE8E6F0E080839183A28370
S1132F70B38380819181A281B381893B9B40A10568
S1132F80B1054CF088EB9BE0A0E0B0E08083918336
S1132F90A283B38313C0E8E6F0E080819181A2812B
S1132FA0B381883E9340A105B10544F488EE93E0D3
S1132FB0A0E0B0E080839183A283B38380918802F0
S1132FC0909189028738910584F5809188029091C7
S1132FD08902893791054CF180910303813029F5E9
S1132FE0109203038091A9029091AA029093EB0599
S1132FF08093EA058CEE91E00E944F1D6091EA05F2
S11330007091EB05882777FD8095982F0E94911D7C
S113301063E085E00E9433040E94C3040E943105EA
S11330200E94EF040E946B04A4C0809188029091D6
S11330308902803A91050CF09CC08091880290919D
S11330408902873991050CF494C08091030381119E
S113305090C081E080930303C0907305D090740501
S1133060E0907505F0907605C0927705D0927805CA
S1133070E0927905F0927A058091950590919605F4
S1133080A0919705B09198058093C0059093C105D0
S1133090A093C205B093C3050091C9051091CA0558
S11330A02091CB053091CC05C01AD10AE20AF30A6B
S11330B0C0926F05D0927005E0927105F09272058E
S11330C00091B5051091B6052091B7053091B8056A
S11330D0BC01CD01601B710B820B930B6093A102A9
S11330E07093A2028093A3029093A4020E94191FDA
S11330F04B015C01C701B6010E94191FA50194018F
S11331000E94271E20EE3EE245E652E40E94F91F8B
S11331100E94E61E77232CF07093A8026093A70206
S113312006C068597E4F7093A8026093A7028091ED
S1133130A7029091A8029093EB058093EA058AEF89
S113314091E00E944F1D6091EA057091EB0588277C
S113315077FD8095982F0E94911D63E085E00E9481
S113316033040E94C3040E9431050E9405050E9495
S113317081042091A9023091AA028091EA059091DC
S1133180EB05281B390BC90188599E4F843B9105D7
S11331902CF0309386052093850504C09093860512
S11331A08093850500918505109186058091A5027F
S11331B09091A602800F911F9093A6028093A5027E
S11331C0C0909202D0909302E0909402F090950205
S11331D0B801882777FD8095982F0E94191F4B010D
S11331E05C018091A7059091A805B801681B790B33
S11331F0882777FD8095982F0E94191FA7019601B3
S11332000E94F91F9B01AC01C501B4010E94B41DC9
S11332104B015C01B7FAB094B7F8B09480928B0577
S113322090928C05A0928D05B0928E051093A805FE
S11332300093A70520E030E040E251ECC501B40161
S11332400E947A1E88236CF480E090E0A0E2B1EC46
S113325080938B0590938C05A0938D05B0938E0578
S113326016C020E030E040E251E4C501B4010E9400
S1133270EE1F181664F480E090E0A0E2B1E48093BD
S11332808B0590938C05A0938D05B0938E0560916A
S1133290DB027091DC02882777FD8095982F0E94CD
S11332A0191F9B01AC016091D7027091D8028091E3
S11332B0D9029091DA020E94B31D262E372E082FD0
S11332C0192F862F932DA02FB12F8093D302909383
S11332D0D402A093D502B093D6022091CF023091AC
S11332E0D0024091D1025091D202622D732D802FD1
S11332F0912F0E94B41D862E972EA82EB92E862FAC
S1133300992DAA2DBB2D8093CF029093D002A09328
S1133310D102B093D20220E030E040E251E4622DC9
S1133320732D802F912F0E94F91F2B013C0120E067
S113333030E040E251E4682D792D8A2D9B2D0E94C6
S1133340F91F9B01AC01C701B6010E94F91F9B0143
S1133350AC01C301B2010E94B41D4B015C01222DDA
S1133360332D402F512F6091CB027091CC0280916C
S1133370CD029091CE020E94B31DA70196010E9436
S11333807E1E20E030E040E450E40E94F91F9B01DF
S1133390AC01C501B4010E94B41D0E94E61EE8E61A
S11333A0F2E06083718382839383822D932DA02F17
S11333B0B12F8093CB029093CC02A093CD02B09313
S11333C0CE028091D705992787FD9095AC01440FD3
S11333D0551F440F551F440F551F481B590B662793
S11333E057FD6095762FACE4B2E04D935D936D93F9
S11333F07C93139700811181228133814D915D91DA
S11334006D917C918091F7029091F802A091F9025C
S1133410B091FA02800F911FA21FB31F841B950B5A
S1133420A60BB70BE4E6F0E080839183A283B38319
S113343080819181A281B381893B9B40A105B10523
S11334404CF088EB9BE0A0E0B0E080839183A28302
S1133450B38313C0E4E6F0E080819181A281B3815B
S1133460883E9340A105B10544F488EE93E0A0E0C2
S1133470B0E080839183A283B3838091DF02992794
S113348087FD90959C01220F331F220F331F820F5B
S1133490931FAA2797FDA095BA2FE4E5F2E0808355
S11334A09183A283B383408151816281738180912E
S11334B0F3029091F402A091F502B091F602840F08
S11334C0951FA61FB71FECE6F0E080839183A283CB
S11334D0B3836091870570918805882777FD80956F
S11334E0982F0E94191F9B01AC016091F105709106
S11334F0F2058091F3059091F4050E94B31D762E98
S1133500072F182F292E862F902FA12FB22D8093AD
S1133510990590939A05A0939B05B0939C052091DF
S1133520CD053091CE054091CF055091D005672D42
S1133530702F812F922D0E94B41D362E472E582EA7
S1133540692E862F942DA52DB62D8093CD059093AD
S1133550CE05A093CF05B093D0056091FB02709186
S1133560FC028091FD029091FE020E94191F4B0102
S11335705C0120E030E040EA50E4672D702F812F99
S1133580922D0E94F91F9B01AC01C501B4010E9458
S1133590B41D4B015C0120E030E040E450E4632DB5
S11335A0742D852D962D0E94F91F9B01AC01C70136
S11335B0B6010E94F91F9B01AC01C501B4010E9430
S11335C0B41D0E94E61EA0E6B0E06D937D938D933A
S11335D09C9313978D919D910D90BC91A02D893B47
S11335E09B40A105B1055CF088EB9BE0A0E0B0E056
S11335F0E0E6F0E080839183A283B38313C0E0E626
S1133600F0E080819181A281B3818A3E9640A10538
S1133610B10544F48AEE96E0A0E0B0E080839183A3
S1133620A283B383872D902FA12FB22D8093E10223
S11336309093E202A093E302B093E40280919A0291
S11336408F5F813219F080939A02AFC010929A0270
S11336508091A002813059F461E085E00E94330436
S11336600E9473050E9481040E9489050AC061E0DA
S113367085E00E9433040E941B050E9431050E94CC
S1133680D20580919E02813059F460E085E00E9469
S113369033040E9431050E941B050E94D2050AC012
S11336A060E085E00E9433040E9431050E94970483
S11336B00E94970480919B02813538F061E070E0AC
S11336C08EE090E00E94E8052AC08D3338F061E076
S11336D070E08EE090E00E94540621C0893238F0F8
S11336E061E070E08EE090E00E94C00618C08F3167
S11336F038F061E070E08EE090E00E942C070FC08B
S1133700803138F061E070E08EE090E00E9498072C
S113371006C061E070E08EE090E00E9404088091B1
S11337200603811119C062E085E00E9433040E94FF
S11337306B040E94D9040E945D050E94D20563E0D7
S113374085E00E9433040E94D2050E94D2050E94A3
S1133750D2050E94D20529C0833069F462E085E075
S11337600E9433040E94C3040E9431050E94EF04A6
S11337700E946B041AC08230C1F462E085E00E94AA
S113378033040E946B040E9455040E9405050E94A4
S1133790470563E085E00E9433040E94D2050E943D
S11337A0D2050E94D2050E94D205A0E6B0E06D9138
S11337B07D918D919C910E94731D8CE092E00E94FA
S11337C04F1DE4E6F0E060817181828193810E9463
S11337D0731D8CE092E00E944F1DA8E6B0E06D914D
S11337E07D918D919C910E94731D8CE092E00E94CA
S11337F04F1DECE6F0E060817181828193810E942B
S1133800731D8CE092E00E944F1DA0E7B0E06D9123
S11338107D918D919C910E94731D8CE092E00E9499
S11338204F1D6091DB027091DC02882777FD809543
S1133830982F0E94731D8CE092E00E944F1D6091AE
S1133840D8057091D905882777FD8095982F0E9417
S1133850731D8CE092E00E944F1D6091A90270914B
S1133860AA02882777FD8095982F0E94731D8CE00B
S113387092E00E944F1D6091C7057091C80588278A
S113388077FD8095982F0E94731D8CE092E00E9432
S11338904F1D6091870570918805882777FD809575
S11338A0982F0E94731D8CE092E00E944F1D60913E
S11338B0890570918A05882777FD8095982F0E9445
S11338C0731D8CE092E00E944F1D60918B057091F6
S11338D08C0580918D0590918E050E94E61E0E94B4
S11338E0731D8CE092E00E944F1D6091A1057091C0
S11338F0A205882777FD8095982F0E94731D8CE080
S113390092E00E944F1D6091F1057091F205809143
S1133910F3059091F4050E94E61E0E94731D8091A8
S11339204003882341F18CE092E00E944F1D84E122
S113393093E00E944F1D8CE092E00E944F1D80E4B2
S113394093E00E944F1D8CE092E00E944F1D8AE29A
S113395093E00E944F1D8CE092E00E944F1D81E68F
S113396093E00E944F1D8CE092E00E944F1D8CE179
S113397094E00E944F1D8CE092E00E945F1D8091B4
S113398006038093050320E832E0E9E5F5E031839E
S11339902083A8950C94780BF89488E98AB986E872
S11339A080BD10BC8CE089B978948CB15F99FDCF4F
S11339B008951F920F920FB60F9211242F938F9395
S11339C09F93EF93FF938CB180936A0410926B04DE
S11339D08093690410920803809169048432A1F4ED
S11339E0E09107038091F7052BE0E202F001112436
S11339F0E80FF11D87FDFA95E459FB4F10821092F0
S1133A00F705109207033DC0809169048C32A9F434
S1133A10809107039091F7052BE08202F0011124B5
S1133A20E90FF11D97FDFA95E459FB4F10821092AE
S1133A30F7058F5F8093070324C0809169048E3259
S1133A4001F1809169048A3021F481E080930803B4
S1133A5018C0809169048A30A1F0E0910703809135
S1133A60F705909169042BE0E202F0011124E80FBC
S1133A70F11D87FDFA95E459FB4F90838F5F809386
S1133A80F705FF91EF919F918F912F910F900FBEAA
S1133A900F901F9018955D9BFECF8CB90895CF931E
S1133AA0DF93EC018881882339F0219690E00E940D
S1133AB04B1D89918111FACFDF91CF910895CF9356
S1133AC0DF93EC018881882339F0219690E00E94ED
S1133AD04B1D89918111FACF8EE092E00E944F1D17
S1133AE0DF91CF910895CF93DF93CDB7DEB76F9772
S1133AF00FB6F894DEBF0FBECDBF2AE030E0AE01B2
S1133B004F5F5F4F0E94B220CE0101960E944F1D6D
S1133B106F960FB6F894DEBF0FBECDBFDF91CF9185
S1133B200895CF93DF93CDB7DEB76F970FB6F894B0
S1133B30DEBF0FBECDBF2AE030E0AE014F5F5F4F66
S1133B400E94B220CE0101960E944F1D8EE092E0A9
S1133B500E944F1D6F960FB6F894DEBF0FBECDBF07
S1133B60DF91CF9108955058BB27AA270ED0FCC1EE
S1133B70EDD130F0F2D120F031F49F3F11F41EF476
S1133B80BDC10EF4E095E7FBB3C1E92FFED180F38C
S1133B90BA17620773078407950718F071F49EF546
S1133BA016C20EF4E0950B2EBA2FA02D0B01B9010D
S1133BB090010C01CA01A0011124FF27591B99F09F
S1133BC0593F50F4503E68F11A16F040A22F232FAB
S1133BD0342F4427585FF3CF469537952795A795FB
S1133BE0F0405395C9F77EF41F16BA0B620B730BA2
S1133BF0840BBAF09150A1F0FF0FBB1F661F771F13
S1133C00881FC2F70EC0BA0F621F731F841F48F4C7
S1133C10879577956795B795F7959E3F08F0B3CF4D
S1133C209395880F08F09927EE0F97958795089537
S1133C308DD158F080E891E009F49EEF8ED128F000
S1133C4040E851E059F45EEF09C058C1C0C1E92F02
S1133C50E0789BD168F3092E052AC1F326173707AC
S1133C604807590738F00E2E07F8E02569F0E025DB
S1133C70E0640AC0EF6307F8009407FADB01B901B6
S1133C809D01DC01CA01AD01EF9347D06DD10AD08B
S1133C905F91552331F02BED3FE049E450FD49ECB1
S1133CA063CF0895DF93DD27B92FBF7740E85FE343
S1133CB01616170648075B0710F4D92F93D19F9364
S1133CC08F937F936F93F8D1E4E5F0E01AD14CD150
S1133CD02F913F914F915F9198D1DD2349F09058F6
S1133CE0A2EA2AED3FE049EC5FE3D0785D274DDF9F
S1133CF0DF913AC1D9D008F481E008950CD034C1E1
S1133D002CD140F023D130F021F45F3F19F0F0C002
S1133D1051115EC1F3C039D198F39923C9F35523E6
S1133D20B1F3951B550BBB27AA27621773078407AA
S1133D3038F09F5F5F4F220F331F441FAA1FA9F360
S1133D4033D00E2E3AF0E0E830D091505040E69552
S1133D50001CCAF729D0FE2F27D0660F771F881FB3
S1133D60BB1F261737074807AB07B0E809F0BB0BA2
S1133D70802DBF01FF2793585F4F2AF09E3F5105C6
S1133D8068F0B6C025C15F3FECF3983EDCF386953E
S1133D9077956795B795F7959F5FC9F7880F911D3C
S1133DA09695879597F90895E1E0660F771F881F28
S1133DB0BB1F621773078407BA0720F0621B730BDB
S1133DC0840BBA0BEE1F88F7E095089504D068942D
S1133DD0B111FEC00895E1D088F09F5790F0B92F3B
S1133DE09927B751A0F0D1F0660F771F881F991F4C
S1133DF01AF0BA95C9F712C0B13081F0E8D0B1E039
S1133E000895E5C0672F782F8827B85F39F0B93F48
S1133E10CCF3869577956795B395D9F73EF490954D
S1133E208095709561957F4F8F4F9F4F0895E894CB
S1133E3009C097FB3EF490958095709561957F4FEE
S1133E408F4F9F4F9923A9F0F92F96E9BB2793959C
S1133E50F695879577956795B795F111F8CFFAF4AC
S1133E60BB0F11F460FF1BC06F5F7F4F8F4F9F4FDD
S1133E7016C0882311F096E911C0772321F09EE83B
S1133E80872F762F05C0662371F096E8862F70E0A1
S1133E9060E02AF09A95660F771F881FDAF7880F7B
S1133EA09695879597F90895990F0008550FAA0BD1
S1133EB0E0E8FEEF16161706E807F907C0F0121639
S1133EC01306E407F50798F0621B730B840B950B3C
S1133ED039F40A2661F0232B242B252B21F4089591
S1133EE00A2609F4A140A6958FEF811D811D08952E
S1133EF097F99F6780E870E060E008959FEF80EC99
S1133F000895DF93CF931F930F93FF92EF92DF9265
S1133F107B018C01689405C0DA2EEF0176D0FE0196
S1133F20E894A5912591359145915591AEF3EF0112
S1133F302CDEFE019701A801DA9479F7DF90EF9067
S1133F40FF900F911F91CF91DF91089500240A945F
S1133F501616170618060906089500240A94121660
S1133F601306140605060895092E0394000C11F493
S1133F70882352F0BB0F40F4BF2B11F460FF04C040
S1133F806F5F7F4F8F4F9F4F089557FD9058440F99
S1133F90551F59F05F3F71F04795880F97FB991FA4
S1133FA061F09F3F79F08795089512161306140661
S1133FB0551FF2CF4695F1DF08C0161617061806EE
S1133FC0991FF1CF86957105610508940895E894C9
S1133FD0BB2766277727CB0197F9089565DF08F497
S1133FE08FEF08959B01AC0160E070E080E89FE3EF
S1133FF085CE0BD0B9CFAADF28F0AFDF18F0952318
S113400009F076CF7BCF1124E3CFBFDFA0F3959FD8
S1134010D1F3950F50E0551F629FF001729FBB27AB
S1134020F00DB11D639FAA27F00DB11DAA1F649F57
S11340306627B00DA11D661F829F2227B00DA11D0A
S1134040621F739FB00DA11D621F839FA00D611D90
S1134050221F749F3327A00D611D231F849F600DB1
S1134060211D822F762F6A2F11249F5750408AF0EA
S1134070E1F088234AF0EE0FFF1FBB1F661F771F76
S1134080881F91505040A9F79E3F510570F030CFE2
S11340909FCF5F3FECF3983EDCF386957795679569
S11340A0B795F795E7959F5FC1F7FE2B880F911D94
S11340B09695879597F908959B01AC019ACF97FB44
S11340C0072E16F4009407D077FD09D00E9495209E
S11340D007FC05D03EF4909581959F4F0895709507
S11340E061957F4F0895A1E21A2EAA1BBB1BFD0107
S11340F00DC0AA1FBB1FEE1FFF1FA217B307E407C3
S1134100F50720F0A21BB30BE40BF50B661F771F1A
S1134110881F991F1A9469F76095709580959095FA
S11341209B01AC01BD01CF010895AA1BBB1B51E14A
S113413007C0AA1FBB1FA617B70710F0A61BB70B13
S1134140881F991F5A95A9F780959095BC01CD01B8
S11341500895FB01DC018D91019080190110D9F3C0
S1134160990B0895FA01CF93FF93EF93223044F112
S1134170253234F5C22FE894CA3049F497FB3EF453
S113418090958095709561957F4F8F4F9F4F2C2F01
S1134190332744275527FF93EF930E947320EF9111
S11341A0FF91605D6A330CF0695D6193B901CA01E6
S11341B0605070408040904051F716F4CDE2C193B6
S11341C010828F919F91CF910C94E620DC01FC0129
S11341D0672F71917723E1F7329704C07C916D9337
S11341E070836291AE17BF07C8F30895F894FFCFA8
S11341F0CA080000CA080000CA080000CA08000073
S1134200E6050000CA080000850200000AD7A33CA6
S11342100AD7A33B0AD7A33B9A99993EE605616363
S1134220632073746172746564006261726F2073D9
S1134230746172746564006261726F5F6F66667345
S113424065742000414443206F6B004144435F6F19
S113425066667365743A20006779726F20737461BF
S113426072746564004779726F204F666673657473
S11342703A2000703A2000713A2000723A20004738
S113428079726F2043616C20436F6D706C65746547
S113429000536572766F54696D65725374617274FC
S11342A06564005461736B54696D65725374617213
S11342B07465640057646F6744697361626C005786
S11342C0646F675273740050777255705273740040
S11342D04272776E4F7574527374004578745273DA
S11342E074004750524D4300475047474100486FC0
S11342F06D6520536574204C61742000204C6F6EF2
S1134300672000486F6D652053657420436C6561B8
S11343107265642000444952454354204354524C2E
S1134320002A54554E494E47204C415420494D5083
S1134330554C53452A00537465702041696C004400
S1134340616D70656420434F4E54524F4C00476F6B
S1134350616C20416C74202D2048656164696E672E
S1134360202D2053706565643A2000202D200048DC
S11343704F4C4420434F4E54524F4C0048656164A7
S1134380696E6720486F6C64200052657475726EA4
S113439020486F6D65204865616420003B000D0A6C
S10543A0000017
S9030000FC
