:100000000C9441000C94A2060C945E000C945E00CB
:100010000C945E000C94D1060C945E000C94520576
:100020000C945E000C945E000C94FC060C945E0034
:100030000C945E000C9475150C945E000C945E009C
:100040000C945E000C945E000C945E000C945E00B8
:100050000C945E00084AD73B3BCE016E84BCBFFDCA
:10006000C12F3D6C74319ABD56833DDA3D00C77F88
:1000700011BED9E4BB4C3E916BAAAABE0000008021
:100080003F0011241FBECFE5D8E0DEBFCDBF11E099
:10009000A0E6B0E0E8E2F3E302C005900D92A23FD3
:1000A000B107D9F724E0A2EFB1E001C01D92AC3F47
:1000B000B207E1F70E945C070C9492190C940000BF
:1000C000CF93DF93D82FC62F0E94DF0482E390E006
:1000D0000E94FB048D2F90E00E9406058C2F90E07B
:1000E0000E9411050E942C05DF91CF91089567E4CD
:1000F00080E20E94600060E183E20E94600086E886
:1001000090E00E94FB1508950F931F93CF93DF9308
:10011000EC010E94DF0482E390E00E94FB0488EA85
:1001200090E00E9406050E94E90483E390E00E94AB
:10013000EF040E942405809302020E94240580930C
:1001400003020E9424058093FC010E9424058093F1
:10015000FD010E9424058093F6010E941C058093F6
:10016000F7010E942C0580910302992787FD909545
:10017000982F882720910202822B95958795959537
:10018000879595958795959587959093010280938E
:1001900000020091FD01112707FD1095102F002787
:1001A0002091FC01022B159507951595079515953E
:1001B0000795159507951093FB010093FA0140915F
:1001C000F701552747FD5095542F44272091F601FC
:1001D000422B559547955595479555954795559576
:1001E00047955093F5014093F401880F991F909320
:1001F000FF018093FE01000F111F1093F90100937E
:10020000F801440F551F5093F3014093F201AA27C0
:1002100097FDA095BA2F88839983AA83BB83222751
:1002200017FD2095322F0C831D832E833F83662775
:1002300057FD6095762F488759876A877B87CE015F
:10024000DF91CF911F910F910895CF93DF93D82F16
:10025000C62F0E94DF0480EC90E00E94FB048D2FEB
:1002600090E00E9406058C2F90E00E9411050E94EC
:100270002C05DF91CF91089569EB86E20E9425015C
:1002800060E889E20E94250166EC84E10E94250174
:100290006BE585E10E94250167E083E10E9425016D
:1002A00082E990E00E94FB150895CF930E94DF043D
:1002B00080EC90E00E94FB0480E090E00E94060544
:1002C0000E94E90481EC90E00E94EF040E941C056A
:1002D000C82F0E942C0580910A0232C0CE3E81F5C3
:1002E0000E94DF0480EC90E00E94FB0481E090E03B
:1002F0000E9406050E94E90481EC90E00E94EF0450
:100300000E94240580930D020E94240580930C0214
:100310000E941C0580930B020E942C0520910D0267
:10032000332727FD3095322F222780910C02282B6E
:10033000309307022093060281E080930A023FC0B7
:10034000882361F2CE3EB9F50E94DF0480EC90E094
:100350000E94FB0481E090E00E9406050E94E904EF
:1003600081EC90E00E94EF040E94240580930D022E
:100370000E94240580930C020E941C0580930B02AE
:100380000E942C0520910D02332727FD3095322F36
:10039000222780910C02282B30930702209306021B
:1003A0008091080290910902281B390B30930502B5
:1003B0002093040204C02091040230910502822F90
:1003C000932FCF9108950E94550190930902809335
:1003D00008028FE990E00E94EB156091080270918D
:1003E0000902882777FD8095982F0E942D16089581
:1003F0001ABA80E487B987E886B98CEA90E00E944F
:10040000FB150895CF93DF9383E087B9369A369929
:10041000FECFC4B1D0E0D0931902C093180225B129
:10042000922F80E0C82BD92BD0931902C0931802C9
:10043000BE01660F771F6C0F7D1F6A5F75408827AE
:1004400077FD8095982F0E94B517609312027093E4
:1004500013028093140290931502809110029091E0
:100460001102019751F480910E0290910F02C81B66
:10047000D90BD0931702C09316028C2F9D2FDF91BA
:10048000CF910895CF93DF93C2E3D0E00E940202A0
:1004900020910E0230910F02820F931F90930F0252
:1004A00080930E02219791F762E370E00E94FB189F
:1004B00070930F0260930E0283EB90E00E94EB15A5
:1004C00060910E0270910F02882777FD8095982F1A
:1004D0000E942D1681E090E090931102809310020B
:1004E0002FE986E891E0215080409040E1F700C07C
:1004F0000000DF91CF910895CF93DF93D82FC62FBF
:100500000E94DF0486ED90E00E94FB048D2F90E0B6
:100510000E9406058C2F90E00E9411050E942C0578
:10052000DF91CF9108956FE080E20E947C0260E24B
:1005300081E20E947C0260E184E20E947C0280EC05
:1005400090E00E94FB1508958F929F92AF92BF9208
:10055000CF92DF92EF92FF920F931F93CF93DF938F
:10056000EC010E94DF0486ED90E00E94FB0488EA23
:1005700090E00E9406050E94E90487ED90E00E9449
:10058000EF040E94240580932E020E94240580938C
:100590002F020E94240580932A020E942405809342
:1005A0002B020E942405809326020E941C05809342
:1005B00027020E942C0560912F02772767FD709516
:1005C000762F662780912E02682B70932D02609300
:1005D0002C02E0902B02FF24E7FCF094FE2CEE248A
:1005E00080912A02E82AF0922902E09228020091E2
:1005F0002702112707FD1095102F00278091260252
:10060000082B1093250200932402882777FD8095FC
:10061000982F0E94B51729E23CE54FE05CE30E9469
:1006200095180E9482174B015C01B701882777FD5E
:100630008095982F0E94B51729E23CE54FE05CE3D6
:100640000E9495180E9482176B017C01B8018827CF
:1006500077FD8095982F0E94B51729E23CE54FE081
:100660005CE30E9495180E94821720911A02309133
:100670001B022130310521F5009120021091210249
:10068000222717FD2095322F801A910AA20AB30A59
:1006900000911E0210911F02222717FD2095322F74
:1006A000C01AD10AE20AF30A00911C0210911D023D
:1006B000222717FD2095322F601B710B820B930BA5
:1006C00088829982AA82BB82CC82DD82EE82FF82FE
:1006D000688779878A879B87CE01DF91CF911F91A9
:1006E0000F91FF90EF90DF90CF90BF90AF909F90D1
:1006F0008F900895CF93DF93CDB7DEB72C970FB6C9
:10070000F894DEBF0FBECDBF2091220230912302AC
:100710002A303105ACF52F5F3F4F309323022093F1
:100720002202CE0101960E94A40220912002309163
:10073000210289819A81820F931F909321028093D5
:10074000200220911E0230911F028D819E81820F16
:10075000931F90931F0280931E0220911C023091E0
:100760001D0289859A85820F931F90931D028093A5
:100770001C0220912202309123022A3031055CF2C2
:100780008091200290912102B9010E94FB18709380
:1007900021026093200280911E0290911F02B901F4
:1007A0000E94FB1870931F0260931E0280911C022E
:1007B00090911D02B9010E94FB1870931D02609375
:1007C0001C028DEC90E00E94FB158BED90E00E94E6
:1007D000EB156091200270912102882777FD8095AA
:1007E000982F0E942D168FED90E00E94EB156091DE
:1007F0001E0270911F02882777FD8095982F0E9416
:100800002D1683EE90E00E94EB1560911C02709112
:100810001D02882777FD8095982F0E942D162FE9BD
:1008200086E891E0215080409040E1F700C0000050
:1008300081E090E090931B0280931A0287EE90E093
:100840000E94FB152C960FB6F894DEBF0FBECDBFED
:10085000DF91CF910895CF93DF93D82FC62F0E94B9
:10086000DF048CE390E00E94FB048D2F90E00E9457
:1008700006058C2F90E00E9411050E942C05DF9147
:10088000CF91089560E082E00E942B0489EF90E010
:100890000E94FB150895CF92DF92EF92FF92CF93C3
:1008A000DF930E94DF048CE390E00E94FB0483E06E
:1008B00090E00E9406050E94E9048DE390E00E940A
:1008C000EF040E94240580933D020E94240580933A
:1008D0003C020E942405809335020E9424058093E7
:1008E00034020E942405809339020E941C058093E3
:1008F00038020E942C0560913D02772767FD7095B4
:10090000762F662780913C02682B70933B026093A0
:100910003A02C0913902DD27C7FDD095DC2FCC27E4
:1009200080913802C82BD0933702C0933602809151
:100930003502992787FD9095982F882720913402BA
:10094000822B9093330280933202882777FD809523
:10095000982F0E94B5176B017C01BE01882777FD97
:100960008095982F0E94B517A70196010E94C31683
:10097000905820EE3EE245E652E40E9495180E940F
:10098000821777232CF0709331026093300206C0F7
:1009900068597E4F7093310260933002809130022B
:1009A00090913102DF91CF91FF90EF90DF90CF9047
:1009B000089584E380B986B7856486BF089584EA84
:1009C00086BF06B607FEFDCF81B1887F8830E1F78C
:1009D000089584EA86BF06B607FEFDCF089583B961
:1009E00086B7846C86BF06B607FEFDCF81B1887FCF
:1009F0008034E1F7089583B984E886BF06B607FE20
:100A0000FDCF81B1887F8831E1F7089583B984E80B
:100A100086BF06B607FEFDCF81B1887F8832E1F739
:100A2000089583B984E886BF06B607FEFDCF81B17D
:100A3000887F8832E1F7089584E886BF06B607FE0E
:100A4000FDCF83B190E0089584EC86BF06B607FE23
:100A5000FDCF83B190E0089586B7846986BF06B65E
:100A600004FCFDCF089587B38F6187BB8AB3836091
:100A70008ABB88B3807E88BB8BB38C7F8BBB1FBC4B
:100A80008AE08EBD8AEC98E09BBD8ABD80E48BBF76
:100A900083E085BF85E085BD14BC85E091E00E94C0
:100AA000FB1508951F920F920FB60F9211242F93EA
:100AB0003F934F935F938F939F93AF93BF93809197
:100AC0004102863009F499C084F4823009F447C0A9
:100AD00034F48823E9F0813009F027C12AC084303A
:100AE00009F464C00CF073C04BC08A3009F4D3C061
:100AF00034F4883009F4A8C00CF0B7C08FC08C3033
:100B000009F4F0C00CF4D8C08D3009F00EC1FBC060
:100B1000C09A8091600090916100A0916200B091B4
:100B200063009BBD8ABD809141028F5F809341022B
:100B3000FCC0C0988091600090916100A09162001B
:100B4000B091630020EA3FE0A901481B590B5BBD4F
:100B50004ABD809141028F5F80934102E6C0C19AF5
:100B60008091640090916500A0916600B09167004B
:100B70009BBD8ABD809141028F5F80934102D5C0A9
:100B8000C1988091640090916500A0916600B09139
:100B9000670020EA3FE0A901481B590B5BBD4ABD35
:100BA000809141028F5F80934102BFC0C29A8091C1
:100BB000680090916900A0916A00B0916B009BBDA4
:100BC0008ABD809141028F5F80934102AEC0C2987E
:100BD0008091680090916900A0916A00B0916B00CB
:100BE00020EA3FE0A901481B590B5BBD4ABD80913B
:100BF00041028F5F8093410298C0C39A80916C003C
:100C000090916D00A0916E00B0916F009BBD8ABD68
:100C1000809141028F5F8093410287C0C398809189
:100C20006C0090916D00A0916E00B0916F0020EA71
:100C30003FE0A901481B590B5BBD4ABD80914102B1
:100C40008F5F8093410271C0C49A8091700090912F
:100C50007100A0917200B09173009BBD8ABD80911C
:100C600041028F5F8093410260C0C4988091700000
:100C700090917100A0917200B091730020EA3FE062
:100C8000A901481B590B5BBD4ABD809141028F5F92
:100C9000809341024AC0D89A809174009091750067
:100CA000A0917600B09177009BBD8ABD80914102F2
:100CB0008F5F8093410239C0D898809174009091E1
:100CC0007500A0917600B091770020EA3FE0A9017D
:100CD000481B590B5BBD4ABD809141028F5F8093D9
:100CE000410223C0D99A8091780090917900A09117
:100CF0007A00B0917B009BBD8ABD809141028F5FDD
:100D00008093410212C0D998809178009091790027
:100D1000A0917A00B0917B0020EA3FE0A901481B36
:100D2000590B5BBD4ABD10924102BF91AF919F919B
:100D30008F915F914F913F912F910F900FBE0F9028
:100D40001F9018951F920F920FB60F9211242F9398
:100D50008F939F93EF93FF9380913E0290913F0278
:100D6000019729F410923F0210923E020FC0209189
:100D70004002E22FF0E084B590E0EE0FFF1FE6584E
:100D8000FD4F918380832F5F2093400214BCFF911D
:100D9000EF919F918F912F910F900FBE0F901F9009
:100DA00018951F920F920FB60F9211248F939F9355
:100DB0001092400281E090E090933F0280933E02C7
:100DC0009F918F910F900FBE0F901F9018958DE0FF
:100DD00083BF85E78CBF8FE892ECA5EFBCE38093DF
:100DE0008C0290938D02A0938E02B0938F0287E1C4
:100DF00091E00E94FB1508951F920F920FB60F927B
:100E000011248F93809190028F5F809390028330A2
:100E100028F081E080939102109290028F910F90C0
:100E20000FBE0F901F90189581B58D6081BD0895FC
:100E30000F931F93FC014191442381F1842F805330
:100E40008A3080F500E010E0980104C0842F8053C0
:100E50008A3058F5D901C801880F991FAA1FBB1FF6
:100E60008C019D01000F111F221F331F000F111F46
:100E7000221F331F800F911FA21FB31F042F10E0EA
:100E800000531109222717FD2095322F080F191F33
:100E90002A1F3B1F41914111D9CF07C000E010E04C
:100EA000980103C000E010E09801602F712F822F9D
:100EB000932F1F910F910895CF93DF93CDB7DEB796
:100EC000CD58D1090FB6F894DEBF0FBECDBF0E943A
:100ED000681504B603FE05C083E391E00E94EB159C
:100EE0001EC004B600FE05C08BE391E00E94EB1526
:100EF00016C004B602FE05C084E491E00E94EB1522
:100F00000EC004B601FE05C08FE491E00E94EB150F
:100F100006C064B770E080E090E00E940F1684B7CE
:100F2000807F84BF0FE71FE422E101501040204082
:100F3000E1F700C000000E94D904809184009091E4
:100F40008500019721F40E9493020E947A03809108
:100F5000820090918300019711F40E9477008091A4
:100F60007E0090917F00019721F40E943C010E9435
:100F7000E3018091800090918100019711F40E941B
:100F8000420480917C0090917D00019721F40E94A1
:100F9000F8010E944202F8940E94E7060E9433057D
:100FA00082E589BF78940E941407C957DF4F1882E1
:100FB000C758D04065961FAE65976B961FAE1EAEA4
:100FC0006B971FAA18AE19AE1AAE61961FAE619745
:100FD00062961FAE629763961FAE639764961FAECC
:100FE00064972D961FAE2D972E961FAE2E972F9697
:100FF0001FAE2F9760961FAE6097EF961CAE1DAE8A
:101000001EAE1FAEEF97A7961CAE1DAE1EAE1FAE56
:10101000A79766961FAE669767961FAE6797689606
:101020001FAE689769961FAE6997AC961FAEAC97D6
:10103000AD961FAEAD97AE961FAEAE97AF961FAEF4
:10104000AF971BA61CA61DA61EA6A1961CAE1DAE84
:101050001EAE1FAEA197C857DF4F19821882C8581D
:10106000D040EB961CAE1DAE1EAE1FAEEB97A39606
:101070001FAE1EAEA397C457DF4F19821882CC58FB
:10108000D040809198028130B1F566E571E08CEF37
:1010900093E00E942319282F392F232B81F4ECEFA2
:1010A000F3E0A9E9B2E080EB01900D928A95E1F7B7
:1010B000ECEFF3E0DF0100EB1D920A95E9F76CE538
:1010C00071E08CEF93E00E942319282F392F232BF6
:1010D00081F4ECEFF3E0A9E4B3E080EB01900D9232
:1010E0008A95E1F7ECEFF3E0DF0100EB1D920A9542
:1010F000E9F71092980280919102813011F00C94DE
:10110000651510929102809184009091850001975D
:1011100009F05CC0CE010D960E94A4026D85772770
:1011200067FD7095872F972F0E94B5172AE939E937
:1011300049E95EE30E9495186B017C012B961FAD77
:101140002B97612F772767FD7095872F972F0E9428
:10115000B51723E333E343E35FE30E9495189B0154
:10116000AC01C701B6010E9450160E9482172B964F
:101170006FAF2B976989772767FD7095872F972F1A
:101180000E94B5172AE939E949E95EE30E949518FA
:101190006B017C012A960FAD2A97602F772767FD98
:1011A0007095872F972F0E94B51723E333E343E30E
:1011B0005FE30E9495189B01AC01C701B6010E9434
:1011C00050160E9482172A966FAF2A97809182004C
:1011D00090918300019709F05CC0CE0101960E94B6
:1011E000840069857A85719561957109882777FDF5
:1011F0008095982F0E94B5176B017C0169817A81D7
:10120000882777FD8095982F0E94B517A701960132
:101210000E94C31620E030E044E353E40E94951896
:101220002BED3FE049E450E40E941A172D966FAF72
:101230002D972E967FAF2E972F968FAF2F97609674
:101240009FAF60976D817E81719561957109882747
:1012500077FD8095982F0E94B517A70196010E94EF
:10126000C31620E030E044E353E40E9495182BEDD0
:101270003FE049E450E40E941A1761966FAF61970E
:1012800062967FAF629763968FAF639764969FAFC6
:10129000649780917E0090917F00019771F50E9484
:1012A0005501BC01882777FD8095982F0E94B517BE
:1012B00023E333E343E35FE30E9495186B017C0172
:1012C0006D960EAD1FAD6D97B801882777FD80959F
:1012D000982F0E94B5172AE939E949E95EE30E948F
:1012E00095189B01AC01C701B6010E9450160E94DF
:1012F00082176D967FAF6EAF6D9780918000909151
:101300008100019731F40E944B046B969FAF8EAF22
:101310006B9780917C0090917D00019709F0B4C09B
:1013200065961FAD6597183009F0A7C00E940202AC
:10133000382F292FC158DF4F48815981CF57D040CE
:10134000440F551FC158DF4F08811981CF57D04036
:10135000400F511FCD57DF4F88819981C358D0402E
:10136000880F991FCD57DF4F08811981C358D0408E
:10137000800F911F880F991F880F991F841B950B51
:1013800061E1C657DF4F08811981CA58D040609F7C
:10139000A001619F500D1124840F951FCB57DF4F83
:1013A00048815981C558D040440F551FCB57DF4F56
:1013B00008811981C558D040400F511F440F551F57
:1013C000440F551F840F951FC857DF4F488159811F
:1013D000C858D040440F551FC857DF4F08811981A6
:1013E000C858D040400F511F841B950B63E270E03A
:1013F0000E94FB18CF57DF4F79836883C158D040D4
:10140000CB57DF4F08811981C558D040C857DF4FEF
:1014100019830883C858D040C657DF4F0881198107
:10142000CA58D040CB57DF4F19830883C558D040E6
:10143000CD57DF4F08811981C358D040C657DF4FC1
:1014400019830883CA58D040C158DF4F08811981D9
:10145000CF57D040CD57DF4F19830883C358D040B2
:10146000C158DF4F3883CF57D040C058DF4F288353
:10147000C058D04065961FAE659765961FAD6597BD
:101480001F5F65961FAF659780908C0290908D02CC
:10149000A0908E02B0908F022A960FAD2A97602FEF
:1014A000772767FD7095872F972F0E94B517A501A5
:1014B00094010E949518BDADAEADFFAD2196EFAD84
:1014C00021972B2F3A2F4F2F5E2F0E9450166FA37C
:1014D00078A789A79AA775016401F7FAF094F7F83D
:1014E000F0947F8D68A199A18AA1272F362F492FCB
:1014F000582FBFA5A8A92696FFAD26972796EFAD32
:1015000027976B2F7A2F8F2F9E2F0E9450162AE03D
:1015100037ED43EA5BE30E944F169B01AC01C70124
:10152000B6010E9495182296BFAD22972396AFADC3
:1015300023972496FFAD24972596EFAD25972B2F63
:101540003A2F4F2F5E2F0E945016662E772E082FAF
:10155000192F20E030E0A901C701B6010E949518BB
:10156000262E372E482E592E7F8D68A199A18AA14B
:10157000272F362F492F582F622D732D842D952D0F
:101580000E945016698F7A8F8B8F9C8F2B962FAD70
:101590002B97622F772767FD7095872F972F0E94D3
:1015A000B517BFA9A8ADF9ADEAAD2B2F3A2F4F2F34
:1015B0005E2F0E944F169B01AC01C501B4010E9431
:1015C0009518BBA5ACA5FDA5EEA52B2F3A2F4F2F47
:1015D0005E2F0E9450166BA77CA78DA79EA77BA1AC
:1015E0006CA19DA18EA1272F362F492F582FBBA963
:1015F000ACA9FDA9EEA96B2F7A2F8F2F9E2F0E94E9
:1016000050162AE037ED43EA5BE30E944F169B0138
:10161000AC01C701B6010E949518BD8DAE8DF9A928
:10162000EAA92B2F3A2F4F2F5E2F0E9450166D8F55
:101630007E8FE82EF92E222D332D442D552DBBA162
:10164000ACA1FDA1EEA16B2F7A2F8F2F9E2F0E94B0
:101650005016462E572EC82ED92E2AE037ED43EAD3
:101660005CE3662D772D802F912F0E9450166DA37D
:101670007EA38FA798AB762F6EA1982F88A9272FCE
:10168000362F492F582F662D772D802F912F0E94AE
:101690001A176F8F78A389A39AA37BA56CA59DA524
:1016A0008EA5272F362F492F582F6196BFAD6197F2
:1016B0006296AFAD62976396FFAD63976496EFADA8
:1016C00064976B2F7A2F8F2F9E2F0E944F1669AB36
:1016D0007AAB8BAB9CAB2AE037ED43EA5CE3BD8D84
:1016E000AE8D6B2F7A2F8E2D9F2D0E945016862E39
:1016F000972EA82EB92E762F272F392D4A2D5B2D08
:10170000BD8DAE8D6B2F7A2F8E2D9F2D0E941A17B7
:101710006BA37CA3382E292E282D392D4A2D5B2D25
:10172000642D752D8C2D9D2D0E941A17962E872EB7
:101730008DAB9EAB7FA168A599A58AA5272F362FD3
:10174000492F582F2D96BFAD2D972E96AFAD2E97C2
:101750002F96FFAD2F976096EFAD60976B2F7A2F86
:101760008F2F9E2F0E944F169B01AC01BF8DA8A109
:10177000F9A1EAA16B2F7A2F8F2F9E2F0E94951827
:10178000BFA1A8A5F9A5EAA52B2F3A2F4F2F5E2FB1
:101790000E9450166FA378A789A79AA76DAF7EAF56
:1017A0008FAF21969FAF2197262D372D402F512F98
:1017B000BF8DA8A1F9A1EAA16B2F7A2F8F2F9E2FA1
:1017C0000E949518262F372F482F592F662D772DD9
:1017D000802F912F0E944F16A62EB72E082F192F5B
:1017E00022966FAF229723967FAF239724968FAFD1
:1017F000249725969FAF2597798D6A8D9B8D8C8D2B
:10180000272F362F492F582FBF8DA8A1F9A1EAA164
:101810006B2F7A2F8F2F9E2F0E949518262F372FF0
:10182000482F592FB98DAA8DFB8DEC8D6B2F7A2FF8
:101830008F2F9E2F0E944F166F8F78A389A39AA394
:101840007DA16EA19FA588A9272F362F492F582F3C
:10185000B98DAA8DFB8DEC8D6B2F7A2F8F2F9E2F3C
:101860000E941A172A2D3B2D402F512F0E949518A8
:101870009B01AC01B98DAA8DFB8DEC8D6B2F7A2F5E
:101880008F2F9E2F0E944F166FA778AB26968FAF93
:10189000269727969FAF279779A96AA99BA98CA914
:1018A000272F362F492F582FBBA1ACA16B2F7A2F92
:1018B000832D922D0E949518BBA5ACA5FDA5EEA584
:1018C0002B2F3A2F4F2F5E2F0E945016698F7A8F41
:1018D0008B8F9C8F6BA77CA78DA79EA779A96AA9E0
:1018E0009BA98CA9272F362F492F582FFDA9EEA988
:1018F000692D782D8F2F9E2F0E9495189B01AC018A
:10190000BFA9A8ADF9ADEAAD6B2F7A2F8F2F9E2F0F
:101910000E9450166FAB78AF89AF9AAF7D8D6E8DF8
:10192000272F362F4E2D5F2DBBA1ACA16B2F7A2F09
:10193000832D922D0E949518262F372F482F592F2F
:10194000BD8DAE8D6B2F7A2F8E2D9F2D0E944F1641
:10195000E62EF72E082F192F6D8F7E8F89AB9AAB4D
:10196000242D352D4C2D5D2DBBA1ACA16B2F7A2FD5
:10197000832D922D0E949518262F372F482F592FEF
:10198000642D752D8C2D9D2D0E944F166BA37CA36D
:101990008DA39EA32E2D3F2D402F512FFDA9EEA9E3
:1019A000692D782D8F2F9E2F0E9495189B01AC01D9
:1019B000642D752D8C2D9D2D0E944F166BAB7CAB2D
:1019C0008DAB9EAB80ED92E00E9418074B015C014D
:1019D0008AEB92E00E94180704EF13E72EE23FE142
:1019E000061B170B280B390BC901B8010E94B5174C
:1019F0006B017C0162EA74E484EE97E0681979096E
:101A00008A099B090E94B517A70196010E94C31677
:101A100020EE3EE245E652E40E9495180E948217AD
:101A20001B01772324F418E9211A1EEF310AA4E8D8
:101A3000B2E08D919C918139910524F083E08093EF
:101A4000940212C0E4E8F2E0808191818C38910523
:101A500044F080819181803991051CF410929402A8
:101A600003C082E08093940280919402909193024B
:101A7000981721F091E09093920202C01092920286
:101A8000823009F413C218F4882341F036C783303A
:101A900009F4F4C3843009F030C7F0C08091920299
:101AA000813021F482E691E00E94FB15AAE7B2E0C2
:101AB0002D913C91220F331FC901880F991F880F68
:101AC000991F880F991F821B930B8E5D9E4FAA272B
:101AD00097FDA095BA2FE0E6F0E080839183A28382
:101AE000B38320917C0230917D024FE0429FC00180
:101AF000439F900D11248A569F4FAA2797FDA095CA
:101B0000BA2FE4E6F0E080839183A283B38320912F
:101B10007E0230917F02429FC001439F900D1124AD
:101B2000AA2797FDA095BA2FE8E6F0E0808391837D
:101B3000A283B3832091800230918102220F331F50
:101B4000C901880F991F880F991F880F991F821B41
:101B5000930B8E5D9E4FAA2797FDA095BA2FECE6BA
:101B6000F0E080839183A283B3838091820290917D
:101B70008302873891053CF4809182029091830220
:101B800089379105FCF48091820290918302863915
:101B900091053CF4809182029091830288389105EE
:101BA000A4F48091820290918302803A910584F49A
:101BB00080918202909183028739910564F486EEC8
:101BC00095E00BC086EE95E008C08CE697E005C076
:101BD00086EE95E002C08CEF98E0A0E7B0E04D9172
:101BE0005D916D917C91A0E0B0E0481759076A07BC
:101BF0007B0774F4E0E7F0E080819181A281B381FA
:101C00000A96A11DB11D80839183A283B3831DC059
:101C1000E0E7F0E04081518162817381841795078C
:101C2000A607B70764F480819181A281B3810A97E6
:101C3000A109B10980839183A283B38306C0E0E741
:101C4000F0E080839183A283B3838AEC98E0A0E0E4
:101C5000B0E08093740090937500A0937600B093E9
:101C6000770085E892E0A0E0B0E080937800909360
:101C70007900A0937A00B0937B003FC680919202D6
:101C8000813049F58EE691E00E94FB15CF57DF4F7A
:101C900008811981C158D040B801882777FD809507
:101CA000982F0E94B517E2966FAFE297E3967FAF49
:101CB000E397E4968FAFE497E5969FAFE597A896F4
:101CC0001FAEA897A9961FAEA997AA961FAEAA976E
:101CD000AB961FAEAB9720917C0230917D024FE016
:101CE000429FC001439F900D11248A569F4FAA27FF
:101CF00097FDA095BA2FE4E6F0E080839183A2835C
:101D0000B38320917E0230917F02429FC001439FA6
:101D1000900D1124AA2797FDA095BA2FE8E6F0E0D0
:101D200080839183A283B3832091800230918102CA
:101D3000220F331FC901880F991F880F991F880F21
:101D4000991F821B930B8E5D9E4FAA2797FDA0952E
:101D5000BA2FECE6F0E080839183A283B383E2960E
:101D60007FADE297E3966FADE397E4969FADE4977E
:101D7000E5968FADE597272F362F492F582FA89638
:101D8000BFADA897A996AFADA997AA96FFADAA97A0
:101D9000AB96EFADAB976B2F7A2F8F2F9E2F0E94B4
:101DA0005016662E772E082F192FA8966FAFA8977A
:101DB000A9967FAFA997AA968FAFAA97AB969FAF28
:101DC000AB97A1966CAD7DAD8EAD9FADA1970E94F6
:101DD000B5176B017C0120E030E040E251E4E2966F
:101DE000BFADE297E396AFADE397E496FFADE4971E
:101DF000E596EFADE5976B2F7A2F8F2F9E2F0E94E0
:101E000095184B015C0120E030E040EA50E4662D7B
:101E1000772D802F912F0E94951820918C02309160
:101E20008D0240918E0250918F020E9495189B0165
:101E3000AC01C501B4010E9450169B01AC01C70161
:101E4000B6010E9450160E948217A0E6B0E06D9382
:101E50007D938D939C9313978D919D910D90BC9143
:101E6000A02D893B9B40A105B1055CF088EB9BE070
:101E7000A0E0B0E0E0E6F0E080839183A283B3834A
:101E80003CC5E0E6F0E080819181A281B381883E8B
:101E90009340A105B1050CF030C588EE93E0A0E0B9
:101EA000B0E080839183A283B38327C5809192029F
:101EB000813009F07FC08EE791E00E94FB15A8E613
:101EC000B0E00D911D912D913C91EB960CAF1DAFA3
:101ED0002EAF3FAFEB97A4E6B0E00D911D912D9191
:101EE0003C91A7960CAF1DAF2EAF3FAFA797A0E6D2
:101EF000B0E00D911D912D913C91A1960CAF1DAFBD
:101F00002EAF3FAFA197ACE6B0E00D911D912D91A2
:101F10003C91EF960CAF1DAF2EAF3FAFEF978DE822
:101F200091E00E94EB156B960EAD1FAD6B97B8015B
:101F3000882777FD8095982F0E940F1687EA91E0F9
:101F40000E94EB15A7966CAD7DAD8EAD9FADA797AA
:101F50000E940F1680EF91E00E94FB15E1961FAFE3
:101F60000EAFE197198DAC961FAFAC970A8DAD9669
:101F70000FAFAD971B8DAE961FAFAE970C8DAF9682
:101F80000FAFAF9766961FAE669767961FAE6797BF
:101F900068961FAE689769961FAE6997A8961FAEA0
:101FA000A897A9961FAEA997AA961FAEAA97AB9617
:101FB0001FAEAB97A1962CAD3DAD4EAD5FADA197D9
:101FC000A0E6B0E02D933D934D935C931397EF966D
:101FD0000CAD1DAD2EAD3FADEF97ACE6B0E00D936F
:101FE0001D932D933C93139720917E0230917F0295
:101FF0004FE0429FC001439F900D1124AA2797FDF7
:10200000A095BA2FE8E6F0E080839183A283B383A2
:10201000E1960EAD1FADE1976B962EAD3FAD6B9780
:10202000021B130B1CAF0BAFC80188599E4F843B9A
:10203000910514F49CAF8BAFC0908C02D0908D02B0
:10204000E0908E02F0908F020BAD1CADB801882796
:1020500077FD8095982F0E94B5174B015C01B80160
:1020600029960EAD1FAD2997601B710B882777FD50
:102070008095982F0E94B517A70196010E94951888
:102080009B01AC01C501B4010E945016AC96BFADD6
:10209000AC97AD96AFADAD97AE96FFADAE97AF96A0
:1020A000EFADAF972B2F3A2F4F2F5E2F0E94501678
:1020B000A62EB72E082F192F662E772E882E992E32
:1020C00020E030E040EA51EC0E94161788236CF0C3
:1020D00020E030E040EA51E46A2D7B2D802F912FE3
:1020E0000E948A18181664F015C0612C712C0F2EEE
:1020F000F0EA8F2EF02D0F2EF1EC9F2EF02D0AC05E
:10210000612C712C0F2EF0EA8F2EF02D0F2EF1E4A2
:102110009F2EF02D262D372D482D592DB98DAA8DA6
:10212000FB8DEC8D6B2F7A2F8F2F9E2F0E944F16D9
:10213000462E572E682E792E762F272F352D462D99
:10214000572D6696BFAD66976796AFAD6797689651
:10215000FFAD68976996EFAD69976B2F7A2F8F2F38
:102160009E2F0E94501628966FAF28972C967FAF0F
:102170002C97082F192F66966FAF669767967FAFDB
:10218000679768968FAF689769969FAF6997A7968C
:102190006CAD7DAD8EAD9FADA7970E94B5174B017D
:1021A0005C0120E030E040E751E4642D752D862D80
:1021B000972D0E9495182B013C0120E030E040EA69
:1021C00050E42896BFAD28972C96AFAD2C976B2F77
:1021D0007A2F802F912F0E9495189B01AC01C70187
:1021E000B6010E9495189B01AC01C301B2010E9487
:1021F00050169B01AC01C501B4010E944F160E940C
:102200008217A4E6B0E06D937D938D939C93139712
:102210008D919D910D90BC91A02D893B9B40A10576
:10222000B1058CF088EB9BE0A0E0B0E0E4E6F0E0E4
:1022300080839183A283B3830BAD1CAD29961FAF1E
:102240000EAF29975AC3E4E6F0E080819181A28124
:10225000B381883E9340A105B1050CF048C388EED8
:1022600093E0A0E0B0E080839183A283B3830BADC1
:102270001CAD29961FAF0EAF29973FC380919202E4
:10228000813009F09DC08BEA91E00E94FB15A8E621
:10229000B0E02D913D914D915C91EB962CAF3DAF0F
:1022A0004EAF5FAFEB97A4E6B0E00D911D912D917D
:1022B0003C91A7960CAF1DAF2EAF3FAFA797A0E6FE
:1022C000B0E00D911D912D913C91A1960CAF1DAFE9
:1022D0002EAF3FAFA197ACE6B0E00D911D912D91CF
:1022E0003C91EF960CAF1DAF2EAF3FAFEF9788EB51
:1022F00091E00E94EB156D960EAD1FAD6D97B80184
:10230000882777FD8095982F0E940F1687EA91E025
:102310000E94EB15B101882777FD8095982F0E94C8
:102320000F1687EA91E00E94EB1560E070E0CB01A8
:102330000E942D16E1963FAE2EAEE197198DAC9618
:102340001FAFAC970A8DAD960FAFAD971B8DAE96B4
:102350001FAFAE970C8DAF960FAFAF976D960EADCA
:102360001FAD6D97C457DF4F19830883CC58D040F9
:10237000E7961FAF0EAFE79766961FAE6697679614
:102380001FAE679768961FAE689769961FAE6997EC
:10239000A8961FAEA897A9961FAEA997AA961FAE9A
:1023A000AA97AB961FAEAB97E2961FAEE297E39665
:1023B0001FAEE397E4961FAEE497E5961FAEE59750
:1023C0008091820290918302873891054CF580912B
:1023D0008202909183028937910514F1C957DF4F2A
:1023E0001881C758D0401130D9F487ED91E00E9490
:1023F000EB15C457DF4F08811981CC58D040B80184
:10240000882777FD8095982F0E942D16E7961FAF9D
:102410000EAFE797C957DF4F1882C758D04030C07A
:102420008091820290918302803A91054CF58091CF
:102430008202909183028739910514F1C957DF4FC9
:102440001881C758D04011111BC0E7960EAD1FADC3
:10245000E797065F1F4FE7961FAF0EAFE79781EE36
:1024600091E00E94EB15B801882777FD8095982FA1
:102470000E942D1611E0C957DF4F1883C758D0406E
:10248000E7960EAD1FADE7976D962EAD3FAD6D97FC
:10249000021B130BA3961FAF0EAFA397B80188279B
:1024A00077FD8095982F0E94B517E62EF72E082FFE
:1024B000192FA62EB72EC82ED92E20E030E040E2EC
:1024C00051EC0E94161788236CF020E030E040EABF
:1024D00051E46E2D7F2D802F912F0E948A1818169F
:1024E0005CF014C0A12CB12C6894CC24C5F80F2E3C
:1024F000F1ECDF2EF02D0AC0A12CB12C0F2EF0EA4A
:10250000CF2EF02D0F2EF1E4DF2EF02D2A2D3B2DB6
:102510004C2D5D2DBFA1A8A5F9A5EAA56B2F7A2F9B
:102520008F2F9E2F0E944F16662E772E082F192F61
:10253000C0908C02D0908D02E0908E02F0908F02BD
:1025400020E030E040E251E40E9495184B015C012C
:1025500020E030E0A901662D772D802F912F0E9479
:10256000501620E030E040E251E40E949518A701A7
:1025700096010E9495189B01AC01C501B4010E940F
:1025800050164B015C01262D372D402F512F60E056
:1025900070E0CB010E944F1620E030E040EA50E4AA
:1025A0000E949518A70196010E941A179B01AC0181
:1025B000C501B4010E9450160E948217A6E6B2E03F
:1025C0006D937D938D939C9313972A960FAD2A97C5
:1025D000802F992787FD9095AC01440F551F440F1C
:1025E000551F440F551F480F591F662757FD60950B
:1025F000762FEAE4F2E040835183628373838D9106
:102600009D910D90BC91A02D40815181628173817B
:10261000EB960CAD1DAD2EAD3FADEB97800F911F2E
:10262000A21FB31F841B950BA60BB70BE8E6F0E0C7
:1026300080839183A283B38380819181A281B381BE
:10264000893B9B40A105B1054CF088EB9BE0A0E0E5
:10265000B0E080839183A283B38313C0E8E6F0E007
:1026600080819181A281B381883E9340A105B1050B
:1026700044F488EE93E0A0E0B0E080839183A283ED
:10268000B3836B960EAD1FAD6B97E1962EAD3FAD4C
:10269000E197021B130B1CAF0BAFC80188599E4F6B
:1026A000843B910514F49CAF8BAF0BAD1CADB8010E
:1026B000882777FD8095982F0E94B5174B015C0104
:1026C000B80129960EAD1FAD2997601B710B8827A5
:1026D00077FD8095982F0E94B5179B01AC01C7012B
:1026E000B6010E9495189B01AC01C501B4010E947E
:1026F0005016AC96BFADAC97AD96AFADAD97AE965C
:10270000FFADAE97AF96EFADAF972B2F3A2F4F2F70
:102710005E2F0E945016A62EB72E082F192F662E58
:10272000772E882E992E20E030E040EA51EC0E946E
:10273000161788236CF020E030E040EA51E46A2D5F
:102740007B2D802F912F0E948A18181664F015C0D7
:10275000612C712C0F2EF0EA8F2EF02D0F2EF1EC44
:102760009F2EF02D0AC0612C712C0F2EF0EA8F2EB7
:10277000F02D0F2EF1E49F2EF02D798D6A8D9B8D1B
:102780008C8D272F362F492F582F662D772D882D8A
:10279000992D0E944F16462E572E682E792E762F91
:1027A000272F352D462D572D6696BFAD6697679618
:1027B000AFAD67976896FFAD68976996EFAD69977B
:1027C0006B2F7A2F8F2F9E2F0E94501628966FAF57
:1027D00028972C967FAF2C97082F192F66966FAFEE
:1027E000669767967FAF679768968FAF6897699689
:1027F0009FAF6997A7966CAD7DAD8EAD9FADA79746
:102800000E94B5174B015C0120E030E040E751E445
:10281000642D752D862D972D0E9495182B013C0156
:1028200020E030E040EA50E42896BFAD28972C968F
:10283000AFAD2C976B2F7A2F802F912F0E94951878
:102840009B01AC01C701B6010E9495189B01AC0128
:10285000C301B2010E9450169B01AC01C501B40135
:102860000E9450160E948217A4E6B0E06D937D93FB
:102870008D939C9313978D919D910D90BC91A02D5C
:10288000893B9B40A105B1055CF088EB9BE0A0E093
:10289000B0E0E4E6F0E080839183A283B38313C0C9
:1028A000E4E6F0E080819181A281B381883E93408B
:1028B000A105B10544F488EE93E0A0E0B0E0808388
:1028C0009183A283B383A1960CAD1DAD2EAD3FAD18
:1028D000A197A0E6B0E00D931D932D933C93139721
:1028E0000BAD1CAD29961FAF0EAF299706C00BADDF
:1028F0001CAD29961FAF0EAF29978091950290913C
:102900009602019709F0D6C0A0E6B0E06D917D91E6
:102910008D919C910E940F168CEE91E00E94EB1518
:10292000E4E6F0E060817181828193810E940F165C
:102930008CEE91E00E94EB15A8E6B0E06D917D91E0
:102940008D919C910E940F168CEE91E00E94EB15E8
:10295000ECE6F0E060817181828193810E940F1624
:102960008CEE91E00E94EB15A0E7B0E06D917D91B7
:102970008D919C910E940F168CEE91E00E94EB15B8
:10298000598D4A8D3B8D2C8D652F742F832F922F5F
:102990000E9482170E940F168CEE91E00E94EB15A8
:1029A0005FA148A539A52AA5652F742F832F922FE3
:1029B0000E9482170E940F168CEE91E00E94EB1588
:1029C0006B960EAD1FAD6B97B801882777FD80958C
:1029D000982F0E940F168CEE91E00E94EB156D96D9
:1029E0000EAD1FAD6D97B801882777FD8095982FA4
:1029F0000E940F168CEE91E00E94EB15CF57DF4F2F
:102A000008811981C158D040B801882777FD809589
:102A1000982F0E940F168CEE91E00E94EB15A39662
:102A20000EAD1FADA397B801882777FD8095982F2D
:102A30000E940F168CEE91E00E94EB150BAD1CADC1
:102A4000B801882777FD8095982F0E940F168091F6
:102A5000D002882359F18CEE91E00E94EB1584EAB4
:102A600092E00E94EB158CEE91E00E94EB1580ED58
:102A700092E00E94EB158CEE91E00E94EB158AEB40
:102A800092E00E94EB158CEE91E00E94EB158CEA2F
:102A900093E00E94EB158CEE91E00E94EB15B101E2
:102AA000882777FD8095982F0E940F168CEE91E075
:102AB0000E94FB158091940280939302EAE7F2E072
:102AC000A9EEB4E01196FC93EE93A8950C944108FE
:102AD000F89488E98AB986E880BD10BC8CE089B991
:102AE00078948CB15F99FDCF08951F920F920FB625
:102AF0000F9211242F938F939F93EF93FF938CB199
:102B00008093FA031092FB038093F90310929802CA
:102B10008091F9038432A1F4E09197028091FB0443
:102B20002BE0E202F0011124E80FF11D87FDFA9578
:102B3000E450FC4F10821092FB04109297023DC0AB
:102B40008091F9038C32A9F4809197029091FB0453
:102B50002BE08202F0011124E90FF11D97FDFA9597
:102B6000E450FC4F10821092FB048F5F8093970219
:102B700024C08091F9038E3201F18091F9038A30EB
:102B800021F481E08093980218C08091F9038A3083
:102B9000A1F0E09197028091FB049091F9032BE062
:102BA000E202F0011124E80FF11D87FDFA95E450CF
:102BB000FC4F90838F5F8093FB04FF91EF919F9177
:102BC0008F912F910F900FBE0F901F9018955D9BC6
:102BD000FECF8CB90895CF93DF93EC0188818823D1
:102BE00039F0219690E00E94E71589918111FACF82
:102BF000DF91CF910895CF93DF93EC0188818823F3
:102C000039F0219690E00E94E71589918111FACF61
:102C10008EEE91E00E94EB15DF91CF910895CF9356
:102C2000DF93CDB7DEB76F970FB6F894DEBF0FBE58
:102C3000CDBF2AE030E0AE014F5F5F4F0E942C19FC
:102C4000CE0101960E94EB156F960FB6F894DEBF89
:102C50000FBECDBFDF91CF910895CF93DF93CDB756
:102C6000DEB76F970FB6F894DEBF0FBECDBF2AE078
:102C700030E0AE014F5F5F4F0E942C19CE010196EC
:102C80000E94EB158EEE91E00E94EB156F960FB649
:102C9000F894DEBF0FBECDBFDF91CF91089550589D
:102CA000BB27AA270ED0FCC1EDD130F0F2D120F025
:102CB00031F49F3F11F41EF4BDC10EF4E095E7FB23
:102CC000B3C1E92FFED180F3BA17620773078407F7
:102CD000950718F071F49EF516C20EF4E0950B2ED0
:102CE000BA2FA02D0B01B90190010C01CA01A0015E
:102CF0001124FF27591B99F0593F50F4503E68F1B9
:102D00001A16F040A22F232F342F4427585FF3CFF9
:102D1000469537952795A795F0405395C9F77EF4CA
:102D20001F16BA0B620B730B840BBAF09150A1F013
:102D3000FF0FBB1F661F771F881FC2F70EC0BA0F99
:102D4000621F731F841F48F4879577956795B79521
:102D5000F7959E3F08F0B3CF9395880F08F0992719
:102D6000EE0F9795879508958DD158F080E891E002
:102D700009F49EEF8ED128F040E851E059F45EEF5F
:102D800009C058C1C0C1E92FE0789BD168F3092E72
:102D9000052AC1F3261737074807590738F00E2EC2
:102DA00007F8E02569F0E025E0640AC0EF6307F862
:102DB000009407FADB01B9019D01DC01CA01AD01F4
:102DC000EF9347D06DD10AD05F91552331F02BEDB1
:102DD0003FE049E450FD49EC63CF0895DF93DD27E0
:102DE000B92FBF7740E85FE31616170648075B0761
:102DF00010F4D92F93D19F938F937F936F93F8D132
:102E0000E4E5F0E01AD14CD12F913F914F915F91C1
:102E100098D1DD2349F09058A2EA2AED3FE049EC31
:102E20005FE3D0785D274DDFDF913AC1D9D008F458
:102E300081E008950CD034C12CD140F023D130F082
:102E400021F45F3F19F0F0C051115EC1F3C039D1D8
:102E500098F39923C9F35523B1F3951B550BBB2761
:102E6000AA2762177307840738F09F5F5F4F220F0E
:102E7000331F441FAA1FA9F333D00E2E3AF0E0E807
:102E800030D091505040E695001CCAF729D0FE2F53
:102E900027D0660F771F881FBB1F261737074807E5
:102EA000AB07B0E809F0BB0B802DBF01FF2793589B
:102EB0005F4F2AF09E3F510568F0B6C025C15F3FC5
:102EC000ECF3983EDCF3869577956795B795F79583
:102ED0009F5FC9F7880F911D9695879597F908957B
:102EE000E1E0660F771F881FBB1F62177307840717
:102EF000BA0720F0621B730B840BBA0BEE1F88F726
:102F0000E095089504D06894B111FEC00895E1D011
:102F100088F09F5790F0B92F9927B751A0F0D1F0C2
:102F2000660F771F881F991F1AF0BA95C9F712C04C
:102F3000B13081F0E8D0B1E00895E5C0672F782F77
:102F40008827B85F39F0B93FCCF3869577956795B8
:102F5000B395D9F73EF490958095709561957F4F24
:102F60008F4F9F4F0895E89409C097FB3EF49095CA
:102F70008095709561957F4F8F4F9F4F9923A9F052
:102F8000F92F96E9BB279395F695879577956795E1
:102F9000B795F111F8CFFAF4BB0F11F460FF1BC025
:102FA0006F5F7F4F8F4F9F4F16C0882311F096E9B8
:102FB00011C0772321F09EE8872F762F05C0662366
:102FC00071F096E8862F70E060E02AF09A95660F1F
:102FD000771F881FDAF7880F9695879597F90895D8
:102FE000990F0008550FAA0BE0E8FEEF161617061A
:102FF000E807F907C0F012161306E407F50798F082
:10300000621B730B840B950B39F40A2661F0232B9A
:10301000242B252B21F408950A2609F4A140A69516
:103020008FEF811D811D089597F99F6780E870E0FB
:1030300060E008959FEF80EC0895DF93CF931F9396
:103040000F93FF92EF92DF927B018C01689405C091
:10305000DA2EEF0176D0FE01E894A5912591359105
:1030600045915591AEF3EF012CDEFE019701A801C9
:10307000DA9479F7DF90EF90FF900F911F91CF9145
:10308000DF91089500240A941616170618060906FB
:10309000089500240A9412161306140605060895CE
:1030A000092E0394000C11F4882352F0BB0F40F456
:1030B000BF2B11F460FF04C06F5F7F4F8F4F9F4F96
:1030C000089557FD9058440F551F59F05F3F71F018
:1030D0004795880F97FB991F61F09F3F79F087957F
:1030E0000895121613061406551FF2CF4695F1DF08
:1030F00008C0161617061806991FF1CF8695710598
:10310000610508940895E894BB2766277727CB01CB
:1031100097F9089565DF08F48FEF08959B01AC01DE
:1031200060E070E080E89FE385CE0BD0B9CFAADFE6
:1031300028F0AFDF18F0952309F076CF7BCF11246C
:10314000E3CFBFDFA0F3959FD1F3950F50E0551F5C
:10315000629FF001729FBB27F00DB11D639FAA27EC
:10316000F00DB11DAA1F649F6627B00DA11D661F3B
:10317000829F2227B00DA11D621F739FB00DA11D5C
:10318000621F839FA00D611D221F749F3327A00D16
:10319000611D231F849F600D211D822F762F6A2FB2
:1031A00011249F5750408AF0E1F088234AF0EE0F37
:1031B000FF1FBB1F661F771F881F91505040A9F744
:1031C0009E3F510570F030CF9FCF5F3FECF3983EAC
:1031D000DCF3869577956795B795F795E7959F5FAB
:1031E000C1F7FE2B880F911D9695879597F9089545
:1031F0009B01AC019ACF97FB072E16F4009407D0E1
:1032000077FD09D00E940F1907FC05D03EF4909578
:1032100081959F4F0895709561957F4F0895AA1BE2
:10322000BB1B51E107C0AA1FBB1FA617B70710F0B1
:10323000A61BB70B881F991F5A95A9F780959095E3
:10324000BC01CD010895FB01DC018D910190801935
:103250000110D9F3990B0895FA01CF93FF93EF93DF
:10326000223044F1253234F5C22FE894CA3049F4B3
:1032700097FB3EF490958095709561957F4F8F4FA9
:103280009F4F2C2F332744275527FF93EF930E94FE
:103290007019EF91FF91605D6A330CF0695D619385
:1032A000B901CA01605070408040904051F716F457
:1032B000CDE2C19310828F919F91CF910C946019B0
:1032C000DC01FC01672F71917723E1F7329704C08D
:1032D0007C916D9370836291AE17BF07C8F3089518
:1032E000A1E21A2EAA1BBB1BFD010DC0AA1FBB1F0A
:1032F000EE1FFF1FA217B307E407F50720F0A21B7C
:10330000B30BE40BF50B661F771F881F991F1A94E8
:1033100069F760957095809590959B01AC01BD0112
:08332000CF010895F894FFCFDE
:10332800CA080000CA080000CA080000CA0800004D
:10333800E6050000CA08000085020000010001003F
:103348000100010001006163632073746172746598
:1033580064006261726F20737461727465640062E4
:1033680061726F5F6F666673657420004144432025
:103378006F6B004144435F6F66667365743A200063
:103388006779726F2073746172746564004779722B
:103398006F204F66667365743A2000703A2000719A
:1033A8003A2000723A20004779726F2043616C20FE
:1033B800436F6D706C657465006D6167207374612F
:1033C8007274656400536572766F54696D657253E3
:1033D800746172746564005461736B54696D6572CD
:1033E800537461727465640057646F6744697361EC
:1033F800626C0057646F675273740050777255702F
:10340800527374004272776E4F757452737400452C
:103418007874527374004750524D430047504747E1
:103428004100444952454354204354524C002A53C6
:103438007065656420436F6E74726F6C2A00444136
:103448004D50454420434F4E54524F4C00486561FF
:1034580064696E6720686F6C64202D205472696DF2
:103468002041696C3A2000202D2000484F4C442010
:10347800434F4E54524F4C0054617267657420415B
:103488006C74202D2048656164696E67202D205377
:10349800706565643A2000414C5420486F6C642084
:1034A8000020416C7420486F6C6420003B000D0ABA
:0234B800000012
:00000001FF
