:100000000C9441000C94590A0C945E000C945E0010
:100010000C945E000C94880A0C945E000C94090900
:100020000C945E000C945E000C94B30A0C945E0079
:100030000C945E000C942F1D0C945E000C945E00DA
:100040000C945E000C945E000C945E000C945E00B8
:100050000C945E00084AD73B3BCE016E84BCBFFDCA
:10006000C12F3D6C74319ABD56833DDA3D00C77F88
:1000700011BED9E4BB4C3E916BAAAABE0000008021
:100080003F0011241FBECFE5D8E0DEBFCDBF12E098
:10009000A0E6B0E0ECE9F2E402C005900D92A431D4
:1000A000B107D9F726E0A4E1B2E001C01D92A1306A
:1000B000B207E1F70E94130B0C944C210C94000042
:1000C000CF93DF93D82FC62F0E94760882E390E06B
:1000D0000E9492088D2F90E00E949D088C2F90E046
:1000E0000E94A8080E94C308DF91CF91089567E499
:1000F00080E20E94600060E183E20E94600081E98A
:1001000090E00E94B51D08950F931F93CF93DF9346
:10011000EC010E94760882E390E00E94920888EA4F
:1001200090E00E949D080E94800883E390E00E9476
:1001300086080E94BB08809324020E94BB0880931B
:1001400025020E94BB0880931E020E94BB08809378
:100150001F020E94BB08809318020E94B30880937C
:1001600019020E94C30880912502992787FD909566
:10017000982F882720912402822B95958795959515
:10018000879595958795959587959093230280936C
:10019000220200911F02112707FD1095102F002742
:1001A00020911E02022B159507951595079515951B
:1001B00007951595079510931D0200931C02409119
:1001C0001902552747FD5095542F442720911802B6
:1001D000422B559547955595479555954795559576
:1001E00047955093170240931602880F991F9093DA
:1001F000210280932002000F111F10931B02009315
:100200001A02440F551F5093150240931402AA2757
:1002100097FDA095BA2F88839983AA83BB83222751
:1002200017FD2095322F0C831D832E833F83662775
:1002300057FD6095762F488759876A877B87CE015F
:10024000DF91CF911F910F910895CF93DF93D82F16
:10025000C62F0E94760880EC90E00E9492088D2FB5
:1002600090E00E949D088C2F90E00E94A8080E94B8
:10027000C308DF91CF91089569EB86E20E942501C2
:1002800060E889E20E94250166EC84E10E94250174
:100290006BE585E10E94250167E083E10E9425016D
:1002A0008DE990E00E94B51D0895CF930E947608D5
:1002B00080EC90E00E94920880E090E00E949D080F
:1002C0000E94800881EC90E00E9486080E94B3089A
:1002D000C82F0E94C30880912C0232C0CE3E81F507
:1002E0000E94760880EC90E00E94920881E090E005
:1002F0000E949D080E94800881EC90E00E94860880
:100300000E94BB0880932F020E94BB0880932E029C
:100310000E94B30880932D020E94C30820912F02EF
:10032000332727FD3095322F222780912E02282B4C
:10033000309329022093280281E080932C023FC051
:10034000882361F2CE3EB9F50E94760880EC90E0F9
:100350000E94920881E090E00E949D080E9480081F
:1003600081EC90E00E9486080E94BB0880932F02D7
:100370000E94BB0880932E020E94B30880932D0236
:100380000E94C30820912F02332727FD3095322F7A
:10039000222780912E02282B3093290220932802B5
:1003A00080912A0290912B02281B390B309327024F
:1003B0002093260204C02091260230912702822F2A
:1003C000932FCF9108950E94550190932B02809313
:1003D0002A028AEA90E00E94A51D60912A0270918B
:1003E0002B02882777FD8095982F0E94E71D08959E
:1003F0001ABA80E487B987E886B987EB90E00E9453
:10040000B51D089583E087B9369A3699FECF24B199
:1004100030E0309331022093300245B1942F80E0D8
:10042000282B392B3093310220933002822F932FC7
:100430000895CF93DF93D82FC62F0E94760886EDBC
:1004400090E00E9492088D2F90E00E949D088C2FD2
:1004500090E00E94A8080E94C308DF91CF91089500
:100460006FE080E20E94190260E281E20E941902BC
:1004700060E184E20E9419028BEC90E00E94B51DBD
:1004800008958F929F92AF92BF92CF92DF92EF9298
:10049000FF920F931F93CF93DF93EC010E94760896
:1004A00086ED90E00E94920888EA90E00E949D0804
:1004B0000E94800887ED90E00E9486080E94BB0899
:1004C000809344020E94BB08809345020E94BB08AF
:1004D000809340020E94BB08809341020E94BB08A7
:1004E00080933C020E94B30880933D020E94C3089F
:1004F00060914502772767FD7095762F662780917A
:100500004402682B7093430260934202E0904102E0
:10051000FF24E7FCF094FE2CEE2480914002E82AB0
:10052000F0923F02E0923E0200913D02112707FD4A
:100530001095102F002780913C02082B10933B024E
:1005400000933A02882777FD8095982F0E946F1FAD
:1005500029E23CE54FE05CE30E944F200E943C1FF3
:100560004B015C01B701882777FD8095982F0E9489
:100570006F1F29E23CE54FE05CE30E944F200E94A0
:100580003C1F6B017C01B801882777FD8095982F6F
:100590000E946F1F29E23CE54FE05CE30E944F2080
:1005A0000E943C1F209132023091330221303105EC
:1005B00021F50091380210913902222717FD20956C
:1005C000322F801A910AA20AB30A009136021091C2
:1005D0003702222717FD2095322FC01AD10AE20ACE
:1005E000F30A0091340210913502222717FD20955D
:1005F000322F601B710B820B930B88829982AA8227
:10060000BB82CC82DD82EE82FF82688779878A870F
:100610009B87CE01DF91CF911F910F91FF90EF90BB
:10062000DF90CF90BF90AF909F908F9008951F93D1
:10063000CF93DF93CDB7DEB72C970FB6F894DEBF1C
:100640000FBECDBF12E3CE0101960E944102209160
:1006500038023091390289819A81820F931F9093D9
:1006600039028093380220913602309137028D8111
:100670009E81820F931F90933702809336022091C0
:1006800034023091350289859A85820F931F9093A9
:100690003502809334021150B1F680913802909166
:1006A000390222E330E0B9010E94B520709339028B
:1006B000609338028091360290913702B9010E940E
:1006C000B520709337026093360280913402909186
:1006D0003502B9010E94B52070933502609334024F
:1006E00088ED90E00E94B51D86EE90E00E94A51D69
:1006F0006091380270913902882777FD8095982F94
:100700000E94E71D8AEE90E00E94A51D60913602CE
:1007100070913702882777FD8095982F0E94E71DFA
:100720008EEE90E00E94A51D60913402709135021A
:10073000882777FD8095982F0E94E71D2FE78FE48B
:1007400092E1215080409040E1F700C0000081E03C
:1007500090E0909333028093320282EF90E00E9407
:10076000B51D2C960FB6F894DEBF0FBECDBFDF913E
:10077000CF911F910895CF93C82F0E94E5084C2F69
:1007800060E888E70E94CF080E94C308CF910895CF
:10079000CF93C82F0E94E5084C2F60E488E70E94A1
:1007A000CF080E94C308CF9108958EEA0E94BB0330
:1007B00084EA0E94BB0380E20E94BB0382E00E94A5
:1007C000BB0381EA0E94BB0388EC0E94BB0386EA5C
:1007D0000E94BB0381E80E94BB038FEA0E94BB0317
:1007E00086ED0E94BB0381E00E94BB032FE789EAEC
:1007F00093E0215080409040E1F700C000008FEA74
:100800000E94BB030895CF93DF9386EA0E94BB0347
:100810008EEA0E94BB0380E20E94BB0380E00E943C
:10082000BB0380EB0E94BB0380E40E94BB0380E01B
:100830000E94BB0380E10E94BB03C0E0D4E080E0E3
:100840000E94C8032197D9F781E80E94BB038FEA71
:100850000E94BB038FEA0E94BB0380EB0E94BB0394
:10086000DF91CF910895CF93C82F862F80550E9496
:10087000BB038C2F880F880F880F88700E94BB03E2
:100880008C2F90E0969587958F709927805F0E94B6
:10089000BB03CF91089580EB0E94BB0380E00E94D0
:1008A000BB0380E10E94BB0308958EE70E94C8034A
:1008B00081E10E94C80381E10E94C80381E10E9496
:1008C000C8038EE70E94C80380E00E94C80380E04E
:1008D0000E94C80308958FE70E94C80381E40E9424
:1008E000C80381E40E94C80382E20E94C8038CE12D
:1008F0000E94C80380E00E94C80380E00E94C803F1
:1009000008958FE70E94C80389E40E94C80389E420
:100910000E94C80389E40E94C80381E40E94C803BE
:1009200080E00E94C80380E00E94C80308958FE71A
:100930000E94C80389E00E94C80389E00E94C8039E
:1009400089E00E94C80381E00E94C80380E00E9401
:10095000C80380E00E94C80308958EE30E94C80384
:1009600081E40E94C80389E40E94C80389E40E94CC
:10097000C8038AE70E94C80380E00E94C80380E0A1
:100980000E94C80308958FE70E94C80388E00E9470
:10099000C80388E00E94C80388E00E94C8038FE76C
:1009A0000E94C80380E00E94C80380E00E94C80340
:1009B000089580E00E94C80381E40E94C8038FE785
:1009C0000E94C80381E40E94C80380E00E94C8031B
:1009D00080E00E94C80380E00E94C80308958FE76A
:1009E0000E94C80380E40E94C80380E40E94C803F8
:1009F00080E40E94C80380E40E94C80380E00E9453
:100A0000C80380E00E94C80308958FE70E94C803CE
:100A100082E00E94C8038CE00E94C80382E00E942A
:100A2000C8038FE70E94C80380E00E94C80380E0EB
:100A30000E94C80308958FE70E94C80384E00E94C3
:100A4000C80388E00E94C80380E10E94C8038FE7C2
:100A50000E94C80380E00E94C80380E00E94C8038F
:100A600008958EE30E94C80381E40E94C80381E4D4
:100A70000E94C80381E40E94C8038EE30E94C80359
:100A800080E00E94C80380E00E94C80308958FE7B9
:100A90000E94C80389E00E94C80389E00E94C8033D
:100AA00089E00E94C80386E00E94C80380E00E949B
:100AB000C80380E00E94C80308958FE70E94C8031E
:100AC00089E00E94C80389E10E94C80389E20E946C
:100AD000C80386E40E94C80380E00E94C80380E047
:100AE0000E94C803089586E40E94C80389E40E9416
:100AF000C80389E40E94C80389E40E94C80381E313
:100B00000E94C80380E00E94C80380E00E94C803DE
:100B1000089581E00E94C80381E00E94C8038FE726
:100B20000E94C80381E00E94C80381E00E94C803BC
:100B300080E00E94C80380E00E94C80308958111EC
:100B400030C00E94EF040E94D9040E94AD040E94AC
:100B5000C3040E94890561E080E00E9433040E9482
:100B6000C3040E9431050E9405050E94810462E0D1
:100B700080E00E9433040E9405050E9431050E9416
:100B80006B040E94810463E080E00E9433040E94B1
:100B9000C3040E9481040E9455040E946B040E94B9
:100BA0004B04089580E00E94C80380E00E94C803BF
:100BB00080E00E94C80380E00E94C80380E00E9499
:100BC000C80380E00E94C80380E00E94C803089523
:100BD000CF93DF93C82FD62F0E944B046D2F8C2FFD
:100BE0000E94330488EF0E94C80388EF0E94C80364
:100BF00088E00E94C80388EF0E94C8038CEF0E941F
:100C0000C80384EF0E94C80384EF0E94C80384EFE6
:100C10000E94C80384EF0E94C80384EF0E94C803A7
:100C20008CEF0E94C80388EF0E94C80388E00E94EE
:100C3000C80388EF0E94C80388EF0E94C8036D2F85
:100C40006F5F8C2F0E9433048FEF0E94C8038FEFD9
:100C50000E94C80380E80E94C8038FEF0E94C80367
:100C60008FEF0E94C8038FEF0E94C8038FEF0E948E
:100C7000C8038FEF0E94C8038FEF0E94C8038FEF55
:100C80000E94C8038FEF0E94C8038FEF0E94C80321
:100C900080E80E94C8038FEF0E94C8038FEF0E9474
:100CA000C803DF91CF910895CF93DF93C82FD62F3C
:100CB0000E944B046D2F8C2F0E94330488EF0E94FA
:100CC000C80388EF0E94C80388E00E94C80388EC2C
:100CD0000E94C8038CEC0E94C80384EC0E94C803E5
:100CE00084EC0E94C80384EC0E94C80384EC0E9438
:100CF000C80384EC0E94C8038CEC0E94C80388ECF3
:100D00000E94C80388E00E94C80388EF0E94C803BD
:100D100088EF0E94C8036D2F6F5F8C2F0E943304F1
:100D20008FEF0E94C8038FEF0E94C80380E80E94E3
:100D3000C8038FEF0E94C8038FEF0E94C8038FEF94
:100D40000E94C8038FEF0E94C8038FEF0E94C80360
:100D50008FEF0E94C8038FEF0E94C8038FEF0E949D
:100D6000C8038FEF0E94C80380E80E94C8038FEF7A
:100D70000E94C8038FEF0E94C803DF91CF910895AE
:100D8000CF93DF93C82FD62F0E944B046D2F8C2F4B
:100D90000E94330488EF0E94C80388EF0E94C803B2
:100DA00088E00E94C80388E00E94C8038CE00E948B
:100DB000C80384E00E94C80384E00E94C80384E062
:100DC0000E94C80384E00E94C80384E00E94C80314
:100DD0008CE00E94C80388E00E94C80388E00E945B
:100DE000C80388EF0E94C80388EF0E94C8036D2FD4
:100DF0006F5F8C2F0E9433048FEF0E94C8038FEF28
:100E00000E94C80380E80E94C8038FEF0E94C803B5
:100E10008FEF0E94C8038FEF0E94C8038FEF0E94DC
:100E2000C8038FEF0E94C8038FEF0E94C8038FEFA3
:100E30000E94C8038FEF0E94C8038FEF0E94C8036F
:100E400080E80E94C8038FEF0E94C8038FEF0E94C2
:100E5000C803DF91CF910895CF93DF93C82FD62F8A
:100E60000E944B046D2F8C2F0E94330488EF0E9448
:100E7000C80388EF0E94C80388E00E94C80388E086
:100E80000E94C8038CE00E94C80384E00E94C8034B
:100E900084E00E94C80384E00E94C80384E00E94AA
:100EA000C80384E00E94C8038CE00E94C80388E065
:100EB0000E94C80388E00E94C80388EF0E94C8030C
:100EC00088EF0E94C8036D2F6F5F8C2F0E94330440
:100ED0008FEF0E94C8038FEF0E94C80380E80E9432
:100EE000C8038CEF0E94C8038CEF0E94C8038CEFEC
:100EF0000E94C8038CEF0E94C8038CEF0E94C803B5
:100F00008CEF0E94C8038CEF0E94C8038CEF0E94F4
:100F1000C8038CEF0E94C80380E80E94C8038FEFCB
:100F20000E94C8038FEF0E94C803DF91CF910895FC
:100F3000CF93DF93C82FD62F0E944B046D2F8C2F99
:100F40000E94330488EF0E94C80388EF0E94C80300
:100F500088E00E94C80388E00E94C8038CE00E94D9
:100F6000C80384E00E94C80384E00E94C80384E0B0
:100F70000E94C80384E00E94C80384E00E94C80362
:100F80008CE00E94C80388E00E94C80388E00E94A9
:100F9000C80388EF0E94C80388EF0E94C8036D2F22
:100FA0006F5F8C2F0E9433048FEF0E94C8038FEF76
:100FB0000E94C80380E80E94C80380EF0E94C80313
:100FC00080EF0E94C80380EF0E94C80380EF0E9458
:100FD000C80380EF0E94C80380EF0E94C80380EF1F
:100FE0000E94C80380EF0E94C80380EF0E94C803DC
:100FF00080E80E94C8038FEF0E94C8038FEF0E9411
:10100000C803DF91CF910895CF93DF93C82FD62FD8
:101010000E944B046D2F8C2F0E94330488EF0E9496
:10102000C80388EF0E94C80388E00E94C80388E0D4
:101030000E94C8038CE00E94C80384E00E94C80399
:1010400084E00E94C80384E00E94C80384E00E94F8
:10105000C80384E00E94C8038CE00E94C80388E0B3
:101060000E94C80388E00E94C80388EF0E94C8035A
:1010700088EF0E94C8036D2F6F5F8C2F0E9433048E
:101080008FEF0E94C8038FEF0E94C80380E80E9480
:10109000C80380E80E94C80380E80E94C80380E873
:1010A0000E94C80380E80E94C80380E80E94C80329
:1010B00080E80E94C80380E80E94C80380E80E947C
:1010C000C80380E80E94C80380E80E94C8038FEF2D
:1010D0000E94C8038FEF0E94C803DF91CF9108954B
:1010E00087E080B986B7856486BF089584EA86BFA5
:1010F00006B607FEFDCF81B1887F8830E1F70895FD
:1011000084EA86BF06B607FEFDCF089583B986B789
:10111000846C86BF06B607FEFDCF81B1887F803420
:10112000E1F7089583B984E886BF06B607FEFDCFD0
:1011300081B1887F8831E1F7089583B984E886BF5B
:1011400006B607FEFDCF81B1887F8832E1F70895AA
:1011500083B984E886BF06B607FEFDCF81B1887FDC
:101160008832E1F7089584E886BF06B607FEFDCF12
:1011700083B190E0089584EC86BF06B607FEFDCFEC
:1011800083B190E0089513B886B7846986BF06B628
:1011900004FCFDCF089506B607FEFDCF08951F930A
:1011A000CF93DF93162FD42F83B9C4E8C6BF0E9414
:1011B000CB0813B9C6BF0E94CB08D3B9C6BF0E94E3
:1011C000CB08DF91CF911F91089584EA86BF0E94DA
:1011D000CB08089587B38F6187BB8AB383608ABBCE
:1011E00088B3807E88BB8BB38C7F8BBB1FBC8AE0AF
:1011F0008EBD8AEC98E09BBD8ABD80E48BBF83E006
:1012000085BF85E085BD14BC84E091E00E94B51DDA
:1012100008951F920F920FB60F9211242F933F93B0
:101220004F935F938F939F93AF93BF9380914902A6
:10123000863009F499C084F4823009F447C034F44C
:101240008823E9F0813009F027C12AC0843009F4ED
:1012500064C00CF073C04BC08A3009F4D3C034F4BE
:10126000883009F4A8C00CF0B7C08FC08C3009F4E6
:10127000F0C00CF4D8C08D3009F00EC1FBC0C09A8C
:101280008091600090916100A0916200B091630034
:101290009BBD8ABD809149028F5F80934902FCC04B
:1012A000C0988091600090916100A0916200B0911F
:1012B000630020EA3FE0A901481B590B5BBD4ABD12
:1012C000809149028F5F80934902E6C0C19A809164
:1012D000640090916500A0916600B09167009BBD8D
:1012E0008ABD809149028F5F80934902D5C0C19821
:1012F0008091640090916500A0916600B0916700B4
:1013000020EA3FE0A901481B590B5BBD4ABD809113
:1013100049028F5F80934902BFC0C29A80916800E2
:1013200090916900A0916A00B0916B009BBD8ABD4D
:10133000809149028F5F80934902AEC0C29880912C
:10134000680090916900A0916A00B0916B0020EA5A
:101350003FE0A901481B590B5BBD4ABD8091490282
:101360008F5F8093490298C0C39A80916C009091DE
:101370006D00A0916E00B0916F009BBD8ABD809101
:1013800049028F5F8093490287C0C39880916C00A7
:1013900090916D00A0916E00B0916F0020EA3FE047
:1013A000A901481B590B5BBD4ABD809149028F5F63
:1013B0008093490271C0C49A80917000909171002D
:1013C000A0917200B09173009BBD8ABD80914902CB
:1013D0008F5F8093490260C0C498809170009091A3
:1013E0007100A0917200B091730020EA3FE0A90162
:1013F000481B590B5BBD4ABD809149028F5F8093AA
:1014000049024AC0D89A8091740090917500A091C9
:101410007600B09177009BBD8ABD809149028F5FB5
:101420008093490239C0D8988091740090917500DA
:10143000A0917600B091770020EA3FE0A901481B17
:10144000590B5BBD4ABD809149028F5F8093490271
:1014500023C0D99A8091780090917900A0917A0068
:10146000B0917B009BBD8ABD809149028F5F8093C4
:10147000490212C0D9988091780090917900A0918A
:101480007A00B0917B0020EA3FE0A901481B590B8C
:101490005BBD4ABD10924902BF91AF919F918F9160
:1014A0005F914F913F912F910F900FBE0F901F9022
:1014B00018951F920F920FB60F9211242F938F93AE
:1014C0009F93EF93FF93809146029091470201977B
:1014D00029F410924702109246020FC02091480250
:1014E000E22FF0E084B590E0EE0FFF1FEE57FD4FC6
:1014F000918380832F5F2093480214BCFF91EF916A
:101500009F918F912F910F900FBE0F901F90189564
:101510001F920F920FB60F9211248F939F931092E8
:10152000480281E090E090934702809346029F91A9
:101530008F910F900FBE0F901F9018958DE083BF75
:1015400085E78CBF8FE892ECA5EFBCE38093940213
:1015500090939502A0939602B093970286E191E052
:101560000E94B51D08951F920F920FB60F9211247D
:101570008F93809198028F5F80939802833028F038
:1015800081E080939902109298028F910F900FBE84
:101590000F901F90189581B58D6081BD08950F93B0
:1015A0001F93FC014191442381F1842F80538A30A1
:1015B00080F500E010E0980104C0842F80538A3049
:1015C00058F5D901C801880F991FAA1FBB1F8C01AC
:1015D0009D01000F111F221F331F000F111F221F1B
:1015E000331F800F911FA21FB31F042F10E0005361
:1015F0001109222717FD2095322F080F191F2A1FC6
:101600003B1F41914111D9CF07C000E010E0980184
:1016100003C000E010E09801602F712F822F932FFC
:101620001F910F910895CF93DF93CDB7DEB7C455C7
:10163000D1090FB6F894DEBF0FBECDBF0E94221DA8
:1016400004B603FE05C082E391E00E94A51D1EC002
:1016500004B600FE05C08AE391E00E94A51D16C0F5
:1016600004B602FE05C083E491E00E94A51D0EC0F1
:1016700004B601FE05C08EE491E00E94A51D06C0DF
:1016800064B770E080E090E00E94C91D84B7807F5D
:1016900084BF2FE73FE482E1215030408040E1F7F2
:1016A00000C000000E9470080E9430020E941703D0
:1016B0000E9477000E943C010E94E3010E94F80111
:1016C0000E94D5030E94030480E00E949F05F894C5
:1016D0000E949E0A0E94EA0882E589BF78940E94CF
:1016E000CB0A81B3806F81BB82B38F7082BB949A27
:1016F00080910E038130B1F565E571E082E794E0F9
:101700000E94FF20282F392F232B81F4E2E7F4E0F9
:10171000AFE0B3E080EB01900D928A95E1F7E2E74C
:10172000F4E0DF0120EB1D922A95E9F76BE571E00B
:1017300082E794E00E94FF20282F392F232B81F489
:10174000E2E7F4E0AFEBB3E080EB01900D928A9515
:10175000E1F7E2E7F4E0DF0120EB1D922A95E9F7DB
:1017600010920E0380919902813011F00C941F1D8C
:1017700010929902CE010D960E9441022D85209370
:10178000C10599899093F4058D898093B5052093BF
:10179000DF059093CC058093E502CE0101960E946F
:1017A0008400A980BA80B092B805A092B7050D81D7
:1017B0001E811093ED050093EC0569857A85709381
:1017C000C7056093C605719561957109882777FDF6
:1017D0008095982F0E946F1F6B017C01B5018827AF
:1017E00077FD8095982F0E946F1FA70196010E9498
:1017F0007D1E20E030E044E353E40E944F202BEDB7
:101800003FE049E450E40E94D41E6093CB02709301
:10181000CC028093CD029093CE0266277727601B7F
:10182000710B882777FD8095982F0E946F1FA70165
:1018300096010E947D1E20E030E044E353E40E94C4
:101840004F202BED3FE049E450E40E94D41E60930A
:10185000C7027093C8028093C9029093CA020E9483
:1018600055019093DA058093D905C0908B00D090F4
:101870008C00E0908D00F0908E00BC01882777FDF1
:101880008095982F0E946F1F4B015C01A701960164
:1018900060E070E080E89FE30E94091E9B01AC01BC
:1018A000C501B4010E944F204B015C016091CF053E
:1018B0007091D005882777FD8095982F0E946F1F23
:1018C0009B01AC01C701B6010E944F209B01AC01F6
:1018D000C501B4010E940A1E0E943C1F7093D005EE
:1018E0006093CF058091E602883009F082C00E94A3
:1018F000020290938A058093890580919A02811152
:101900003AC08F5F80939A020E940202BC0188272E
:1019100077FD8095982F0E946F1F9B01AC0160910D
:10192000EB027091EC028091ED029091EE020E9428
:101930000A1E6093EB027093EC028093ED02909389
:10194000EE0280919A028A30E0F220E030E040E23C
:1019500051E46091EB027091EC028091ED02909164
:10196000EE020E94D41E6093EB027093EC0280930F
:10197000ED029093EE026091890570918A058827A7
:1019800077FD8095982F0E946F1F2091EB02309178
:10199000EC024091ED025091EE020E94091E2DECE6
:1019A0003CEC4CEC5DE30E944F206B017C016091AC
:1019B000EF027091F002882777FD8095982F0E94A2
:1019C0006F1F26E636E646E65FE30E944F209B0146
:1019D000AC01C701B6010E940A1E0E943C1F709311
:1019E0008E0560938D057093F0026093EF02109264
:1019F000E6028091E6028F5F8093E6028091C20248
:101A00009091C302A091C402B091C50225968CAFFB
:101A10009DAFAEAFBFAF2597809094029090950296
:101A2000A0909602B09097026091E0057091E10558
:101A3000882777FD8095982F0E946F1F6B017C018E
:101A40006091CC05772767FD7095872F972F0E94AF
:101A50006F1F25962CAD3DAD4EAD5FAD25970E9415
:101A6000091EA50194010E944F209B01AC01C701F2
:101A7000B6010E940A1E0E943C1F8B017501640181
:101A8000F7FAF094F7F8F0944090A5055090A60569
:101A90006090A7057090A8058091840090918500C2
:101AA000A0918600B0918700898F9A8FAB8FBC8FF1
:101AB0002091B1053091B2054091B3055091B40524
:101AC000C301B2010E940A1E298D3A8D4B8D5C8D97
:101AD0000E94091E9B01AC01C701B6010E944F2064
:101AE0002091C2053091C3054091C4055091C505B0
:101AF0000E940A1E6F8F78A389A39AA38091BE02C9
:101B00009091BF02A091C002B091C10229968CAF02
:101B10009DAFAEAFBFAF29979C01AD01C701B60124
:101B20000E944F209B01AC01C301B2010E940A1E1A
:101B30006BA37CA38DA39EA3209180003091810094
:101B40004091820050918300C501B4010E944F2052
:101B500062966FAF629763967FAF639764968FAF1D
:101B6000649765969FAF65978091B6029091B70292
:101B7000A091B802B091B9022D968CAF9DAFAEAFD7
:101B8000BFAF2D976091E1027091E202882777FD47
:101B90008095982F0E946F1F2B013C016091DF05FB
:101BA000772767FD7095872F972F0E946F1F2D96BF
:101BB0002CAD3DAD4EAD5FAD2D970E94091E9B0132
:101BC000AC01C501B4010E944F209B01AC01C301CF
:101BD000B2010E940A1E0E943C1F7E8F6D8F4090B2
:101BE000E6055090E7056090E8057090E9052091C2
:101BF000E2053091E3054091E4055091E505C3010C
:101C0000B2010E940A1E298D3A8D4B8D5C8D0E9477
:101C1000091E9B01AC01C701B6010E944F20209113
:101C20009705309198054091990550919A050E9429
:101C30000A1E698F7FA388A799A78091B20290910D
:101C4000B302A091B402B091B50261968CAF9DAF82
:101C5000AEAFBFAF61979C01AD01C701B6010E9455
:101C60004F209B01AC01C301B2010E940A1E6AA76A
:101C70007BA78CA79DA7B801882777FD8095982F13
:101C80000E946F1F4B015C019B01AC016091CB0274
:101C90007091CC028091CD029091CE020E94091EDB
:101CA00069AF7AAF8BAF9CAF472F382F292F862F84
:101CB000942FA32FB22F8093B9059093BA05A093C8
:101CC000BB05B093BC0540907C0050907D006090B7
:101CD0007E0070907F00A3019201BF8DA8A1F9A1A1
:101CE000EAA16B2F7A2F8F2F9E2F0E940A1E162F8C
:101CF000072FF82EE92E862F902FAF2DBE2D809323
:101D0000830590938405A0938505B0938605212FC4
:101D1000302F4A2F5B2FBF8DA8A1F9A1EAA16B2F0D
:101D20007A2F8F2F9E2F0E94D41E362E272E8EA7FD
:101D30009FA7382F292F862F922DA32FB22F809364
:101D4000710590937205A0937305B0937405212FCC
:101D5000302F4F2D5E2DBBA1ACA1FDA1EEA16B2FAD
:101D60007A2F8F2F9E2F0E94D41E68AB79AB8AAB3F
:101D70009BAB472F382F292F862F942FA32FB22FBD
:101D80008093BA029093BB02A093BC02B093BD02B1
:101D9000AD8DBE8DBD01882777FD8095982F0E945F
:101DA0006F1F6B017C019B01AC016091C7027091B8
:101DB000C8028091C9029091CA020E94091E6DAFAB
:101DC0007EAF8FAF21969FAF2197472F382F292FB6
:101DD000862F942FA32FB22F8093EE059093EF05BB
:101DE000A093F005B093F105A3019201B98DAFA1C5
:101DF000F8A5E9A56B2F7A2F8F2F9E2F0E940A1E20
:101E0000162F072F782E692E862F902FA72DB62DEF
:101E10008093DB059093DC05A093DD05B093DE0590
:101E2000212F302F4A2F5B2FB98DAFA1F8A5E9A53F
:101E30006B2F7A2F8F2F9E2F0E94D41E6D8F7CAB1D
:101E4000482E592E472F862F942FA42DB52D8093E1
:101E5000F5059093F605A093F705B093F805212FAB
:101E6000302F472D562DBAA5ABA5FCA5EDA56B2FA0
:101E70007A2F8F2F9E2F0E94D41E6DAB7EAB8FAB1F
:101E800098AF472F382F292F862F942FA32FB22FAB
:101E90008093AE029093AF02A093B002B093B102D0
:101EA0009EA58FA5232D322D492F582FB9ADAAAD50
:101EB000FBADECAD6B2F7A2F8F2F9E2F0E944F2002
:101EC0009B01AC01C501B4010E940A1E0E943C1F87
:101ED0007093E1056093E00578A969A99AA98BA997
:101EE000272F362F492F582FB9ADAAADFBADECAD3A
:101EF0006B2F7A2F8F2F9E2F0E944F209B01AC01BA
:101F000025966CAD7DAD8EAD9FAD25970E940A1EC6
:101F10006093C2027093C3028093C4029093C5027F
:101F20009EA58FA5232D322D492F582FBF8DA8A1F7
:101F3000F9A1EAA16B2F7A2F8F2F9E2F0E944F209D
:101F40009B01AC01BF8DA8A1F9A1EAA16B2F7A2F4B
:101F50008F2F9E2F0E94091E162F072FB82EA92EF5
:101F6000862F902FAB2DBA2D8093C2059093C30579
:101F7000A093C405B093C5059EA58FA5232D322D32
:101F8000492F582FBBA1ACA1FDA1EEA16B2F7A2F39
:101F90008F2F9E2F0E944F209B01AC01BBA1ACA1B3
:101FA000FDA1EEA16B2F7A2F8F2F9E2F0E94091E6D
:101FB000762E672E282E392E862F962DA22DB32D04
:101FC0008093A5059093A605A093A705B093A805B7
:101FD000212F302F4B2D5A2DB8A9A9A9FAA9EBA969
:101FE0006B2F7A2F8F2F9E2F0E944F209B01AC01C9
:101FF000BBA1ACA1FDA1EEA16B2F7A2F8F2F9E2F3D
:102000000E94091E6093B1057093B2058093B305D9
:102010009093B40562967FAD629763966FAD6397B8
:1020200064969FAD649765968FAD6597272F362F81
:10203000492F582F29966CAD7DAD8EAD9FAD299758
:102040000E940A1E4B015C01272D362D422D532D77
:10205000B8A9A9A9FAA9EBA96B2F7A2F8F2F9E2FC8
:102060000E944F209B01AC01C501B4010E94091ED2
:102070006093BE027093BF028093C0029093C1022E
:102080007D8D6CA9272F362F442D552DBDADAEADBE
:10209000FFAD2196EFAD21976B2F7A2F8F2F9E2FBB
:1020A0000E944F209B01AC01C701B6010E940A1E8D
:1020B0000E943C1F7093E2026093E1027DA96EA929
:1020C0009FA988AD272F362F492F582FBDADAEAD14
:1020D000FFAD2196EFAD21976B2F7A2F8F2F9E2F7B
:1020E0000E944F209B01AC012D966CAD7DAD8EAD55
:1020F0009FAD2D970E940A1E6093B6027093B7029F
:102100008093B8029093B9027D8D6CA9272F362F4A
:10211000442D552DB98DAFA1F8A5E9A56B2F7A2FC8
:102120008F2F9E2F0E944F209B01AC01B98DAFA134
:10213000F8A5E9A56B2F7A2F8F2F9E2F0E94091EDD
:10214000E62EF72E082F192F862F9F2DA02FB12FA7
:102150008093970590939805A0939905B0939A055D
:102160007D8D6CA9272F362F442D552DBAA5ABA5F3
:10217000FCA5EDA56B2F7A2F8F2F9E2F0E944F204D
:102180009B01AC01BAA5ABA5FCA5EDA56B2F7A2FE1
:102190008F2F9E2F0E94091EA62EB72EC82ED92E35
:1021A000862F9B2DAC2DBD2D8093E6059093E705E2
:1021B000A093E805B093E9052E2D3F2D402F512F18
:1021C000BDA9AEA9FFA9E8AD6B2F7A2F8F2F9E2F47
:1021D0000E944F209B01AC01BAA5ABA5FCA5EDA5C3
:1021E0006B2F7A2F8F2F9E2F0E94091E6093E2057E
:1021F0007093E3058093E4059093E50561962CAD1B
:102200003DAD4EAD5FAD61976296BFAD629763968F
:10221000AFAD63976496FFAD64976596EFAD659734
:102220006B2F7A2F8F2F9E2F0E940A1E2B013C01AD
:102230002A2D3B2D4C2D5D2DBDA9AEA9FFA9E8ADE2
:102240006B2F7A2F8F2F9E2F0E944F209B01AC0166
:10225000C301B2010E94091E6093B2027093B302DF
:102260008093B4029093B50286E493E00E94CF0A73
:102270006093D1057093D2058093D3059093D405D4
:1022800080E393E00E94CF0A6093BD057093BE0582
:102290008093BF059093C00587E693E00E94CF0A24
:1022A00024E630E040E050E00E94C9203093AD02C7
:1022B0002093AC02E2E8F2E0808191818E369105B4
:1022C0000CF07AC08091880290918902803B910540
:1022D0000CF472C080918602909187028B3A91052E
:1022E0000CF46AC080918402909185028B3A91052A
:1022F0000CF462C08091A30281113EC08091A202C1
:1023000081115CC081E08093A2028093A30286E4E5
:1023100093E00E94CF0A6093790570937A058093C9
:102320007B0590937C0580E393E00E94CF0A609345
:102330009D0570939E0580939F059093A00581E66F
:1023400091E00E94A51D60919D0570919E05809170
:102350009F059091A0050E94C91D8FE691E00E9403
:10236000A51D6091790570917A0580917B0590910A
:102370007C050E94E71D22C0813001F58091A202F8
:1023800081111CC081E08093A2021092A3021092DE
:10239000790510927A0510927B0510927C051092B7
:1023A0009D0510929E0510929F051092A00586E74C
:1023B00091E00E94B51D02C01092A202A2E8B2E014
:1023C0008D919C918238910584F58091880290913D
:1023D00089028C3991054CF1809186029091870297
:1023E0008238910514F580918402909185028C3990
:1023F0009105DCF08091A10281110AC09091A002A8
:1024000091114CC081E08093A0028093A10213C07F
:10241000813009F043C08091A00281110CC081E09D
:102420008093A0021092A1023BC01092A002809162
:10243000A102813099F5969A80918F009091900039
:102440008C36B7E09B0719F08C3F984011F4959AB1
:1024500001C0959880919F028F5F80939F02843185
:1024600009F4979A80919F02863109F49798809198
:102470009F02883209F4949A80919F028A3209F46B
:10248000949880919F028E3209F4949A80919F02D1
:10249000803349F4949810929F0205C0811103C0C3
:1024A00082B38F7082BBACE8B2E08D919C91813990
:1024B000910524F083E080930C0312C0ECE8F2E075
:1024C000808191818C38910544F08081918180399F
:1024D00091051CF410920C0303C082E080930C035E
:1024E00080910C0390910B03981721F091E0909349
:1024F0000A0302C010920A03823009F49DC120F43D
:10250000882351F00C947E1B833009F4ABC38430D4
:1025100011F00C947E1BEDC080910A03813021F4F0
:1025200088E891E00E94B51DA2E8B2E02D913C91AF
:10253000220F331FC901880F991F880F991F880F19
:10254000991F821B930B8E5D9E4FAA2797FDA09526
:10255000BA2FE0E6F0E080839183A283B3832091D9
:102560008402309185024FE0429FC001439F900D4D
:1025700011248A569F4FAA2797FDA095BA2FE4E60B
:10258000F0E080839183A283B3832091860230910F
:102590008702429FC001439F900D1124AA2797FDF7
:1025A000A095BA2FE8E6F0E080839183A283B383FD
:1025B0002091880230918902220F331FC901880FB0
:1025C000991F880F991F880F991F821B930B8E5D8F
:1025D0009E4FAA2797FDA095BA2FECE6F0E08083E6
:1025E0009183A283B38380918A0290918B02883772
:1025F00091053CF486EE95E09093900080938F00D7
:1026000022C080918A0290918B02803A910574F4E5
:1026100080918A0290918B02883891053CF08CE67B
:1026200097E09093900080938F000DC080918A0274
:1026300090918B02813A910534F08CEF98E0909361
:10264000900080938F00A0E7B0E04D915D916D9177
:102650007C9180918F0090919000A0E0B0E04817AD
:1026600059076A077B0774F4E0E7F0E08081918105
:10267000A281B3810A96A11DB11D80839183A2839B
:10268000B3831DC0E0E7F0E0408151816281738136
:1026900084179507A607B70764F480819181A2810A
:1026A000B3810A97A109B10980839183A283B3837F
:1026B00006C0E0E7F0E080839183A283B3838AECD5
:1026C00098E0A0E0B0E08093740090937500A09330
:1026D0007600B093770085E892E0A0E0B0E08093C8
:1026E000780090937900A0937A00B0937B000C94CB
:1026F0007E1B80910A03813009F056C084E991E085
:102700000E94B51DA0E6B0E00D911D912D913C9168
:1027100000930103109302032093030330930403F7
:10272000E4E6F0E040815181628173814093FD02D3
:102730005093FE026093FF0270930003A8E6B0E09E
:10274000CD90DD90ED90FC90C0920503D0920603F1
:10275000E0920703F0920803ECE6F0E080819181BB
:10276000A281B3818093F9029093FA02A093FB02B5
:10277000B093FC02E8E6F0E0C082D182E282F3820C
:10278000E0E6F0E00083118322833383E4E6F0E0A7
:102790004083518362837383ECE6F0E0808391830E
:1027A000A283B38380E004C080919C0288321CF431
:1027B0008F5F80939C0280919C028832B9F489EAF1
:1027C00091E00E94B51DE4E6F0E080819181A28154
:1027D000B3818C509E4FAF4FBF4F80839183A283B4
:1027E000B38380919C028F5F80939C0280919C02B6
:1027F000982F9952903118F48F5F80939C028091AA
:102800009C02893309F07AC789EA91E00E94B51DDC
:10281000E4E6F0E080819181A281B381845F914000
:10282000A109B10980839183A283B38380919C0223
:102830008F5F80939C0262C780910A03813009F008
:10284000F2C082EB91E00E94B51D8091CF0590917E
:10285000D0059093900580938F059093F802809314
:10286000F7028091FE059091FF059093F305809308
:10287000F2056091E1027091E202882777FD809570
:10288000982F0E946F1F6093DD027093DE02809389
:10289000DF029093E002609391057093920580931C
:1028A0009305909394058091E0059091E1059093B4
:1028B000AA058093A90580E090E0A0E7B1E48093A9
:1028C000F9059093FA05A093FB05B093FC05E8E6A3
:1028D000F0E080819181A281B38180930503909380
:1028E0000603A0930703B0930803E4E6F0E08081B9
:1028F0009181A281B3818093FD029093FE02A09307
:10290000FF02B0930003E0E6F0E080819181A281B4
:10291000B3818093010390930203A0930303B093C8
:102920000403ECE6F0E080819181A281B381809381
:10293000F9029093FA02A093FB02B093FC0210926A
:10294000F6021092F5021092F4021092F302109225
:10295000F2021092F1021092A1051092A2051092BB
:10296000A3051092A4051092D5051092D6051092D9
:10297000D7051092D80510929C0510929B051092D5
:10298000CE051092CD051092E4021092E30210924F
:10299000D9021092DA021092DB021092DC0210923D
:1029A000D5021092D6021092D7021092D80210923D
:1029B000D1021092D2021092D3021092D4028091CE
:1029C000C6059091C7059093D0028093CF0281EC09
:1029D00091E00E94A51D60918F0570919005882758
:1029E00077FD8095982F0E94C91D8EED91E00E9481
:1029F000A51D6091F2057091F305882777FD8095FC
:102A0000982F0E94C91D8EED91E00E94A51D609136
:102A1000F9057091FA058091FB059091FC050E94E3
:102A20003C1F0E94E71DA0E9B2E08D919C918D387A
:102A300091050CF180918D0590918E058F31910556
:102A400044F083E080938A0080938800809389001B
:102A500019C0459744F085E080938A0080938800F0
:102A6000809389000FC087E080938A00809388005C
:102A70008093890007C087E080938A008093880054
:102A80008093890090918A008091CC059802C001C2
:102A90001124AA2797FDA095BA2F42E552E0FA012A
:102AA00080839183A283B383909188008091DF0516
:102AB0009802C0011124AA2797FDA095BA2F2EE4F1
:102AC00032E0F90180839183A283B38390918900DE
:102AD0008091E5029802C0011124AA2797FDA095D4
:102AE000BA2F0F2EF6E5EF2EF2E0FF2EF02DF701B4
:102AF00080839183A283B383E0918602F091870261
:102B0000DA014D915D916D917C911FE01E9FC00196
:102B10001F9F900D1124AA2797FDA095BA2F841B03
:102B2000950BA60BB70BE8E6F0E080839183A283B8
:102B3000B383A0918402B0918502F9014081518153
:102B4000628173811A9FC0011B9F900D11248A56C8
:102B50009F4FAA2797FDA095BA2F841B950BA60B14
:102B6000B70BE4E6F0E080839183A283B3832091E6
:102B7000880230918902D7014D915D916D917C91D0
:102B8000220F331FC901880F991F880F991F880FC3
:102B9000991F821B930B8E5D9E4FAA2797FDA095D0
:102BA000BA2F840F951FA61FB71FECE6F0E08083B5
:102BB0009183A283B383A2E8B2E02D913C91220FCE
:102BC000331FC901880F991F880F991F880F991FFC
:102BD000821B930B8E5D9E4FAA2797FDA095BA2F5F
:102BE000E0E6F0E080839183A283B38380918E023C
:102BF00090918F028D38910594F12091C605309106
:102C0000C70588E19CEF821B930B0AF403969C0195
:102C1000359527953595279586EE95E0821B930B84
:102C2000AA2797FDA095BA2FE0E7F0E08083918373
:102C3000A283B38380819181A281B381863E954036
:102C4000A105B10544F486EE95E0A0E0B0E08083F4
:102C50009183A283B38381E08093C6024FC5109213
:102C6000C6024CC580910A03813009F0FCC082EE97
:102C700091E00E94B51D8091CF059091D005909371
:102C8000900580938F059093F8028093F7028091CE
:102C9000AC029091AD029093F3058093F2056091A0
:102CA000E1027091E202882777FD8095982F0E94BB
:102CB0006F1F6093DD027093DE028093DF029093BA
:102CC000E002609391057093920580939305909331
:102CD00094058091E0059091E1059093AA05809379
:102CE000A90560918D0570918E05882777FD8095E7
:102CF000982F0E946F1F6093F9057093FA058093D7
:102D0000FB059093FC05E8E6F0E080819181A281CB
:102D1000B3818093050390930603A0930703B093B8
:102D20000803E4E6F0E080819181A281B381809381
:102D3000FD029093FE02A093FF02B0930003E0E631
:102D4000F0E080819181A281B3818093010390930F
:102D50000203A0930303B0930403ECE6F0E0808148
:102D60009181A281B3818093F9029093FA02A0939A
:102D7000FB02B093FC021092F6021092F502109240
:102D8000F4021092F3021092F2021092F1021092E9
:102D9000A1051092A2051092A3051092A40510920D
:102DA000D5051092D6051092D7051092D80510922D
:102DB0009C0510929B051092CE051092CD051092A5
:102DC000E4021092E3021092D9021092DA021092F9
:102DD000DB021092DC021092D5021092D602109201
:102DE000D7021092D8021092D1021092D202109201
:102DF000D3021092D40263E085E00E9433040E9463
:102E0000C3040E9431050E94EF040E946B0481EC10
:102E100091E00E94A51D60918F0570919005882713
:102E200077FD8095982F0E94C91D8EED91E00E943C
:102E3000A51D6091F2057091F305882777FD8095B7
:102E4000982F0E94C91D8EED91E00E94A51D6091F2
:102E5000F9057091FA058091FB059091FC050E949F
:102E60003C1F0E94E71D80918E0290918F028B592A
:102E700091094E974CF48091F7029091F80290934B
:102E8000900580938F0509C08091F7029091F80218
:102E90000A969093900580938F050091E00510911C
:102EA000E1058091A9059091AA05081B190B1093C3
:102EB0009C0500939B05A090CD05B090CE05A00E7B
:102EC000B11EB092CE05A092CD05C0909402D090D4
:102ED0009502E0909602F0909702B801660F771F76
:102EE000C801880F991F880F991F880F991F680FB5
:102EF000791F882777FD8095982F0E946F1F2B01DF
:102F00003C01B501660F771FAA0CBB1CAA0CBB1CA9
:102F1000AA0CBB1C6A0D7B1D882777FD8095982F16
:102F20000E946F1FA70196010E944F209B01AC01D8
:102F3000C301B2010E940A1E4B015C018091E302B1
:102F40009091E402B801681B790B660F771F882700
:102F500077FD8095982F0E946F1F2B013C0120E088
:102F600030E040E450E4C701B6010E944F209B01CD
:102F7000AC01C301B2010E94D41E9B01AC01C5018A
:102F8000B4010E940A1E0E943C1F60936E0270935F
:102F90006F0280937002909371028091FD058F5FA4
:102FA0008093FD05833031F41093E4020093E30233
:102FB0001092FD0590918A008091CC059802C00185
:102FC0001124AA2797FDA095BA2FE2E5F2E08083AD
:102FD0009183A283B38300916E0210916F022091BE
:102FE00070023091710240815181628173818091C0
:102FF000050390910603A0910703B0910803801B7D
:10300000910BA20BB30B841B950BA60BB70BE8E639
:10301000F0E080839183A283B38380819181A28138
:10302000B381893B9B40A105B1054CF088EB9BE047
:10303000A0E0B0E080839183A283B38313C0E8E66D
:10304000F0E080819181A281B381883E9340A10507
:10305000B10544F488EE93E0A0E0B0E08083918372
:10306000A283B38380918A0290918B028738910565
:1030700084F580918A0290918B02893791054CF1F9
:1030800080910903813029F5109209038091AC02E7
:103090009091AD029093F3058093F2058FEE91E04D
:1030A0000E94A51D6091F2057091F305882777FDB8
:1030B0008095982F0E94E71D63E085E00E9433040D
:1030C0000E94C3040E9431050E94EF040E946B0419
:1030D000A4C080918A0290918B02803A91050CF0F5
:1030E0009CC080918A0290918B02873991050CF4E3
:1030F00094C080910903811190C081E080930903FD
:10310000C0907905D0907A05E0907B05F0907C0521
:10311000C0927D05D0927E05E0927F05F0928005F9
:1031200080919D0590919E05A0919F05B091A0056D
:103130008093C8059093C905A093CA05B093CB05A9
:103140000091D1051091D2052091D3053091D4057D
:10315000C01AD10AE20AF30AC0927505D092760528
:10316000E0927705F09278050091BD051091BE05BB
:103170002091BF053091C005BC01CD01601B710BD2
:10318000820B930B6093A4027093A5028093A60216
:103190009093A7020E946F1F4B015C01C701B6010B
:1031A0000E946F1FA50194010E947D1E20EE3EE249
:1031B00045E652E40E944F200E943C1F77232CF0EA
:1031C0007093AB026093AA0206C068597E4F709359
:1031D000AB026093AA028091AA029091AB029093F5
:1031E000F3058093F2058DEF91E00E94A51D60919B
:1031F000F2057091F305882777FD8095982F0E943E
:10320000E71D63E085E00E9433040E94C3040E942E
:1032100031050E9405050E9481042091AC02309185
:10322000AD028091F2059091F305281B390BC9017D
:1032300088599E4F843B91052CF030938C05209348
:103240008B0504C090938C0580938B0500918B05B2
:1032500010918C058091A8029091A902800F911F76
:103260009093A9028093A802C0909402D0909502F6
:10327000E0909602F0909702B801882777FD80953C
:10328000982F0E946F1F4B015C018091AF059091B8
:10329000B005B801681B790B882777FD8095982FBA
:1032A0000E946F1FA70196010E944F209B01AC0155
:1032B000C501B4010E940A1E4B015C01B7FAB0942B
:1032C000B7F8B0948092910590929205A0929305E0
:1032D000B09294051093B0050093AF0520E030E064
:1032E00040E251ECC501B4010E94D01E88236CF469
:1032F00080E090E0A0E2B1EC80939105909392057C
:10330000A0939305B093940516C020E030E040E20E
:1033100051E4C501B4010E944420181664F480E011
:1033200090E0A0E2B1E48093910590939205A09380
:103330009305B09394056091E1027091E2028827B1
:1033400077FD8095982F0E946F1F9B01AC016091C3
:10335000DD027091DE028091DF029091E0020E9416
:10336000091E262E372E082F192F862F932DA02FBA
:10337000B12F8093D9029093DA02A093DB02B0932D
:10338000DC022091D5023091D6024091D7025091B3
:10339000D802622D732D802F912F0E940A1E462E77
:1033A000572E682E792E862F952DA62DB72D80931A
:1033B000D5029093D602A093D702B093D80220E012
:1033C00030E040E251E4622D732D802F912F0E9456
:1033D0004F204B015C0120E030E040E251E4642DDD
:1033E000752D862D972D0E944F209B01AC01C701A2
:1033F000B6010E944F209B01AC01C501B4010E949F
:103400000A1E4B015C012091D1023091D202409101
:10341000D3025091D402622D732D802F912F0E94E0
:10342000091E2B013C0120E030E040E450E4C701DC
:10343000B6010E944F209B01AC01C301B2010E9462
:10344000D41E9B01AC010E940A1E9B01AC01C50168
:10345000B4010E940A1E0E943C1F60936A0270938E
:103460006B0280936C0290936D0280919B028F5F40
:1034700080939B02833071F4822D932DA02FB12F66
:103480008093D1029093D202A093D302B093D4023E
:1034900010929B02909188008091DF059802C001F4
:1034A0001124AA2797FDA095BA2FEEE4F2E08083BD
:1034B0009183A283B38300916A0210916B022091E1
:1034C0006C0230916D0240815181628173818091E3
:1034D000FD029091FE02A091FF02B0910003800FC7
:1034E000911FA21FB31F841B950BA60BB70BE4E61D
:1034F000F0E080839183A283B38380819181A28154
:10350000B381893B9B40A105B1054CF088EB9BE062
:10351000A0E0B0E080839183A283B38313C0E4E68C
:10352000F0E080819181A281B381883E9340A10522
:10353000B10544F488EE93E0A0E0B0E0808391838D
:10354000A283B383909189008091E5029802C00123
:103550001124AA2797FDA095BA2FE6E5F2E0808313
:103560009183A283B3834081518162817381809171
:10357000F9029091FA02A091FB02B091FC02840F33
:10358000951FA61FB71FECE6F0E080839183A2830E
:10359000B38360918D0570918E05882777FD8095A6
:1035A000982F0E946F1F9B01AC016091F9057091EB
:1035B000FA058091FB059091FC050E94091E762E6C
:1035C000072F182F292E862F902FA12FB22D8093F1
:1035D000A1059093A205A093A305B093A405209103
:1035E000D5053091D6054091D7055091D805672D66
:1035F000702F812F922D0E940A1E362E472E582E94
:10360000692E862F942DA52DB62D8093D5059093E8
:10361000D605A093D705B093D805609101037091AA
:10362000020380910303909104030E946F1F4B01DA
:103630005C0120E030E040EA50E4672D702F812FDC
:10364000922D0E944F209B01AC01C501B4010E9444
:103650000A1E4B015C0120E030E040E450E4632DA1
:10366000742D852D962D0E944F209B01AC01C70122
:10367000B6010E944F209B01AC01C501B4010E941C
:103680000A1E0E943C1FA0E6B0E06D937D938D93CF
:103690009C9313978D919D910D90BC91A02D893B8A
:1036A0009B40A105B1055CF088EB9BE0A0E0B0E099
:1036B000E0E6F0E080839183A283B38313C0E0E669
:1036C000F0E080819181A281B3818A3E9640A1057C
:1036D000B10544F48AEE96E0A0E0B0E080839183E7
:1036E000A283B383872D902FA12FB22D8093E70261
:1036F0009093E802A093E902B093EA0280919D02C0
:103700008F5F813219F080939D02AFC010929D02AD
:103710008091A302813059F461E085E00E94330476
:103720000E9473050E9481040E9489050AC061E01D
:1037300085E00E9433040E941B050E9431050E940F
:10374000D2058091A102813059F460E085E00E94A9
:1037500033040E9431050E941B050E94D2050AC055
:1037600060E085E00E9433040E9431050E949704C6
:103770000E94970480919E02813538F061E070E0EC
:103780008EE090E00E94E8052AC08D3338F061E0B9
:1037900070E08EE090E00E94540621C0893238F03B
:1037A00061E070E08EE090E00E94C00618C08F31AA
:1037B00038F061E070E08EE090E00E942C070FC0CE
:1037C000803138F061E070E08EE090E00E94980770
:1037D00006C061E070E08EE090E00E9404088091F5
:1037E0000C03811119C062E085E00E9433040E943D
:1037F0006B040E94D9040E945D050E94D20563E01B
:1038000085E00E9433040E94D2050E94D2050E94E6
:10381000D2050E94D20529C0833069F462E085E0B8
:103820000E9433040E94C3040E9431050E94EF04E9
:103830000E946B041AC08230C1F462E085E00E94ED
:1038400033040E946B040E9455040E9405050E94E7
:10385000470563E085E00E9433040E94D2050E9480
:10386000D2050E94D2050E94D205A0E6B0E06D917B
:103870007D918D919C910E94C91D8FE092E00E94E4
:10388000A51DE4E6F0E060817181828193810E9450
:10389000C91D8FE092E00E94A51DA8E6B0E06D91E1
:1038A0007D918D919C910E94C91D8FE092E00E94B4
:1038B000A51DECE6F0E060817181828193810E9418
:1038C000C91D8FE092E00E94A51DA0E7B0E06D91B8
:1038D0007D918D919C910E94C91D8FE092E00E9484
:1038E000A51D6091E1027091E202882777FD809525
:1038F000982F0E94C91D8FE092E00E94A51D609143
:10390000E0057091E105882777FD8095982F0E944A
:10391000C91D8FE092E00E94A51D6091AC027091DC
:10392000AD02882777FD8095982F0E94C91D8FE0F2
:1039300092E00E94A51D6091CF057091D005882767
:1039400077FD8095982F0E94C91D8FE092E00E941C
:10395000A51D60918D0570918E05882777FD809556
:10396000982F0E94C91D8FE092E00E94A51D6091D2
:103970008800772767FD7095872F972F0E94C91DB4
:103980008FE092E00E94A51D60918A00772767FD75
:103990007095872F972F0E94C91D8FE092E00E949B
:1039A000A51D60918900772767FD7095872F972F58
:1039B0000E94C91D8FE092E00E94A51D6091C60281
:1039C00070E080E090E00E94C91D8091460388234A
:1039D00041F18FE092E00E94A51D8AE193E00E94F0
:1039E000A51D8FE092E00E94A51D86E493E00E9451
:1039F000A51D8FE092E00E94A51D80E393E00E9448
:103A0000A51D8FE092E00E94A51D87E693E00E942D
:103A1000A51D8FE092E00E94A51D82E294E00E9425
:103A2000A51D8FE092E00E94B51D80910C0380934C
:103A30000B0322E832E0EFE5F5E031832083A8951F
:103A40000C94780BF89488E98AB986E880BD10BC9C
:103A50008CE089B978948CB15F99FDCF08951F925D
:103A60000F920FB60F9211242F938F939F93EF9382
:103A7000FF938CB1809370041092710480936F0453
:103A800010920E0380916F048432A1F4E0910D0333
:103A9000809100062BE0E202F0011124E80FF11DF5
:103AA00087FDFA95EE58FB4F108210920006109297
:103AB0000D033DC080916F048C32A9F480910D03F9
:103AC000909100062BE08202F0011124E90FF11D14
:103AD00097FDFA95EE58FB4F1082109200068F5F0B
:103AE00080930D0324C080916F048E3201F1809188
:103AF0006F048A3021F481E080930E0318C0809116
:103B00006F048A30A1F0E0910D038091000690913E
:103B10006F042BE0E202F0011124E80FF11D87FD94
:103B2000FA95EE58FB4F90838F5F80930006FF91CC
:103B3000EF919F918F912F910F900FBE0F901F903B
:103B400018955D9BFECF8CB90895CF93DF93EC0160
:103B50008881882339F0219690E00E94A11D8991E7
:103B60008111FACFDF91CF910895CF93DF93EC01CC
:103B70008881882339F0219690E00E94A11D8991C7
:103B80008111FACF81E192E00E94A51DDF91CF91D2
:103B90000895CF93DF93CDB7DEB76F970FB6F89444
:103BA000DEBF0FBECDBF2AE030E0AE014F5F5F4FFA
:103BB0000E940821CE0101960E94A51D6F960FB6A6
:103BC000F894DEBF0FBECDBFDF91CF910895CF93A4
:103BD000DF93CDB7DEB76F970FB6F894DEBF0FBE99
:103BE000CDBF2AE030E0AE014F5F5F4F0E94082159
:103BF000CE0101960E94A51D81E192E00E94A51DC3
:103C00006F960FB6F894DEBF0FBECDBFDF91CF9198
:103C100008955058BB27AA270ED0FCC1EDD130F033
:103C2000F2D120F031F49F3F11F41EF4BDC10EF427
:103C3000E095E7FBB3C1E92FFED180F3BA17620725
:103C400073078407950718F071F49EF516C20EF4F9
:103C5000E0950B2EBA2FA02D0B01B90190010C019C
:103C6000CA01A0011124FF27591B99F0593F50F4B4
:103C7000503E68F11A16F040A22F232F342F44270C
:103C8000585FF3CF469537952795A795F040539504
:103C9000C9F77EF41F16BA0B620B730B840BBAF0D4
:103CA0009150A1F0FF0FBB1F661F771F881FC2F73F
:103CB0000EC0BA0F621F731F841F48F48795779553
:103CC0006795B795F7959E3F08F0B3CF9395880F0A
:103CD00008F09927EE0F9795879508958DD158F0A4
:103CE00080E891E009F49EEF8ED128F040E851E0A1
:103CF00059F45EEF09C058C1C0C1E92FE0789BD1EB
:103D000068F3092E052AC1F3261737074807590714
:103D100038F00E2E07F8E02569F0E025E0640AC0CF
:103D2000EF6307F8009407FADB01B9019D01DC019C
:103D3000CA01AD01EF9347D06DD10AD05F915523F1
:103D400031F02BED3FE049E450FD49EC63CF08959D
:103D5000DF93DD27B92FBF7740E85FE3161617061C
:103D600048075B0710F4D92F93D19F938F937F93CC
:103D70006F93F8D1E4E5F0E01AD14CD12F913F9147
:103D80004F915F9198D1DD2349F09058A2EA2AED36
:103D90003FE049EC5FE3D0785D274DDFDF913AC12A
:103DA000D9D008F481E008950CD034C12CD140F072
:103DB00023D130F021F45F3F19F0F0C051115EC102
:103DC000F3C039D198F39923C9F35523B1F3951B67
:103DD000550BBB27AA2762177307840738F09F5F2C
:103DE0005F4F220F331F441FAA1FA9F333D00E2E9B
:103DF0003AF0E0E830D091505040E695001CCAF708
:103E000029D0FE2F27D0660F771F881FBB1F2617CC
:103E100037074807AB07B0E809F0BB0B802DBF019F
:103E2000FF2793585F4F2AF09E3F510568F0B6C0B8
:103E300025C15F3FECF3983EDCF386957795679557
:103E4000B795F7959F5FC9F7880F911D9695879550
:103E500097F90895E1E0660F771F881FBB1F62176F
:103E600073078407BA0720F0621B730B840BBA0B2D
:103E7000EE1F88F7E095089504D06894B111FEC054
:103E80000895E1D088F09F5790F0B92F9927B75146
:103E9000A0F0D1F0660F771F881F991F1AF0BA950E
:103EA000C9F712C0B13081F0E8D0B1E00895E5C0A3
:103EB000672F782F8827B85F39F0B93FCCF3869504
:103EC00077956795B395D9F73EF490958095709561
:103ED00061957F4F8F4F9F4F0895E89409C097FBDE
:103EE0003EF490958095709561957F4F8F4F9F4FD1
:103EF0009923A9F0F92F96E9BB279395F695879515
:103F000077956795B795F111F8CFFAF4BB0F11F4D7
:103F100060FF1BC06F5F7F4F8F4F9F4F16C088237E
:103F200011F096E911C0772321F09EE8872F762FB4
:103F300005C0662371F096E8862F70E060E02AF0F5
:103F40009A95660F771F881FDAF7880F96958795E1
:103F500097F90895990F0008550FAA0BE0E8FEEFB6
:103F600016161706E807F907C0F012161306E4073D
:103F7000F50798F0621B730B840B950B39F40A2636
:103F800061F0232B242B252B21F408950A2609F414
:103F9000A140A6958FEF811D811D089597F99F6718
:103FA00080E870E060E008959FEF80EC0895DF9373
:103FB000CF931F930F93FF92EF92DF927B018C01BF
:103FC000689405C0DA2EEF0176D0FE01E894A59141
:103FD0002591359145915591AEF3EF012CDEFE010F
:103FE0009701A801DA9479F7DF90EF90FF900F9195
:103FF0001F91CF91DF91089500240A941616170699
:1040000018060906089500240A94121613061406C9
:1040100005060895092E0394000C11F4882352F02C
:10402000BB0F40F4BF2B11F460FF04C06F5F7F4FE4
:104030008F4F9F4F089557FD9058440F551F59F0CB
:104040005F3F71F04795880F97FB991F61F09F3F85
:1040500079F087950895121613061406551FF2CFAE
:104060004695F1DF08C0161617061806991FF1CFFE
:1040700086957105610508940895E894BB27662725
:104080007727CB0197F9089565DF08F48FEF08953E
:104090009B01AC0160E070E080E89FE385CE0BD02F
:1040A000B9CFAADF28F0AFDF18F0952309F076CF5B
:1040B0007BCF1124E3CFBFDFA0F3959FD1F3950F02
:1040C00050E0551F629FF001729FBB27F00DB11D9C
:1040D000639FAA27F00DB11DAA1F649F6627B00D2C
:1040E000A11D661F829F2227B00DA11D621F739F15
:1040F000B00DA11D621F839FA00D611D221F749F23
:104100003327A00D611D231F849F600D211D822F69
:10411000762F6A2F11249F5750408AF0E1F08823B0
:104120004AF0EE0FFF1FBB1F661F771F881F9150BD
:104130005040A9F79E3F510570F030CF9FCF5F3FB1
:10414000ECF3983EDCF3869577956795B795F795F0
:10415000E7959F5FC1F7FE2B880F911D9695879578
:1041600097F908959B01AC019ACF97FB072E16F49F
:10417000009407D077FD09D00E94EB2007FC05D002
:104180003EF4909581959F4F0895709561957F4F6E
:104190000895A1E21A2EAA1BBB1BFD010DC0AA1F88
:1041A000BB1FEE1FFF1FA217B307E407F50720F0A0
:1041B000A21BB30BE40BF50B661F771F881F991F1B
:1041C0001A9469F760957095809590959B01AC0164
:1041D000BD01CF010895AA1BBB1B51E107C0AA1F57
:1041E000BB1FA617B70710F0A61BB70B881F991F98
:1041F0005A95A9F780959095BC01CD010895FB01D2
:10420000DC018D91019080190110D9F3990B08956B
:10421000FA01CF93FF93EF93223044F1253234F526
:10422000C22FE894CA3049F497FB3EF490958095EC
:10423000709561957F4F8F4F9F4F2C2F33274427C9
:104240005527FF93EF930E94C920EF91FF91605D86
:104250006A330CF0695D6193B901CA016050704026
:104260008040904051F716F4CDE2C19310828F91B7
:104270009F91CF910C943C21DC01FC01672F71913F
:104280007723E1F7329704C07C916D93708362913C
:0C429000AE17BF07C8F30895F894FFCFE5
:10429C00CA080000CA080000CA080000CA080000CA
:1042AC00E6050000CA080000850200000AD7A33CFE
:1042BC000AD7A33B0AD7A33B0705079A99993EE671
:1042CC00056163632073746172746564006261726A
:1042DC006F2073746172746564006261726F5F6FDA
:1042EC0066667365742000414443206F6B00414443
:1042FC00435F6F66667365743A20006779726F204E
:10430C0073746172746564004779726F204F6666CE
:10431C007365743A2000703A2000713A2000723AAA
:10432C0020004779726F2043616C20436F6D706C75
:10433C0065746500536572766F54696D657253745C
:10434C006172746564005461736B54696D6572536A
:10435C007461727465640057646F67446973616259
:10436C006C0057646F6752737400507772557052BB
:10437C007374004272776E4F757452737400457883
:10438C0074527374004750524D4300475047474195
:10439C0000486F6D6520536574204C6174200020BB
:1043AC004C6F6E672000486F6D6520536574204319
:1043BC006C65617265642000444952454354204346
:1043CC0054524C002A54554E494E47204C415420CF
:1043DC00494D50554C53452A005374657020416922
:1043EC006C0044616D70656420434F4E54524F4CC9
:1043FC0000476F616C20416C74202D20486561640E
:10440C00696E67202D2053706565643A2000202D5D
:10441C002000484F4C4420434F4E54524F4C0048C0
:10442C00656164696E6720486F6C64200052657426
:10443C0075726E20486F6D65204865616420003B85
:04444C00000D0A0055
:00000001FF
