:100000000C9441000C94A2060C945E000C945E00CB
:100010000C945E000C94D1060C945E000C94520576
:100020000C945E000C945E000C94FC060C945E0034
:100030000C945E000C947D140C945E000C945E0095
:100040000C945E000C945E000C945E000C945E00B8
:100050000C945E00084AD73B3BCE016E84BCBFFDCA
:10006000C12F3D6C74319ABD56833DDA3D00C77F88
:1000700011BED9E4BB4C3E916BAAAABE0000008021
:100080003F0011241FBECFE5D8E0DEBFCDBF11E099
:10009000A0E6B0E0E8E3F1E302C005900D92AA3DCE
:1000A000B107D9F724E0AAEDB1E001C01D92A23E4C
:1000B000B207E1F70E945C070C949A180C940000B8
:1000C000CF93DF93D82FC62F0E94DF0482E390E006
:1000D0000E94FB048D2F90E00E9406058C2F90E07B
:1000E0000E9411050E942C05DF91CF91089567E4CD
:1000F00080E20E94600060E183E20E94600088E884
:1001000090E00E94031508950F931F93CF93DF9300
:10011000EC010E94DF0482E390E00E94FB0488EA85
:1001200090E00E9406050E94E90483E390E00E94AB
:10013000EF040E9424058093EA010E942405809325
:10014000EB010E9424058093E4010E942405809322
:10015000E5010E9424058093DE010E941C05809326
:10016000DF010E942C058091EB01992787FD909576
:10017000982F88272091EA01822B95958795959550
:10018000879595958795959587959093E9018093A7
:10019000E8010091E501112707FD1095102F0027B8
:1001A0002091E401022B1595079515950795159556
:1001B0000795159507951093E3010093E20140918F
:1001C000DF01552747FD5095542F44272091DE012C
:1001D000422B559547955595479555954795559576
:1001E00047955093DD014093DC01880F991F909350
:1001F000E7018093E601000F111F1093E1010093C6
:10020000E001440F551F5093DB014093DA01AA2708
:1002100097FDA095BA2F88839983AA83BB83222751
:1002200017FD2095322F0C831D832E833F83662775
:1002300057FD6095762F488759876A877B87CE015F
:10024000DF91CF911F910F910895CF93DF93D82F16
:10025000C62F0E94DF0480EC90E00E94FB048D2FEB
:1002600090E00E9406058C2F90E00E9411050E94EC
:100270002C05DF91CF91089569EB86E20E9425015C
:1002800060E889E20E94250166EC84E10E94250174
:100290006BE585E10E94250167E083E10E9425016D
:1002A00084E990E00E9403150895CF930E94DF0433
:1002B00080EC90E00E94FB0480E090E00E94060544
:1002C0000E94E90481EC90E00E94EF040E941C056A
:1002D000C82F0E942C058091F20132C0CE3E81F5DC
:1002E0000E94DF0480EC90E00E94FB0481E090E03B
:1002F0000E9406050E94E90481EC90E00E94EF0450
:100300000E9424058093F5010E9424058093F40146
:100310000E941C058093F3010E942C052091F50199
:10032000332727FD3095322F22278091F401282B87
:100330003093EF012093EE0181E08093F2013FC002
:10034000882361F2CE3EB9F50E94DF0480EC90E094
:100350000E94FB0481E090E00E9406050E94E904EF
:1003600081EC90E00E94EF040E9424058093F50147
:100370000E9424058093F4010E941C058093F301E0
:100380000E942C052091F501332727FD3095322F4F
:1003900022278091F401282B3093EF012093EE0166
:1003A0008091F0019091F101281B390B3093ED0100
:1003B0002093EC0104C02091EC013091ED01822FDB
:1003C000932FCF9108950E9455019093F10180934E
:1003D000F00181EA90E00E94F3146091F0017091C5
:1003E000F101882777FD8095982F0E943515089593
:1003F0001ABA80E487B987E886B98EEA90E00E944D
:1004000003150895CF93DF9383E087B9369A369921
:10041000FECFC4B1D0E0D0930102C093000225B159
:10042000922F80E0C82BD92BD0930102C0930002F9
:10043000BE01660F771F6C0F7D1F6A5F75408827AE
:1004400077FD8095982F0E94BD166093FA017093F6
:10045000FB018093FC019093FD018091F801909144
:10046000F901019751F48091F6019091F701C81BB1
:10047000D90BD093FF01C093FE018C2F9D2FDF91EC
:10048000CF910895CF93DF93C2E3D0E00E940202A0
:100490002091F6013091F701820F931F9093F7019D
:1004A0008093F601219791F762E370E00E940318B0
:1004B0007093F7016093F60185EB90E00E94F314CE
:1004C0006091F6017091F701882777FD8095982F4C
:1004D0000E94351581E090E09093F9018093F80136
:1004E0002FE986E891E0215080409040E1F700C07C
:1004F0000000DF91CF910895CF93DF93D82FC62FBF
:100500000E94DF0486ED90E00E94FB048D2F90E0B6
:100510000E9406058C2F90E00E9411050E942C0578
:10052000DF91CF9108956FE080E20E947C0260E24B
:1005300081E20E947C0260E184E20E947C0282EC03
:1005400090E00E94031508958F929F92AF92BF9200
:10055000CF92DF92EF92FF920F931F93CF93DF938F
:10056000EC010E94DF0486ED90E00E94FB0488EA23
:1005700090E00E9406050E94E90487ED90E00E9449
:10058000EF040E942405809316020E9424058093A4
:1005900017020E942405809312020E942405809372
:1005A00013020E94240580930E020E941C05809372
:1005B0000F020E942C0560911702772767FD709546
:1005C000762F662780911602682B70931502609330
:1005D0001402E0901302FF24E7FCF094FE2CEE24BA
:1005E00080911202E82AF0921102E092100200912A
:1005F0000F02112707FD1095102F002780910E0282
:10060000082B10930D0200930C02882777FD80952C
:10061000982F0E94BD1629E23CE54FE05CE30E9462
:100620009D170E948A164B015C01B701882777FD50
:100630008095982F0E94BD1629E23CE54FE05CE3CF
:100640000E949D170E948A166B017C01B8018827C1
:1006500077FD8095982F0E94BD1629E23CE54FE07A
:100660005CE30E949D170E948A162091020230913D
:1006700003022130310521F5009108021091090291
:10068000222717FD2095322F801A910AA20AB30A59
:100690000091060210910702222717FD2095322FA4
:1006A000C01AD10AE20AF30A00910402109105026D
:1006B000222717FD2095322F601B710B820B930BA5
:1006C00088829982AA82BB82CC82DD82EE82FF82FE
:1006D000688779878A879B87CE01DF91CF911F91A9
:1006E0000F91FF90EF90DF90CF90BF90AF909F90D1
:1006F0008F900895CF93DF93CDB7DEB72C970FB6C9
:10070000F894DEBF0FBECDBF20910A0230910B02DC
:100710002A303105ACF52F5F3F4F30930B02209309
:100720000A02CE0101960E94A40220910802309193
:10073000090289819A81820F931F90930902809305
:10074000080220910602309107028D819E81820F5E
:10075000931F909307028093060220910402309128
:10076000050289859A85820F931F909305028093D5
:10077000040220910A0230910B022A3031055CF20A
:100780008091080290910902B9010E9403187093A8
:100790000902609308028091060290910702B90154
:1007A0000E9403187093070260930602809104026E
:1007B00090910502B9010E9403187093050260939D
:1007C00004028FEC90E00E9403158DED90E00E94F2
:1007D000F3146091080270910902882777FD8095D3
:1007E000982F0E94351581EE90E00E94F3146091DD
:1007F000060270910702882777FD8095982F0E9446
:10080000351585EE90E00E94F3146091040270911A
:100810000502882777FD8095982F0E9435152FE9CE
:1008200086E891E0215080409040E1F700C0000050
:1008300081E090E0909303028093020289EE90E0C1
:100840000E9403152C960FB6F894DEBF0FBECDBFE5
:10085000DF91CF910895CF93DF93D82FC62F0E94B9
:10086000DF048CE390E00E94FB048D2F90E00E9457
:1008700006058C2F90E00E9411050E942C05DF9147
:10088000CF91089560E082E00E942B048BEF90E00E
:100890000E9403150895CF92DF92EF92FF92CF93BB
:1008A000DF930E94DF048CE390E00E94FB0483E06E
:1008B00090E00E9406050E94E9048DE390E00E940A
:1008C000EF040E942405809325020E942405809352
:1008D00024020E94240580931D020E942405809317
:1008E0001C020E942405809321020E941C05809313
:1008F00020020E942C0560912502772767FD7095E4
:10090000762F662780912402682B709323026093D0
:100910002202C0912102DD27C7FDD095DC2FCC2714
:1009200080912002C82BD0931F02C0931E02809199
:100930001D02992787FD9095982F882720911C02EA
:10094000822B90931B0280931A02882777FD809553
:10095000982F0E94BD166B017C01BE01882777FD90
:100960008095982F0E94BD16A70196010E94CB1575
:10097000905820EE3EE245E652E40E949D170E9408
:100980008A1677232CF0709319026093180206C020
:1009900068597E4F70931902609318028091180273
:1009A00090911902DF91CF91FF90EF90DF90CF905F
:1009B000089584E380B986B7856486BF089584EA84
:1009C00086BF06B607FEFDCF81B1887F8830E1F78C
:1009D000089584EA86BF06B607FEFDCF089583B961
:1009E00086B7846C86BF06B607FEFDCF81B1887FCF
:1009F0008034E1F7089583B984E886BF06B607FE20
:100A0000FDCF81B1887F8831E1F7089583B984E80B
:100A100086BF06B607FEFDCF81B1887F8832E1F739
:100A2000089583B984E886BF06B607FEFDCF81B17D
:100A3000887F8832E1F7089584E886BF06B607FE0E
:100A4000FDCF83B190E0089584EC86BF06B607FE23
:100A5000FDCF83B190E0089586B7846986BF06B65E
:100A600004FCFDCF089587B38F6187BB8AB3836091
:100A70008ABB88B3807E88BB8BB38C7F8BBB1FBC4B
:100A80008AE08EBD8AEC98E09BBD8ABD80E48BBF76
:100A900083E085BF85E085BD14BC87E091E00E94BE
:100AA000031508951F920F920FB60F9211242F93E2
:100AB0003F934F935F938F939F93AF93BF93809197
:100AC0002902863009F499C084F4823009F447C0C1
:100AD00034F48823E9F0813009F027C12AC084303A
:100AE00009F464C00CF073C04BC08A3009F4D3C061
:100AF00034F4883009F4A8C00CF0B7C08FC08C3033
:100B000009F4F0C00CF4D8C08D3009F00EC1FBC060
:100B1000C09A8091600090916100A0916200B091B4
:100B200063009BBD8ABD809129028F5F809329025B
:100B3000FCC0C0988091600090916100A09162001B
:100B4000B091630020EA3FE0A901481B590B5BBD4F
:100B50004ABD809129028F5F80932902E6C0C19A25
:100B60008091640090916500A0916600B09167004B
:100B70009BBD8ABD809129028F5F80932902D5C0D9
:100B8000C1988091640090916500A0916600B09139
:100B9000670020EA3FE0A901481B590B5BBD4ABD35
:100BA000809129028F5F80932902BFC0C29A8091F1
:100BB000680090916900A0916A00B0916B009BBDA4
:100BC0008ABD809129028F5F80932902AEC0C298AE
:100BD0008091680090916900A0916A00B0916B00CB
:100BE00020EA3FE0A901481B590B5BBD4ABD80913B
:100BF00029028F5F8093290298C0C39A80916C006C
:100C000090916D00A0916E00B0916F009BBD8ABD68
:100C1000809129028F5F8093290287C0C3988091B9
:100C20006C0090916D00A0916E00B0916F0020EA71
:100C30003FE0A901481B590B5BBD4ABD80912902C9
:100C40008F5F8093290271C0C49A80917000909147
:100C50007100A0917200B09173009BBD8ABD80911C
:100C600029028F5F8093290260C0C4988091700030
:100C700090917100A0917200B091730020EA3FE062
:100C8000A901481B590B5BBD4ABD809129028F5FAA
:100C9000809329024AC0D89A80917400909175007F
:100CA000A0917600B09177009BBD8ABD809129020A
:100CB0008F5F8093290239C0D898809174009091F9
:100CC0007500A0917600B091770020EA3FE0A9017D
:100CD000481B590B5BBD4ABD809129028F5F8093F1
:100CE000290223C0D99A8091780090917900A0912F
:100CF0007A00B0917B009BBD8ABD809129028F5FF5
:100D00008093290212C0D99880917800909179003F
:100D1000A0917A00B0917B0020EA3FE0A901481B36
:100D2000590B5BBD4ABD10922902BF91AF919F91B3
:100D30008F915F914F913F912F910F900FBE0F9028
:100D40001F9018951F920F920FB60F9211242F9398
:100D50008F939F93EF93FF938091260290912702A8
:100D6000019729F410922702109226020FC02091B9
:100D70002802E22FF0E084B590E0EE0FFF1FEE595D
:100D8000FD4F918380832F5F2093280214BCFF9135
:100D9000EF919F918F912F910F900FBE0F901F9009
:100DA00018951F920F920FB60F9211248F939F9355
:100DB0001092280281E090E090932702809326020F
:100DC0009F918F910F900FBE0F901F9018958DE0FF
:100DD00083BF85E78CBF8FE892ECA5EFBCE38093DF
:100DE000740290937502A0937602B093770289E122
:100DF00091E00E94031508951F920F920FB60F9273
:100E000011248F93809178028F5F809378028330D2
:100E100028F081E080937902109278028F910F90F0
:100E20000FBE0F901F90189581B58D6081BD0895FC
:100E30000F931F93FC014191442381F1842F805330
:100E40008A3080F500E010E0980104C0842F8053C0
:100E50008A3058F5D901C801880F991FAA1FBB1FF6
:100E60008C019D01000F111F221F331F000F111F46
:100E7000221F331F800F911FA21FB31F042F10E0EA
:100E800000531109222717FD2095322F080F191F33
:100E90002A1F3B1F41914111D9CF07C000E010E04C
:100EA000980103C000E010E09801602F712F822F9D
:100EB000932F1F910F910895CF93DF93CDB7DEB796
:100EC000C458D1090FB6F894DEBF0FBECDBF0E9443
:100ED000701404B603FE05C085E391E00E94F3148C
:100EE0001EC004B600FE05C08DE391E00E94F3141D
:100EF00016C004B602FE05C086E491E00E94F31419
:100F00000EC004B601FE05C081E591E00E94F31415
:100F100006C064B770E080E090E00E94171584B7C7
:100F2000807F84BF0FE71FE422E101501040204082
:100F3000E1F700C000000E94D904809186009091E2
:100F40008700019721F40E9493020E947A03809106
:100F5000840090918500019711F40E9477008091A0
:100F6000800090918100019721F40E943C010E9431
:100F7000E3018091820090918300019711F40E9417
:100F8000420480917E0090917F00019721F40E949D
:100F9000F8010E944202F8940E94E7060E9433057D
:100FA00082E589BF78940E941407EF961FAEEF97F1
:100FB00060961FAE6097E0961FAE1EAEE0971FAA28
:100FC00018AE19AE1AAE2C961FAE2C972D961FAEEA
:100FD0002D972E961FAE2E972F961FAE2F972896E1
:100FE0001FAE289729961FAE29972A961FAE2A97DB
:100FF0002B961FAE2B97E8961CAE1DAE1EAE1FAEF5
:10100000E897A3961FAEA397A4961FAEA497A596A4
:101010001FAEA597A6961FAEA6971BA61CA61DA63B
:101020001EA6A2961CAE1DAE1EAE1FAEA297C15844
:10103000DF4F19821882CF57D040E4961CAE1DAE08
:101040001EAE1FAEE497CD57DF4F19821882C358EA
:10105000D0403FA628AA80917E028130B1F568E594
:1010600071E082EE93E00E942B18282F392F232B5A
:1010700081F4E2EEF3E0AFE7B2E080EB01900D9295
:101080008A95E1F7E2EEF3E0DF0100EB1D920A95AD
:10109000E9F76EE571E082EE93E00E942B18282FAD
:1010A000392F232B81F4E2EEF3E0AFE2B3E080EBE3
:1010B00001900D928A95E1F7E2EEF3E0DF0100EB9B
:1010C0001D920A95E9F710927E0280917902813093
:1010D00011F00C946D141092790280918600909119
:1010E0008700019709F05CC0CE010D960E94A40212
:1010F0006D85772767FD7095872F972F0E94BD1606
:101100002AE939E949E95EE30E949D176B017C01F8
:1011100027961FAD2797612F772767FD7095872F3B
:10112000972F0E94BD1623E333E343E35FE30E945E
:101130009D179B01AC01C701B6010E9458150E9482
:101140008A1627966FAF27976989772767FD70956D
:10115000872F972F0E94BD162AE939E949E95EE3F6
:101160000E949D176B017C0126960FAD2697602F7C
:10117000772767FD7095872F972F0E94BD1623E371
:1011800033E343E35FE30E949D179B01AC01C7017A
:10119000B6010E9458150E948A1626966FAF2697B0
:1011A0008091840090918500019709F05CC0CE0188
:1011B00001960E94840069857A857195619571090F
:1011C000882777FD8095982F0E94BD166B017C01C2
:1011D00069817A81882777FD8095982F0E94BD16B6
:1011E000A70196010E94CB1520E030E044E353E4D0
:1011F0000E949D172BED3FE049E450E40E94221627
:1012000028966FAF289729967FAF29972A968FAF98
:101210002A972B969FAF2B976D817E817195619553
:101220007109882777FD8095982F0E94BD16A70128
:1012300096010E94CB1520E030E044E353E40E9485
:101240009D172BED3FE049E450E40E9422162C96B6
:101250006FAF2C972D967FAF2D972E968FAF2E9731
:101260002F969FAF2F9780918000909181000197DA
:1012700071F50E945501BC01882777FD8095982F54
:101280000E94BD1623E333E343E35FE30E949D170F
:101290006B017C016A960EAD1FAD6A97B801882775
:1012A00077FD8095982F0E94BD162AE939E949E912
:1012B0005EE30E949D179B01AC01C701B6010E942D
:1012C00058150E948A166A967FAF6EAF6A97809112
:1012D000820090918300019731F40E944B04E096C4
:1012E0009FAF8EAFE09780917E0090917F00019735
:1012F00009F098C060961FAD6097183009F08BC058
:101300000E940202382F292FEA964EAD5FADEA9770
:10131000440F551FEA960EAD1FADEA97400F511FBF
:10132000EC968EAD9FADEC97880F991FEC960EADA5
:101330001FADEC97800F911F880F991F880F991F81
:10134000841B950B61E1CF57DF4F08811981C1588C
:10135000D040609FA001619F500D1124840F951F04
:10136000EE964EAD5FADEE97440F551FEE960EAD67
:101370001FADEE97400F511F440F551F440F551FCF
:10138000840F951FC158DF4F48815981CF57D040F6
:10139000440F551FC158DF4F08811981CF57D040E6
:1013A000400F511F841B950B63E270E00E940318ED
:1013B000AA967FAF6EAFAA97EE960EAD1FADEE97D1
:1013C000C158DF4F19830883CF57D040CF57DF4F25
:1013D00008811981C158D040EE961FAF0EAFEE972D
:1013E000EC960EAD1FADEC97CF57DF4F19830883F6
:1013F000C158D040EA960EAD1FADEA97EC961FAFEC
:101400000EAFEC97E9963FAFE997EA962FAFEA97D0
:1014100060961FAE609760961FAD60971F5F6096E5
:101420001FAF60978090740290907502A090760232
:10143000B090770226960FAD2697602F772767FD2D
:101440007095872F972F0E94BD16A50194010E94C9
:101450009D17BBADACADFDADEEAD2B2F3A2F4F2F91
:101460005E2F0E9458156FA378A789A79AA77501C8
:101470006401F7FAF094F7F8F0947F8D68A199A1D0
:101480008AA1272F362F492F582FBFA5A8A9249608
:10149000FFAD24972596EFAD25976B2F7A2F8F2FD1
:1014A0009E2F0E9458152AE037ED43EA5BE30E9425
:1014B00057159B01AC01C701B6010E949D17BFAD36
:1014C0002196AFAD21972296FFAD22972396EFADDF
:1014D00023972B2F3A2F4F2F5E2F0E945815662EE1
:1014E000772E082F192F20E030E0A901C701B6019F
:1014F0000E949D17262E372E482E592E7F8D68A1CB
:1015000099A18AA1272F362F492F582F622D732D8D
:10151000842D952D0E945815698F7A8F8B8F9C8F03
:1015200027962FAD2797622F772767FD7095872F16
:10153000972F0E94BD16BFA9A8ADF9ADEAAD2B2F1C
:101540003A2F4F2F5E2F0E9457159B01AC01C5010A
:10155000B4010E949D17BBA5ACA5FDA5EEA52B2F40
:101560003A2F4F2F5E2F0E9458156BA77CA78DA78F
:101570009EA77BA16CA19DA18EA1272F362F492F5D
:10158000582FBBA9ACA9FDA9EEA96B2F7A2F8F2FDD
:101590009E2F0E9458152AE037ED43EA5BE30E9434
:1015A00057159B01AC01C701B6010E949D17BD8D67
:1015B000AE8DF9A9EAA92B2F3A2F4F2F5E2F0E944B
:1015C00058156D8F7E8FE82EF92E222D332D442D48
:1015D000552DBBA1ACA1FDA1EEA16B2F7A2F8F2FB2
:1015E0009E2F0E945815462E572EC82ED92E2AE01F
:1015F00037ED43EA5CE3662D772D802F912F0E9413
:1016000058156DA37EA38FA798AB762F6EA1982F48
:1016100088A9272F362F492F582F662D772D802FF9
:10162000912F0E9422166F8F78A389A39AA37BA57E
:101630006CA59DA58EA5272F362F492F582F2C96A8
:10164000BFAD2C972D96AFAD2D972E96FFAD2E9753
:101650002F96EFAD2F976B2F7A2F8F2F9E2F0E94F3
:10166000571569AB7AAB8BAB9CAB2AE037ED43EAFD
:101670005CE3BD8DAE8D6B2F7A2F8E2D9F2D0E943A
:101680005815862E972EA82EB92E762F272F392D56
:101690004A2D5B2DBD8DAE8D6B2F7A2F8E2D9F2DFC
:1016A0000E9422166BA37CA3382E292E282D392DBB
:1016B0004A2D5B2D642D752D8C2D9D2D0E9422169B
:1016C000962E872E8DAB9EAB7FA168A599A58AA586
:1016D000272F362F492F582F2896BFAD28972996A8
:1016E000AFAD29972A96FFAD2A972B96EFAD2B9792
:1016F0006B2F7A2F8F2F9E2F0E9457159B01AC01C5
:10170000BF8DA8A1F9A1EAA16B2F7A2F8F2F9E2F51
:101710000E949D17BFA1A8A5F9A5EAA52B2F3A2FD6
:101720004F2F5E2F0E9458156FA378A789A79AA7FD
:101730006BAF7CAF8DAF9EAF262D372D402F512F35
:10174000BF8DA8A1F9A1EAA16B2F7A2F8F2F9E2F11
:101750000E949D17262F372F482F592F662D772D42
:10176000802F912F0E945715A62EB72E082F192FC4
:101770006FAF21967FAF219722968FAF2297239646
:101780009FAF2397798D6A8D9B8D8C8D272F362F58
:10179000492F582FBF8DA8A1F9A1EAA16B2F7A2F4D
:1017A0008F2F9E2F0E949D17262F372F482F592F9E
:1017B000B98DAA8DFB8DEC8D6B2F7A2F8F2F9E2FDD
:1017C0000E9457156F8F78A389A39AA37DA16EA15C
:1017D0009FA588A9272F362F492F582FB98DAA8D5D
:1017E000FB8DEC8D6B2F7A2F8F2F9E2F0E94221650
:1017F0002A2D3B2D402F512F0E949D179B01AC019C
:10180000B98DAA8DFB8DEC8D6B2F7A2F8F2F9E2F8C
:101810000E9457156FA778AB24968FAF2497259613
:101820009FAF259779A96AA99BA98CA9272F362F45
:10183000492F582FBBA1ACA16B2F7A2F832D922D4E
:101840000E949D17BBA5ACA5FDA5EEA52B2F3A2F99
:101850004F2F5E2F0E945815698F7A8F8B8F9C8F28
:101860006BA77CA78DA79EA779A96AA99BA98CA91C
:10187000272F362F492F582FFDA9EEA9692D782D36
:101880008F2F9E2F0E949D179B01AC01BFA9A8AD71
:10189000F9ADEAAD6B2F7A2F8F2F9E2F0E9458152E
:1018A0006FAB78AF89AF9AAF7D8D6E8D272F362FB6
:1018B0004E2D5F2DBBA1ACA16B2F7A2F832D922DC6
:1018C0000E949D17262F372F482F592FBD8DAE8D83
:1018D0006B2F7A2F8E2D9F2D0E945715E62EF72EF7
:1018E000082F192F6D8F7E8F89AB9AAB242D352D44
:1018F0004C2D5D2DBBA1ACA16B2F7A2F832D922D8A
:101900000E949D17262F372F482F592F642D752D94
:101910008C2D9D2D0E9457156BA37CA38DA39EA398
:101920002E2D3F2D402F512FFDA9EEA9692D782D89
:101930008F2F9E2F0E949D179B01AC01642D752D4A
:101940008C2D9D2D0E9457156BAB7CAB8DAB9EAB48
:1019500086EB92E00E94180780EA92E00E94180746
:10196000ACE6B2E08D919C918139910524F083E041
:1019700080937C0212C0ECE6F2E0808191818C3889
:10198000910544F080819181803991051CF4109279
:101990007C0203C082E080937C0280917C02909163
:1019A0007B02981721F091E090937A0202C0109286
:1019B0007A02823009F403C218F4882341F06FC61A
:1019C000833009F4A2C3843009F069C6F1C0809164
:1019D0007A02813021F484E691E00E940315A2E6A8
:1019E000B2E02D913C91220F331FC901880F991F3E
:1019F000880F991F880F991F821B930B8E5D9E4F36
:101A0000AA2797FDA095BA2FE0E6F0E080839183A6
:101A1000A283B383A4E6B2E02D913C91BFE0B29FD4
:101A2000C001B39F900D11248A569F4FAA2797FD9E
:101A3000A095BA2FE4E6F0E080839183A283B3837C
:101A40002091660230916702FFE0F29FC001F39F90
:101A5000900D1124AA2797FDA095BA2FE8E6F0E093
:101A600080839183A283B3832091680230916902BD
:101A7000220F331FC901880F991F880F991F880FE4
:101A8000991F821B930B8E5D9E4FAA2797FDA095F1
:101A9000BA2FECE6F0E080839183A283B383809138
:101AA0006A0290916B02873891053CF480916A023A
:101AB00090916B0289379105FCF480916A029091B4
:101AC0006B02863991053CF480916A0290916B0219
:101AD00088389105A4F480916A0290916B02803A53
:101AE000910584F480916A0290916B028739910587
:101AF00064F486EE95E00BC086EE95E008C08CE6B7
:101B000097E005C086EE95E002C08CEF98E0A0E774
:101B1000B0E04D915D916D917C91A0E0B0E04817EF
:101B200059076A077B0774F4E0E7F0E08081918150
:101B3000A281B3810A96A11DB11D80839183A283E6
:101B4000B3831DC0E0E7F0E0408151816281738181
:101B500084179507A607B70764F480819181A28155
:101B6000B3810A97A109B10980839183A283B383CA
:101B700006C0E0E7F0E080839183A283B3838AEC20
:101B800098E0A0E0B0E08093740090937500A0937B
:101B90007600B093770085E892E0A0E0B0E0809313
:101BA000780090937900A0937A00B0937B0077C57A
:101BB00080917A02813039F580E791E00E94031527
:101BC000AA960EAD1FADAA97B801882777FD80951C
:101BD000982F0E94BD1665966FAF659766967FAF8A
:101BE000669767968FAF679768969FAF689761967D
:101BF0001FAE619762961FAE629763961FAE6397A2
:101C000064961FAE6497A4E6B2E02D913C91BFE0CC
:101C1000B29FC001B39F900D11248A569F4FAA27EF
:101C200097FDA095BA2FE4E6F0E080839183A2832C
:101C3000B3832091660230916702FFE0F29FC001FA
:101C4000F39F900D1124AA2797FDA095BA2FE8E6DF
:101C5000F0E080839183A283B38320916802309166
:101C60006902220F331FC901880F991F880F991F1E
:101C7000880F991F821B930B8E5D9E4FAA2797FD9D
:101C8000A095BA2FECE6F0E080839183A283B38322
:101C900065967FAD659766966FAD669767969FADC3
:101CA000679768968FAD6897272F362F492F582F43
:101CB0006196BFAD61976296AFAD62976396FFADD7
:101CC00063976496EFAD64976B2F7A2F8F2F9E2FBB
:101CD0000E945815A62EB72E082F192F61966FAFA8
:101CE000619762967FAF629763968FAF63976496B2
:101CF0009FAF6497A2966CAD7DAD8EAD9FADA29760
:101D00000E94BD166B017C01209174023091750216
:101D100040917602509177026A2D7B2D802F912F72
:101D20000E949D179B01AC016596BFAD65976696B5
:101D3000AFAD66976796FFAD67976896EFAD68970A
:101D40006B2F7A2F8F2F9E2F0E9458159B01AC016D
:101D5000C701B6010E9458150E948A16A0E6B0E09D
:101D60006D937D938D939C9313978D919D910D9081
:101D7000BC91A02D893B9B40A105B1055CF088EB8F
:101D80009BE0A0E0B0E0E0E6F0E080839183A283F6
:101D9000B38385C4E0E6F0E080819181A281B381C4
:101DA000883E9340A105B1050CF079C488EE93E01C
:101DB000A0E0B0E080839183A283B38370C480915C
:101DC0007A02813009F0B9C080E891E00E940315E1
:101DD000AA960EAD1FADAA97B801882777FD80950A
:101DE000982F0E94BD16E62EF72E082F192F659604
:101DF0006FAF659766967FAF669767968FAF679769
:101E000068969FAF6897A8E6B0E06D917D918D913F
:101E10009C91E4966CAF7DAF8EAF9FAFE497A4E644
:101E2000B0E06D917D918D919C91E8966CAF7DAF06
:101E30008EAF9FAFE897A0E6B0E06D917D918D9158
:101E40009C91A2966CAF7DAF8EAF9FAFA297ECE650
:101E5000F0E080819181A281B3818FE891E00E94BE
:101E6000F3146A962EAD3FAD6A97B901882777FDC6
:101E70008095982F0E9417158EEA91E00E94F31426
:101E8000E096AEADBFADE097BD01882777FD8095A8
:101E9000982F0E9417158EEA91E00E94F3146E2D80
:101EA0007F2D802F912F0E948A160E943515098D53
:101EB000AB960FAFAB971A8DAC961FAFAC970B8D4F
:101EC000AD960FAFAD971C8DAE961FAFAE970FA11D
:101ED0006B960FAF6B9718A56C961FAF6C9709A503
:101EE0006D960FAF6D971AA56E961FAF6E976A9697
:101EF0000EAD1FAD6A97CD57DF4F19830883C358C6
:101F0000D040A8961FAF0EAFA897A3961FAEA39779
:101F1000A4961FAEA497A5961FAEA597A6961FAE32
:101F2000A69761961FAE619762961FAE6297639601
:101F30001FAE639764961FAE6497A4E6B2E02D913E
:101F40003C91BFE0B29FC001B39F900D11248A560F
:101F50009F4FAA2797FDA095BA2FE4E6F0E0808373
:101F60009183A283B3832091660230916702FFE0E0
:101F7000F29FC001F39F900D1124AA2797FDA09511
:101F8000BA2FE8E6F0E080839183A283B3832091A7
:101F9000680230916902220F331FC901880F991F0F
:101FA000880F991F880F991F821B930B8E5D9E4F80
:101FB000AA2797FDA095BA2FECE6F0E080839183E5
:101FC000A283B383AA960EAD1FADAA97B801882746
:101FD00077FD8095982F0E94BD169B01AC016596F8
:101FE000BFAD65976696AFAD66976796FFAD67978D
:101FF0006896EFAD68976B2F7A2F8F2F9E2F0E94D8
:102000005715C62ED72EE82EF92E762F272F3D2DC9
:102010004E2D5F2D6196BFAD61976296AFAD629711
:102020006396FFAD63976496EFAD64976B2F7A2F3D
:102030008F2F9E2F0E945815A62EB72E082F192FCE
:1020400061966FAF619762967FAF629763968FAF2D
:10205000639764969FAF6497A2966CAD7DAD8EAD8D
:102060009FADA2970E94BD169B01AC016C2D7D2DEA
:102070008E2D9F2D0E9458156B017C0120917402BA
:102080003091750240917602509177026A2D7B2D36
:10209000802F912F0E949D179B01AC01C701B601B3
:1020A0000E9458150E948A16A0E6B0E06D937D93B9
:1020B0008D939C9313978D919D910D90BC91A02D24
:1020C000893B9B40A105B1055CF088EB9BE0A0E05B
:1020D000B0E0E0E6F0E080839183A283B383DFC2C7
:1020E000E0E6F0E080819181A281B3818A3E964052
:1020F000A105B1050CF0D3C28AEE96E0A0E0B0E0F5
:1021000080839183A283B383CAC280917A02813093
:1021100009F097C082EB91E00E940315A8E6B0E0B9
:102120000D911D912D913C91E4960CAF1DAF2EAFFA
:102130003FAFE497A4E6B0E00D911D912D913C9145
:10214000E8960CAF1DAF2EAF3FAFE897A0E6B0E02A
:102150000D911D912D913C91A2960CAF1DAF2EAF0C
:102160003FAFA297ECE6F0E080819181A281B3813C
:102170008FE891E00E94F3146A960EAD1FAD6A9746
:10218000B801882777FD8095982F0E9417158EEA51
:1021900091E00E94F314E0960EAD1FADE097B801F8
:1021A000882777FD8095982F0E9417158EEA91E079
:1021B0000E94F31460E070E0CB010E943515198D88
:1021C000AB961FAFAB970A8DAC960FAFAC971B8D3C
:1021D000AD961FAFAD970C8DAE960FAFAE976A96CA
:1021E0000EAD1FAD6A97CD57DF4F19830883C358D3
:1021F000D040A8961FAF0EAFA897A3961FAEA39787
:10220000A4961FAEA497A5961FAEA597A6961FAE3F
:10221000A69761961FAE619762961FAE629763960E
:102220001FAE639764961FAE649765961FAE659761
:1022300066961FAE669767961FAE679768961FAE45
:10224000689780916A0290916B02873891052CF50E
:1022500080916A0290916B0289379105F4F0EF96B4
:102260001FADEF971130C9F48FEB91E00E94F3148A
:10227000CD57DF4F08811981C358D040B801882756
:1022800077FD8095982F0E943515A8961FAF0EAF49
:10229000A897EF961FAEEF972CC080916A0290919D
:1022A0006B02803A91052CF580916A0290916B0245
:1022B00087399105F4F0EF961FADEF97111119C012
:1022C000A8960EAD1FADA897065F1F4FA8961FAF2B
:1022D0000EAFA89789EC91E00E94F314B80188270B
:1022E00077FD8095982F0E94351511E0EF961FAF6E
:1022F000EF97A8966EAD7FADA8976A960EAD1FAD0D
:102300006A97601B710B882777FD8095982F0E9434
:10231000BD16E62EF72E082F192F6B966FAF6B9711
:102320006C967FAF6C976D968FAF6D976E969FAFE3
:102330006E9720E030E040E251EC0E941E168823A8
:102340006CF020E030E040EA51E46E2D7F2D802FCC
:10235000912F0E949217181684F01DC06B961FAE25
:102360006B976C961FAE6C9710E26D961FAF6D97D2
:1023700001EC6E960FAF6E970EC06B961FAE6B970B
:102380006C961FAE6C9710EA6D961FAF6D9701E4C7
:102390006E960FAF6E976B967FAD6B976C966FAD29
:1023A0006C976D969FAD6D976E968FAD6E97272F3C
:1023B000362F492F582FBFA1A8A5F9A5EAA56B2F45
:1023C0007A2F8F2F9E2F0E945715662E772E082F5B
:1023D000192FC0907402D0907502E0907602F090B0
:1023E000770220E030E040E251E40E949D174B016B
:1023F0005C0120E030E0A901662D772D802F912F20
:102400000E94581520E030E040E251E40E949D1700
:10241000A70196010E949D179B01AC01C501B40163
:102420000E9458154B015C01262D372D402F512F4E
:1024300060E070E0CB010E945715A70196010E9451
:1024400022169B01AC01C501B4010E9458150E94DF
:102450008A16AEE4B2E06D937D938D939C931397AF
:1024600026961FAD2697812F992787FD9095AC0161
:10247000440F551F440F551F440F551F480F591F38
:10248000662757FD6095762FE2E3F2E040835183A3
:10249000628373838D919D910D90BC91A02D40819D
:1024A000518162817381E4960CAD1DAD2EAD3FADBF
:1024B000E497800F911FA21FB31F841B950BA60BDF
:1024C000B70BE8E6F0E080839183A283B383808139
:1024D0009181A281B381893B9B40A105B1054CF05C
:1024E00088EB9BE0A0E0B0E080839183A283B3837C
:1024F00013C0E8E6F0E080819181A281B381883E3B
:102500009340A105B10544F488EE93E0A0E0B0E06B
:1025100080839183A283B383798D6A8D9B8D8C8D0B
:10252000272F362F492F582FAB96BFADAB97AC96C0
:10253000AFADAC97AD96FFADAD97AE96EFADAE97A4
:102540006B2F7A2F8F2F9E2F0E945715462E572EB6
:10255000682E792E762F272F352D462D572DA396B1
:10256000BFADA397A496AFADA497A596FFADA597D1
:10257000A696EFADA6976B2F7A2F8F2F9E2F0E94D6
:102580005815262E372E082F192FA3966FAFA39715
:10259000A4967FAFA497A5968FAFA597A6969FAF59
:1025A000A697E8966CAD7DAD8EAD9FADE8970E9485
:1025B000BD164B015C0120E030E040E751E4642DA2
:1025C000752D862D972D0E949D172B013C0120E033
:1025D00030E040EA50E4622D732D802F912F0E944D
:1025E0009D179B01AC01C701B6010E949D179B017D
:1025F000AC01C301B2010E9458159B01AC01C50199
:10260000B4010E9458150E948A16A4E6B0E06D93AA
:102610007D938D939C9313978D919D910D90BC917B
:10262000A02D893B9B40A105B1055CF088EB9BE0A8
:10263000A0E0B0E0E4E6F0E080839183A283B3837E
:1026400013C0E4E6F0E080819181A281B381883EED
:102650009340A105B10544F488EE93E0A0E0B0E01A
:1026600080839183A283B383A2E6B2E02D913C9153
:10267000220F331FC901880F991F880F991F880FD8
:10268000991F821B930B8E5D9E4FAA2797FDA095E5
:10269000BA2FE0E6F0E080839183A283B383809138
:1026A0007C0090917D00019709F00CC1A0E6B0E09C
:1026B0006D917D918D919C910E94171584ED91E013
:1026C0000E94F314E4E6F0E06081718182819381DD
:1026D0000E94171584ED91E00E94F314A8E6B0E083
:1026E0006D917D918D919C910E94171584ED91E0E3
:1026F0000E94F314ECE6F0E06081718182819381A5
:102700000E94171584ED91E00E94F314A0E7B0E059
:102710006D917D918D919C910E94171584ED91E0B2
:102720000E94F314598D4A8D3B8D2C8D652F742F8B
:10273000832F922F0E948A160E94171584ED91E034
:102740000E94F3145FA148A539A52AA5652F742F0F
:10275000832F922F0E948A160E94171584ED91E014
:102760000E94F314E0960EAD1FADE097B8018827E4
:1027700077FD8095982F0E94171584ED91E00E94B7
:10278000F3146A960EAD1FAD6A97B801882777FDDE
:102790008095982F0E94171584ED91E00E94F31404
:1027A000AA960EAD1FADAA97B801882777FD809530
:1027B000982F0E94171584ED91E00E94F314A896BB
:1027C0000EAD1FADA897B801882777FD8095982F8B
:1027D0000E94171584ED91E00E94F314AB965FAD53
:1027E000AB97AC964FADAC97AD963FADAD97AE966F
:1027F0002FADAE97652F742F832F922F0E948A16CC
:102800000E94171584ED91E00E94F3146B965FAD62
:102810006B976C964FAD6C976D963FAD6D976E96BE
:102820002FAD6E97652F742F832F922F0E948A16DB
:102830000E94171584ED91E00E94F31465965FAD38
:10284000659766964FAD669767963FAD67976896B2
:102850002FAD6897652F742F832F922F0E948A16B1
:102860000E9417158091B602882341F184ED91E012
:102870000E94F3148AE892E00E94F31484ED91E040
:102880000E94F31486EB92E00E94F31484ED91E031
:102890000E94F31480EA92E00E94F31484ED91E028
:1028A0000E94F31487ED92E00E94F31484ED91E00E
:1028B0000E94F31482E993E00E94F31484ED91E006
:1028C0000E94031580917C0280937B02E2E6F2E095
:1028D000AFECB4E01196FC93EE93A8950C942B0802
:1028E000F89488E98AB986E880BD10BC8CE089B983
:1028F00078948CB15F99FDCF08951F920F920FB617
:102900000F9211242F938F939F93EF93FF938CB18A
:102910008093E0031092E1038093DF0310927E0224
:102920008091DF038432A1F4E0917D028091E10483
:102930002BE0E202F0011124E80FF11D87FDFA956A
:10294000EE51FC4F10821092E10410927D023DC0C6
:102950008091DF038C32A9F480917D029091E10493
:102960002BE08202F0011124E90FF11D97FDFA9589
:10297000EE51FC4F10821092E1048F5F80937D0234
:1029800024C08091DF038E3201F18091DF038A3011
:1029900021F481E080937E0218C08091DF038A30A9
:1029A000A1F0E0917D028091E1049091DF032BE0A2
:1029B000E202F0011124E80FF11D87FDFA95EE51B6
:1029C000FC4F90838F5F8093E104FF91EF919F9183
:1029D0008F912F910F900FBE0F901F9018955D9BB8
:1029E000FECF8CB90895CF93DF93EC0188818823C3
:1029F00039F0219690E00E94EF1489918111FACF6D
:102A0000DF91CF910895CF93DF93EC0188818823E4
:102A100039F0219690E00E94EF1489918111FACF4C
:102A200086ED91E00E94F314DF91CF910895CF934A
:102A3000DF93CDB7DEB76F970FB6F894DEBF0FBE4A
:102A4000CDBF2AE030E0AE014F5F5F4F0E943418E7
:102A5000CE0101960E94F3146F960FB6F894DEBF74
:102A60000FBECDBFDF91CF910895CF93DF93CDB748
:102A7000DEB76F970FB6F894DEBF0FBECDBF2AE06A
:102A800030E0AE014F5F5F4F0E943418CE010196D7
:102A90000E94F31486ED91E00E94F3146F960FB636
:102AA000F894DEBF0FBECDBFDF91CF91089550588F
:102AB000BB27AA270ED0FCC1EDD130F0F2D120F017
:102AC00031F49F3F11F41EF4BDC10EF4E095E7FB15
:102AD000B3C1E92FFED180F3BA17620773078407E9
:102AE000950718F071F49EF516C20EF4E0950B2EC2
:102AF000BA2FA02D0B01B90190010C01CA01A00150
:102B00001124FF27591B99F0593F50F4503E68F1AA
:102B10001A16F040A22F232F342F4427585FF3CFEB
:102B2000469537952795A795F0405395C9F77EF4BC
:102B30001F16BA0B620B730B840BBAF09150A1F005
:102B4000FF0FBB1F661F771F881FC2F70EC0BA0F8B
:102B5000621F731F841F48F4879577956795B79513
:102B6000F7959E3F08F0B3CF9395880F08F099270B
:102B7000EE0F9795879508958DD158F080E891E0F4
:102B800009F49EEF8ED128F040E851E059F45EEF51
:102B900009C058C1C0C1E92FE0789BD168F3092E64
:102BA000052AC1F3261737074807590738F00E2EB4
:102BB00007F8E02569F0E025E0640AC0EF6307F854
:102BC000009407FADB01B9019D01DC01CA01AD01E6
:102BD000EF9347D06DD10AD05F91552331F02BEDA3
:102BE0003FE049E450FD49EC63CF0895DF93DD27D2
:102BF000B92FBF7740E85FE31616170648075B0753
:102C000010F4D92F93D19F938F937F936F93F8D123
:102C1000E4E5F0E01AD14CD12F913F914F915F91B3
:102C200098D1DD2349F09058A2EA2AED3FE049EC23
:102C30005FE3D0785D274DDFDF913AC1D9D008F44A
:102C400081E008950CD034C12CD140F023D130F074
:102C500021F45F3F19F0F0C051115EC1F3C039D1CA
:102C600098F39923C9F35523B1F3951B550BBB2753
:102C7000AA2762177307840738F09F5F5F4F220F00
:102C8000331F441FAA1FA9F333D00E2E3AF0E0E8F9
:102C900030D091505040E695001CCAF729D0FE2F45
:102CA00027D0660F771F881FBB1F261737074807D7
:102CB000AB07B0E809F0BB0B802DBF01FF2793588D
:102CC0005F4F2AF09E3F510568F0B6C025C15F3FB7
:102CD000ECF3983EDCF3869577956795B795F79575
:102CE0009F5FC9F7880F911D9695879597F908956D
:102CF000E1E0660F771F881FBB1F62177307840709
:102D0000BA0720F0621B730B840BBA0BEE1F88F717
:102D1000E095089504D06894B111FEC00895E1D003
:102D200088F09F5790F0B92F9927B751A0F0D1F0B4
:102D3000660F771F881F991F1AF0BA95C9F712C03E
:102D4000B13081F0E8D0B1E00895E5C0672F782F69
:102D50008827B85F39F0B93FCCF3869577956795AA
:102D6000B395D9F73EF490958095709561957F4F16
:102D70008F4F9F4F0895E89409C097FB3EF49095BC
:102D80008095709561957F4F8F4F9F4F9923A9F044
:102D9000F92F96E9BB279395F695879577956795D3
:102DA000B795F111F8CFFAF4BB0F11F460FF1BC017
:102DB0006F5F7F4F8F4F9F4F16C0882311F096E9AA
:102DC00011C0772321F09EE8872F762F05C0662358
:102DD00071F096E8862F70E060E02AF09A95660F11
:102DE000771F881FDAF7880F9695879597F90895CA
:102DF000990F0008550FAA0BE0E8FEEF161617060C
:102E0000E807F907C0F012161306E407F50798F073
:102E1000621B730B840B950B39F40A2661F0232B8C
:102E2000242B252B21F408950A2609F4A140A69508
:102E30008FEF811D811D089597F99F6780E870E0ED
:102E400060E008959FEF80EC0895DF93CF931F9388
:102E50000F93FF92EF92DF927B018C01689405C083
:102E6000DA2EEF0176D0FE01E894A59125913591F7
:102E700045915591AEF3EF012CDEFE019701A801BB
:102E8000DA9479F7DF90EF90FF900F911F91CF9137
:102E9000DF91089500240A941616170618060906ED
:102EA000089500240A9412161306140605060895C0
:102EB000092E0394000C11F4882352F0BB0F40F448
:102EC000BF2B11F460FF04C06F5F7F4F8F4F9F4F88
:102ED000089557FD9058440F551F59F05F3F71F00A
:102EE0004795880F97FB991F61F09F3F79F0879571
:102EF0000895121613061406551FF2CF4695F1DFFA
:102F000008C0161617061806991FF1CF8695710589
:102F1000610508940895E894BB2766277727CB01BD
:102F200097F9089565DF08F48FEF08959B01AC01D0
:102F300060E070E080E89FE385CE0BD0B9CFAADFD8
:102F400028F0AFDF18F0952309F076CF7BCF11245E
:102F5000E3CFBFDFA0F3959FD1F3950F50E0551F4E
:102F6000629FF001729FBB27F00DB11D639FAA27DE
:102F7000F00DB11DAA1F649F6627B00DA11D661F2D
:102F8000829F2227B00DA11D621F739FB00DA11D4E
:102F9000621F839FA00D611D221F749F3327A00D08
:102FA000611D231F849F600D211D822F762F6A2FA4
:102FB00011249F5750408AF0E1F088234AF0EE0F29
:102FC000FF1FBB1F661F771F881F91505040A9F736
:102FD0009E3F510570F030CF9FCF5F3FECF3983E9E
:102FE000DCF3869577956795B795F795E7959F5F9D
:102FF000C1F7FE2B880F911D9695879597F9089537
:103000009B01AC019ACF97FB072E16F4009407D0D2
:1030100077FD09D00E94171807FC05D03EF4909563
:1030200081959F4F0895709561957F4F0895AA1BD4
:10303000BB1B51E107C0AA1FBB1FA617B70710F0A3
:10304000A61BB70B881F991F5A95A9F780959095D5
:10305000BC01CD010895FB01DC018D910190801927
:103060000110D9F3990B0895FA01CF93FF93EF93D1
:10307000223044F1253234F5C22FE894CA3049F4A5
:1030800097FB3EF490958095709561957F4F8F4F9B
:103090009F4F2C2F332744275527FF93EF930E94F0
:1030A0007818EF91FF91605D6A330CF0695D619370
:1030B000B901CA01605070408040904051F716F449
:1030C000CDE2C19310828F919F91CF910C9468189B
:1030D000DC01FC01672F71917723E1F7329704C07F
:1030E0007C916D9370836291AE17BF07C8F308950A
:1030F000A1E21A2EAA1BBB1BFD010DC0AA1FBB1FFC
:10310000EE1FFF1FA217B307E407F50720F0A21B6D
:10311000B30BE40BF50B661F771F881F991F1A94DA
:1031200069F760957095809590959B01AC01BD0104
:08313000CF010895F894FFCFD0
:10313800CA080000CA080000CA080000CA0800003F
:10314800E6050000CA080000850200000100010031
:103158000100010001000100616363207374617262
:10316800746564006261726F20737461727465645F
:10317800006261726F5F6F66667365742000414418
:1031880043206F6B004144435F6F66667365743A12
:1031980020006779726F20737461727465640047E8
:1031A80079726F204F66667365743A2000703A2012
:1031B80000713A2000723A20004779726F2043610B
:1031C8006C20436F6D706C657465006D616720736A
:1031D80074617274656400536572766F54696D65C5
:1031E8007253746172746564005461736B54696DD1
:1031F8006572537461727465640057646F674469DB
:103208007361626C0057646F675273740050777211
:103218005570527374004272776E4F75745273749E
:1032280000457874527374004750524D430047501C
:1032380047474100444952454354204354524C00A7
:103248002A537065656420436F6E74726F6C2A0030
:1032580044616D70656420434F4E54524F4C005486
:10326800617267657420416C74202D204865616423
:10327800696E67202D2053706565643A2000202D03
:103288002000484F4C4420434F4E54524F4C00416D
:103298004C5420486F6C64200020416C7420486FA7
:0A32A8006C6420003B000D0A0000DA
:00000001FF
