S015000053696D706C6554657374696E672E73726563C7
S11300000C9441000C94C5060C945E000C945E00A4
S11300100C945E000C94F4060C945E000C94C805D9
S11300200C945E000C945E000C9413070C945E0018
S11300300C945E000C94E80F0C945E000C945E002B
S11300400C945E000C945E000C945E000C945E00B4
S11300500C945E00084AD73B3BCE016E84BCBFFDC6
S1130060C12F3D6C74319ABD56833DDA3D00C77F84
S113007011BED9E4BB4C3E916BAAAABE000000801D
S11300803F0011241FBECFE5D8E0DEBFCDBF11E095
S1130090A0E6B0E0E2E9F8E202C005900D92AA39C8
S11300A0B107D9F722E0AAE9B1E001C01D92AE3D43
S11300B0B207E1F70E942F070C9447140C94000038
S11300C0CF93DF93D82FC62F0E945B0582E390E085
S11300D00E9477058D2F90E00E9482058C2F90E07E
S11300E00E948D050E94A805DF91CF91089567E4D1
S11300F080E20E94600060E183E20E9460008FE77A
S113010090E00E947B1008950F931F93CF93DF9389
S1130110EC010E945B0582E390E00E94770588EA87
S113012090E00E9482050E94650583E390E00E94AE
S11301306B050E94A0058093AA010E94A0058093EC
S1130140AB010E94A0058093A4010E94A0058093A6
S1130150A5010E94A00580939E010E9498058093AA
S11301609F010E94A8058091AB01992787FD909576
S1130170982F88272091AA01822B9595879595958C
S1130180879595958795959587959093A9018093E3
S1130190A8010091A501112707FD1095102F002734
S11301A02091A401022B1595079515950795159592
S11301B00795159507951093A3010093A20140910B
S11301C09F01552747FD5095542F442720919E01A8
S11301D0422B559547955595479555954795559572
S11301E0479550939D0140939C01880F991F9093CC
S11301F0A7018093A601000F111F1093A101009382
S1130200A001440F551F50939B0140939A01AA27C4
S113021097FDA095BA2F88839983AA83BB8322274D
S113022017FD2095322F0C831D832E833F83662771
S113023057FD6095762F488759876A877B87CE015B
S1130240DF91CF911F910F910895CF93DF93D82F12
S1130250C62F0E945B0580EC90E00E9477058D2FED
S113026090E00E9482058C2F90E00E948D050E94F0
S1130270A805DF91CF91089569EB86E20E942501DC
S113028060E889E20E94250166EC84E10E94250170
S11302906BE585E10E94250167E083E10E94250169
S11302A08BE890E00E947B100895CF930E945B0539
S11302B080EC90E00E94770580E090E00E94820547
S11302C00E94650581EC90E00E946B050E949805F0
S11302D0C82F0E94A8058091B20132C0CE3E81F59C
S11302E00E945B0580EC90E00E94770581E090E03D
S11302F00E9482050E94650581EC90E00E946B05D6
S11303000E94A0058093B5010E94A0058093B401CA
S11303100E9498058093B3010E94A8052091B5011D
S1130320332727FD3095322F22278091B401282BC3
S11303303093AF012093AE0181E08093B2013FC0BE
S1130340882361F2CE3EB9F50E945B0580EC90E013
S11303500E94770581E090E00E9482050E94650575
S113036081EC90E00E946B050E94A0058093B5018A
S11303700E94A0058093B4010E9498058093B30164
S11303800E94A8052091B501332727FD3095322F0F
S113039022278091B401282B3093AF012093AE0122
S11303A08091B0019091B101281B390B3093AD01BC
S11303B02093AC0104C02091AC013091AD01822F97
S11303C0932FCF9108950E9455019093B10180938A
S11303D0B00188E990E00E946B106091B0017091C7
S11303E0B101882777FD8095982F0E94AD1008955C
S11303F01ABA83E487B987E886B985EA90E00E944F
S11304007B100895CF93DF93369A3699FECFC4B10B
S1130410D0E0D093C101C093C00125B1922F80E0F8
S1130420C82BD92BD093C101C093C001BE01660F64
S1130430771F6C0F7D1F6A5F7540882777FD809555
S1130440982F0E9431126093BA017093BB0180937C
S1130450BC019093BD018091B8019091B9010197BD
S113046051F48091B6019091B701C81BD90BD09378
S1130470BF01C093BE018C2F9D2FDF91CF910895B2
S1130480CF93DF93C2E3D0E00E9402022091B60131
S11304903091B701820F931F9093B7018093B601F7
S11304A0219791F762E370E00E9498137093B7016B
S11304B06093B6018CEA90E00E946B106091B601E3
S11304C07091B701882777FD8095982F0E94AD1011
S11304D081E090E09093B9018093B8012FE986E818
S11304E091E0215080409040E1F700C00000DF918E
S11304F0CF910895CF93DF93D82FC62F0E945B0529
S113050086ED90E00E9477058D2F90E00E94820591
S11305108C2F90E00E948D050E94A805DF91CF9159
S113052008956FE080E20E947A0260E281E20E9414
S11305307A0260E184E20E947A0289EB90E00E94F0
S11305407B1008958F929F92AF92BF92CF92DF92C9
S1130550EF92FF920F931F93CF93DF93EC010E94CE
S11305605B0586ED90E00E94770588EA90E00E94A2
S113057082050E94650587ED90E00E946B050E944C
S1130580A0058093D6010E94A0058093D7010E9404
S1130590A0058093D2010E94A0058093D3010E94FC
S11305A0A0058093CE010E9498058093CF010E94FC
S11305B0A8056091D701772767FD7095762F662788
S11305C08091D601682B7093D5016093D401E0909B
S11305D0D301FF24E7FCF094FE2CEE248091D20199
S11305E0E82AF092D101E092D0010091CF011127C5
S11305F007FD1095102F00278091CE01082B109332
S1130600CD010093CC01882777FD8095982F0E9417
S1130610311229E23CE54FE05CE30E94E9120E94BA
S1130620FE114B015C01B701882777FD8095982F57
S11306300E94311229E23CE54FE05CE30E94E9129A
S11306400E94FE116B017C01B801882777FD80951B
S1130650982F0E94311229E23CE54FE05CE30E94AE
S1130660E9120E94FE112091C2013091C301213090
S1130670310521F50091C8011091C901222717FD08
S11306802095322F801A910AA20AB30A0091C6015A
S11306901091C701222717FD2095322FC01AD10AC5
S11306A0E20AF30A0091C4011091C501222717FD43
S11306B02095322F601B710B820B930B88829982D9
S11306C0AA82BB82CC82DD82EE82FF826887798730
S11306D08A879B87CE01DF91CF911F910F91FF9065
S11306E0EF90DF90CF90BF90AF909F908F90089540
S11306F0CF93DF93CDB7DEB72C970FB6F894DEBF58
S11307000FBECDBF2091CA013091CB012A303105F3
S1130710ACF52F5F3F4F3093CB012093CA01CE013C
S113072001960E94A2022091C8013091C9018981D9
S11307309A81820F931F9093C9018093C8012091DD
S1130740C6013091C7018D819E81820F931F9093C2
S1130750C7018093C6012091C4013091C5018985E8
S11307609A85820F931F9093C5018093C4012091B1
S1130770CA013091CB012A3031055CF28091C80165
S11307809091C901B9010E9498137093C9016093B3
S1130790C8018091C6019091C701B9010E949813C4
S11307A07093C7016093C6018091C4019091C50103
S11307B0B9010E9498137093C5016093C40186EC3B
S11307C090E00E947B1084ED90E00E946B10609199
S11307D0C8017091C901882777FD8095982F0E94E0
S11307E0AD1088ED90E00E946B106091C60170918D
S11307F0C701882777FD8095982F0E94AD1082E766
S113080091E00E946B106091C4017091C50188272A
S113081077FD8095982F0E94AD102FE986E891E02E
S1130820215080409040E1F700C0000081E090E05A
S11308309093C3018093C2018CED90E00E947B10E1
S11308402C960FB6F894DEBF0FBECDBFDF91CF91CB
S11308500895CF93DF93D82FC62F0E945B058CE3B6
S113086090E00E9477058D2F90E00E9482058C2FE6
S113087090E00E948D050E94A805DF91CF91089514
S113088060E082E00E9429048EEE90E00E947B10DA
S11308900895CF92DF92EF92FF92CF93DF930E945D
S11308A05B058CE390E00E94770583E090E00E9472
S11308B082050E9465058DE390E00E946B050E940D
S11308C0A0058093E5010E94A0058093E4010E94A5
S11308D0A0058093DD010E94A0058093DC010E94A5
S11308E0A0058093E1010E9498058093E0010E9495
S11308F0A805C091E501DD27C7FDD095DC2FCC27E5
S11309008091E401C82BD093E301C093E20160918C
S1130910E101772767FD7095762F66278091E001C6
S1130920682B7093DF016093DE018091DD019927CC
S113093087FD9095982F88272091DC01822B909336
S1130940DB018093DA01DD230CF453C0772354F1E7
S1130950882777FD8095982F0E9431126B017C01C6
S1130960BE01882777FD8095982F0E9431129B0144
S1130970AC01C701B6010E9496110E946E1120EECF
S11309803EE245E652E40E94E9120E944C130E94A2
S1130990FE1188E691E0861B970B9093D901809312
S11309A0D8017CC0882777FD8095982F0E9431124A
S11309B06B017C01BE01882777FD8095982F0E94EA
S11309C031129B01AC01C701B6010E9496110E942D
S11309D06E1120EE3EE245E652E40E94E9120E94C6
S11309E04C1390580E94FE117093D9016093D80162
S11309F055C0772354F1882777FD8095982F0E945E
S1130A0031126B017C01BE01882777FD8095982FF8
S1130A100E9431129B01AC01C701B6010E949611DC
S1130A200E946E1120EE3EE245E652E40E94E91275
S1130A300E944C130E94FE1184EB90E0861B970BDE
S1130A409093D9018093D80129C0882777FD809598
S1130A50982F0E9431126B017C01BE01882777FD1B
S1130A608095982F0E9431129B01AC01C701B601F9
S1130A700E9496110E946E1120EE3EE245E652E479
S1130A800E94E9120E944C130E94FE1184EB90E034
S1130A90861B970B9093D9018093D801DF91CF9156
S1130AA0FF90EF90DF90CF90089584E380B986B7EC
S1130AB0856486BF089584EA86BF06B607FEFDCF27
S1130AC081B1887F8830E1F7089584EA86BF06B64D
S1130AD007FEFDCF089583B986B7846C86BF06B63A
S1130AE007FEFDCF81B1887F8034E1F7089583B993
S1130AF084E886BF06B607FEFDCF81B1887F8831C2
S1130B00E1F7089583B984E886BF06B607FEFDCFF2
S1130B1081B1887F8832E1F7089583B984E886BF7C
S1130B2006B607FEFDCF81B1887F8832E1F70895CC
S1130B3084E886BF06B607FEFDCF83B190E0089532
S1130B4084EC86BF06B607FEFDCF83B190E008951E
S1130B5086B7846986BF06B604FCFDCF089587B3C3
S1130B608F6187BB88B3807E88BB1FBC8AE08EBD43
S1130B708AEC98E09BBD8ABD80E48BBF83E085BF8F
S1130B8085E085BD14BC8AEF90E00E947B10089537
S1130B901F920F920FB60F9211242F933F934F93EE
S1130BA05F938F939F93AF93BF938091E9018430B8
S1130BB009F46DC064F4813069F11CF48823C9F030
S1130BC0D7C08230E9F1833009F0D2C04AC08730FF
S1130BD009F495C03CF4853009F46AC0863009F004
S1130BE0C7C07CC0883009F4A0C0893009F0C0C0F7
S1130BF0ADC0C09A8091600090916100A0916200A4
S1130C00B09163009BBD8ABD8091E9018F5F8093A1
S1130C10E901AEC0C0988091600090916100A091FC
S1130C206200B091630020E737E1A901481B590B2A
S1130C305BBD4ABD8091E9018F5F8093E90198C053
S1130C40C19A8091640090916500A0916600B09172
S1130C5067009BBD8ABD8091E9018F5F8093E901A4
S1130C6087C0C1988091640090916500A09166004E
S1130C70B091670020E737E1A901481B590B5BBD20
S1130C804ABD8091E9018F5F8093E90171C0C29AE6
S1130C908091680090916900A0916A00B0916B0006
S1130CA09BBD8ABD8091E9018F5F8093E90160C09B
S1130CB0C2988091680090916900A0916A00B091F7
S1130CC06B0020E737E1A901481B590B5BBD4ABD06
S1130CD08091E9018F5F8093E9014AC0C39A8091B2
S1130CE06C0090916D00A0916E00B0916F009BBD5F
S1130CF08ABD8091E9018F5F8093E90139C0C3986F
S1130D0080916C0090916D00A0916E00B0916F0085
S1130D1020E737E1A901481B590B5BBD4ABD80910F
S1130D20E9018F5F8093E90123C0C49A8091700028
S1130D3090917100A0917200B09173009BBD8ABD27
S1130D408091E9018F5F8093E90112C0C49880917A
S1130D50700090917100A0917200B091730020E72F
S1130D6037E1A901481B590B5BBD4ABD1092E9014B
S1130D70BF91AF919F918F915F914F913F912F912F
S1130D800F900FBE0F901F9018951F920F920FB6E1
S1130D900F9211242F938F939F93EF93FF9380913E
S1130DA0E6019091E701019729F41092E70110926E
S1130DB0E6010FC02091E801E22FF0E084B590E055
S1130DC0EE0FFF1FE651FE4F918380832F5F209328
S1130DD0E80114BCFF91EF919F918F912F910F9097
S1130DE00FBE0F901F9018951F920F920FB60F927F
S1130DF011248F939F931092E80181E090E09093E7
S1130E00E7018093E6019F918F910F900FBE0F90A1
S1130E101F9018958DE083BF83EC8CBF8CE091E02C
S1130E200E947B1008951F920F920FB60F92112407
S1130E308F938091FC018F5F8093FC01833028F0B5
S1130E4081E08093FD011092FC018F910F900FBE01
S1130E500F901F90189581B58D6081BD0895CF9333
S1130E60DF93CDB7DEB7C657D1090FB6F894DEBF0E
S1130E700FBECDBF0E94DB0F04B603FE05C087E2A0
S1130E8091E00E946B101CC004B600FE05C08FE206
S1130E9091E00E946B1014C004B602FE05C088E302
S1130EA091E00E946B100CC004B601FE05C083E4FF
S1130EB091E00E946B1004C084B790E00E948F10F0
S1130EC084B7807F84BF2FE73FE482E12150304024
S1130ED08040E1F700C000000E94550580917D002C
S1130EE090917E00019721F40E9491020E94780360
S1130EF080917B0090917C00019711F40E9477000F
S1130F008091770090917800019721F40E943C0130
S1130F100E94E3018091790090917A00019711F485
S1130F200E9440048091750090917600019721F40D
S1130F300E94F8010E944002F8940E940A070E944D
S1130F40AF0582E589BF78940E942B071DAA1EAACB
S1130F501FAA18AE68961FAE689769961FAE699768
S1130F606A961FAE6A976B961FAE6B9764961FAE18
S1130F70649765961FAE659766961FAE66976796EB
S1130F801FAE6797AF961CAE1DAE1EAE1FAEAF97D9
S1130F90A0961FAEA097A1961FAEA197A2961FAED2
S1130FA0A297A3961FAEA3972A961FAE2A972B96B5
S1130FB01FAE2B972C961FAE2C972D961FAE2D97F8
S1130FC0E0961FAEE097E1961FAEE197E2961FAE62
S1130FD0E297E3961FAEE39719A61AA61BA61CA6D2
S1130FE061961FAE1EAE6197AB961CAE1DAE1EAED3
S1130FF01FAEAB9780E690E0AA2797FDA095BA2F85
S11310006F968CAF9DAFAEAFBFAF6F978091FD0170
S1131010813009F0CEC71092FD0180917D0090913E
S11310207E00019709F05CC0CE010D960E94A202D9
S11310306D85772767FD7095872F972F0E94311252
S11310402AE939E949E95EE30E94E9126B017C016E
S11310506296AFAD62976A2F772767FD7095872FE9
S1131060972F0E94311223E333E343E35FE30E94AB
S1131070E9129B01AC01C701B6010E94D0100E9485
S1131080FE1162966FAF62976989772767FD709545
S1131090872F972F0E9431122AE939E949E95EE343
S11310A00E94E9126B017C016396BFAD63976B2FBD
S11310B0772767FD7095872F972F0E94311223E3BE
S11310C033E343E35FE30E94E9129B01AC01C701F0
S11310D0B6010E94D0100E94FE1163966FAF639711
S11310E080917B0090917C00019709F05CC0CE0157
S11310F001960E94840069857A85719561957109CC
S1131100882777FD8095982F0E9431126B017C010E
S113111069817A81882777FD8095982F0E94311202
S1131120A70196010E94431120E030E044E353E418
S11311300E94E9122BED3FE049E450E40E9496112D
S113114064966FAF649765967FAF659766968FAF29
S1131150669767969FAF67976D817E81719561955C
S11311607109882777FD8095982F0E943112A70175
S113117096010E94431120E030E044E353E40E94CE
S1131180E9122BED3FE049E450E40E949611689681
S11311906FAF689769967FAF69976A968FAF6A97C2
S11311A06B969FAF6B978091770090917800019731
S11311B071F50E945501BC01882777FD8095982F11
S11311C00E94311223E333E343E35FE30E94E91215
S11311D06B017C012F96EEADFFAD2F97BF018827E1
S11311E077FD8095982F0E9431122AE939E949E95F
S11311F05EE30E94E9129B01AC01C701B6010E94A3
S1131200D0100E94FE112F967FAF6EAF2F97809162
S1131210790090917A00019711F40E944904809119
S1131220750090917600019771F50E940202BC014D
S1131230882777FD8095982F0E9431122CEC3CEC86
S11312404CE45EE30E94E9126B017C0161962EADD1
S11312503FAD6197B901882777FD8095982F0E944B
S113126031122DEC3CEC4CE45FE30E94E9129B014B
S1131270AC01C701B6010E94D0100E94FE11619614
S11312807FAF6EAF619763963FAD6397632F772708
S113129067FD7095872F972F0E9431122DEC3CEC3F
S11312A04CE45DE30E94E912B9ADAAADFBADECAD2F
S11312B02B2F3A2F4F2F5E2F0E94D01069A37AA3B1
S11312C08BA39CA3292D382D472D562DBDA5AEA546
S11312D0FFA5E8A96B2F7A2F8F2F9E2F0E94D01085
S11312E02FE632E143E85AE30E94CF102DEC3CECA8
S11312F04CE45DEB0E94E912BDADAEADFFAD2196AD
S1131300EFAD21972B2F3A2F4F2F5E2F0E94D01035
S1131310A62EB72EC82ED92E6296AFAD62976A2F2D
S1131320772767FD7095872F972F0E943112BDA9EB
S1131330AEA9FFA9E8AD2B2F3A2F4F2F5E2F0E94A5
S1131340CF102DEC3CEC4CE45DE30E94E912B9A50E
S1131350AAA5FBA5ECA52B2F3A2F4F2F5E2F0E9499
S1131360D01069A77AA78BA79CA79D8D8E8D252D5C
S1131370342D492F582FBDA1AEA1FFA1E8A56B2F95
S11313807A2F8F2F9E2F0E94D0102FE632E143E850
S11313905AE30E94CF102DEC3CEC4CE45DEB0E9430
S11313A0E912B9A9AAA9FBA9ECA92B2F3A2F4F2F0F
S11313B05E2F0E94D010E62EF72E082F192F2DEC49
S11313C03CEC4CE45DE36A2D7B2D8C2D9D2D0E941D
S11313D0D0106DA77EA78FA798AB762F6EA5982FF8
S11313E088A9272F362F492F582F6A2D7B2D8C2D16
S11313F09D2D0E949611698F7A8F8B8F9C8F79A572
S11314006AA59BA58CA5272F362F492F582F6896A0
S1131410BFAD68976996AFAD69976A96FFAD6A9755
S11314206B96EFAD6B976B2F7A2F8F2F9E2F0E94A9
S1131430CF1069AB7AAB8BAB9CAB2DEC3CEC4CE4A2
S11314405DE36E2D7F2D802F912F0E94D010262ECC
S1131450372E8F8F98A3762F982F88A1272F332D7F
S1131460492F582F6E2D7F2D802F912F0E9496117A
S11314706DA37EA38FA398A79F8D88A1222D332DC2
S1131480492F582FFD8DEE8D652D742D8F2F9E2F96
S11314900E9496116F8F78A3382E292E79A16AA104
S11314A09BA18CA1272F362F492F582F6496BFADAF
S11314B064976596AFAD65976696FFAD6697679638
S11314C0EFAD67976B2F7A2F8F2F9E2F0E94CF102F
S11314D09B01AC01B98DAA8DFB8DEC8D6B2F7A2FFE
S11314E08F2F9E2F0E94E912B9A1AAA1FBA1ECA102
S11314F02B2F3A2F4F2F5E2F0E94D01069A37AA36F
S11315008BA39CA369AF7AAF8BAF9CAF2A2D3B2DE5
S11315104C2D5D2DB98DAA8DFB8DEC8D6B2F7A2F03
S11315208F2F9E2F0E94E912262F372F482F592FD5
S11315306A2D7B2D8C2D9D2D0E94CF10A62EB72EAB
S1131540C82ED92E6DAF7EAF8FAF21969FAF219756
S1131550798D6A8D9B8D8C8D272F362F492F582F8F
S1131560692D782D872D962D0E94E912262F372F6D
S1131570482F592F692D782D872D962D0E94CF1035
S113158022966FAF229723967FAF239724968FAF2F
S1131590249725969FAF25977DA56EA59FA588A91D
S11315A0272F362F492F582F692D782D872D962DCB
S11315B00E9496112A2D3B2D4C2D5D2D0E94E9127F
S11315C09B01AC01692D782D872D962D0E94CF109B
S11315D06DA77EA78FA798AB79A96AA99BA98CA9A7
S11315E0272F362F492F582FBDA1AEA1FFA1E8A563
S11315F06B2F7A2F8F2F9E2F0E94E912B9A5AAA5CF
S1131600FBA5ECA52B2F3A2F4F2F5E2F0E94D01055
S1131610698F7A8F8B8F9C8F69A77AA78BA79CA7DA
S113162079A96AA99BA98CA9272F362F492F582F4E
S1131630BF8DA8A16B2F7A2F832D922D0E94E912C2
S11316409B01AC01BDA9AEA9FFA9E8AD6B2F7A2F10
S11316508F2F9E2F0E94D0106DAB7EAB8FAB98AFB7
S11316602E2D3F2D402F512FBDA1AEA1FFA1E8A5E6
S11316706B2F7A2F8F2F9E2F0E94E912262F372F40
S1131680482F592F6E2D7F2D802F912F0E94CF1020
S1131690E62EF72E082F192F69AB7AAB8BAB9CABD8
S11316A07DA16EA19FA188A5272F362F492F582FE2
S11316B0FD8DEE8D652D742D8F2F9E2F0E94E912C6
S11316C0262F372F482F592FFD8DEE8D652D742D24
S11316D08F2F9E2F0E94CF1026966FAF26972796A6
S11316E07FAF279728968FAF289729969FAF299782
S11316F02E2D3F2D402F512FBF8DA8A16B2F7A2F58
S1131700832D922D0E94E9129B01AC01FD8DEE8D7B
S1131710652D742D8F2F9E2F0E94CF106DA37EA355
S11317208FA398A7E4EFF1E080819181813991053D
S113173024F083E08093000212C0A4EFB1E08D9105
S11317409C9111978C38910544F08D919C9180392E
S113175091051CF41092000202C0109200028091C4
S113176000029091FF01981721F091E09093FE01FF
S113177002C01092FE01882321F0833009F04CC38B
S1131780B4C08091FE01813021F48AE491E00E948A
S11317907B10EAEEF1E020813181220F331FC90171
S11317A0880F991F880F991F880F991F821B930B0D
S11317B08E5D9E4FAA2797FDA095BA2FE0E6F0E034
S11317C080839183A283B383ACEEB1E02D913C91ED
S11317D04FE0429FC001439F900D11248A569F4FB2
S11317E0AA2797FDA095BA2FE4E6F0E080839183C1
S11317F0A283B3832091EE013091EF01429FC00197
S1131800439F900D1124AA2797FDA095BA2FE8E6CF
S1131810F0E080839183A283B3832091F00130911F
S1131820F101220F331FC901880F991F880F991FD7
S1131830880F991F821B930B8E5D9E4FAA2797FDDD
S1131840A095BA2FECE6F0E080839183A283B38362
S11318508091F2019091F3018738910594F480917D
S1131860F2019091F301893791055CF086EE95E0E1
S1131870A0E0B0E0E0E7F0E080839183A283B3834B
S1131880CBC28091F2019091F3018639910594F4D1
S11318908091F2019091F301883891055CF08CE617
S11318A097E0A0E0B0E0E0E7F0E080839183A283DA
S11318B0B383B2C28091F2019091F301803A910511
S11318C00CF0AAC28091F2019091F301873991053D
S11318D00CF4A2C28CEF98E0A0E0B0E0E0E7F0E006
S11318E080839183A283B38397C28091FE01813068
S11318F009F07EC086E591E00E947B10A8E6B0E086
S11319008D919D910D90BC91A02DAB968CAF9DAF08
S1131910AEAFBFAFAB9783E691E00E946B10AB967E
S11319206CAD7DAD8EAD9FADAB970E94AD10A4E6BE
S1131930B0E08D919D910D90BC91A02DAF968CAF90
S11319409DAFAEAFBFAFAF9786E791E00E946B103B
S1131950AF966CAD7DAD8EAD9FADAF970E94AD10CF
S113196088E891E00E946B102F96EEADFFAD2F97A3
S1131970BF01882777FD8095982F0E94AD10F98DBF
S1131980E096FFAFE0972A8DE1962FAFE1973B8D6C
S1131990E2963FAFE2978C8DE3968FAFE39799A1E0
S11319A0E4969FAFE497AAA1E596AFAFE597BBA1F4
S11319B0E696BFAFE697ECA1E796EFAFE797A4965C
S11319C01FAEA497A5961FAEA597A6961FAEA69781
S11319D0A7961FAEA797A0961FAEA097A1961FAE7D
S11319E0A197A2961FAEA297A3961FAEA39718C065
S11319F02A96FFAD2A97A496FFAFA4972B962FADF6
S1131A002B97A5962FAFA5972C963FAD2C97A6960E
S1131A103FAFA6972D968FAD2D97A7968FAFA7971B
S1131A20AAEEB1E02D913C91220F331FC901880F1A
S1131A30991F880F991F880F991F821B930B8E5D26
S1131A409E4FAA2797FDA095BA2FE0E6F0E0808389
S1131A509183A283B3832091F0013091F101220F8D
S1131A60331FC901880F991F880F991F880F991F69
S1131A70821B930B8E5D9E4FAA2797FDA095BA2FCC
S1131A80ECE6F0E080839183A283B3838091F2013A
S1131A909091F301873891055CF48091F201909163
S1131AA0F3018937910524F081E08093740023C009
S1131AB08091F2019091F301863991055CF4809153
S1131AC0F2019091F3018838910524F082E080932B
S1131AD0740011C08091F2019091F301803A910554
S1131AE054F48091F2019091F301873991051CF02F
S1131AF083E08093740079A16AA19BA18CA1272F14
S1131B00362F492F582FE496BFADE497E596AFAD35
S1131B10E597E696FFADE697E796EFADE7976B2F6F
S1131B207A2F8F2F9E2F0E94CF10362E272E082F0C
S1131B30192F862E972EA82EB92E6091740070E06E
S1131B4080E090E00E9431126B017C01AB966CAD99
S1131B507DAD8EAD9FADAB970E9431122B013C0140
S1131B60C501B401905820E030E040EF51E40E94F8
S1131B70E9124B015C0120E030E0A901632D722DD4
S1131B80802F912F0E94D01020E030E040EF51E4EC
S1131B900E94E9122DEC3CEC4CE45DE30E94E91256
S1131BA09B01AC01C501B4010E94D0104B015C0142
S1131BB0232D322D402F512F60E070E0CB010E9485
S1131BC0CF102DEC3CEC4CE45DE30E9496119B019C
S1131BD0AC01C501B4010E94D0109B01AC01C70146
S1131BE0B6010E94E9129B01AC01C301B2010E943B
S1131BF0CF100E94FE11A8E6B0E06D937D938D9303
S1131C009C9313978D919D910D90BC91A02D893B30
S1131C109B40A105B1055CF088EB9BE0A0E0B0E03F
S1131C20E8E6F0E080839183A283B38313C0E8E6FF
S1131C30F0E080819181A281B381883E9340A10527
S1131C40B10544F488EE93E0A0E0B0E08083918392
S1131C50A283B383E0967FADE097E1966FADE19701
S1131C60E2969FADE297E3968FADE397272F362F49
S1131C70492F582FB98DAA8DFB8DEC8D6B2F7A2FA0
S1131C808F2F9E2F0E94CF10262E372E082F192F0C
S1131C902A966FAF2A972B967FAF2B972C968FAFF0
S1131CA02C972D969FAF2D97762F272F332D402FCE
S1131CB0512FA096BFADA097A196AFADA197A296C4
S1131CC0FFADA297A396EFADA3976B2F7A2F8F2F1B
S1131CD09E2F0E94D0106D8F7E8F8F8F98A3A09619
S1131CE06FAFA097A1967FAFA197A2968FAFA2974F
S1131CF0A3969FAFA397AF966CAD7DAD8EAD9FAD10
S1131D00AF970E9431124B015C0120E030E040EFBC
S1131D1051E4622D732D802F912F0E94E9122B0123
S1131D203C0120E030E040EF51E4BD8DAE8DFF8DED
S1131D30E8A16B2F7A2F8F2F9E2F0E94E9122DEC92
S1131D403CEC4CE45DE30E94E9129B01AC01C3014D
S1131D50B2010E94D0102B013C01222D332D402FC3
S1131D60512FA496BFADA497A596AFADA597A696FF
S1131D70FFADA697A796EFADA7976B2F7A2F8F2F5E
S1131D809E2F0E94CF102DEC3CEC4CE45DE30E94AE
S1131D9096119B01AC01C301B2010E94D0109B01BA
S1131DA0AC01C701B6010E94E9129B01AC01C50157
S1131DB0B4010E94CF100E94FE11A4E6B0E06D931E
S1131DC07D938D939C9313978D919D910D90BC91D0
S1131DD0A02D893B9B40A105B1055CF088EB9BE0FD
S1131DE0A0E0B0E0E4E6F0E080839183A283B383D3
S1131DF013C0E4E6F0E080819181A281B381883E42
S1131E009340A105B10544F488EE93E0A0E0B0E06E
S1131E1080839183A283B383E0E6F0E080819181A3
S1131E20A281B3810E948F1085E991E00E946B101A
S1131E30E4E6F0E080819181A281B3810E948F1059
S1131E4085E991E00E946B10E8E6F0E080819181E1
S1131E50A281B3810E948F1085E991E00E946B10EA
S1131E60ECE6F0E080819181A281B3810E948F1021
S1131E7085E991E00E946B10E0E7F0E080819181B8
S1131E80A281B3810E948F1085E991E00E946B10BA
S1131E90598D4A8D3B8D2C8D652F742F832F922F56
S1131EA00E94FE11CB010E948F1085E991E00E94EF
S1131EB06B1059A14AA13BA12CA1652F742F832F2C
S1131EC0922F0E94FE11CB010E948F1085E991E0B0
S1131ED00E946B102F968EAD9FAD2F970E948F108E
S1131EE085E991E00E946B1061968EAD9FAD61977C
S1131EF00E948F1085E991E00E946B1080E090E0D1
S1131F000E948F1085E991E00E946B102A965FADC4
S1131F102A972B964FAD2B972C963FAD2C972D9649
S1131F202FAD2D97652F742F832F922F0E94FE11B2
S1131F30CB010E948F1085E991E00E946B10809183
S1131F40740090E00E948F1085E991E00E947B105C
S1131F50809100028093FF016F968CAD9DADAEAD74
S1131F60BFAD6F97EBECF2E080839183A283B383E0
S1131F70EAEEF1E0A7EBB2E01196FC93EE9326961D
S1131F805FAC269727964FAC27972896FFAD2897E6
S1131F90FD8F29962FAD29972E8F22969FAC2297DD
S1131FA023968FAC239724967FAC249725966FAC09
S1131FB02597A8952BC8F89488E98AB986E880BD46
S1131FC010BC89E189B978948CB15F99FDCF0895EB
S1131FD01F920F920FB60F9211242F933F938F935A
S1131FE09F93EF93FF938CB18093030210920402AA
S1131FF080930202809102028C32F1F4209101025A
S1132000822F992787FD90953091DD02FC01EE0F18
S1132010FF1FEE0FFF1FEE0FFF1FE80FF91FE30F67
S1132020F11D37FDFA95EB5FFD4F10821092DD0232
S11320302F5F2093010240C0809102028D30E1F4B1
S113204080910102992787FD90952091DD02FC0182
S1132050EE0FFF1FEE0FFF1FEE0FFF1FE80FF91F1C
S1132060E20FF11D27FDFA95EB5FFD4F10821092F0
S1132070DD021092010220C0809102028A30E1F058
S113208080910102992787FD90952091DD0230917E
S11320900202FC01EE0FFF1FEE0FFF1FEE0FFF1FEA
S11320A0E80FF91FE20FF11D27FDFA95EB5FFD4FD5
S11320B030832F5F2093DD02FF91EF919F918F91E9
S11320C03F912F910F900FBE0F901F9018955D9B1D
S11320D0FECF8CB90895CF93DF93EC0188818823D8
S11320E039F0219690E00E94671089918111FACF0E
S11320F0DF91CF910895CF93DF93EC0188818823FA
S113210039F0219690E00E94671089918111FACFED
S113211087E991E00E946B10DF91CF910895CF93EE
S1132120DF93CDB7DEB72F970FB6F894DEBF0FBE9F
S1132130CDBF4AE050E0BE016F5F7F4F0E94C013E5
S1132140CE0101960E946B102F960FB6F894DEBF55
S11321500FBECDBFDF91CF910895CF93DF93CDB75D
S1132160DEB76F970FB6F894DEBF0FBECDBF2AE07F
S113217030E0AE014F5F5F4F0E94E113CE01019644
S11321800E946B1087E991E00E946B106F960FB666
S1132190F894DEBF0FBECDBFDF91CF9108955058A4
S11321A0BB27AA270ED0D4C1C5D130F0CAD120F0A4
S11321B031F49F3F11F41EF495C10EF4E095E7FB52
S11321C08BC1E92FD6D180F3BA176207730784074E
S11321D0950718F071F49EF5EEC10EF4E0950B2E00
S11321E0BA2FA02D0B01B90190010C01CA01A00165
S11321F01124FF27591B99F0593F50F4503E68F1C0
S11322001A16F040A22F232F342F4427585FF3CF00
S1132210469537952795A795F0405395C9F77EF4D1
S11322201F16BA0B620B730B840BBAF09150A1F01A
S1132230FF0FBB1F661F771F881FC2F70EC0BA0FA0
S1132240621F731F841F48F4879577956795B79528
S1132250F7959E3F08F0B3CF9395880F08F0992720
S1132260EE0F97958795089565D158F080E891E031
S113227009F49EEF66D128F040E851E059F45EEF8E
S113228009C030C198C1E92FE07873D168F3092EF1
S1132290052AC1F3261737074807590738F00E2EC9
S11322A007F8E02569F0E025E0640AC0EF6307F869
S11322B0009407FADB01B9019D01DC01CA01AD01FB
S11322C0EF9343D045D10AD05F91552331F02BEDE4
S11322D03FE049E450FD49EC63CF0895DF93DD27E7
S11322E0B92FBF7740E85FE31616170648075B0768
S11322F010F4D92F67D19F938F937F936F93ECD171
S1132300E4E5F0E0F2D024D12F913F914F915F9119
S11323106CD1DD2349F09058A2EA2AED3FE049EC64
S11323205FE3D0785D274DDFDF9112C10CD010C17F
S113233008D140F0FFD030F021F45F3F19F0CCC059
S113234051113AC1CFC015D198F39923C9F355233C
S1132350B1F3951B550BBB27AA2762177307840794
S113236038F09F5F5F4F220F331F441FAA1FA9F34A
S113237033D00E2E3AF0E0E830D091505040E6953C
S1132380001CCAF729D0FE2F27D0660F771F881F9D
S1132390BB1F261737074807AB07B0E809F0BB0B8C
S11323A0802DBF01FF2793585F4F2AF09E3F5105B0
S11323B068F092C001C15F3FECF3983EDCF3869570
S11323C077956795B795F7959F5FC9F7880F911D26
S11323D09695879597F90895E1E0660F771F881F12
S11323E0BB1F621773078407BA0720F0621B730BC5
S11323F0840BBA0BEE1F88F7E095089504D0689417
S1132400B111DAC00895BDD088F09F5790F0B92F6C
S11324109927B751A0F0D1F0660F771F881F991F35
S11324201AF0BA95C9F712C0B13081F0C4D0B1E046
S11324300895C1C0672F782F8827B85F39F0B93F56
S1132440CCF3869577956795B395D9F73EF4909537
S11324508095709561957F4F8F4F9F4F0895E894B5
S113246009C097FB3EF490958095709561957F4FD8
S11324708F4F9F4F9923A9F0F92F96E9BB27939586
S1132480F695879577956795B795F111F8CFFAF496
S1132490BB0F11F460FF1BC06F5F7F4F8F4F9F4FC7
S11324A016C0882311F096E911C0772321F09EE825
S11324B0872F762F05C0662371F096E8862F70E08B
S11324C060E02AF09A95660F771F881FDAF7880F65
S11324D09695879597F9089597F99F6780E870E036
S11324E060E008959FEF80EC0895DF93CF931F93EE
S11324F00F93FF92EF92DF927B018C01689405C0E9
S1132500DA2EEF0172D0FE01E894A5912591359160
S113251045915591AEF3EF0154DEFE019701A801F8
S1132520DA9479F7DF90EF90FF900F911F91CF919C
S1132530DF91089500240A94161617061806090652
S1132540089500240A941216130614060506089525
S1132550092E0394000C11F4882352F0BB0F40F4AD
S1132560BF2B11F460FF04C06F5F7F4F8F4F9F4FED
S1132570089557FD9058440F551F59F05F3F71F06F
S11325804795880F97FB991F61F09F3F79F08795D6
S11325900895121613061406551FF2CF4695F1DF5F
S11325A008C0161617061806991FF1CF86957105EF
S11325B0610508940895E894BB2766277727CB0123
S11325C097F908959B01AC0160E070E080E89FE317
S11325D0ADCE0BD0BDCFAEDF28F0B3DF18F095231E
S11325E009F07ACF7FCF1124E7CFC3DFA0F3959F03
S11325F0D1F3950F50E0551F629FF001729FBB27E6
S1132600F00DB11D639FAA27F00DB11DAA1F649F91
S11326106627B00DA11D661F829F2227B00DA11D44
S1132620621F739FB00DA11D621F839FA00D611DCA
S1132630221F749F3327A00D611D231F849F600DEB
S1132640211D822F762F6A2F11249F5750408AF024
S1132650E1F088234AF0EE0FFF1FBB1F661F771FB0
S1132660881F91505040A9F79E3F510570F034CF18
S1132670A3CF5F3FECF3983EDCF38695779567959F
S1132680B795F795E7959F5FC1F7FE2B880F911DCE
S11326909695879597F9089574DFE0F09E37D8F002
S11326A09639B8F49E3848F4672F782F8827985FB6
S11326B0F9CF86957795679593959539D0F3B62F8D
S11326C0B1706B0F711D811D20F487957795679507
S11326D0939505C01FC070CF9B01AC017ACF8823AE
S11326E071F4772321F09850872B762F07C0662347
S11326F011F499270DC09051862B70E060E02AF008
S11327009A95660F771F881FDAF7880F9695879535
S113271097F908959F3F31F0915020F4879577956C
S11327206795B795880F911D9695879597F90895A4
S113273097FB072E16F4009407D077FD09D00E946A
S1132740AC1307FC05D03EF4909581959F4F0895F6
S1132750709561957F4F0895AA1BBB1B51E107C07B
S1132760AA1FBB1FA617B70710F0A61BB70B881F1D
S1132770991F5A95A9F780959095BC01CD010895AC
S1132780FB019F01E8944230C4F04532B4F44A306E
S113279029F497FB1EF4909581959F4F642F77271A
S11327A00E94AC13805D8A330CF0895D8193CB0168
S11327B00097A1F716F45DE251931082C9010C94BD
S11327C01514FA01CF93FF93EF93223044F125328D
S11327D034F5C22FE894CA3049F497FB3EF490953F
S11327E08095709561957F4F8F4F9F4F2C2F332786
S11327F044275527FF93EF930E942514EF91FF91EF
S1132800605D6A330CF0695D6193B901CA0160507F
S113281070408040904051F716F4CDE2C19310828D
S11328208F919F91CF910C941514DC01FC01672FBB
S113283071917723E1F7329704C07C916D93708393
S11328406291AE17BF07C8F30895A1E21A2EAA1B1E
S1132850BB1BFD010DC0AA1FBB1FEE1FFF1FA2174C
S1132860B307E407F50720F0A21BB30BE40BF50B49
S1132870661F771F881F991F1A9469F760957095D2
S1132880809590959B01AC01BD01CF010895F8940A
S1052890FFCF74
S1132892CA080000CA080000CA080000CA080000EA
S11328A2E6050000010100010001000100010061D0
S11328B263632073746172746564006261726F2071
S11328C273746172746564006261726F5F6F6666CD
S11328D27365742000414443206F6B004144435F9D
S11328E26F66667365743A20006779726F20737439
S11328F26172746564004779726F204F666673650E
S1132902743A2000703A2000713A20004779726FBD
S11329122043616C20436F6D706C657465006D615A
S113292267207374617274656400536572766F54C0
S1132932696D657253746172746564005461736B7A
S113294254696D6572537461727465640057646F7F
S113295267456E61626C0057646F6752737400500E
S113296277725570527374004272776E4F75745257
S11329727374004578745273740044495245435445
S1132982204354524C00484F4C4420434F4E54521F
S11329924F4C005472696D6D656420456C657661B7
S11329A2746F723A20005472696D6D6564204169D6
S11329B26C65726F6E3A20005461726765742041CF
S10D29C26C743A20003B000D0A007B
S9030000FC
