:100000000C9450000C940D070C946D000C946D0032
:100010000C946D000C943C070C946D000C94BD0581
:100020000C946D000C946D000C9467070C946D009B
:100030000C946D000C94EA1B0C946D000C946D00F4
:100040000C946D000C946D000C946D000C946D007C
:100050000C946D00084AD73B3BCE016E84BCBFFDBB
:10006000C12F3D6C74319ABD56833DDA3D00C77F88
:1000700011BED9E4BB4C3E916BAAAABE0000008021
:100080003F05A84CCDB2D44EB93836A9020C50B9B0
:10009000918688083CA6AAAA2ABE000000803F00DC
:1000A00011241FBECFE5D8E0DEBFCDBF12E0A0E631
:1000B000B0E0EAE6F1E402C005900D92A431B10788
:1000C000D9F726E0A4E1B2E001C01D92AA38B20738
:1000D000E1F70E94C7070C94B3200C940000CF9363
:1000E000DF93D82FC62F0E944A0582E390E00E943A
:1000F00066058D2F90E00E9471058C2F90E00E9484
:100100007C050E949705DF91CF91089567E480E216
:100110000E946F0060E183E20E946F0085EA90E038
:100120000E94701C08950F931F93CF93DF93EC01EF
:100130000E944A0582E390E00E94660588EA90E00A
:100140000E9471050E94540583E390E00E945A05C5
:100150000E948F05809324020E948F0580932502C0
:100160000E948F0580931E020E948F0580931F02BC
:100170000E948F05809318020E94870580931902C0
:100180000E94970580912502992787FD9095982FC9
:10019000882720912402822B9595879595958795A0
:1001A0009595879595958795909323028093220244
:1001B00000911F02112707FD1095102F0027209195
:1001C0001E02022B15950795159507951595079510
:1001D0001595079510931D0200931C02409119027A
:1001E000552747FD5095542F442720911802422B44
:1001F00055954795559547955595479555954795E7
:100200005093170240931602880F991F9093210272
:1002100080932002000F111F10931B0200931A02FB
:10022000440F551F5093150240931402AA2797FDBF
:10023000A095BA2F88839983AA83BB83222717FDB1
:100240002095322F0C831D832E833F83662757FD15
:100250006095762F488759876A877B87CE01DF9123
:10026000CF911F910F910895CF93DF93D82FC62F71
:100270000E944A0580EC90E00E9466058D2F90E078
:100280000E9471058C2F90E00E947C050E949705CA
:10029000DF91CF91089569EB86E20E94340160E816
:1002A00089E20E94340166EC84E10E9434016BE52E
:1002B00085E10E94340167E083E10E94340181EB13
:1002C00090E00E94701C0895CF930E944A0580EC34
:1002D00090E00E94660580E090E00E9471050E9417
:1002E000540581EC90E00E945A050E948705C82FB2
:1002F0000E94970580912C0232C0CE3E81F50E946B
:100300004A0580EC90E00E94660581E090E00E9442
:1003100071050E94540581EC90E00E945A050E94EC
:100320008F0580932F020E948F0580932E020E94DA
:10033000870580932D020E94970520912F02332775
:1003400027FD3095322F222780912E02282B3093C3
:1003500029022093280281E080932C023FC0882349
:1003600061F2CE3EB9F50E944A0580EC90E00E9411
:10037000660581E090E00E9471050E94540581ECC1
:1003800090E00E945A050E948F0580932F020E94E0
:100390008F0580932E020E94870580932D020E9474
:1003A000970520912F02332727FD3095322F2227E2
:1003B00080912E02282B30932902209328028091CD
:1003C0002A0290912B02281B390B3093270220938D
:1003D000260204C02091260230912702822F932FFB
:1003E000CF9108950E94640190932B0280932A027A
:1003F0008EEB90E00E94601C60912A0270912B02AB
:10040000882777FD8095982F0E94A21C08951ABA1C
:1004100080E487B987E886B98BEC90E00E94701C75
:10042000089583E087B9369A3699FECF24B130E03B
:10043000309335022093340245B1942F80E0282B6D
:10044000392B3093350220933402822F932F089555
:10045000CF93DF93D82FC62F0E944A0586ED90E0F8
:100460000E9466058D2F90E00E9471058C2F90E010
:100470000E947C050E949705DF91CF9108956FE05F
:1004800080E20E94280260E281E20E94280260E18C
:1004900084E20E9428028FED90E00E94701C089573
:1004A0008F929F92AF92BF92CF92DF92EF92FF9284
:1004B0000F931F93CF93DF93EC010E944A0586EDC3
:1004C00090E00E94660588EA90E00E9471050E9413
:1004D000540587ED90E00E945A050E948F05809395
:1004E0004A020E948F0580934B020E948F058093E1
:1004F00046020E948F05809347020E948F058093D9
:1005000042020E948705809343020E9497056091F2
:100510004B02772767FD7095762F662780914A02F8
:10052000682B7093490260934802E0904702FF24D1
:10053000E7FCF094FE2CEE2480914602E82AF0922B
:100540004502E092440200914302112707FD1095F5
:10055000102F002780914202082B10934102009334
:100560004002882777FD8095982F0E942D1E29E252
:100570003CE54FE05CE30E94461F0E94FA1D4B01E0
:100580005C01B701882777FD8095982F0E942D1E6A
:1005900029E23CE54FE05CE30E94461F0E94FA1D01
:1005A0006B017C01B801882777FD8095982F0E9408
:1005B0002D1E29E23CE54FE05CE30E94461F0E94AD
:1005C000FA1D20913602309137022130310521F594
:1005D00000913C0210913D02222717FD2095322FF9
:1005E000801A910AA20AB30A00913A0210913B02C2
:1005F000222717FD2095322FC01AD10AE20AF30AEA
:100600000091380210913902222717FD2095322FD0
:10061000601B710B820B930B88829982AA82BB822A
:10062000CC82DD82EE82FF82688779878A879B870A
:10063000CE01DF91CF911F910F91FF90EF90DF904E
:10064000CF90BF90AF909F908F900895CF93DF93FE
:10065000CDB7DEB72C970FB6F894DEBF0FBECDBF77
:1006600020913E0230913F022A303105ACF52F5FD8
:100670003F4F30933F0220933E02CE0101960E94ED
:10068000500220913C0230913D0289819A81820F73
:10069000931F90933D0280933C0220913A02309147
:1006A0003B028D819E81820F931F90933B0280932A
:1006B0003A02209138023091390289859A85820F59
:1006C000931F909339028093380220913E0230911B
:1006D0003F022A3031055CF280913C0290913D024C
:1006E000B9010E94E11F70933D0260933C0280912A
:1006F0003A0290913B02B9010E94E11F70933B02C4
:1007000060933A028091380290913902B9010E94B7
:10071000E11F70933902609338028CEE90E00E94E2
:10072000701C8AEF90E00E94601C60913C02709106
:100730003D02882777FD8095982F0E94A21C8EEF9E
:1007400090E00E94601C60913A0270913B02882701
:1007500077FD8095982F0E94A21C82E091E00E9474
:10076000601C6091380270913902882777FD80956E
:10077000982F0E94A21C2FE986E891E0215080402A
:100780009040E1F700C0000081E090E090933702D4
:100790008093360286E091E00E94701C2C960FB682
:1007A000F894DEBF0FBECDBFDF91CF910895CF93F8
:1007B000DF93D82FC62F0E944A058CE390E00E9459
:1007C00066058D2F90E00E9471058C2F90E00E94AD
:1007D0007C050E949705DF91CF91089560E082E04B
:1007E0000E94D70388E191E00E94701C08952F9227
:1007F0003F924F925F926F927F928F929F92AF92B1
:10080000BF92CF92DF92EF92FF920F931F93CF93FD
:10081000DF93CDB7DEB728970FB6F894DEBF0FBED3
:10082000CDBF4B015C0129013A010E944A058CE3CE
:1008300090E00E94660583E090E00E9471050E94AE
:1008400054058DE390E00E945A050E948F05809325
:1008500061020E948F05809360020E948F05809341
:1008600051020E948F05809350020E948F05809351
:1008700059020E948705809358020E949705E090D4
:100880006102FF24E7FCF094FE2CEE2480916002CC
:10089000E82AF0925F02E0925E0280915902992765
:1008A00087FD9095382F222780915802A901482B67
:1008B00058874F83509357024093560280915102BC
:1008C000992787FD9095982F882720915002822B99
:1008D00090934F0280934E0225E33AEF4EE85CE39B
:1008E000C301B2010E94461F062F172F382E292E52
:1008F0000E948F1D2B013C01B701882777FD809551
:10090000982F0E942D1E6B017C0120E030E04AE709
:1009100054E4C301B2010E94461FA70196010E9440
:10092000461F20E030E04AE754E40E94921D0E94F6
:10093000FA1D7E836D8370935D0260935C0225E3F4
:100940003AEF4EE85CE3C501B4010E94461F69839B
:100950007A838B839C830E948F1D4B015C01EF8106
:10096000F885BF01882777FD8095982F0E942D1E5E
:100970002B013C0120E030E04AE754E4C501B4011A
:100980000E94461FA30192010E94461F20E030E012
:100990004AE754E40E94921D0E94FA1D5B01709385
:1009A000550260935402602F712F832D922D0E9467
:1009B000A91F9B01AC01C701B6010E94461F0E94FE
:1009C000FA1D70935B0260935A0259814A813B8100
:1009D0002C81652F742F832F922F0E94A91F9B01BA
:1009E000AC01C301B2010E94461F0E94FA1D709320
:1009F0005302609352022D813E81B901882777FD11
:100A00008095982F0E942D1E6B017C01B5018827CF
:100A100077FD8095982F0E942D1EA70196010E94B8
:100A2000381D905820EE3EE245E652E40E94461FF3
:100A30000E94FA1D77232CF070934D0260934C02B4
:100A400006C068597E4F70934D0260934C028091AE
:100A50004C0290914D0228960FB6F894DEBF0FBE5F
:100A6000CDBFDF91CF911F910F91FF90EF90DF905D
:100A7000CF90BF90AF909F908F907F906F905F903E
:100A80004F903F902F90089584E380B986B7856496
:100A900086BF089584EA86BF06B607FEFDCF81B102
:100AA000887F8830E1F7089584EA86BF06B607FE9E
:100AB000FDCF089583B986B7846C86BF06B607FE5E
:100AC000FDCF81B1887F8034E1F7089583B984E850
:100AD00086BF06B607FEFDCF81B1887F8831E1F77A
:100AE000089583B984E886BF06B607FEFDCF81B1BD
:100AF000887F8832E1F7089583B984E886BF06B617
:100B000007FEFDCF81B1887F8832E1F7089584E840
:100B100086BF06B607FEFDCF83B190E0089584EC52
:100B200086BF06B607FEFDCF83B190E0089586B775
:100B3000846986BF06B604FCFDCF089587B38F6134
:100B400087BB8AB383608ABB88B3807E88BB8BB344
:100B50008C7F8BBB1FBC8AE08EBD8AEC98E09BBD6E
:100B60008ABD80E48BBF83E085BF85E085BD14BC72
:100B700084E291E00E94701C08951F920F920FB6BC
:100B80000F9211242F933F934F935F938F939F93D3
:100B9000AF93BF9380916502863009F499C084F4C5
:100BA000823009F447C034F48823E9F0813009F039
:100BB00027C12AC0843009F464C00CF073C04BC054
:100BC0008A3009F4D3C034F4883009F4A8C00CF09A
:100BD000B7C08FC08C3009F4F0C00CF4D8C08D3091
:100BE00009F00EC1FBC0C09A809160009091610035
:100BF000A0916200B09163009BBD8ABD80916502A7
:100C00008F5F80936502FCC0C098809160009091D6
:100C10006100A0916200B091630020EA3FE0A90169
:100C2000481B590B5BBD4ABD809165028F5F809365
:100C30006502E6C0C19A8091640090916500A09120
:100C40006600B09167009BBD8ABD809165028F5F91
:100C500080936502D5C0C198809164009091650031
:100C6000A0916600B091670020EA3FE0A901481B0F
:100C7000590B5BBD4ABD809165028F5F8093650211
:100C8000BFC0C29A8091680090916900A0916A00EB
:100C9000B0916B009BBD8ABD809165028F5F809390
:100CA0006502AEC0C2988091680090916900A091E1
:100CB0006A00B0916B0020EA3FE0A901481B590B84
:100CC0005BBD4ABD809165028F5F8093650298C0CD
:100CD000C39A80916C0090916D00A0916E00B091CC
:100CE0006F009BBD8ABD809165028F5F8093650216
:100CF00087C0C39880916C0090916D00A0916E00A8
:100D0000B0916F0020EA3FE0A901481B590B5BBD81
:100D10004ABD809165028F5F8093650271C0C49A5D
:100D20008091700090917100A0917200B091730059
:100D30009BBD8ABD809165028F5F8093650260C014
:100D4000C4988091700090917100A0917200B09150
:100D5000730020EA3FE0A901481B590B5BBD4ABD67
:100D6000809165028F5F809365024AC0D89A809116
:100D7000740090917500A0917600B09177009BBDB2
:100D80008ABD809165028F5F8093650239C0D898D3
:100D90008091740090917500A0917600B0917700D9
:100DA00020EA3FE0A901481B590B5BBD4ABD809179
:100DB00065028F5F8093650223C0D99A8091780085
:100DC00090917900A0917A00B0917B009BBD8ABD83
:100DD000809165028F5F8093650212C0D9988091DF
:100DE000780090917900A0917A00B0917B0020EA80
:100DF0003FE0A901481B590B5BBD4ABD109265023B
:100E0000BF91AF919F918F915F914F913F912F91A2
:100E10000F900FBE0F901F9018951F920F920FB654
:100E20000F9211242F938F939F93EF93FF938091B1
:100E3000620290916302019729F41092630210926A
:100E400062020FC020916402E22FF0E084B590E0CE
:100E5000EE0FFF1FE256FD4F918380832F5F20939B
:100E6000640214BCFF91EF919F918F912F910F908D
:100E70000FBE0F901F9018951F920F920FB60F92F2
:100E800011248F939F931092640281E090E09093DD
:100E90006302809362029F918F910F900FBE0F901B
:100EA0001F9018958DE083BF85E78CBF8FE892EC8B
:100EB000A5EFBCE38093B0029093B102A093B2027D
:100EC000B093B30286E391E00E94701C08951F92D4
:100ED0000F920FB60F9211248F938091B4028F5FFF
:100EE0008093B402833028F081E08093B5021092A1
:100EF000B4028F910F900FBE0F901F90189581B57F
:100F00008D6081BD08950F931F93FC01419144238F
:100F100081F1842F80538A3080F500E010E0980141
:100F200004C0842F80538A3058F5D901C801880F36
:100F3000991FAA1FBB1F8C019D01000F111F221FAB
:100F4000331F000F111F221F331F800F911FA21F7D
:100F5000B31F042F10E000531109222717FD20951D
:100F6000322F080F191F2A1F3B1F41914111D9CF62
:100F700007C000E010E0980103C000E010E0980115
:100F8000602F712F822F932F1F910F910895CF9370
:100F9000DF93CDB7DEB7C355D1090FB6F894DEBFE6
:100FA0000FBECDBF0E94DD1B04B603FE05C082E567
:100FB00091E00E94601C1EC004B600FE05C08AE5D8
:100FC00091E00E94601C16C004B602FE05C083E6D4
:100FD00091E00E94601C0EC004B601FE05C08EE6C2
:100FE00091E00E94601C06C064B770E080E090E071
:100FF0000E94841C84B7807F84BF2FE73FE482E196
:10100000215030408040E1F700C000000E944405BC
:101010008091A3009091A400019721F40E943F02C7
:101020000E9426038091A1009091A200019711F4E3
:101030000E94860080916A0390916B03019721F4CE
:101040000E944B010E94F20180916C0390916D030C
:10105000019711F40E94EE03809168039091690357
:10106000019711F40E940702F8940E9452070E940F
:101070009E0582E589BF78940E947F0781B3806FC7
:1010800081BB82B38F7082BB949A80916F03813051
:10109000B1F565E771E083ED94E00E946620282FAA
:1010A000392F232B81F4E3EDF4E0A0E7B3E080EBEC
:1010B00001900D928A95E1F7E3EDF4E0DF0120EB7A
:1010C0001D922A95E9F76BE771E083ED94E00E94A9
:1010D0006620282F392F232B81F4E3EDF4E0A0E2E2
:1010E000B4E080EB01900D928A95E1F7E3EDF4E036
:1010F000DF0120EB1D922A95E9F710926F03809192
:10110000B502813011F00C94DA1B1092B502809177
:10111000A3009091A400019709F0A8C0CE010D96FC
:101120000E945002ED84E0923106398830927206B6
:101130004D88409223068090910090909200A0905C
:101140009300B0909400A501940160E070E080E805
:101150009FE30E94C41C562E772E082F192F6E2D48
:10116000772767FD7095872F972F0E942D1E252DBD
:10117000372D402F512F0E94461F6B017C0160913B
:101180005706772767FD7095872F972F0E942D1E92
:101190009B01AC01C501B4010E94461F9B01AC013B
:1011A000C701B6010E94C51C0E94FA1D662E6093FD
:1011B0005706632D772767FD7095872F972F0E941D
:1011C0002D1E9B01AC01652D772D802F912F0E9444
:1011D000461F6B017C0160914006772767FD709583
:1011E000872F972F0E942D1E9B01AC01C501B401D2
:1011F0000E94461F9B01AC01C701B6010E94C51C9D
:101200000E94FA1DF62E60934006642D772767FD35
:101210007095872F972F0E942D1E9B01AC01652D85
:10122000772D802F912F0E94461F1B012C0160916A
:101230007306772767FD7095872F972F0E942D1EC5
:101240009B01AC01C501B4010E94461F9B01AC018A
:10125000C201B1010E94C51C0E94FA1D6093730671
:10126000F092860660921806609342038091A10076
:101270009091A200019709F062C0CE0101960E94F0
:101280009300A980BA80B0922606A09225060D810F
:101290001E8110936B0600936A0669857A857093A8
:1012A0003B0660933A06719561957109882777FD31
:1012B0008095982F0E942D1E6B017C01B501882717
:1012C00077FD8095982F0E942D1EA70196010E9400
:1012D000381D20E030E044E353E40E94461F2BED2C
:1012E0003FE049E450E40E94921D6093260370930E
:1012F0002703809328039093290366277727601B91
:10130000710B882777FD8095982F0E942D1EA701CD
:1013100096010E94381D20E030E044E353E40E942F
:10132000461F2BED3FE049E450E40E94921D60937C
:1013300022037093230380932403909325038091C9
:101340006A0390916B03019709F043C00E94640106
:101350009093520680935106C0909800D0909900C7
:10136000E0909A00F0909B00BC01882777FD809563
:10137000982F0E942D1E4B015C01A701960160E091
:1013800070E080E89FE30E94C41C9B01AC01C50192
:10139000B4010E94461F4B015C01609145067091AB
:1013A0004606882777FD8095982F0E942D1E9B0169
:1013B000AC01C701B6010E94461F9B01AC01C501EB
:1013C000B4010E94C51C0E94FA1D709346066093EA
:1013D000450680916C0390916D030197B1F42091C3
:1013E00058063091590640915A0650915B0660911B
:1013F0003A0370913B0380913C0390913D030E941E
:10140000F7039093880680938706809168039091F4
:101410006903019709F08CC080914303883009F07B
:1014200082C00E9411029093EB058093EA0580919F
:10143000B60281113AC08F5F8093B6020E941102FA
:10144000BC01882777FD8095982F0E942D1E9B0157
:10145000AC01609148037091490380914A039091D7
:101460004B030E94C51C609348037093490380930B
:101470004A0390934B038091B6028A30E0F220E059
:1014800030E040E251E4609148037091490380915B
:101490004A0390914B030E94921D609348037093FE
:1014A000490380934A0390934B036091EA0570913E
:1014B000EB05882777FD8095982F0E942D1E20919F
:1014C00048033091490340914A0350914B030E94D5
:1014D000C41C2DEC3CEC4CEC5DE30E94461F6B0100
:1014E0007C016091F6057091F705882777FD80955E
:1014F000982F0E942D1E26E636E646E65FE30E9400
:10150000461F9B01AC01C701B6010E94C51C0E9489
:10151000FA1D7093EF056093EE057093F7056093E5
:10152000F60510924303809143038F5F809343033A
:1015300080911E0390911F03A0912003B09121037D
:101540008CAF9DAFAEAFBFAF8090B0029090B102B4
:10155000A090B202B090B30260914006772767FD79
:101560007095872F972F0E942D1E2CAD3DAD4EAD4F
:101570005FAD0E94C41CA50194010E94461F2091EA
:1015800058063091590640915A0650915B060E94C8
:10159000C51C29966FAF29972A967FAF2A972B965D
:1015A0008FAF2B972C969FAF2C9775016401F7FA9C
:1015B000F094F7F8F0944090100650901106609067
:1015C0001206709013068091860090918700A0917A
:1015D0008800B09189008D8F9E8FAF8FB8A3209126
:1015E0001F06309120064091210650912206C3012A
:1015F000B2010E94C51C2D8D3E8D4F8D58A10E94B9
:10160000C41C9B01AC01C701B6010E94461F20917A
:1016100032063091330640913406509135060E94CF
:10162000C51C698F7A8F8B8F9C8F80911A03909144
:101630001B03A0911C03B0911D0324968CAF9DAF9A
:10164000AEAFBFAF24979C01AD01C701B6010E94A8
:10165000461F9B01AC01C301B2010E94C51C69A3D6
:101660007AA38BA39CA320918200309183004091A8
:10167000840050918500C501B4010E94461F2D963B
:101680006FAF2D972E967FAF2E972F968FAF2F97F8
:1016900060969FAF60978091120390911303A09181
:1016A0001403B091150328968CAF9DAFAEAFBFAFBA
:1016B000289760915706772767FD7095872F972F9A
:1016C0000E942D1E28962CAD3DAD4EAD5FAD2897E6
:1016D0000E94C41C9B01AC01C501B4010E94461FBD
:1016E00020913A0330913B0340913C0350913D03DC
:1016F0000E94C51C61966FAF619762967FAF62973B
:1017000063968FAF639764969FAF6497409060062F
:1017100050906106609062067090630620915C06AE
:1017200030915D0640915E0650915F06C301B201A3
:101730000E94C51C2D8D3E8D4F8D58A10E94C41C4A
:101740009B01AC01C701B6010E94461F2091F8051C
:101750003091F9054091FA055091FB050E94C51C96
:101760006D8F7DA38EA39FA380900E0390900F0397
:10177000A0901003B0901103A5019401C701B60118
:101780000E94461F9B01AC01C301B2010E94C51C0F
:1017900068A779A78AA79BA729967FAD29972A963C
:1017A0006FAD2A972B969FAD2B972C968FAD2C97CC
:1017B000272F362F492F582F60912603709127032A
:1017C00080912803909129030E94C41C6CAB7DABCF
:1017D0008EAB9FAB472F382F292F862F942FA32F07
:1017E000B22F8093270690932806A0932906B093E2
:1017F0002A06C0907E00D0907F00E0908000F0909C
:101800008100A7019601B98DAA8DFB8DEC8D6B2F00
:101810007A2F8F2F9E2F0E94C51C162F072F782EF0
:10182000692E862F902FA72DB62D8093E4059093D7
:10183000E505A093E605B093E705212F302F4A2F49
:101840005B2FB98DAA8DFB8DEC8D6B2F7A2F8F2F8F
:101850009E2F0E94921D562E472E382E292E862FFF
:10186000942DA32DB22D8093D2059093D305A093F0
:10187000D405B093D505212F302F472D562DB9A172
:10188000AAA1FBA1ECA16B2F7A2F8F2F9E2F0E9474
:10189000921D6CA77DA78EA79FA7472F382F292FB2
:1018A000862F942FA32FB22F8093160390931703A4
:1018B000A0931803B093190361967FAD6197629668
:1018C0006FAD629763969FAD639764968FAD649793
:1018D000272F362F492F582F609122037091230311
:1018E00080912403909125030E94C41C68AF79AFB6
:1018F0008AAF9BAF472F382F292F862F942FA32FE6
:10190000B22F80936C0690936D06A0936E06B093F1
:101910006F06A7019601BD8DADA1FEA1EFA16B2FB2
:101920007A2F8F2F9E2F0E94C51C162F072FF82E5F
:10193000E92E862F902FAF2DBE2D809353069093C6
:101940005406A0935506B0935606212F302F4A2FE8
:101950005B2FBD8DADA1FEA1EFA16B2F7A2F8F2F35
:101960009E2F0E94921D662E772EC82ED92E862F6E
:10197000972DAC2DBD2D8093740690937506A09382
:101980007606B0937706212F302F4F2D5E2DB8A508
:10199000A9A5FAA5EBA56B2F7A2F8F2F9E2F0E945A
:1019A000921D68AB79AB8AAB9BAB472F382F292FA1
:1019B000862F942FA32FB22F80930A0390930B03AB
:1019C000A0930C03B0930D03252D342D432D522DE0
:1019D000BCA9ADA9FEA9EFA96B2F7A2F8F2F9E2F3F
:1019E0000E94461F9B01AC012996BFAD29972A96FC
:1019F000AFAD2A972B96FFAD2B972C96EFAD2C977A
:101A00006B2F7A2F8F2F9E2F0E94C51C6093580634
:101A10007093590680935A0690935B067CA56DA53A
:101A20009EA58FA5272F362F492F582FBCA9ADA9CA
:101A3000FEA9EFA96B2F7A2F8F2F9E2F0E94461F92
:101A40009B01AC016CAD7DAD8EAD9FAD0E94C51C00
:101A500060931E0370931F038093200390932103D0
:101A6000252D342D432D522DB98DAA8DFB8DEC8D56
:101A70006B2F7A2F8F2F9E2F0E94461F9B01AC0148
:101A8000B98DAA8DFB8DEC8D6B2F7A2F8F2F9E2F0A
:101A90000E94C41CE62EF72E082F192F862F9F2D8B
:101AA000A02FB12F8093320690933306A093340673
:101AB000B0933506252D342D432D522DB9A1AAA161
:101AC000FBA1ECA16B2F7A2F8F2F9E2F0E94461F18
:101AD0009B01AC01B9A1AAA1FBA1ECA16B2F7A2FAC
:101AE0008F2F9E2F0E94C41C698F7A8F8B8F9C8FA3
:101AF000472F382F292F862F942FA32FB22F809373
:101B0000100690931106A0931206B09313062E2D83
:101B10003F2D402F512FBCA5ADA5FEA5EFA56B2FE6
:101B20007A2F8F2F9E2F0E94461F9B01AC01B9A1D7
:101B3000AAA1FBA1ECA16B2F7A2F8F2F9E2F0E94C1
:101B4000C41C60931F067093200680932106909317
:101B500022062D967FAD2D972E966FAD2E972F9640
:101B60009FAD2F9760968FAD6097272F362F492F07
:101B7000582F24966CAD7DAD8EAD9FAD24970E94FD
:101B8000C51C1B012C01798D6A8D9B8D8C8D272F97
:101B9000362F492F582FBCA5ADA5FEA5EFA56B2F5D
:101BA0007A2F8F2F9E2F0E94461F9B01AC01C201EE
:101BB000B1010E94C41C60931A0370931B038093AD
:101BC0001C0390931D03262D372D4C2D5D2DB8AD94
:101BD000A9ADFAADEBAD6B2F7A2F8F2F9E2F0E9400
:101BE000461F9B01AC016196BFAD61976296AFAD98
:101BF00062976396FFAD63976496EFAD64976B2F22
:101C00007A2F8F2F9E2F0E94C51C60933A037093EA
:101C10003B0380933C0390933D0378A969A99AA95B
:101C20008BA9272F362F492F582FB8ADA9ADFAAD64
:101C3000EBAD6B2F7A2F8F2F9E2F0E94461F9B019B
:101C4000AC0128966CAD7DAD8EAD9FAD28970E94FE
:101C5000C51C609312037093130380931403909335
:101C60001503262D372D4C2D5D2DBD8DADA1FEA16B
:101C7000EFA16B2F7A2F8F2F9E2F0E94461F9B0163
:101C8000AC01BD8DADA1FEA1EFA16B2F7A2F8F2FDF
:101C90009E2F0E94C41CE62EF72E082F192F862F88
:101CA0009F2DA02FB12F8093F8059093F905A09355
:101CB000FA05B093FB05262D372D4C2D5D2DB8A5CB
:101CC000A9A5FAA5EBA56B2F7A2F8F2F9E2F0E9427
:101CD000461F9B01AC01B8A5A9A5FAA5EBA56B2FE2
:101CE0007A2F8F2F9E2F0E94C41C662E772EC82E0F
:101CF000D92E862F972DAC2DBD2D80936006909305
:101D00006106A0936206B09363062E2D3F2D402FEF
:101D1000512FB8A9A9A9FAA9EBA96B2F7A2F8F2F58
:101D20009E2F0E94461F9B01AC01B8A5A9A5FAA54C
:101D3000EBA56B2F7A2F8F2F9E2F0E94C41C6093D0
:101D40005C0670935D0680935E0690935F06A50126
:101D500094012D96BFAD2D972E96AFAD2E972F9651
:101D6000FFAD2F976096EFAD60976B2F7A2F8F2F77
:101D70009E2F0E94C51C4B015C01262D372D4C2D3A
:101D80005D2DB8A9A9A9FAA9EBA96B2F7A2F8F2FDE
:101D90009E2F0E94461F9B01AC01C501B4010E9409
:101DA000C41C60930E0370930F03809310039093F1
:101DB000110387EA93E00E948307609349067093BA
:101DC0004A0680934B0690934C0681E993E00E946B
:101DD000830760932B0670932C0680932D069093B7
:101DE0002E0688EC93E00E94830724E630E040E072
:101DF00050E00E94F51F3093090320930803C09020
:101E00000003D0900103E0900203F0900303C701A8
:101E1000B60120E836E948E950E00E941720822EFA
:101E200020932406C701B60120EA36E841E050E0DD
:101E30000E941720122F94E6899E101911241093E6
:101E4000C302992487FC9094A92CB92CA12FBB27FD
:101E5000A7FDB09520E639E74EEF5FEF0E943E20E8
:101E60002B013C01A501940160E879E687E69FEF2C
:101E70000E94D11F460E571E681E791EC40CD51C29
:101E8000E61CF71CC092BF02D092C002E092C102D1
:101E9000F092C20268E971EB81E090E00E94D11FEC
:101EA0002AE337E012034001139F900C1124AA2467
:101EB00097FCA094BA2C860E971EA81EB91EA4E407
:101EC000B7E0A70196010E94332020EA36E841E0FE
:101ED00050E00E941720820E931EA41EB51E809211
:101EE000BB029092BC02A092BD02B092BE02AEE9CB
:101EF000B2E08D919C918E3691050CF0CBC0809113
:101F0000A4029091A502803B91050CF4C3C080917E
:101F1000A2029091A3028B3A91050CF4BBC0809170
:101F2000A0029091A1028B3A91050CF4B3C080916C
:101F3000BA028111AFC0B1E0B093BA0287EA93E070
:101F40000E9483076093DA057093DB058093DC05BC
:101F50009093DD0581E993E00E9483076093040676
:101F600070930506809306069093070681E891E03A
:101F70000E94601C6091040670910506809106061F
:101F8000909107060E94841C8FE891E00E94601CDB
:101F90006091DA057091DB058091DC059091DD059B
:101FA0000E94A21C4091DA055091DB056091DC058E
:101FB0007091DD05DB01CA0181579F4DAF4FBF4FC7
:101FC0008093C4029093C502A093C602B093C70247
:101FD0008091040690910506A0910606B09107062F
:101FE0008093C8029093C902A093CA02B093CB0217
:101FF0004093D0025093D1026093D2027093D302E7
:102000008C019D0101571F4D2F4F3F4F0093D4026C
:102010001093D5022093D6023093D7028A019B01F8
:102020000F581042210931090093DC021093DD02A0
:102030002093DE023093DF028093E0029093E1026E
:10204000A093E202B093E3024093E8025093E902C6
:102050006093EA027093EB028C019D010F581042CD
:10206000210931090093EC021093ED022093EE0256
:102070003093EF024093F4025093F5026093F6021E
:102080007093F7028093F8029093F902A093FA02FA
:10209000B093FB02EEE9F2E0808191818E369105EA
:1020A000ACF48091A4029091A502803B910574F05C
:1020B0008091A2029091A3028A3591053CF480910F
:1020C000A0029091A1028B3A910514F41092B802EB
:1020D000F1E0F093B902959A80919D0090919E0055
:1020E0008C3627E0920719F08C3F984009F4969AB5
:1020F0008091B7028F5F8093B7028E3609F4949A6D
:102100008091B702803709F494988091B7028437A0
:1021100009F4949A8091B702863719F49498109232
:10212000B702A8EAB2E08D919C918139910524F023
:1021300083E08093670312C0E8EAF2E08081918136
:102140008C38910544F080819181803991051CF48F
:102150001092670303C082E0809367038091670356
:1021600090916603981721F0F1E0F093650302C0A7
:1021700010926503823009F44CC220F4882351F098
:102180000C94D11A833009F463C4843011F00C9498
:10219000D11A0FC180916503813021F486E991E065
:1021A0000E94701CAEE9B2E02D913C91220F331FCA
:1021B000C901880F991F880F991F880F991F821BCB
:1021C000930B8E5D9E4FAA2797FDA095BA2FE0E650
:1021D000F0E080839183A283B3832091A0023091A9
:1021E000A1024FE0429FC001439F900D11248A56E7
:1021F0009F4FAA2797FDA095BA2F809364009093D4
:102200006500A0936600B09367002091A202309110
:10221000A302429FC001439F900D1124AA2797FD5E
:10222000A095BA2F8093680090936900A0936A00EC
:10223000B0936B002091A4023091A502220F331FAE
:10224000C901880F991F880F991F880F991F821B3A
:10225000930B8E5D9E4FAA2797FDA095BA2F809372
:102260006C0090936D00A0936E00B0936F0080910E
:10227000A6029091A7028738910574F48091A60276
:102280009091A702893791053CF086EE95E09093F6
:102290009E0080939D0029C08091A6029091A70284
:1022A0008639910574F48091A6029091A70288382E
:1022B00091053CF08CE697E090939E0080939D0002
:1022C00014C08091A6029091A702803A91056CF407
:1022D0008091A6029091A7028739910534F08CEF86
:1022E00098E090939E0080939D00409170005091E3
:1022F0007100609172007091730080919D009091C7
:102300009E00A0E0B0E0481759076A077B078CF4ED
:10231000E0E7F0E080819181A281B38120919C006F
:10232000820F911DA11DB11D80839183A283B38370
:1023300026C04091700050917100609172007091C0
:10234000730084179507A607B7078CF4E0E7F0E061
:1023500080819181A281B38120919C00821B91098F
:10236000A109B10980839183A283B38308C08093BC
:10237000700090937100A0937200B09373008AEC88
:1023800098E0A0E0B0E08093740090937500A09373
:102390007600B093770085E892E0A0E0B0E080930B
:1023A000780090937900A0937A00B0937B000C940E
:1023B000D11A809165038130F1F482EA91E00E94A4
:1023C000701C10924D0610924E0610924F061092FD
:1023D00050066091EE057091EF05882777FD809596
:1023E000982F0E942D1E60937A0670937B0680932F
:1023F0007C0690937D062091A0023091A1024FE0CF
:10240000429FC001439F900D11248A569F4FAA27D7
:1024100097FDA095BA2F8093640090936500A093D8
:102420006600B09367002091A2023091A302429F00
:10243000C001439F900D1124AA2797FDA095BA2FA4
:102440008093680090936900A0936A00B0936B003A
:102450002091A4023091A502220F331FC901880FD9
:10246000991F880F991F880F991F821B930B8E5DF0
:102470009E4FAA2797FDA095BA2F80936C0090934A
:102480006D00A0936E00B0936F00209130023091E8
:102490003102409132025091330260917A0670917C
:1024A0007B0680917C0690917D060E94C41C262E9E
:1024B000372E082F192F862F932DA02FB12F809301
:1024C0000C0690930D06A0930E06B0930F06209174
:1024D0004D0630914E0640914F0650915006622DA8
:1024E000732D802F912F0E94C51CC62ED72EE82E4B
:1024F000F92E862F9D2DAE2DBF2D80934D069093E6
:102500004E06A0934F06B093500660915C03709105
:102510005D0380915E0390915F030E942D1E4B012D
:102520005C0160919600772767FD7095872F972F44
:102530000E942D1E9B01AC01622D732D802F912FC7
:102540000E94461F2B013C0160919500772767FD93
:102550007095872F972F0E942D1E9B01AC016C2D2B
:102560007D2D8E2D9F2D0E94461F2091B00230910F
:10257000B1024091B2025091B3020E94461F9B01EA
:10258000AC01C301B2010E94C51C9B01AC01C50195
:10259000B4010E94C51C0E94FA1DA0E6B0E06D9334
:1025A0007D938D939C9313978D919D910D90BC91EC
:1025B000A02D893B9B40A105B1055CF088EB9BE019
:1025C000A0E0B0E0E0E6F0E080839183A283B383F3
:1025D00013C0E0E6F0E080819181A281B381883E62
:1025E0009340A105B10544F488EE93E0A0E0B0E08B
:1025F00080839183A283B383822D932DA02FB12F4B
:102600008093440390934503A0934603B0934703FC
:10261000C8C780916503813009F008C182EB91E061
:102620000E94701C80914506909146069093F1059A
:102630008093F00590935303809352038091870613
:1026400090918806909371068093700680913A036A
:1026500090913B03A0913C03B0913D0380933603DE
:1026600090933703A0933803B09339038093F20516
:102670009093F305A093F405B093F5058091580667
:1026800090915906A0915A06B0915B06809314066A
:1026900090931506A0931606B09317066091EE0569
:1026A0007091EF05882777FD8095982F0E942D1E49
:1026B00060937A0670937B0680937C0690937D06E8
:1026C0008091680090916900A0916A00B0916B00C0
:1026D0008093600390936103A0936203B0936303BC
:1026E0008091640090916500A0916600B0916700B0
:1026F0008093580390935903A0935A03B0935B03BC
:10270000E0E6F0E080819181A281B38180935C0357
:1027100090935D03A0935E03B0935F0380916C0080
:1027200090916D00A0916E00B0916F008093540362
:1027300090935503A0935603B093570310925103FF
:102740001092500310924F0310924E0310924D03BB
:1027500010924C0310920C0610920D0610920E0669
:1027600010920F0610924D0610924E0610924F06D0
:10277000109250061092FC051092FD051092FE0575
:102780001092FF05109241061092420610924306E5
:102790001092440610923E0310923F0310924003A1
:1027A00010924103109232031092330310923403BB
:1027B0001092350310922E0310922F0310923003C3
:1027C0001092310310922A0310922B0310922C03C3
:1027D00010922D0381EC91E00E94601C6091F00545
:1027E0007091F105882777FD8095982F0E94841CB1
:1027F0008EED91E00E94601C6091700670917106F0
:10280000882777FD8095982F0E94841C8EED91E09B
:102810000E94601C60917A0670917B0680917C0614
:1028200090917D060E94FA1D0E94A21C2091A00298
:102830003091A1024FE0429FC001439F900D1124AF
:102840008A569F4FAA2797FDA095BA2F80936400C0
:1028500090936500A0936600B09367002091A20258
:102860003091A302429FC001439F900D1124AA27DB
:1028700097FDA095BA2F8093680090936900A0936C
:102880006A00B0936B002091A4023091A502220F40
:10289000331FC901880F991F880F991F880F991F2F
:1028A000821B930B8E5D9E4FAA2797FDA095BA2F92
:1028B00080936C0090936D00A0936E00B0936F00B6
:1028C0006091EE057091EF05882777FD8095982F30
:1028D0000E942D1E9B01AC0160917A0670917B06CF
:1028E00080917C0690917D060E94C41C662E772EF6
:1028F000082F192F862F972DA02FB12F80930C060C
:1029000090930D06A0930E06B0930F0620914D06EE
:1029100030914E0640914F0650915006662D772D0E
:10292000802F912F0E94C51C262E372E482E592EFF
:10293000862F932DA42DB52D80934D0690934E0692
:10294000A0934F06B093500660915C0370915D03B5
:1029500080915E0390915F030E942D1E6B017C01AC
:1029600060919600772767FD7095872F972F0E94BB
:102970002D1E9B01AC01662D772D802F912F0E947B
:10298000461F9B01AC01C701B6010E94C51C4B014B
:102990005C0160919500772767FD7095872F972FD1
:1029A0000E942D1E9B01AC01622D732D842D952D4F
:1029B0000E94461F2091B0023091B1024091B202B4
:1029C0005091B3020E94461F9B01AC01C501B401A6
:1029D0000E94C51C0E94FA1DA0E6B0E06D937D9395
:1029E0008D939C9313978D919D910D90BC91A02DEB
:1029F000893B9B40A105B1055CF088EB9BE0A0E022
:102A0000B0E0E0E6F0E080839183A283B38313C05B
:102A1000E0E6F0E080819181A281B3818A3E964018
:102A2000A105B10544F48AEE96E0A0E0B0E0808311
:102A30009183A283B383862D972DA02FB12F8093EE
:102A4000440390934503A0934603B0934703A9C55D
:102A500080916503813009F006C182EE91E00E9409
:102A6000701C80914506909146069093F1058093E5
:102A7000F005909353038093520380910803909143
:102A80000903909371068093700680913A039091A8
:102A90003B03A0913C03B0913D0380933603909398
:102AA0003703A0933803B09339038093F2059093D2
:102AB000F305A093F405B093F50580915806909125
:102AC0005906A0915A06B0915B0680931406909324
:102AD0001506A0931606B0931706809130029091C8
:102AE0003102A0913202B091330280937A06909322
:102AF0007B06A0937C06B0937D0680916800909140
:102B00006900A0916A00B0916B008093600390937C
:102B10006103A0936203B09363038091640090917A
:102B20006500A0916600B091670080935803909370
:102B30005903A0935A03B0935B03E0E6F0E0808171
:102B40009181A281B38180935C0390935D03A093F4
:102B50005E03B0935F0380916C0090916D00A09133
:102B60006E00B0916F008093540390935503A0932F
:102B70005603B093570310925103109250031092D2
:102B80004F0310924E0310924D0310924C0310927B
:102B90000C0610920D0610920E0610920F0610925F
:102BA0004D0610924E0610924F061092500610924B
:102BB000FC051092FD051092FE051092FF05109283
:102BC000410610924206109243061092440610925B
:102BD0003E0310923F031092400310924103109263
:102BE0003203109233031092340310923503109283
:102BF0002E0310922F031092300310923103109283
:102C00002A0310922B0310922C0310922D0381ECB7
:102C100091E00E94601C6091F0057091F105882799
:102C200077FD8095982F0E94841C8EED91E00E9484
:102C3000601C6091700670917106882777FD809501
:102C4000982F0E94841C8EED91E00E94601C609180
:102C50007A0670917B0680917C0690917D060E9499
:102C6000FA1D0E94A21C8091AA029091AB028B597E
:102C700091094E974CF48091520390915303909395
:102C8000F1058093F00509C08091520390915303A0
:102C90000A969093F1058093F0052091F00530910C
:102CA000F1058091450690914606281B390B30931B
:102CB000510320935003409197004203B001439F7A
:102CC000700D1124882777FD8095982F0E942D1E66
:102CD0006B017C0120E030E040E251EC0E948B1D52
:102CE00088236CF480E090E0A0E2B1EC80931406BD
:102CF00090931506A0931606B09317061FC020E008
:102D000030E040EA51E4C701B6010E943B1F1816AB
:102D10004CF0C0921406D0921506E0921606F0927E
:102D200017060CC080E090E0A0EAB1E4809314069E
:102D300090931506A0931606B093170620911406DB
:102D4000309115064091160650911706609158066D
:102D50007091590680915A0690915B060E94C41C9E
:102D6000262E372E082F192F862F932DA02FB12F07
:102D70008093FC059093FD05A093FE05B093FF059D
:102D800020914106309142064091430650914406FD
:102D9000622D732D802F912F0E94C51C462E572E19
:102DA000682E792E862F952DA62DB72D809341065E
:102DB00090934206A0934306B0934406C090B0029D
:102DC000D090B102E090B202F090B3026091900016
:102DD000772767FD7095872F972F0E942D1E9B01E7
:102DE000AC01622D732D802F912F0E94461F4B0145
:102DF0005C0160918E00772767FD7095872F972F74
:102E00000E942D1E9B01AC01642D752D862D972DE2
:102E10000E94461FA70196010E94461F9B01AC011C
:102E2000C501B4010E94C51C4B015C0160918F007B
:102E3000772767FD7095872F972F0E942D1E2B01F6
:102E40003C01222D332D402F512F60913E03709174
:102E50003F0380914003909141030E94C41C9B0159
:102E6000AC01C301B2010E94461FA70196010E9456
:102E7000921D9B01AC01C501B4010E94C51C0E94BA
:102E8000FA1D0F2EFAE8EF2EF2E0FF2EF02DD701FB
:102E90006D937D938D939C931397822D932DA02FEB
:102EA000B12F80933E0390933F03A0934003B093D0
:102EB000410390918D00809140069802C001112439
:102EC000AA2797FDA095BA2F4EE652E0FA0180831B
:102ED0009183A283B383D7010D911D912D913C91D4
:102EE000408151816281738180916003909161037F
:102EF000A0916203B0916303800F911FA21FB31FC3
:102F0000841B950BA60BB70BE8E6F0E0808391835A
:102F1000A283B38380819181A281B381893B9B404D
:102F2000A105B1056CF088EB9BE0A0E0B0E08093D8
:102F3000680090936900A0936A00B0936B0019C079
:102F40008091680090916900A0916A00B0916B0037
:102F5000883E9340A105B10564F488EE93E0A0E0BB
:102F6000B0E08093680090936900A0936A00B093EA
:102F70006B008091A6029091A7028738910524F5F5
:102F80008091A6029091A70289379105ECF080917B
:102F900064038130C9F41092640380910803909116
:102FA000090390937106809370068FEE91E00E9462
:102FB000601C6091700670917106882777FD80957E
:102FC000982F0E94A21C98C08091A6029091A702FF
:102FD000803A91050CF090C08091A6029091A702D2
:102FE000873991050CF488C080916403811184C0F5
:102FF00021E020936403C090DA05D090DB05E090D7
:10300000DC05F090DD05C092DE05D092DF05E09290
:10301000E005F092E1058091040690910506A091EB
:103020000606B091070680933C0690933D06A09358
:103030003E06B0933F060091490610914A06209142
:103040004B0630914C06C01AD10AE20AF30AC0922C
:10305000D605D092D705E092D805F092D905009117
:103060002B0610912C0620912D0630912E06BC01C6
:10307000CD01601B710B820B930B60930003709367
:10308000010380930203909303030E942D1E4B01C2
:103090005C01C701B6010E942D1EA50194010E948A
:1030A000381D20EE3EE245E652E40E94461F0E9493
:1030B000FA1D77232CF0709307036093060306C074
:1030C00068597E4F7093070360930603809106034F
:1030D0009091070390937106809370068DEF91E0B5
:1030E0000E94601C6091700670917106882777FDC0
:1030F0008095982F0E94A21C20910803309109030B
:103100008091700690917106281B390BC90188596E
:103110009E4F843B91052CF03093ED052093EC05F8
:1031200004C09093ED058093EC050091EC0510919F
:10313000ED058091040390910503800F911F9093FA
:10314000050380930403C090B002D090B102E090D8
:10315000B202F090B30220917D002003B001219FC4
:10316000700D1124882777FD8095982F0E942D1EC1
:103170004B015C0140917C0080911D0690911E06E0
:103180009801281B390B4203B001439F700D112495
:10319000882777FD8095982F0E942D1EA701960104
:1031A0000E94461F9B01AC01C501B4010E94C51CD1
:1031B0004B015C01B7FAB094B7F8B0948092F20575
:1031C0009092F305A092F405B092F50510931E06B7
:1031D00000931D0620E030E040E251ECC501B4014F
:1031E0000E948B1D88236CF480E090E0A0E2B1EC9B
:1031F0008093F2059093F305A093F405B093F50541
:1032000016C020E030E040E251E4C501B4010E9464
:103210003B1F181664F480E090E0A0E2B1E48093D4
:10322000F2059093F305A093F405B093F505209172
:103230003A0330913B0340913C0350913D03609130
:10324000F2057091F3058091F4059091F5050E94C7
:10325000C41C262E372E082F192F862F932DA02F12
:10326000B12F8093320390933303A0933403B09330
:10327000350320912E0330912F034091300350915C
:103280003103622D732D802F912F0E94C51C698FF1
:103290007A8F8B8F9C8F472F382F292F862F942F33
:1032A000A32FB22F80932E0390932F03A09330036C
:1032B000B0933103609158037091590380915A0380
:1032C00090915B030E942D1E4B015C0160918C006C
:1032D000772767FD7095872F972F0E942D1E9B01E2
:1032E000AC01622D732D802F912F0E94461F2B0160
:1032F0003C0160918A00772767FD7095872F972F93
:103300000E942D1E9B01AC01B98DAA8DFB8DEC8D09
:103310006B2F7A2F8F2F9E2F0E94461F9B01AC018F
:10332000C701B6010E94461F9B01AC01C301B20157
:103330000E94C51C9B01AC01C501B4010E94C51CC3
:103340004B015C0160918B00772767FD7095872F9B
:10335000972F0E942D1E2B013C01222D332D402F33
:10336000512F60912A0370912B0380912C0390912F
:103370002D030E94C41C9B01AC01C301B2010E9439
:10338000461FA70196010E94921D9B01AC01C50139
:10339000B4010E94C51C0E94FA1DE4E6F0E06083BF
:1033A000718382839383822D932DA02FB12F8093DD
:1033B0002A0390932B03A0932C03B0932D038081B9
:1033C0009181A281B381893B9B40A105B1056CF03D
:1033D00088EB9BE0A0E0B0E08093640090936500F0
:1033E000A0936600B093670019C08091640090912B
:1033F0006500A0916600B0916700883E9340A105EA
:10340000B10564F488EE93E0A0E0B0E0809364003E
:1034100090936500A0936600B09367006091EE05FD
:103420007091EF05882777FD8095982F0E942D1EBB
:103430009B01AC0160917A0670917B0680917C06BD
:1034400090917D060E94C41C762E072F182F292EDE
:10345000862F902FA12FB22D80930C0690930D06EE
:10346000A0930E06B0930F0620914D0630914E06A4
:1034700040914F0650915006672D702F812F922D4D
:103480000E94C51C362E472E582E692E862F942D4D
:10349000A52DB62D80934D0690934E06A0934F0612
:1034A000B093500660915C0370915D0380915E0360
:1034B00090915F030E942D1E4B015C01609196006C
:1034C000772767FD7095872F972F0E942D1E9B01F0
:1034D000AC01672D702F812F922D0E94461F9B01FA
:1034E000AC01C501B4010E94C51C4B015C01609197
:1034F0009500772767FD7095872F972F0E942D1EC7
:103500009B01AC01632D742D852D962D0E94461FC5
:103510009B01AC01C701B6010E94461F9B01AC0193
:10352000C501B4010E94C51C0E94FA1DA0E6B0E0CE
:103530006D937D938D939C9313978D919D910D9099
:10354000BC91A02D893B9B40A105B1055CF088EBA7
:103550009BE0A0E0B0E0E0E6F0E080839183A2830E
:10356000B38313C0E0E6F0E080819181A281B38152
:103570008A3E9640A105B10544F48AEE96E0A0E0AB
:10358000B0E080839183A283B383872D902FA12FF6
:10359000B22D8093440390934503A0934603B093C8
:1035A000470380919F009091A000019709F0F8C017
:1035B000A0E6B0E06D917D918D919C910E94841C5C
:1035C0008FE092E00E94601C609164007091650041
:1035D00080916600909167000E94841C8FE092E0C9
:1035E0000E94601C609168007091690080916A007F
:1035F00090916B000E94841C8FE092E00E94601CFE
:1036000060916C0070916D0080916E0090916F00E0
:103610000E94841C8FE092E00E94601C6091700008
:103620007091710080917200909173000E94841CCF
:103630008FE092E00E94601C60913A0370913B031E
:1036400080913C0390913D030E94FA1D0E94841CCE
:103650008FE092E00E94601C6091580670915906BC
:1036600080915A0690915B060E94FA1D0E94841C6C
:103670008FE092E00E94601C609108037091090342
:10368000882777FD8095982F0E94841C8FE092E018
:103690000E94601C6091450670914606882777FD60
:1036A0008095982F0E94841C8FE092E00E94601CFD
:1036B0006091EE057091EF05882777FD8095982F32
:1036C0000E94841C8FE092E00E94601C6091F005D3
:1036D0007091F105882777FD8095982F0E94841CB2
:1036E0008FE092E00E94601C6091F2057091F305FA
:1036F0008091F4059091F5050E94FA1D0E94841CAA
:103700008FE092E00E94601C609114067091150693
:1037100080911606909117060E94FA1D0E94841C43
:103720008FE092E00E94601C60917A0670917B06A7
:1037300080917C0690917D060E94FA1D0E94841C57
:103740008091A703882341F18FE092E00E94601CE2
:103750008BE793E00E94601C8FE092E00E94601C67
:1037600087EA93E00E94601C8FE092E00E94601C58
:1037700081E993E00E94601C8FE092E00E94601C4F
:1037800088EC93E00E94601C8FE092E00E94601C35
:1037900083E894E00E94601C8FE092E00E94701C1D
:1037A00080916703809366032EE932E0E0ECF5E058
:1037B00031832083A8950C944508F89488E98AB948
:1037C00086E880BD10BC8CE089B978948CB15F9993
:1037D000FDCF08951F920F920FB60F9211242F93D1
:1037E0008F939F93EF93FF938CB18093D1041092AA
:1037F000D2048093D00410926F038091D00484325D
:10380000A1F4E0916E03809189062BE0E202F001C1
:103810001124E80FF11D87FDFA95ED52FB4F108240
:103820001092890610926E033DC08091D0048C32B4
:10383000A9F480916E03909189062BE08202F00139
:103840001124E90FF11D97FDFA95ED52FB4F1082FF
:10385000109289068F5F80936E0324C08091D004FC
:103860008E3201F18091D0048A3021F481E080937E
:103870006F0318C08091D0048A30A1F0E0916E03EC
:10388000809189069091D0042BE0E202F00111248E
:10389000E80FF11D87FDFA95ED52FB4F90838F5F86
:1038A00080938906FF91EF919F918F912F910F90B7
:1038B0000FBE0F901F9018955D9BFECF8CB9089599
:1038C000CF93DF93EC018881882339F0219690E033
:1038D0000E945C1C89918111FACFDF91CF910895EC
:1038E000CF93DF93EC018881882339F0219690E013
:1038F0000E945C1C89918111FACF81E192E00E94C3
:10390000601CDF91CF910895CF93DF93CDB7DEB7E1
:103910006F970FB6F894DEBF0FBECDBF2AE030E040
:10392000AE014F5F5F4F0E946F20CE0101960E9453
:10393000601C6F960FB6F894DEBF0FBECDBFDF914F
:10394000CF910895CF93DF93CDB7DEB76F970FB6C2
:10395000F894DEBF0FBECDBF2AE030E0AE014F5F6E
:103960005F4F0E946F20CE0101960E94601C81E192
:1039700092E00E94601C6F960FB6F894DEBF0FBEF7
:10398000CDBFDF91CF9108955058BB27AA270ED005
:1039900027C2F0D130F0F5D120F031F49F3F11F47F
:1039A0001EF4C0C10EF4E095E7FBB6C1E92F3AD290
:1039B00080F3BA17620773078407950718F071F44C
:1039C0009EF552C20EF4E0950B2EBA2FA02D0B01DE
:1039D000B90190010C01CA01A0011124FF27591B54
:1039E00099F0593F50F4503E68F11A16F040A22F5A
:1039F000232F342F4427585FF3CF469537952795CB
:103A0000A795F0405395C9F77EF41F16BA0B620BC9
:103A1000730B840BBAF09150A1F0FF0FBB1F661F10
:103A2000771F881FC2F70EC0BA0F621F731F841F53
:103A300048F4879577956795B795F7959E3F08F079
:103A4000B3CF9395880F08F09927EE0F9795879538
:103A5000089590D158F080E891E009F49EEF91D15B
:103A600028F040E851E059F45EEF09C05BC1FCC1A9
:103A7000E92FE078D7D168F3092E052AC1F326177C
:103A800037074807590738F00E2E07F8E02569F088
:103A9000E025E0640AC0EF6307F8009407FADB0151
:103AA000B9019D01DC01CA01AD01EF934AD098D163
:103AB0000AD05F91552331F02BED3FE049E450FDF2
:103AC00049EC63CF0895DF93DD27B92FBF7740E836
:103AD0005FE31616170648075B0710F4D92FCFD1FE
:103AE0009F938F937F936F933AD2E4E5F0E01DD1DB
:103AF00077D12F913F914F915F91D4D1DD2349F040
:103B00009058A2EA2AED3FE049EC5FE3D0785D27C8
:103B10004DDFDF9165C1DCD008F481E0089539D133
:103B2000E3956FC10CD05CC12CD140F023D130F0B3
:103B300021F45F3F19F0F0C0511197C1F3C072D169
:103B400098F39923C9F35523B1F3951B550BBB2764
:103B5000AA2762177307840738F09F5F5F4F220F11
:103B6000331F441FAA1FA9F333D00E2E3AF0E0E80A
:103B700030D091505040E695001CCAF729D0FE2F56
:103B800027D0660F771F881FBB1F261737074807E8
:103B9000AB07B0E809F0BB0B802DBF01FF2793589E
:103BA0005F4F2AF09E3F510568F0B6C05EC15F3F8F
:103BB000ECF3983EDCF3869577956795B795F79586
:103BC0009F5FC9F7880F911D9695879597F908957E
:103BD000E1E0660F771F881FBB1F6217730784071A
:103BE000BA0720F0621B730B840BBA0BEE1F88F729
:103BF000E095089504D06894B11137C108951AD1A1
:103C000088F09F5790F0B92F9927B751A0F0D1F0C5
:103C1000660F771F881F991F1AF0BA95C9F712C04F
:103C2000B13081F021D1B1E008951EC1672F782F06
:103C30008827B85F39F0B93FCCF3869577956795BB
:103C4000B395D9F73EF490958095709561957F4F27
:103C50008F4F9F4F0895E89409C097FB3EF49095CD
:103C60008095709561957F4F8F4F9F4F9923A9F055
:103C7000F92F96E9BB279395F695879577956795E4
:103C8000B795F111F8CFFAF4BB0F11F460FF1BC028
:103C90006F5F7F4F8F4F9F4F16C0882311F096E9BB
:103CA00011C0772321F09EE8872F762F05C0662369
:103CB00071F096E8862F70E060E02AF09A95660F22
:103CC000771F881FDAF7880F9695879597F90895DB
:103CD000990F0008550FAA0BE0E8FEEF161617061D
:103CE000E807F907C0F012161306E407F50798F085
:103CF000621B730B840B950B39F40A2661F0232B9E
:103D0000242B252B21F408950A2609F4A140A69519
:103D10008FEF811D811D089597F99F6780E870E0FE
:103D200060E008959FEF80EC0895DF93CF931F9399
:103D30000F93FF92EF92DF927B018C01689405C094
:103D4000DA2EEF01AFD0FE01E894A59125913591CF
:103D500045915591AEF3EF0129DEFE019701A801CF
:103D6000DA9479F7DF90EF90FF900F911F91CF9148
:103D7000DF91089500240A941616170618060906FE
:103D8000089500240A9412161306140605060895D1
:103D9000C9CF50D0E8F3E894E0E0BB279F57F0F09C
:103DA0002AED3FE049EC06C0EE0FBB0F661F771F00
:103DB000881F28F0B23A62077307840728F0B25AC6
:103DC000620B730B840BE3959A9572F7803830F48D
:103DD0009A95BB0F661F771F881FD2F79048C4C003
:103DE000092E0394000C11F4882352F0BB0F40F409
:103DF000BF2B11F460FF04C06F5F7F4F8F4F9F4F49
:103E00000895EF93E0FF06C0A2EA2AED3FE049ECF7
:103E10005FEBCCDDE5DF0F90039401FC9058E1E807
:103E2000F0E0AEC057FD9058440F551F59F05F3F6A
:103E300071F04795880F97FB991F61F09F3F79F0CC
:103E400087950895121613061406551FF2CF46954E
:103E5000F1DF08C0161617061806991FF1CF8695D0
:103E60007105610508940895E894BB2766277727B4
:103E7000CB0197F908952CDF08F48FEF08959B018B
:103E8000AC0160E070E080E89FE34CCE0BD0A8CF9F
:103E900071DF28F076DF18F0952309F03DCF42CF8F
:103EA0001124E3CFBFDFA0F3959FD1F3950F50E02E
:103EB000551F629FF001729FBB27F00DB11D639FDC
:103EC000AA27F00DB11DAA1F649F6627B00DA11D82
:103ED000661F829F2227B00DA11D621F739FB00D28
:103EE000A11D621F839FA00D611D221F749F332798
:103EF000A00D611D231F849F600D211D822F762F31
:103F00006A2F11249F5750408AF0E1F088234AF02D
:103F1000EE0FFF1FBB1F661F771F881F9150504079
:103F2000A9F79E3F510570F0F7CE9FCF5F3FECF3AE
:103F3000983EDCF3869577956795B795F795E79565
:103F40009F5FC1F7FE2B880F911D9695879597F976
:103F500008959F931EDF0F9007FCEE5F52CF9B01E9
:103F6000AC0194CF9F3F31F0915020F48795779525
:103F70006795B795880F911D9695879597F9089540
:103F80009F938F937F936F93FF93EF939B01AC016C
:103F90007DDFEF91FF91C9DE2F913F914F915F91AE
:103FA00075CFDB018F939F930E943320BF91AF9118
:103FB000A29F800D911DA39F900DB29F900D112483
:103FC000089597FB072E16F4009407D077FD09D0CB
:103FD0000E94462007FC05D03EF4909581959F4FA6
:103FE0000895709561957F4F0895A1E21A2EAA1B3E
:103FF000BB1BFD010DC0AA1FBB1FEE1FFF1FA21799
:10400000B307E407F50720F0A21BB30BE40BF50B95
:10401000661F771F881F991F1A9469F7609570951E
:10402000809590959B01AC01BD01CF010895052EAF
:1040300097FB16F4009407D057FD0DD00E94F51F92
:1040400007FC09D07EF490958095709561957F4F1F
:104050008F4F9F4F089550954095309521953F4F34
:104060004F4F5F4F08950E945A20A59F900DB49F17
:10407000900DA49F800D911D11240895B7FF0C94FD
:1040800033200E943320821B930B0895AA1BBB1B75
:1040900051E107C0AA1FBB1FA617B70710F0A61B48
:1040A000B70B881F991F5A95A9F780959095BC0169
:1040B000CD010895A29FB001B39FC001A39F01D07D
:1040C000B29F700D811D1124911D0895FB01DC012B
:1040D0008D91019080190110D9F3990B0895FA017F
:1040E000CF93FF93EF93223044F1253234F5C22F62
:1040F000E894CA3049F497FB3EF49095809570950A
:1041000061957F4F8F4F9F4F2C2F33274427552783
:10411000FF93EF930E94F51FEF91FF91605D6A336B
:104120000CF0695D6193B901CA0160507040804034
:10413000904051F716F4CDE2C19310828F919F9178
:10414000CF910C94A320DC01FC01672F71917723A0
:10415000E1F7329704C07C916D9370836291AE1742
:0A416000BF07C8F30895F894FFCFDD
:10416A00CA080000CA080000CA080000CA080000FD
:10417A00E6050000CA0800008502000001010AD70E
:10418A00A33C0AD7A33B0AD7A33B0A0314090A0193
:10419A000A3333333F0101019A99993E0AE6050130
:1041AA0000010001006163632073746172746564C5
:1041BA00006261726F207374617274656400626177
:1041CA00726F5F6F66667365742000414443206FA7
:1041DA006B004144435F6F66667365743A200067FB
:1041EA0079726F2073746172746564004779726FB3
:1041FA00204F66667365743A2000703A2000713A5F
:10420A002000723A20004779726F2043616C204384
:10421A006F6D706C657465006D616720737461728F
:10422A0074656400536572766F54696D6572537470
:10423A006172746564005461736B54696D6572537D
:10424A007461727465640057646F6744697361626C
:10425A006C0057646F6752737400507772557052CE
:10426A007374004272776E4F757452737400457896
:10427A0074527374004750524D43004750474741A8
:10428A0000486F6D6520536574204C6174200020CE
:10429A004C6F6E67200044495245435420435452A0
:1042AA004C002A537065656420436F6E74726F6C9C
:1042BA002A0044616D70656420434F4E54524F4C3E
:1042CA0000476F616C20416C74202D204865616441
:1042DA00696E67202D2053706565643A2000202D91
:1042EA002000484F4C4420434F4E54524F4C0048F4
:1042FA00656164696E6720486F6C6420005265745A
:10430A0075726E20486F6D65204865616420003BB8
:04431A00000D0A0088
:00000001FF
