:100000000C9441000C94A2060C945E000C945E00CB
:100010000C945E000C94D1060C945E000C94520576
:100020000C945E000C945E000C94FC060C945E0034
:100030000C945E000C941D170C945E000C945E00F2
:100040000C945E000C945E000C945E000C945E00B8
:100050000C945E00084AD73B3BCE016E84BCBFFDCA
:10006000C12F3D6C74319ABD56833DDA3D00C77F88
:1000700011BED9E4BB4C3E916BAAAABE0000008021
:100080003F0011241FBECFE5D8E0DEBFCDBF11E099
:10009000A0E6B0E0E8E7F6E302C005900D92A03FCD
:1000A000B107D9F724E0A0EFB1E001C01D92A83F4D
:1000B000B207E1F70E945C070C943A1B0C94000015
:1000C000CF93DF93D82FC62F0E94DF0482E390E006
:1000D0000E94FB048D2F90E00E9406058C2F90E07B
:1000E0000E9411050E942C05DF91CF91089567E4CD
:1000F00080E20E94600060E183E20E94600088E884
:1001000090E00E94A31708950F931F93CF93DF935E
:10011000EC010E94DF0482E390E00E94FB0488EA85
:1001200090E00E9406050E94E90483E390E00E94AB
:10013000EF040E942405809300020E94240580930E
:1001400001020E9424058093FA010E9424058093F5
:10015000FB010E9424058093F4010E941C058093FA
:10016000F5010E942C0580910102992787FD909549
:10017000982F882720910002822B95958795959539
:10018000879595958795959587959093FF01809391
:10019000FE010091FB01112707FD1095102F00278C
:1001A0002091FA01022B1595079515950795159540
:1001B0000795159507951093F9010093F801409163
:1001C000F501552747FD5095542F44272091F40100
:1001D000422B559547955595479555954795559576
:1001E00047955093F3014093F201880F991F909324
:1001F000FD018093FC01000F111F1093F701009384
:10020000F601440F551F5093F1014093F001AA27C6
:1002100097FDA095BA2F88839983AA83BB83222751
:1002200017FD2095322F0C831D832E833F83662775
:1002300057FD6095762F488759876A877B87CE015F
:10024000DF91CF911F910F910895CF93DF93D82F16
:10025000C62F0E94DF0480EC90E00E94FB048D2FEB
:1002600090E00E9406058C2F90E00E9411050E94EC
:100270002C05DF91CF91089569EB86E20E9425015C
:1002800060E889E20E94250166EC84E10E94250174
:100290006BE585E10E94250167E083E10E9425016D
:1002A00084E990E00E94A3170895CF930E94DF0491
:1002B00080EC90E00E94FB0480E090E00E94060544
:1002C0000E94E90481EC90E00E94EF040E941C056A
:1002D000C82F0E942C058091080232C0CE3E81F5C5
:1002E0000E94DF0480EC90E00E94FB0481E090E03B
:1002F0000E9406050E94E90481EC90E00E94EF0450
:100300000E94240580930B020E94240580930A0218
:100310000E941C05809309020E942C0520910B026B
:10032000332727FD3095322F222780910A02282B70
:10033000309305022093040281E0809308023FC0BD
:10034000882361F2CE3EB9F50E94DF0480EC90E094
:100350000E94FB0481E090E00E9406050E94E904EF
:1003600081EC90E00E94EF040E94240580930B0230
:100370000E94240580930A020E941C0580930902B2
:100380000E942C0520910B02332727FD3095322F38
:10039000222780910A02282B309305022093040221
:1003A0008091060290910702281B390B30930302BB
:1003B0002093020204C02091020230910302822F96
:1003C000932FCF9108950E94550190930702809337
:1003D000060281EA90E00E949317609106027091F4
:1003E0000702882777FD8095982F0E94D5170895DA
:1003F0001ABA80E487B987E886B98EEA90E00E944D
:10040000A3170895CF93DF9383E087B9369A36997F
:10041000FECFC4B1D0E0D0931702C093160225B12D
:10042000922F80E0C82BD92BD0931702C0931602CD
:10043000BE01660F771F6C0F7D1F6A5F75408827AE
:1004400077FD8095982F0E945D196093100270933C
:100450001102809312029093130280910E029091E8
:100460000F02019751F480910C0290910D02C81B6C
:10047000D90BD0931502C09314028C2F9D2FDF91BE
:10048000CF910895CF93DF93C2E3D0E00E940202A0
:1004900020910C0230910D02820F931F90930D0258
:1004A00080930C02219791F762E370E00E94A31AF7
:1004B00070930D0260930C0285EB90E00E949317FD
:1004C00060910C0270910D02882777FD8095982F1E
:1004D0000E94D51781E090E090930F0280930E0266
:1004E0002FE986E891E0215080409040E1F700C07C
:1004F0000000DF91CF910895CF93DF93D82FC62FBF
:100500000E94DF0486ED90E00E94FB048D2F90E0B6
:100510000E9406058C2F90E00E9411050E942C0578
:10052000DF91CF9108956FE080E20E947C0260E24B
:1005300081E20E947C0260E184E20E947C0282EC03
:1005400090E00E94A31708958F929F92AF92BF925E
:10055000CF92DF92EF92FF920F931F93CF93DF938F
:10056000EC010E94DF0486ED90E00E94FB0488EA23
:1005700090E00E9406050E94E90487ED90E00E9449
:10058000EF040E94240580932C020E94240580938E
:100590002D020E942405809328020E942405809346
:1005A00029020E942405809324020E941C05809346
:1005B00025020E942C0560912D02772767FD70951A
:1005C000762F662780912C02682B70932B02609304
:1005D0002A02E0902902FF24E7FCF094FE2CEE248E
:1005E00080912802E82AF0922702E09226020091E8
:1005F0002502112707FD1095102F00278091240256
:10060000082B1093230200932202882777FD809500
:10061000982F0E945D1929E23CE54FE05CE30E94BF
:100620003D1A0E942A194B015C01B701882777FD0A
:100630008095982F0E945D1929E23CE54FE05CE32C
:100640000E943D1A0E942A196B017C01B80188277B
:1006500077FD8095982F0E945D1929E23CE54FE0D7
:100660005CE30E943D1A0E942A19209118023091E1
:1006700019022130310521F500911E0210911F024F
:10068000222717FD2095322F801A910AA20AB30A59
:1006900000911C0210911D02222717FD2095322F78
:1006A000C01AD10AE20AF30A00911A0210911B0241
:1006B000222717FD2095322F601B710B820B930BA5
:1006C00088829982AA82BB82CC82DD82EE82FF82FE
:1006D000688779878A879B87CE01DF91CF911F91A9
:1006E0000F91FF90EF90DF90CF90BF90AF909F90D1
:1006F0008F900895CF93DF93CDB7DEB72C970FB6C9
:10070000F894DEBF0FBECDBF2091200230912102B0
:100710002A303105ACF52F5F3F4F309321022093F3
:100720002002CE0101960E94A40220911E02309167
:100730001F0289819A81820F931F90931F028093D9
:100740001E0220911C0230911D028D819E81820F1C
:10075000931F90931D0280931C0220911A023091E6
:100760001B0289859A85820F931F90931B028093A9
:100770001A0220912002309121022A3031055CF2C8
:1007800080911E0290911F02B9010E94A31A7093DA
:100790001F0260931E0280911C0290911D02B901FC
:1007A0000E94A31A70931D0260931C0280911A028A
:1007B00090911B02B9010E94A31A70931B026093CF
:1007C0001A028FEC90E00E94A3178DED90E00E943A
:1007D000931760911E0270911F02882777FD809504
:1007E000982F0E94D51781EE90E00E949317609198
:1007F0001C0270911D02882777FD8095982F0E941A
:10080000D5178AEC91E00E94931760911A027091BB
:100810001B02882777FD8095982F0E94D5172FE916
:1008200086E891E0215080409040E1F700C0000050
:1008300081E090E0909319028093180285EE90E099
:100840000E94A3172C960FB6F894DEBF0FBECDBF43
:10085000DF91CF910895CF93DF93D82FC62F0E94B9
:10086000DF048CE390E00E94FB048D2F90E00E9457
:1008700006058C2F90E00E9411050E942C05DF9147
:10088000CF91089560E082E00E942B0487EF90E012
:100890000E94A3170895CF92DF92EF92FF92CF9319
:1008A000DF930E94DF048CE390E00E94FB0483E06E
:1008B00090E00E9406050E94E9048DE390E00E940A
:1008C000EF040E94240580933B020E94240580933C
:1008D0003A020E942405809333020E9424058093EB
:1008E00032020E942405809337020E941C058093E7
:1008F00036020E942C0560913B02772767FD7095B8
:10090000762F662780913A02682B709339026093A4
:100910003802C0913702DD27C7FDD095DC2FCC27E8
:1009200080913602C82BD0933502C0933402809157
:100930003302992787FD9095982F882720913202BE
:10094000822B9093310280933002882777FD809527
:10095000982F0E945D196B017C01BE01882777FDED
:100960008095982F0E945D19A70196010E946B182F
:10097000905820EE3EE245E652E40E943D1A0E9465
:100980002A1977232CF070932F0260932E0206C051
:1009900068597E4F70932F0260932E0280912E0231
:1009A00090912F02DF91CF91FF90EF90DF90CF9049
:1009B000089584E380B986B7856486BF089584EA84
:1009C00086BF06B607FEFDCF81B1887F8830E1F78C
:1009D000089584EA86BF06B607FEFDCF089583B961
:1009E00086B7846C86BF06B607FEFDCF81B1887FCF
:1009F0008034E1F7089583B984E886BF06B607FE20
:100A0000FDCF81B1887F8831E1F7089583B984E80B
:100A100086BF06B607FEFDCF81B1887F8832E1F739
:100A2000089583B984E886BF06B607FEFDCF81B17D
:100A3000887F8832E1F7089584E886BF06B607FE0E
:100A4000FDCF83B190E0089584EC86BF06B607FE23
:100A5000FDCF83B190E0089586B7846986BF06B65E
:100A600004FCFDCF089587B38F6187BB8AB3836091
:100A70008ABB88B3807E88BB8BB38C7F8BBB1FBC4B
:100A80008AE08EBD8AEC98E09BBD8ABD80E48BBF76
:100A900083E085BF85E085BD14BC83E091E00E94C2
:100AA000A31708951F920F920FB60F9211242F9340
:100AB0003F934F935F938F939F93AF93BF93809197
:100AC0003F02863009F499C084F4823009F447C0AB
:100AD00034F48823E9F0813009F027C12AC084303A
:100AE00009F464C00CF073C04BC08A3009F4D3C061
:100AF00034F4883009F4A8C00CF0B7C08FC08C3033
:100B000009F4F0C00CF4D8C08D3009F00EC1FBC060
:100B1000C09A8091600090916100A0916200B091B4
:100B200063009BBD8ABD80913F028F5F80933F022F
:100B3000FCC0C0988091600090916100A09162001B
:100B4000B091630020EA3FE0A901481B590B5BBD4F
:100B50004ABD80913F028F5F80933F02E6C0C19AF9
:100B60008091640090916500A0916600B09167004B
:100B70009BBD8ABD80913F028F5F80933F02D5C0AD
:100B8000C1988091640090916500A0916600B09139
:100B9000670020EA3FE0A901481B590B5BBD4ABD35
:100BA00080913F028F5F80933F02BFC0C29A8091C5
:100BB000680090916900A0916A00B0916B009BBDA4
:100BC0008ABD80913F028F5F80933F02AEC0C29882
:100BD0008091680090916900A0916A00B0916B00CB
:100BE00020EA3FE0A901481B590B5BBD4ABD80913B
:100BF0003F028F5F80933F0298C0C39A80916C0040
:100C000090916D00A0916E00B0916F009BBD8ABD68
:100C100080913F028F5F80933F0287C0C39880918D
:100C20006C0090916D00A0916E00B0916F0020EA71
:100C30003FE0A901481B590B5BBD4ABD80913F02B3
:100C40008F5F80933F0271C0C49A80917000909131
:100C50007100A0917200B09173009BBD8ABD80911C
:100C60003F028F5F80933F0260C0C4988091700004
:100C700090917100A0917200B091730020EA3FE062
:100C8000A901481B590B5BBD4ABD80913F028F5F94
:100C900080933F024AC0D89A809174009091750069
:100CA000A0917600B09177009BBD8ABD80913F02F4
:100CB0008F5F80933F0239C0D898809174009091E3
:100CC0007500A0917600B091770020EA3FE0A9017D
:100CD000481B590B5BBD4ABD80913F028F5F8093DB
:100CE0003F0223C0D99A8091780090917900A09119
:100CF0007A00B0917B009BBD8ABD80913F028F5FDF
:100D000080933F0212C0D998809178009091790029
:100D1000A0917A00B0917B0020EA3FE0A901481B36
:100D2000590B5BBD4ABD10923F02BF91AF919F919D
:100D30008F915F914F913F912F910F900FBE0F9028
:100D40001F9018951F920F920FB60F9211242F9398
:100D50008F939F93EF93FF9380913C0290913D027C
:100D6000019729F410923D0210923C020FC020918D
:100D70003E02E22FF0E084B590E0EE0FFF1FE8584E
:100D8000FD4F918380832F5F20933E0214BCFF911F
:100D9000EF919F918F912F910F900FBE0F901F9009
:100DA00018951F920F920FB60F9211248F939F9355
:100DB00010923E0281E090E090933D0280933C02CD
:100DC0009F918F910F900FBE0F901F9018958DE0FF
:100DD00083BF85E78CBF8FE892ECA5EFBCE38093DF
:100DE0008A0290938B02A0938C02B0938D0285E1CE
:100DF00091E00E94A31708951F920F920FB60F92D1
:100E000011248F9380918E028F5F80938E028330A6
:100E100028F081E080938F0210928E028F910F90C4
:100E20000FBE0F901F90189581B58D6081BD0895FC
:100E30000F931F93FC014191442381F1842F805330
:100E40008A3080F500E010E0980104C0842F8053C0
:100E50008A3058F5D901C801880F991FAA1FBB1FF6
:100E60008C019D01000F111F221F331F000F111F46
:100E7000221F331F800F911FA21FB31F042F10E0EA
:100E800000531109222717FD2095322F080F191F33
:100E90002A1F3B1F41914111D9CF07C000E010E04C
:100EA000980103C000E010E09801602F712F822F9D
:100EB000932F1F910F910895CF93DF93CDB7DEB796
:100EC000C659D1090FB6F894DEBF0FBECDBF0E9440
:100ED000101704B603FE05C081E391E00E9493174A
:100EE0001EC004B600FE05C089E391E00E9493177E
:100EF00016C004B602FE05C082E491E00E9493177A
:100F00000EC004B601FE05C08DE491E00E94931767
:100F100006C064B770E080E090E00E94B71784B725
:100F2000807F84BF2FE73FE442E1215030404040C2
:100F3000E1F700C000000E94D904809186009091E2
:100F40008700019721F40E9493020E947A03809106
:100F5000840090918500019711F40E9477008091A0
:100F6000800090918100019721F40E943C010E9431
:100F7000E3018091820090918300019711F40E9417
:100F8000420480917E0090917F00019721F40E949D
:100F9000F8010E944202F8940E94E7060E9433057D
:100FA00082E589BF78940E94140768961FAE6897FF
:100FB000A8961FAE1EAEA89718AE19AE1AAE1BAEFD
:100FC00060961FAE609761961FAE619762961FAEE6
:100FD000629763961FAE63972C961FAE2C972D9643
:100FE0001FAE2D972E961FAE2E972F961FAE2F97C2
:100FF000EF961CAE1DAE1EAE1FAEEF97EA961CAE6E
:101000001DAE1EAE1FAEEA976D961FAE6D976E9623
:101010001FAE6E976F961FAE6F97A0961FAEA097EC
:10102000E3961FAEE397E4961FAEE497E5961FAEF6
:10103000E597E6961FAEE697C158DF4F1882CF5767
:10104000D040C058DF4F1882C058D040CF57DF4F34
:101050001882C158D040CE57DF4F1882C258D040B6
:101060001CA61DA61EA61FA6AC961CAE1DAE1EAECF
:101070001FAEAC97CD56DF4F19821882C359D040AE
:10108000C957DF4F188219821A821B82C758D04075
:10109000C557DF4F19821882CB58D04080919402F7
:1010A0008130B1F564E571E088EF93E00E94CB1ADE
:1010B000282F392F232B81F4E8EFF3E0A5E9B2E0E4
:1010C00080EB01900D928A95E1F7E8EFF3E0DF0104
:1010D00020EB1D922A95E9F76AE571E088EF93E02D
:1010E0000E94CB1A282F392F232B81F4E8EFF3E04D
:1010F000A5E4B3E080EB01900D928A95E1F7E8EF6B
:10110000F3E0DF0120EB1D922A95E9F7109294029B
:1011100080918F02813011F00C940D1710928F0284
:101120008091860090918700019709F095C0CE01CB
:101130000D960E94A40249895A896B897C89E096A0
:101140004CAF5DAF6EAF7FAFE0976D85772767FDE2
:101150007095872F972F0E945D192AE939E949E98F
:101160005EE30E943D1A6B017C012A965FAD2A97CF
:10117000652F772767FD7095872F972F0E945D1940
:1011800023E333E343E35FE30E943D1A9B01AC0199
:10119000C701B6010E94F8170E942A192A966FAF5C
:1011A0002A97AD96AFADAD976A2F772767FD7095FB
:1011B000872F972F0E945D192AE939E949E95EE3F3
:1011C0000E943D1A6B017C012B96BFAD2B976B2FB4
:1011D000772767FD7095872F972F0E945D1923E36E
:1011E00033E343E35FE30E943D1A9B01AC01C70177
:1011F000B6010E94F8170E942A192B966FAF2B9701
:101200006D89772767FD7095872F972F0E945D194D
:101210002AE939E949E95EE30E943D1A6B017C0144
:10122000EB96EFADEB976E2F772767FD7095872FC5
:10123000972F0E945D1923E333E343E35FE30E94AA
:101240003D1A9B01AC01C701B6010E94F8170E942C
:101250002A19EB966FAFEB978091840090918500EF
:10126000019709F05CC0CE0101960E948400698557
:101270007A85719561957109882777FD8095982FFA
:101280000E945D196B017C0169817A81882777FD55
:101290008095982F0E945D19A70196010E946B18F6
:1012A00020E030E044E353E40E943D1A2BED3FE0A0
:1012B00049E450E40E94C2182C966FAF2C972D96EB
:1012C0007FAF2D972E968FAF2E972F969FAF2F978C
:1012D0006D817E81719561957109882777FD809573
:1012E000982F0E945D19A70196010E946B1820E0BB
:1012F00030E044E353E40E943D1A2BED3FE049E423
:1013000050E40E94C21860966FAF609761967FAFFD
:10131000619762968FAF629763969FAF6397809154
:10132000800090918100019771F50E945501BC01E8
:10133000882777FD8095982F0E945D1923E333E37A
:1013400043E35FE30E943D1A6B017C01E2962EAD00
:101350003FADE297B901882777FD8095982F0E94CD
:101360005D192AE939E949E95EE30E943D1A9B01CA
:10137000AC01C701B6010E94F8170E942A19E29633
:101380007FAF6EAFE29780918200909183000197CA
:1013900031F40E944B04A8969FAF8EAFA89780911E
:1013A0007E0090917F00019709F0B4C068963FAD30
:1013B0006897383009F0A7C00E940202382F292F01
:1013C000C357DF4F48815981CD58D040440F551F36
:1013D000C357DF4F68817981CD58D040460F571FE2
:1013E000C157DF4F88819981CF58D040880F991F0E
:1013F000C157DF4FA881B981CF58D0408A0F9B1FBA
:10140000880F991F880F991F841B950B61E1CB569C
:10141000DF4FE881F981C559D0406E9FA0016F9FD1
:10142000500D1124840F951FCF56DF4F48815981ED
:10143000C159D040440F551FCF56DF4F6881798185
:10144000C159D040460F571F440F551F440F551F19
:10145000840F951FCD56DF4F48815981C359D04025
:10146000440F551FCD56DF4FA881B981C359D040D5
:101470004A0F5B1F841B950B63E270E00E94A31A66
:10148000CB57DF4F79836883C558D040CF56DF4FA5
:10149000E881F981C159D040CD56DF4FF983E88307
:1014A000C359D040CB56DF4F48815981C559D040F0
:1014B000CF56DF4F59834883C159D040C157DF4FC2
:1014C00068817981CF58D040CB56DF4F79836883CC
:1014D000C559D040C357DF4F88819981CD58D0403E
:1014E000C157DF4F99838883CF58D040C357DF4F10
:1014F0003883CD58D040C257DF4F2883CE58D040D4
:1015000068961FAE689768969FAD68979F5F6896CC
:101510009FAF689780908A0290908B02A0908C0277
:10152000B0908D022B96AFAD2B976A2F772767FD72
:101530007095872F972F0E945D19A50194010E9435
:101540003D1ABFAD2196AFAD21972296FFAD2297F0
:101550002396EFAD23972B2F3A2F4F2F5E2F0E940C
:10156000F81768A779A78AA79BA775016401F7FAFE
:10157000F094F7F8F09478A169A19AA18BA1272F94
:10158000362F492F582FB8A9A9A92896FFAD28971B
:101590002996EFAD29976B2F7A2F8F2F9E2F0E94C0
:1015A000F8172AE037ED43EA5BE30E94F7179B0147
:1015B000AC01C701B6010E943D1A2496BFAD249725
:1015C0002596AFAD25972696FFAD26972796EFADCA
:1015D00027972B2F3A2F4F2F5E2F0E94F817662E3A
:1015E000772E082F192F20E030E0A901C701B6019E
:1015F0000E943D1A262E372E482E592E78A169A119
:101600009AA18BA1272F362F492F582F622D732D8A
:10161000842D952D0E94F817698F7B8F8C8F9D8F5D
:101620002A96BFAD2A976B2F772767FD7095872F76
:10163000972F0E945D19B8ADA9ADFAADEBAD2B2F78
:101640003A2F4F2F5E2F0E94F7179B01AC01C50167
:10165000B4010E943D1ABCA5ADA5FEA5EFA52B2F98
:101660003A2F4F2F5E2F0E94F8176CA77DA78EA7E9
:101670009FA77CA16DA19EA18FA1272F362F492F57
:10168000582FBCA9ADA9FEA9EFA96B2F7A2F8F2FD8
:101690009E2F0E94F8172AE037ED43EA5BE30E9491
:1016A000F7179B01AC01C701B6010E943D1ABE8D20
:1016B000AF8DFAA9EBA92B2F3A2F4F2F5E2F0E9447
:1016C000F8176E8F7F8FE82EF92E222D332D442DA3
:1016D000552DBCA1ADA1FEA1EFA16B2F7A2F8F2FAD
:1016E0009E2F0E94F817462E572EC82ED92E2AE07C
:1016F00037ED43EA5CE3662D772D802F912F0E9412
:10170000F8176EA37FA388AB99AB762F6FA1982FA4
:1017100089A9272F362F492F582F662D772D802FF7
:10172000912F0E94C21868A379A38AA39BA37CA5CA
:101730006DA59EA58FA5272F362F492F582F609670
:10174000BFAD60976196AFAD61976296FFAD62974E
:101750006396EFAD63976B2F7A2F8F2F9E2F0E948A
:10176000F7176AAB7BAB8CAB9DAB2AE037ED43EA56
:101770005CE3BE8DAF8D6B2F7A2F8E2D9F2D0E9437
:10178000F817862E972EA82EB92E762F272F392DB3
:101790004A2D5B2DBE8DAF8D6B2F7A2F8E2D9F2DF9
:1017A0000E94C2186CA37DA3382E292E282D392D16
:1017B0004A2D5B2D642D752D8C2D9D2D0E94C218F8
:1017C000962E872E8EAB9FAB78A569A59AA58BA583
:1017D000272F362F492F582F2C96BFAD2C972D969B
:1017E000AFAD2D972E96FFAD2E972F96EFAD2F977D
:1017F0006B2F7A2F8F2F9E2F0E94F7179B01AC0122
:10180000B8A1A9A1FAA1EBA16B2F7A2F8F2F9E2F40
:101810000E943D1AB8A5A9A5FAA5EBA52B2F3A2F32
:101820004F2F5E2F0E94F81769A77AA78BA79CAF4E
:101830006FAF21967FAF219722968FAF2297239685
:101840009FAF2397262D372D402F512FB8A1A9A147
:10185000FAA1EBA16B2F7A2F8F2F9E2F0E943D1A9A
:10186000262F372F482F592F662D772D802F912F18
:101870000E94F717A62EB72E082F192F24966FAFA8
:10188000249725967FAF259726968FAF2697279684
:101890009FAF2797798D6B8D9C8D8D8D272F362F40
:1018A000492F582FB8A1A9A1FAA1EBA16B2F7A2F2C
:1018B0008F2F9E2F0E943D1A262F372F482F592FEA
:1018C000B98DAB8DFC8DED8D6B2F7A2F8F2F9E2FC9
:1018D0000E94F71768A379A38AA39BA37EA16FA197
:1018E00098A989A9272F362F492F582FB98DAB8D4D
:1018F000FC8DED8D6B2F7A2F8F2F9E2F0E94C2189B
:101900002A2D3B2D402F512F0E943D1A9B01AC01E7
:10191000B98DAB8DFC8DED8D6B2F7A2F8F2F9E2F78
:101920000E94F71768AB79AB28968FAF2897299656
:101930009FAF29977AA96BA99CA98DA9272F362F2C
:10194000492F582FBCA1ADA16B2F7A2F832D922D3B
:101950000E943D1ABCA5ADA5FEA5EFA52B2F3A2FE1
:101960004F2F5E2F0E94F8176B8F7C8F8D8F98A75B
:101970006CA77DA78EA79FA77AA96BA99CA98DA903
:10198000272F362F492F582FFEA9EFA9692D782D23
:101990008F2F9E2F0E943D1A9B01AC01B8ADA9ADBF
:1019A000FAADEBAD6B2F7A2F8F2F9E2F0E94F81779
:1019B00068AF79AF8AAF9BAF7E8D6F8D272F362FA3
:1019C0004E2D5F2DBCA1ADA16B2F7A2F832D922DB3
:1019D0000E943D1A262F372F482F592FBE8DAF8DCD
:1019E0006B2F7A2F8E2D9F2D0E94F717E62EF72E44
:1019F000082F192F6E8F7F8F8AAB9BAB242D352D2F
:101A00004C2D5D2DBCA1ADA16B2F7A2F832D922D76
:101A10000E943D1A262F372F482F592F642D752DE0
:101A20008C2D9D2D0E94F7176CA37DA38EA39FA3E1
:101A30002E2D3F2D402F512FFEA9EFA9692D782D76
:101A40008F2F9E2F0E943D1A9B01AC01642D752D96
:101A50008C2D9D2D0E94F7176CAB7DAB8EAB9FAB91
:101A60008CEC92E00E9418074B015C0186EB92E03F
:101A70000E94180724EF33E74EE25FE1261B370B85
:101A8000480B590BCA01B9010E945D196B017C0119
:101A900062EA74E484EE97E0681979098A099B097F
:101AA0000E945D19A70196010E946B1820EE3EE28C
:101AB00045E652E40E943D1A0E942A197A8F698FE6
:101AC000772324F468597E4F7A8F698FA2E8B2E0B9
:101AD0008D919C918139910524F084E0809392024C
:101AE00012C0E2E8F2E0808191818C38910544F0E7
:101AF00080819181803991051CF41092920203C07B
:101B000082E08093920280919202909191029817C4
:101B100021F091E09093900202C0109290028230E6
:101B200009F415C220F4882351F00C941A1683305E
:101B300009F42DC4843011F00C941A16F0C0809171
:101B40009002813021F480E691E00E94A317A8E77B
:101B5000B2E02D913C91220F331FC901880F991FCC
:101B6000880F991F880F991F821B930B8E5D9E4FC4
:101B7000AA2797FDA095BA2FE0E6F0E08083918335
:101B8000A283B38320917A0230917B024FE0429F7F
:101B9000C001439F900D11248A569F4FAA2797FD9D
:101BA000A095BA2FE4E6F0E080839183A283B3830B
:101BB00020917C0230917D02429FC001439F900D95
:101BC0001124AA2797FDA095BA2FE8E6F0E08083BC
:101BD0009183A283B38320917E0230917F02220FF2
:101BE000331FC901880F991F880F991F880F991FEC
:101BF000821B930B8E5D9E4FAA2797FDA095BA2F4F
:101C0000ECE6F0E080839183A283B383809180022D
:101C100090918102873891053CF4809180029091E7
:101C2000810289379105FCF48091800290918102B4
:101C3000863991053CF48091800290918102883828
:101C40009105A4F48091800290918102803A9105DF
:101C500084F480918002909181028739910564F427
:101C600086EE95E00BC086EE95E008C08CE697E026
:101C700005C086EE95E002C08CEF98E0A0E7B0E0EA
:101C80004D915D916D917C91A0E0B0E048175907AE
:101C90006A077B0774F4E0E7F0E080819181A2811C
:101CA000B3810A96A11DB11D80839183A283B38362
:101CB0001DC0E0E7F0E040815181628173818417AB
:101CC0009507A607B70764F480819181A281B3814B
:101CD0000A97A109B10980839183A283B38306C0C7
:101CE000E0E7F0E080839183A283B3838AEC98E0FD
:101CF000A0E0B0E08093740090937500A09376000C
:101D0000B093770085E892E0A0E0B0E0809378009F
:101D100090937900A0937A00B0937B008BC7809159
:101D20009002813049F58CE691E00E94A317CB57D1
:101D3000DF4F28813981C558D040B901882777FD08
:101D40008095982F0E945D19A1966FAFA197A296DA
:101D50007FAFA297A3968FAFA397A4969FAFA497A8
:101D600069961FAE69976A961FAE6A976B961FAE0B
:101D70006B976C961FAE6C9720917A0230917B0224
:101D80004FE0429FC001439F900D11248A569F4F00
:101D9000AA2797FDA095BA2FE4E6F0E0808391830F
:101DA000A283B38320917C0230917D02429FC001C7
:101DB000439F900D1124AA2797FDA095BA2FE8E61E
:101DC000F0E080839183A283B38320917E023091DF
:101DD0007F02220F331FC901880F991F880F991F97
:101DE000880F991F821B930B8E5D9E4FAA2797FD2C
:101DF000A095BA2FECE6F0E080839183A283B383B1
:101E0000A1967FADA197A2966FADA297A3969FAD25
:101E1000A397A4968FADA497272F362F492F582F1D
:101E20006996BFAD69976A96AFAD6A976B96FFAD3D
:101E30006B976C96EFAD6C976B2F7A2F8F2F9E2F31
:101E40000E94F817662E772E082F192F69966FAF0C
:101E500069976A967FAF6A976B968FAF6B976C9610
:101E60009FAF6C97AC966CAD7DAD8EAD9FADAC97D2
:101E70000E945D196B017C0120E030E040E251E4FA
:101E8000A196BFADA197A296AFADA297A396FFADC5
:101E9000A397A496EFADA4976B2F7A2F8F2F9E2F29
:101EA0000E943D1A4B015C0120E030E040EA50E422
:101EB000662D772D802F912F0E943D1A20918A0246
:101EC00030918B0240918C0250918D020E943D1AFC
:101ED0009B01AC01C501B4010E94F8179B01AC0144
:101EE000C701B6010E94F8170E942A19A0E6B0E0C7
:101EF0006D937D938D939C9313978D919D910D90F0
:101F0000BC91A02D893B9B40A105B1055CF088EBFD
:101F10009BE0A0E0B0E0E0E6F0E080839183A28364
:101F2000B38388C6E0E6F0E080819181A281B3812D
:101F3000883E9340A105B1050CF07CC688EE93E085
:101F4000A0E0B0E080839183A283B38373C68091C5
:101F50009002813009F08FC08CE791E00E94A317B6
:101F6000A8E6B0E02D913D914D915C91C957DF4FAE
:101F7000288339834A835B83C758D040A4E6B0E006
:101F80002D913D914D915C91EA962CAF3DAF4EAFB6
:101F90005FAFEA97A0E6B0E02D913D914D915C9145
:101FA000AC962CAF3DAF4EAF5FAFAC97ACE6B0E0B8
:101FB0002D913D914D915C91EF962CAF3DAF4EAF81
:101FC0005FAFEF978BE891E00E949317A896EEAD74
:101FD000FFADA897BF01882777FD8095982F0E94B5
:101FE000B71785EA91E00E949317EA966CAD7DAD34
:101FF0008EAD9FADEA970E94B7178EEE91E00E94DA
:10200000A317A8962EAD3FADA897CD57DF4F3983C4
:102010002883C358D0403B8DC158DF4F3883CF57FA
:10202000D0404C8DC058DF4F4883C058D0405D8DA4
:10203000CF57DF4F5883C158D04068A5CE57DF4FE8
:102040006883C258D0406D961FAE6D976E961FAED6
:102050006E976F961FAE6F97A0961FAEA09769966A
:102060001FAE69976A961FAE6A976B961FAE6B9705
:102070006C961FAE6C97AC968CAD9DADAEADBFAD02
:10208000AC97E0E6F0E080839183A283B383EF9680
:102090002CAD3DAD4EAD5FADEF97ACE6B0E02D930E
:1020A0003D934D935C93139720917C0230917D0278
:1020B0004FE0429FC001439F900D1124AA2797FD36
:1020C000A095BA2FE8E6F0E080839183A283B383E2
:1020D000CD57DF4F28813981C358D040A8964EADE7
:1020E0005FADA897241B350B3EAF2DAFC9018859B2
:1020F0009E4F843B910514F49EAF8DAFC0908A0231
:10210000D0908B02E0908C02F0908D02ADADBEAD10
:10211000BD01882777FD8095982F0E945D194B019E
:102120005C016DAD7EADA696EEADFFADA6976E1BC4
:102130007F0B882777FD8095982F0E945D19A70156
:1021400096010E943D1A9B01AC01C501B4010E9499
:10215000F817C158DF4FB881CF57D040C058DF4F74
:10216000A881C058D040CF57DF4FF881C158D04028
:10217000CE57DF4FE881C258D0402B2F3A2F4F2F38
:102180005E2F0E94F817A62EB72E082F192F6496DF
:102190006FAF649765967FAF659766968FAF6697CA
:1021A00067969FAF679720E030E040EA51EC0E94CD
:1021B000BE1888236CF020E030E040EA51E46A2D3C
:1021C0007B2D802F912F0E94321A181684F01DC08B
:1021D00064961FAE649765961FAE6597F0EA6696A3
:1021E000FFAF669721EC67962FAF67970EC0649696
:1021F0001FAE649765961FAE659730EA66963FAF4F
:10220000669741E467964FAF679764967FAD649792
:1022100065966FAD659766969FAD669767968FAD2D
:102220006797272F362F492F582FBB8DAC8DFD8DEB
:10223000E8A56B2F7A2F8F2F9E2F0E94F717462E1F
:10224000572E682E792EE3966FAFE397E4967FAF13
:10225000E497E5968FAFE597E6969FAFE697762FE2
:10226000272F352D462D572D6D96BFAD6D976E9648
:10227000AFAD6E976F96FFAD6F97A096EFADA0973D
:102280006B2F7A2F8F2F9E2F0E94F817262E372E16
:10229000082F192F6D966FAF6D976E967FAF6E9763
:1022A0006F968FAF6F97A0969FAFA097EA966CAD91
:1022B0007DAD8EAD9FADEA970E945D194B015C012B
:1022C00020E030E040E251E4642D752D862D972DFD
:1022D0000E943D1A2B013C0120E030E040EA50E42E
:1022E000622D732D802F912F0E943D1A9B01AC010E
:1022F000C701B6010E943D1A9B01AC01C301B201A6
:102300000E94F8179B01AC01C501B4010E94F717A8
:102310000E942A19A4E6B0E06D937D938D939C935F
:1023200013978D919D910D90BC91A02D893B9B4061
:10233000A105B1058CF088EB9BE0A0E0B0E0E4E6FD
:10234000F0E080839183A283B3832DAD3EADA6964A
:102350003FAF2EAFA6976EC4E4E6F0E08081918196
:10236000A281B381883E9340A105B1050CF05CC405
:1023700088EE93E0A0E0B0E080839183A283B383F2
:102380002DAD3EADA6963FAF2EAFA69753C480911C
:102390009002813009F0E0C089EA91E00E94A31721
:1023A000A8E6B0E04D915D916D917C91C957DF4FEA
:1023B000488359836A837B83C758D040A4E6B0E042
:1023C0002D913D914D915C91EA962CAF3DAF4EAF72
:1023D0005FAFEA97A0E6B0E02D913D914D915C9101
:1023E000AC962CAF3DAF4EAF5FAFAC97ACE6B0E074
:1023F0002D913D914D915C91EF962CAF3DAF4EAF3D
:102400005FAFEF9786EB91E00E949317C957DF4FBC
:10241000688179818A819B81C758D0400E94B71713
:1024200085EA91E00E949317EA966CAD7DAD8EAD82
:102430009FADEA970E94B71785EA91E00E94931733
:10244000AC966CAD7DAD8EAD9FADAC970E94D517AF
:102450008EEC91E00E94931759A54AA53BA52CAD9F
:10246000652F742F832F922F0E942A190E94B7176D
:1024700085EA91E00E94931764965FAD6497659634
:102480004FAD659766963FAD669767962FAD679798
:10249000652F742F832F922F0E942A190E94B7173D
:1024A00085EA91E00E94931760E070E0CB010E9402
:1024B000D517E98DFA8DCD57DF4FF983E883C358DF
:1024C000D040FB8DC158DF4FF883CF57D0402C8DC3
:1024D000C058DF4F2883C058D0403D8DCF57DF4FC5
:1024E0003883C158D04048A5CE57DF4F4883C258E3
:1024F000D040E2966EAD7FADE297C557DF4F79834E
:102500006883CB58D0406D961FAE6D976E961FAE08
:102510006E976F961FAE6F97A0961FAEA0976996A5
:102520001FAE69976A961FAE6A976B961FAE6B9740
:102530006C961FAE6C97A1961FAEA197A2961FAE88
:10254000A297A3961FAEA397A4961FAEA497A12C03
:10255000B12CC12CD12C4EC0C557DF4F8881998139
:10256000CB58D040E296AEADBFADE2978A1B9B0B35
:10257000BC01660F771F880F991F880F991F880F5E
:10258000991F680F791F882777FD8095982F0E94E3
:102590005D19E62EF72E082F192FA62EB72EC82E5E
:1025A000D92E20E030E040E251EC0E94BE18882392
:1025B0006CF020E030E040EA51E46E2D7F2D802F5A
:1025C000912F0E94321A18165CF014C0A12CB12C65
:1025D0006894CC24C5F80F2EF1ECDF2EF02D0AC044
:1025E000A12CB12C0F2EF0EACF2EF02D0F2EF1E4FE
:1025F000DF2EF02D2A2D3B2D4C2D5D2DB9A5AAA542
:10260000FBA5ECAD6B2F7A2F8F2F9E2F0E94F71713
:10261000362E072F182F292EC0908A02D0908B02B9
:10262000E0908C02F0908D02C957DF4F688179816C
:102630008A819B81C758D0400E945D194B015C0183
:1026400020E030E040E251E4632D702F812F922D85
:102650000E943D1A2B013C0120E030E0A901632DCE
:10266000702F812F922D0E94F81720E030E040E279
:1026700051E40E943D1AA70196010E943D1A9B0158
:10268000AC01C301B2010E94F8172B013C01232DBC
:10269000302F412F522D60E070E0CB010E94F717E0
:1026A00020E030E0A9010E943D1AA70196010E9496
:1026B000C2189B01AC01C301B2010E94F8179B0133
:1026C000AC01C501B4010E94F7170E942A19E4E683
:1026D000F2E0608371838283938380819181A28100
:1026E000B381893B9B40A105B1056CF088EB9BE071
:1026F000A0E0B0E08093640290936502A09366022C
:10270000B093670219C08091640290916502A09114
:102710006602B0916702883E9340A105B10564F45A
:1027200088EE93E0A0E0B0E08093640290936502AD
:10273000A0936602B0936702E0968CAD9DADAEADFE
:10274000BFADE097880F991FAA1FBB1F880F991F65
:10275000AA1FBB1F880F991FAA1FBB1FE0962CAD95
:102760003DAD4EAD5FADE097820F931FA41FB51F27
:10277000E8E4F2E080839183A283B3834091640212
:10278000509165026091660270916702808191812B
:10279000A281B381840F951FA61FB71FE8E6F0E062
:1027A00080839183A283B383809180029091810280
:1027B000873891053CF4809180029091810289379D
:1027C0009105CCF480918002909181028639910527
:1027D0003CF48091800290918102883891055CF4EC
:1027E0008091800290918102803A910524F4809139
:1027F000800290918102CD57DF4F28813981C358E3
:10280000D040A8964EAD5FADA897241B350B3EAFC8
:102810002DAFC90188599E4F843B910514F49EAF9A
:102820008DAFADADBEADBD01882777FD8095982FEA
:102830000E945D194B015C016DAD7EADA696EEADBB
:10284000FFADA6976E1B7F0B882777FD8095982F8D
:102850000E945D199B01AC01C701B6010E943D1A9F
:102860009B01AC01C501B4010E94F817C158DF4FAC
:10287000B881CF57D040C058DF4FA881C058D04052
:10288000CF57DF4FF881C158D040CE57DF4FE88196
:10289000C258D0402B2F3A2F4F2F5E2F0E94F8178F
:1028A000A62EB72E082F192F64966FAF64976596E2
:1028B0007FAF659766968FAF669767969FAF67976E
:1028C00020E030E040EA51EC0E94BE1888236CF012
:1028D00020E030E040EA51E46A2D7B2D802F912FDB
:1028E0000E94321A181684F01DC064961FAE6497B9
:1028F00065961FAE6597F0EA6696FFAF669721EC86
:1029000067962FAF67970EC064961FAE6497659663
:102910001FAE659730EA66963FAF669741E46796CB
:102920004FAF679764967FAD649765966FAD659777
:1029300066969FAD669767968FAD6797272F362F60
:10294000492F582FBB8DAC8DFD8DE8A56B2F7A2FAD
:102950008F2F9E2F0E94F717462E572E682E792E06
:10296000E3966FAFE397E4967FAFE497E5968FAF7A
:10297000E597E6969FAFE697762F272F352D462DC4
:10298000572D6D96BFAD6D976E96AFAD6E976F96E6
:10299000FFAD6F97A096EFADA0976B2F7A2F8F2F7B
:1029A0009E2F0E94F817262E372E082F192F6D966E
:1029B0006FAF6D976E967FAF6E976F968FAF6F9775
:1029C000A0969FAFA097EA966CAD7DAD8EAD9FAD02
:1029D000EA970E945D194B015C0120E030E040E283
:1029E00051E4642D752D862D972D0E943D1A2B01E3
:1029F0003C0120E030E040EA50E4622D732D802F4E
:102A0000912F0E943D1A9B01AC01C701B6010E94A3
:102A10003D1A9B01AC01C301B2010E94F8179B0152
:102A2000AC01C501B4010E94F7170E942A19A4E65F
:102A3000B0E06D937D938D939C9313978D919D91B1
:102A40000D90BC91A02D893B9B40A105B1055CF088
:102A500088EB9BE0A0E0B0E0E4E6F0E080839183C7
:102A6000A283B38313C0E4E6F0E080819181A28168
:102A7000B381883E9340A105B10544F488EE93E00C
:102A8000A0E0B0E080839183A283B383A1967FAD61
:102A9000A197A2966FADA297A3969FADA397A49678
:102AA0008FADA497272F362F492F582F6996BFAD8A
:102AB00069976A96AFAD6A976B96FFAD6B976C9608
:102AC000EFAD6C976B2F7A2F8F2F9E2F0E94F817E8
:102AD000262E372E082F192F69966FAF69976A96A1
:102AE0007FAF6A976B968FAF6B976C969FAF6C9723
:102AF000AC966CAD7DAD8EAD9FADAC970E945D196F
:102B00004B015C0120E030E040E251E4A196BFAD12
:102B1000A197A296AFADA297A396FFADA397A49657
:102B2000EFADA4976B2F7A2F8F2F9E2F0E943D1A07
:102B30002B013C0120E030E040EA50E4622D732D8F
:102B4000802F912F0E943D1A9B01AC01C701B60155
:102B50000E943D1A9B01AC01C301B2010E94F8170B
:102B60009B01AC01C501B4010E94F8170E942A190B
:102B7000A0E6B0E06D937D938D939C9313978D9118
:102B80009D910D90BC91A02D893B9B40A105B10565
:102B90005CF088EB9BE0A0E0B0E0E0E6F0E0808352
:102BA0009183A283B38313C0E0E6F0E0808191813A
:102BB000A281B381883E9340A105B10544F488EE1B
:102BC00093E0A0E0B0E080839183A283B383CB57EE
:102BD000DF4F28813981C558D0402531310514F4A3
:102BE00022E001C021E0EB963FADEB973203C0013C
:102BF0001124AA2797FDA095BA2FEF964CAD5DAD95
:102C00006EAD7FADEF97840F951FA61FB71FECE643
:102C1000F0E080839183A283B3832DAD3EADA69671
:102C20003FAF2EAFA69706C04DAD5EADA6965FAF87
:102C30004EAFA69780917C0090917D00019709F09E
:102C4000E1C0A0E6B0E06D917D918D919C910E94D4
:102C5000B7178AEE91E00E949317E4E6F0E06081F6
:102C60007181828193810E94B7178AEE91E00E9460
:102C70009317A8E6B0E06D917D918D919C910E9493
:102C8000B7178AEE91E00E949317ECE6F0E06081BE
:102C90007181828193810E94B7178AEE91E00E9430
:102CA0009317A0E7B0E06D917D918D919C910E946A
:102CB000B7178AEE91E00E9493175B8D4C8D3D8D86
:102CC00028A5652F742F832F922F0E942A190E9406
:102CD000B7178AEE91E00E94931759A54AA53BA524
:102CE0002CAD652F742F832F922F0E942A190E94DA
:102CF000B7178AEE91E00E949317A896EEADFFAD4C
:102D0000A897BF01882777FD8095982F0E94B71755
:102D10008AEE91E00E949317E2962EAD3FADE297C6
:102D2000B901882777FD8095982F0E94B7178AEE02
:102D300091E00E949317CB57DF4F48815981C558C6
:102D4000D040BA01882777FD8095982F0E94B71749
:102D50008AEE91E00E949317E3965FADE397E496C5
:102D60004FADE497E5963FADE597E6962FADE69734
:102D7000652F742F832F922F0E942A190E94B71754
:102D80008AEE91E00E949317ADADBEADBD018827DC
:102D900077FD8095982F0E94B7178091CC028823E9
:102DA00069F18AEE91E00E94931780EA92E00E9416
:102DB00093178AEE91E00E9493178CEC92E00E94A8
:102DC00093178AEE91E00E94931786EB92E00E949F
:102DD00093178AEE91E00E94931788EA93E00E948D
:102DE00093178AEE91E00E949317E98DFA8DBF0147
:102DF000882777FD8095982F0E94B7178AEE91E07B
:102E00000E94A3178091920280939102E8E7F2E07A
:102E1000A5EEB4E01196FC93EE93A8950C944E08A1
:102E2000F89488E98AB986E880BD10BC8CE089B93D
:102E300078948CB15F99FDCF08951F920F920FB6D1
:102E40000F9211242F938F939F93EF93FF938CB145
:102E50008093F6031092F7038093F5031092940287
:102E60008091F5038432A1F4E09193028091F704FC
:102E70002BE0E202F0011124E80FF11D87FDFA9525
:102E8000E850FC4F10821092F704109293023DC05C
:102E90008091F5038C32A9F4809193029091F7040C
:102EA0002BE08202F0011124E90FF11D97FDFA9544
:102EB000E850FC4F10821092F7048F5F80939302CA
:102EC00024C08091F5038E3201F18091F5038A30A0
:102ED00021F481E08093940218C08091F5038A3038
:102EE000A1F0E09193028091F7049091F5032BE01B
:102EF000E202F0011124E80FF11D87FDFA95E85078
:102F0000FC4F90838F5F8093F704FF91EF919F9127
:102F10008F912F910F900FBE0F901F9018955D9B72
:102F2000FECF8CB90895CF93DF93EC01888188237D
:102F300039F0219690E00E948F1789918111FACF84
:102F4000DF91CF910895CF93DF93EC01888188239F
:102F500039F0219690E00E948F1789918111FACF64
:102F60008CEE91E00E949317DF91CF910895CF935B
:102F7000DF93CDB7DEB76F970FB6F894DEBF0FBE05
:102F8000CDBF2AE030E0AE014F5F5F4F0E94D41A00
:102F9000CE0101960E9493176F960FB6F894DEBF8C
:102FA0000FBECDBFDF91CF910895CF93DF93CDB703
:102FB000DEB76F970FB6F894DEBF0FBECDBF2AE025
:102FC00030E0AE014F5F5F4F0E94D41ACE010196F0
:102FD0000E9493178CEE91E00E9493176F960FB6A4
:102FE000F894DEBF0FBECDBFDF91CF91089550584A
:102FF000BB27AA270ED0FCC1EDD130F0F2D120F0D2
:1030000031F49F3F11F41EF4BDC10EF4E095E7FBCF
:10301000B3C1E92FFED180F3BA17620773078407A3
:10302000950718F071F49EF516C20EF4E0950B2E7C
:10303000BA2FA02D0B01B90190010C01CA01A0010A
:103040001124FF27591B99F0593F50F4503E68F165
:103050001A16F040A22F232F342F4427585FF3CFA6
:10306000469537952795A795F0405395C9F77EF477
:103070001F16BA0B620B730B840BBAF09150A1F0C0
:10308000FF0FBB1F661F771F881FC2F70EC0BA0F46
:10309000621F731F841F48F4879577956795B795CE
:1030A000F7959E3F08F0B3CF9395880F08F09927C6
:1030B000EE0F9795879508958DD158F080E891E0AF
:1030C00009F49EEF8ED128F040E851E059F45EEF0C
:1030D00009C058C1C0C1E92FE0789BD168F3092E1F
:1030E000052AC1F3261737074807590738F00E2E6F
:1030F00007F8E02569F0E025E0640AC0EF6307F80F
:10310000009407FADB01B9019D01DC01CA01AD01A0
:10311000EF9347D06DD10AD05F91552331F02BED5D
:103120003FE049E450FD49EC63CF0895DF93DD278C
:10313000B92FBF7740E85FE31616170648075B070D
:1031400010F4D92F93D19F938F937F936F93F8D1DE
:10315000E4E5F0E01AD14CD12F913F914F915F916E
:1031600098D1DD2349F09058A2EA2AED3FE049ECDE
:103170005FE3D0785D274DDFDF913AC1D9D008F405
:1031800081E008950CD034C12CD140F023D130F02F
:1031900021F45F3F19F0F0C051115EC1F3C039D185
:1031A00098F39923C9F35523B1F3951B550BBB270E
:1031B000AA2762177307840738F09F5F5F4F220FBB
:1031C000331F441FAA1FA9F333D00E2E3AF0E0E8B4
:1031D00030D091505040E695001CCAF729D0FE2F00
:1031E00027D0660F771F881FBB1F26173707480792
:1031F000AB07B0E809F0BB0B802DBF01FF27935848
:103200005F4F2AF09E3F510568F0B6C025C15F3F71
:10321000ECF3983EDCF3869577956795B795F7952F
:103220009F5FC9F7880F911D9695879597F9089527
:10323000E1E0660F771F881FBB1F621773078407C3
:10324000BA0720F0621B730B840BBA0BEE1F88F7D2
:10325000E095089504D06894B111FEC00895E1D0BE
:1032600088F09F5790F0B92F9927B751A0F0D1F06F
:10327000660F771F881F991F1AF0BA95C9F712C0F9
:10328000B13081F0E8D0B1E00895E5C0672F782F24
:103290008827B85F39F0B93FCCF386957795679565
:1032A000B395D9F73EF490958095709561957F4FD1
:1032B0008F4F9F4F0895E89409C097FB3EF4909577
:1032C0008095709561957F4F8F4F9F4F9923A9F0FF
:1032D000F92F96E9BB279395F6958795779567958E
:1032E000B795F111F8CFFAF4BB0F11F460FF1BC0D2
:1032F0006F5F7F4F8F4F9F4F16C0882311F096E965
:1033000011C0772321F09EE8872F762F05C0662312
:1033100071F096E8862F70E060E02AF09A95660FCB
:10332000771F881FDAF7880F9695879597F9089584
:10333000990F0008550FAA0BE0E8FEEF16161706C6
:10334000E807F907C0F012161306E407F50798F02E
:10335000621B730B840B950B39F40A2661F0232B47
:10336000242B252B21F408950A2609F4A140A695C3
:103370008FEF811D811D089597F99F6780E870E0A8
:1033800060E008959FEF80EC0895DF93CF931F9343
:103390000F93FF92EF92DF927B018C01689405C03E
:1033A000DA2EEF0176D0FE01E894A59125913591B2
:1033B00045915591AEF3EF012CDEFE019701A80176
:1033C000DA9479F7DF90EF90FF900F911F91CF91F2
:1033D000DF91089500240A941616170618060906A8
:1033E000089500240A94121613061406050608957B
:1033F000092E0394000C11F4882352F0BB0F40F403
:10340000BF2B11F460FF04C06F5F7F4F8F4F9F4F42
:10341000089557FD9058440F551F59F05F3F71F0C4
:103420004795880F97FB991F61F09F3F79F087952B
:103430000895121613061406551FF2CF4695F1DFB4
:1034400008C0161617061806991FF1CF8695710544
:10345000610508940895E894BB2766277727CB0178
:1034600097F9089565DF08F48FEF08959B01AC018B
:1034700060E070E080E89FE385CE0BD0B9CFAADF93
:1034800028F0AFDF18F0952309F076CF7BCF112419
:10349000E3CFBFDFA0F3959FD1F3950F50E0551F09
:1034A000629FF001729FBB27F00DB11D639FAA2799
:1034B000F00DB11DAA1F649F6627B00DA11D661FE8
:1034C000829F2227B00DA11D621F739FB00DA11D09
:1034D000621F839FA00D611D221F749F3327A00DC3
:1034E000611D231F849F600D211D822F762F6A2F5F
:1034F00011249F5750408AF0E1F088234AF0EE0FE4
:10350000FF1FBB1F661F771F881F91505040A9F7F0
:103510009E3F510570F030CF9FCF5F3FECF3983E58
:10352000DCF3869577956795B795F795E7959F5F57
:10353000C1F7FE2B880F911D9695879597F90895F1
:103540009B01AC019ACF97FB072E16F4009407D08D
:1035500077FD09D00E94B71A07FC05D03EF490957C
:1035600081959F4F0895709561957F4F0895AA1B8F
:10357000BB1B51E107C0AA1FBB1FA617B70710F05E
:10358000A61BB70B881F991F5A95A9F78095909590
:10359000BC01CD010895FB01DC018D9101908019E2
:1035A0000110D9F3990B0895FA01CF93FF93EF938C
:1035B000223044F1253234F5C22FE894CA3049F460
:1035C00097FB3EF490958095709561957F4F8F4F56
:1035D0009F4F2C2F332744275527FF93EF930E94AB
:1035E000181BEF91FF91605D6A330CF0695D619388
:1035F000B901CA01605070408040904051F716F404
:10360000CDE2C19310828F919F91CF910C94081BB2
:10361000DC01FC01672F71917723E1F7329704C039
:103620007C916D9370836291AE17BF07C8F30895C4
:10363000A1E21A2EAA1BBB1BFD010DC0AA1FBB1FB6
:10364000EE1FFF1FA217B307E407F50720F0A21B28
:10365000B30BE40BF50B661F771F881F991F1A9495
:1036600069F760957095809590959B01AC01BD01BF
:08367000CF010895F894FFCF8B
:10367800CA080000CA080000CA080000CA080000FA
:10368800E6050000CA0800008502000001000100EC
:10369800010001000100010061636320737461721D
:1036A800746564006261726F20737461727465641A
:1036B800006261726F5F6F666673657420004144D3
:1036C80043206F6B004144435F6F66667365743ACD
:1036D80020006779726F20737461727465640047A3
:1036E80079726F204F66667365743A2000703A20CD
:1036F80000713A20004779726F2043616C20436F54
:103708006D706C657465006D6167207374617274A7
:10371800656400536572766F54696D6572537461A0
:1037280072746564005461736B54696D6572537487
:1037380061727465640057646F6744697361626C91
:103748000057646F675273740050777255705273E4
:1037580074004272776E4F757452737400457874B2
:10376800527374004750524D430047504747410039
:10377800444952454354204354524C002A537065DF
:10378800656420436F6E74726F6C2A0044414D501B
:10379800454420434F4E54524F4C0048656164697C
:1037A8006E6720686F6C64202D205472696D20410B
:1037B800696C3A2000202D2000484F4C4420434F8C
:1037C8004E54524F4C005472696D20456C202D2088
:1037D80041696C202D204D6F746F723A200054613E
:1037E8007267657420416C74202D2042616E6B20D5
:1037F8002D2053706565643A20003B000D0A0000D7
:00000001FF
