:100000000C9450000C945B070C946D000C946D00E4
:100010000C946D000C948A070C946D000C940B06E4
:100020000C946D000C946D000C94B5070C946D004D
:100030000C946D000C94CF150C946D000C946D0015
:100040000C946D000C946D000C946D000C946D007C
:100050000C946D00084AD73B3BCE016E84BCBFFDBB
:10006000C12F3D6C74319ABD56833DDA3D00C77F88
:1000700011BED9E4BB4C3E916BAAAABE0000008021
:100080003F05A84CCDB2D44EB93836A9020C50B9B0
:10009000918688083CA6AAAA2ABE000000803F00DC
:1000A00011241FBECFE5D8E0DEBFCDBF11E0A0E632
:1000B000B0E0EEE9F4E302C005900D92A23DB10775
:1000C000D9F724E0A2EDB1E001C01D92AA3CB2072D
:1000D000E1F70E9415080C944D1A0C940000CF9380
:1000E000DF93D82FC62F0E94980582E390E00E94EC
:1000F000B4058D2F90E00E94BF058C2F90E00E94E8
:10010000CA050E94E505DF91CF91089567E480E27A
:100110000E946F0060E183E20E946F008CE790E034
:100120000E94551608950F931F93CF93DF93EC0110
:100130000E94980582E390E00E94B40588EA90E06E
:100140000E94BF050E94A20583E390E00E94A805DB
:100150000E94DD058093E2010E94DD058093E301AA
:100160000E94DD058093DC010E94DD058093DD01A6
:100170000E94DD058093D6010E94D5058093D701AA
:100180000E94E5058091E301992787FD9095982FBE
:1001900088272091E201822B9595879595958795E3
:1001A00095958795959587959093E1018093E001CA
:1001B0000091DD01112707FD1095102F00272091D8
:1001C000DC01022B15950795159507951595079553
:1001D000159507951093DB010093DA014091D70143
:1001E000552747FD5095542F44272091D601422B87
:1001F00055954795559547955595479555954795E7
:100200005093D5014093D401880F991F9093DF013B
:100210008093DE01000F111F1093D9010093D801C4
:10022000440F551F5093D3014093D201AA2797FD45
:10023000A095BA2F88839983AA83BB83222717FDB1
:100240002095322F0C831D832E833F83662757FD15
:100250006095762F488759876A877B87CE01DF9123
:10026000CF911F910F910895CF93DF93D82FC62F71
:100270000E94980580EC90E00E94B4058D2F90E0DC
:100280000E94BF058C2F90E00E94CA050E94E505E0
:10029000DF91CF91089569EB86E20E94340160E816
:1002A00089E20E94340166EC84E10E9434016BE52E
:1002B00085E10E94340167E083E10E94340188E80F
:1002C00090E00E9455160895CF930E94980580EC07
:1002D00090E00E94B40580E090E00E94BF050E947B
:1002E000A20581EC90E00E94A8050E94D505C82FC8
:1002F0000E94E5058091EA0132C0CE3E81F50E9460
:10030000980580EC90E00E94B40581E090E00E94A6
:10031000BF050E94A20581EC90E00E94A8050E9402
:10032000DD058093ED010E94DD058093EC010E94C4
:10033000D5058093EB010E94E5052091ED0133275F
:1003400027FD3095322F22278091EC01282B309306
:10035000E7012093E60181E08093EA013FC0882312
:1003600061F2CE3EB9F50E94980580EC90E00E94C3
:10037000B40581E090E00E94BF050E94A20581ECD7
:1003800090E00E94A8050E94DD058093ED010E9487
:10039000DD058093EC010E94D5058093EB010E945E
:1003A000E5052091ED01332727FD3095322F2227D7
:1003B0008091EC01282B3093E7012093E601809196
:1003C000E8019091E901281B390B3093E501209356
:1003D000E40104C02091E4013091E501822F932FC4
:1003E000CF9108950E9464019093E9018093E80100
:1003F00085E990E00E9445166091E8017091E9015D
:10040000882777FD8095982F0E94871608951ABA3D
:1004100080E487B987E886B982EA90E00E945516A1
:100420000895CF93DF9383E087B9369A3699FECF4C
:10043000C4B1D0E0D093F901C093F80125B1922F57
:1004400080E0C82BD92BD093F901C093F801BE01ED
:10045000660F771F6C0F7D1F6A5F7540882777FDD9
:100460008095982F0E9412186093F2017093F30107
:100470008093F4019093F5018091F0019091F10146
:10048000019751F48091EE019091EF01C81BD90BB7
:10049000D093F701C093F6018C2F9D2FDF91CF9160
:1004A0000895CF93DF93C2E3D0E00E941102209120
:1004B000EE013091EF01820F931F9093EF01809333
:1004C000EE01219791F762E370E00E94B6197093F4
:1004D000EF016093EE0189EA90E00E944516609179
:1004E000EE017091EF01882777FD8095982F0E948B
:1004F000871681E090E09093F1018093F0012FE95D
:1005000086E891E0215080409040E1F700C0000073
:10051000DF91CF910895CF93DF93D82FC62F0E94FC
:10052000980586ED90E00E94B4058D2F90E00E9422
:10053000BF058C2F90E00E94CA050E94E505DF915F
:10054000CF9108956FE080E20E948B0260E281E229
:100550000E948B0260E184E20E948B0286EB90E0B5
:100560000E94551608958F929F92AF92BF92CF929C
:10057000DF92EF92FF920F931F93CF93DF93EC01E3
:100580000E94980586ED90E00E94B40588EA90E00C
:100590000E94BF050E94A20587ED90E00E94A80579
:1005A0000E94DD0580930E020E94DD0580930F02FC
:1005B0000E94DD0580930A020E94DD0580930B02F4
:1005C0000E94DD05809306020E94D50580930702F4
:1005D0000E94E50560910F02772767FD7095762FE1
:1005E000662780910E02682B70930D0260930C02B7
:1005F000E0900B02FF24E7FCF094FE2CEE248091A7
:100600000A02E82AF0920902E09208020091070229
:10061000112707FD1095102F002780910602082B47
:100620001093050200930402882777FD8095982F88
:100630000E94121829E23CE54FE05CE30E942B196E
:100640000E94DF174B015C01B701882777FD809579
:10065000982F0E94121829E23CE54FE05CE30E94CB
:100660002B190E94DF176B017C01B801882777FDE9
:100670008095982F0E94121829E23CE54FE05CE338
:100680000E942B190E94DF172091FA013091FB0183
:100690002130310521F5009100021091010222273D
:1006A00017FD2095322F801A910AA20AB30A0091F1
:1006B000FE011091FF01222717FD2095322FC01A4D
:1006C000D10AE20AF30A0091FC011091FD012227F0
:1006D00017FD2095322F601B710B820B930B8882C4
:1006E0009982AA82BB82CC82DD82EE82FF826887F9
:1006F00079878A879B87CE01DF91CF911F910F91D8
:10070000FF90EF90DF90CF90BF90AF909F908F9031
:100710000895CF93DF93CDB7DEB72C970FB6F8943B
:10072000DEBF0FBECDBF20910202309103022A30FE
:100730003105ACF52F5F3F4F309303022093020247
:10074000CE0101960E94B302209100023091010275
:1007500089819A81820F931F9093010280930002F6
:100760002091FE013091FF018D819E81820F931FA8
:100770009093FF018093FE012091FC013091FD01D7
:1007800089859A85820F931F9093FD018093FC01C8
:1007900020910202309103022A3031055CF28091EF
:1007A000000290910102B9010E94B61970930102F2
:1007B000609300028091FE019091FF01B9010E94B7
:1007C000B6197093FF016093FE018091FC01909136
:1007D000FD01B9010E94B6197093FD016093FC01FF
:1007E00083EC90E00E94551681ED90E00E94451642
:1007F0006091000270910102882777FD8095982F03
:100800000E94871685ED90E00E9445166091FE01DA
:100810007091FF01882777FD8095982F0E94871699
:1008200089ED90E00E9445166091FC017091FD01F8
:10083000882777FD8095982F0E9487162FE986E8F4
:1008400091E0215080409040E1F700C0000081E03D
:1008500090E09093FB018093FA018DED90E00E946F
:1008600055162C960FB6F894DEBF0FBECDBFDF91A4
:10087000CF910895CF93DF93D82FC62F0E9498056C
:100880008CE390E00E94B4058D2F90E00E94BF059C
:100890008C2F90E00E94CA050E94E505DF91CF9160
:1008A000089560E082E00E943A048FEE90E00E949A
:1008B000551608952F923F924F925F926F927F92BA
:1008C0008F929F92AF92BF92CF92DF92EF92FF9260
:1008D0000F931F93CF93DF93CDB7DEB728970FB653
:1008E000F894DEBF0FBECDBF6B017C0149015A01F8
:1008F0000E9498058CE390E00E94B40583E090E0AC
:100900000E94BF050E94A2058DE390E00E94A80509
:100910000E94DD05809325020E94DD05809324025C
:100920000E94DD05809315020E94DD05809314026C
:100930000E94DD0580931D020E94D50580931C0254
:100940000E94E50500912502112707FD1095102F43
:10095000002780912402082B109323020093220287
:1009600080911D02992787FD9095382F222780912D
:100970001C02A901482B58874F8350931B024093B8
:100980001A0280911502992787FD9095982F882744
:1009900020911402822B909313028093120225E37C
:1009A0003AEF4EE85CE3C501B4010E942B19562EC4
:1009B000672E782E492E0E9474174B015C01B801F6
:1009C000882777FD8095982F0E94121869837A8373
:1009D0008B839C839B01AC01C501B4010E942B1940
:1009E0000E94DF177E836D83709321026093200243
:1009F00025E33AEF4EE85CE3C701B6010E942B19EC
:100A0000162F072F382E292E0E9474176B017C0198
:100A1000EF81F885BF01882777FD8095982F0E9488
:100A200012184B015C019B01AC01C701B6010E9489
:100A30002B190E94DF1778876F83709319026093D8
:100A40001802652D762D872D942D0E948E199B01FD
:100A5000AC0169817A818B819C810E942B190E9453
:100A6000DF1770931F0260931E02612F702F832D7A
:100A7000922D0E948E199B01AC01C501B4010E9408
:100A80002B190E94DF1770931702609316022D81B5
:100A90003E81B901882777FD8095982F0E94121812
:100AA0006B017C014F815885BA01882777FD8095BD
:100AB000982F0E941218A70196010E941D179058A6
:100AC00020EE3EE245E652E40E942B190E94DF1719
:100AD00077232CF0709311026093100206C06859BE
:100AE0007E4F7093110260931002809110029091DA
:100AF000110228960FB6F894DEBF0FBECDBFDF916E
:100B0000CF911F910F91FF90EF90DF90CF90BF900A
:100B1000AF909F908F907F906F905F904F903F909D
:100B20002F90089584E380B986B7856486BF0895C1
:100B300084EA86BF06B607FEFDCF81B1887F883084
:100B4000E1F7089584EA86BF06B607FEFDCF089553
:100B500083B986B7846C86BF06B607FEFDCF81B128
:100B6000887F8034E1F7089583B984E886BF06B6AC
:100B700007FEFDCF81B1887F8831E1F7089583B901
:100B800084E886BF06B607FEFDCF81B1887F883234
:100B9000E1F7089583B984E886BF06B607FEFDCF66
:100BA00081B1887F8832E1F7089584E886BF06B670
:100BB00007FEFDCF83B190E0089584EC86BF06B6B2
:100BC00007FEFDCF83B190E0089586B7846986BFA4
:100BD00006B604FCFDCF089587B38F6187BB8AB347
:100BE00083608ABB88B3807E88BB8BB38C7F8BBBD2
:100BF0001FBC8AE08EBD8AEC98E09BBD8ABD80E474
:100C00008BBF83E085BF85E085BD14BC8BEF90E092
:100C10000E94551608951F920F920FB60F9211243D
:100C20002F933F934F935F938F939F93AF93BF9374
:100C300080912902863009F499C084F4823009F445
:100C400047C034F48823E9F0813009F027C12AC075
:100C5000843009F464C00CF073C04BC08A3009F4CE
:100C6000D3C034F4883009F4A8C00CF0B7C08FC0EA
:100C70008C3009F4F0C00CF4D8C08D3009F00EC1EE
:100C8000FBC0C09A8091600090916100A0916200C9
:100C9000B09163009BBD8ABD809129028F5F8093D4
:100CA0002902FCC0C0988091600090916100A091E1
:100CB0006200B091630020EA3FE0A901481B590B94
:100CC0005BBD4ABD809129028F5F80932902E6C0F7
:100CD000C19A8091640090916500A0916600B091E6
:100CE00067009BBD8ABD809129028F5F8093290296
:100CF000D5C0C1988091640090916500A091660074
:100D0000B091670020EA3FE0A901481B590B5BBD89
:100D10004ABD809129028F5F80932902BFC0C29A89
:100D20008091680090916900A0916A00B0916B0079
:100D30009BBD8ABD809129028F5F80932902AEC03E
:100D4000C2988091680090916900A0916A00B0916A
:100D50006B0020EA3FE0A901481B590B5BBD4ABD6F
:100D6000809129028F5F8093290298C0C39A809155
:100D70006C0090916D00A0916E00B0916F009BBDD2
:100D80008ABD809129028F5F8093290287C0C39812
:100D900080916C0090916D00A0916E00B0916F00F9
:100DA00020EA3FE0A901481B590B5BBD4ABD809179
:100DB00029028F5F8093290271C0C49A80917000CC
:100DC00090917100A0917200B09173009BBD8ABD9B
:100DD000809129028F5F8093290260C0C49880911E
:100DE000700090917100A0917200B091730020EAA0
:100DF0003FE0A901481B590B5BBD4ABD8091290208
:100E00008F5F809329024AC0D89A80917400909194
:100E10007500A0917600B09177009BBD8ABD80914E
:100E200029028F5F8093290239C0D898809174007D
:100E300090917500A0917600B091770020EA3FE094
:100E4000A901481B590B5BBD4ABD809129028F5FE8
:100E50008093290223C0D99A8091780090917900DB
:100E6000A0917A00B0917B009BBD8ABD8091290240
:100E70008F5F8093290212C0D99880917800909159
:100E80007900A0917A00B0917B0020EA3FE0A901AF
:100E9000481B590B5BBD4ABD10922902BF91AF910F
:100EA0009F918F915F914F913F912F910F900FBE26
:100EB0000F901F9018951F920F920FB60F9211244A
:100EC0002F938F939F93EF93FF938091260290919E
:100ED0002702019729F410922702109226020FC0D0
:100EE00020912802E22FF0E084B590E0EE0FFF1F82
:100EF000EE59FD4F918380832F5F2093280214BC0D
:100F0000FF91EF919F918F912F910F900FBE0F90B6
:100F10001F9018951F920F920FB60F9211248F9366
:100F20009F931092280281E090E090932702809393
:100F300026029F918F910F900FBE0F901F901895D2
:100F40008DE083BF85E78CBF8FE892ECA5EFBCE313
:100F50008093740290937502A0937602B093770207
:100F60008DE091E00E94551608951F920F920FB6E2
:100F70000F9211248F93809178028F5F8093780273
:100F8000833028F081E080937902109278028F916B
:100F90000F900FBE0F901F90189581B58D6081BD89
:100FA00008950F931F93FC014191442381F1842FF5
:100FB00080538A3080F500E010E0980104C0842F4F
:100FC00080538A3058F5D901C801880F991FAA1F8C
:100FD000BB1F8C019D01000F111F221F331F000F2B
:100FE000111F221F331F800F911FA21FB31F042F39
:100FF00010E000531109222717FD2095322F080F0A
:10100000191F2A1F3B1F41914111D9CF07C000E092
:1010100010E0980103C000E010E09801602F712FEC
:10102000822F932F1F910F910895CF93DF93CDB708
:10103000DEB7C658D1090FB6F894DEBF0FBECDBFDC
:10104000D69A8F9A8E9A8D9A8C9ADE9897989698BF
:10105000959894980E94C21504B603FE05C089E2D3
:1010600091E00E9445161EC004B600FE05C081E353
:1010700091E00E94451616C004B602FE05C08AE340
:1010800091E00E9445160EC004B601FE05C085E43D
:1010900091E00E94451606C064B770E080E090E0E1
:1010A0000E94691684B7807F84BF0FE71FE422E1A6
:1010B000015010402040E1F700C000000E9492055E
:1010C0008091870290918802019721F40E94A202E8
:1010D0000E9489038091850290918602019711F404
:1010E0000E9486008091810290918202019721F4F2
:1010F0000E944B010E94F201809183029091840230
:10110000019711F40E94510480917F029091800216
:10111000019721F40E9407020E945102F8940E9454
:10112000A0070E94EC0582E589BF78940E94CD0754
:10113000C058DF4F1882C058D0401FA219AE18AE59
:10114000E2961FAE1EAEE2971AAE1BAE1CAE1DAEEF
:101150002F961FAE2F9760961FAE609761961FAEB9
:10116000619762961FAE62972B961FAE2B972C96B7
:101170001FAE2C972D961FAE2D972E961FAE2E9735
:10118000EA961CAE1DAE1EAE1FAEEA97A5961FAE28
:10119000A597A6961FAEA697A7961FAEA797A89647
:1011A0001FAEA8971CA61DA61EA61FA6A4961CAE21
:1011B0001DAE1EAE1FAEA497CF57DF4F1982188207
:1011C000C158D040E6961CAE1DAE1EAE1FAEE697CF
:1011D000CB57DF4F19821882C558D04038AA29AAA8
:1011E00080918A028130B1F56CE471E08EEE93E07B
:1011F0000E94DE19282F392F232B81F4EEEEF3E025
:10120000ABE8B2E080EB01900D928A95E1F7EEEE4B
:10121000F3E0DF0100EB1D920A95E9F762E571E06A
:101220008EEE93E00E94DE19282F392F232B81F4B4
:10123000EEEEF3E0ABE3B3E080EB01900D928A9524
:10124000E1F7EEEEF3E0DF0100EB1D920A95E9F71E
:1012500010928A02809179028230E1F5109279022F
:1012600088E591E00E94551608AD19AD0F5F1F4F3C
:1012700019AF08AF1FA1612F70E080E090E00E94DD
:10128000691689EA91E00E94451608AD19ADB801CA
:10129000882777FD8095982F0E94871602341105C4
:1012A00019F4DE981FA20EC008AD19AD0734110560
:1012B00011F4DE9A0FC008AD19AD0C34110511F40C
:1012C000DE9808C008AD19AD0135110519F4DE9A94
:1012D00019AE18AE80917902813011F00C94BF15CF
:1012E000109279028091870290918802019709F00B
:1012F0005CC0CE010D960E94B3026D85772767FD15
:101300007095872F972F0E9412182AE939E949E929
:101310005EE30E942B196B017C012A961FAD2A9770
:10132000612F772767FD7095872F972F0E941218DE
:1013300023E333E343E35FE30E942B199B01AC01FA
:10134000C701B6010E94AA160E94DF172A966FAF46
:101350002A976989772767FD7095872F972F0E94B5
:1013600012182AE939E949E95EE30E942B196B0159
:101370007C0129960FAD2997602F772767FD70951F
:10138000872F972F0E94121823E333E343E35FE391
:101390000E942B199B01AC01C701B6010E94AA163D
:1013A0000E94DF1729966FAF29978091850290914F
:1013B0008602019709F05CC0CE0101960E9493005D
:1013C00069857A85719561957109882777FD809582
:1013D000982F0E9412186B017C0169817A818827FD
:1013E00077FD8095982F0E941218A70196010E9400
:1013F0001D1720E030E044E353E40E942B192BED4D
:101400003FE049E450E40E9477172B966FAF2B978B
:101410002C967FAF2C972D968FAF2D972E969FAF42
:101420002E976D817E81719561957109882777FD71
:101430008095982F0E941218A70196010E941D17EF
:1014400020E030E044E353E40E942B192BED3FE011
:1014500049E450E40E9477172F966FAF2F9760965C
:101460007FAF609761968FAF619762969FAF6297EB
:101470008091810290918202019771F50E9464012E
:10148000BC01882777FD8095982F0E94121823E3CE
:1014900033E343E35FE30E942B196B017C016C96FD
:1014A0000EAD1FAD6C97B801882777FD8095982FFA
:1014B0000E9412182AE939E949E95EE30E942B19D2
:1014C0009B01AC01C701B6010E94AA160E94DF175A
:1014D0006C967FAF6EAF6C9780918302909184027F
:1014E0000197D1F47EAD6FAD21969FAD21972296E5
:1014F0008FAD2297272F362F492F582FBCA5ADA58A
:10150000FEA5EFA56B2F7A2F8F2F9E2F0E945A04D6
:10151000E2969FAF8EAFE29780917F02909180021A
:10152000019709F09EC008AD19AD0830110509F00A
:1015300092C00E941102382F292FEC964EAD5FAD5C
:10154000EC97440F551FEC960EAD1FADEC97400F76
:10155000511FEE968EAD9FADEE97880F991FEE96B8
:101560000EAD1FADEE97800F911F880F991F880F4A
:10157000991F841B950B61E1CD57DF4F08811981BD
:10158000C358D040609FA001619F500D1124840F6B
:10159000951FC258DF4F48815981CE57D040440F24
:1015A000551FC258DF4F08811981CE57D040400FD8
:1015B000511F440F551F440F551F840F951FCF57C0
:1015C000DF4F48815981C158D040440F551FCF5734
:1015D000DF4F08811981C158D040400F511F841B33
:1015E000950B63E270E00E94B619AC967FAF6EAFC8
:1015F000AC97C258DF4F08811981CE57D040CF57E2
:10160000DF4F19830883C158D040CD57DF4F088181
:101610001981C358D040C258DF4F19830883CE5771
:10162000D040EE960EAD1FADEE97CD57DF4F19832C
:101630000883C358D040EC960EAD1FADEC97EE96E4
:101640001FAF0EAFEE97EB963FAFEB97EC962FAF39
:10165000EC9719AE18AE08AD19AD0F5F1F4F19AF5B
:1016600008AF8090740290907502A0907602B090BE
:10167000770229961FAD2997612F772767FD70950F
:10168000872F972F0E941218A50194010E942B19F1
:10169000BEADAFAD2196FFAD21972296EFAD22975B
:1016A0002B2F3A2F4F2F5E2F0E94AA1668A779A7DB
:1016B0008AA79BA775016401F7FAF094F7F8F094F4
:1016C0007F8D68A199A18AA1272F362F492F582FE6
:1016D000B8A9A9A92796FFAD27972896EFAD289717
:1016E0006B2F7A2F8F2F9E2F0E94AA162AE037ED9C
:1016F00043EA5BE30E94A9169B01AC01C701B60156
:101700000E942B192396BFAD23972496AFAD249743
:101710002596FFAD25972696EFAD26972B2F3A2FCE
:101720004F2F5E2F0E94AA16662E772E082F192F94
:1017300020E030E0A901C701B6010E942B19262E36
:10174000372E482E592E7F8D68A199A18AA1272F67
:10175000362F492F582F622D732D842D952D0E94E1
:10176000AA16698F7A8F8B8F9C8F2A962FAD2A9716
:10177000622F772767FD7095872F972F0E94121889
:10178000BAADABADFCADEDAD2B2F3A2F4F2F5E2F89
:101790000E94A9169B01AC01C501B4010E942B193E
:1017A000BCA5ADA5FEA5EFA52B2F3A2F4F2F5E2F81
:1017B0000E94AA166CA77DA78EA79FA77BA16CA1EC
:1017C0009DA18EA1272F362F492F582FBCA9ADA937
:1017D000FEA9EFA96B2F7A2F8F2F9E2F0E94AA169A
:1017E0002AE037ED43EA5BE30E94A9169B01AC01B6
:1017F000C701B6010E942B19BD8DAE8DFAA9EBA9C8
:101800002B2F3A2F4F2F5E2F0E94AA166D8F7E8F9F
:10181000E82EF92E222D332D442D552DBBA1ACA140
:10182000FDA1EEA16B2F7A2F8F2F9E2F0E94AA165B
:10183000462E572EC82ED92E2AE037ED43EA5CE318
:10184000662D772D802F912F0E94AA166DA37EA35F
:1018500088AB99AB762F6EA1982F89A9272F362FA9
:10186000492F582F662D772D802F912F0E947717A3
:101870006F8F78A389A39AA37CA56DA59EA58FA53C
:10188000272F362F492F582F2F96BFAD2F976096B1
:10189000AFAD60976196FFAD61976296EFAD6297CD
:1018A0006B2F7A2F8F2F9E2F0E94A9166AAB7BABCE
:1018B0008CAB9DAB2AE037ED43EA5CE3BD8DAE8D8A
:1018C0006B2F7A2F8E2D9F2D0E94AA16862E972E73
:1018D000A82EB92E762F272F392D4A2D5B2DBD8DA1
:1018E000AE8D6B2F7A2F8E2D9F2D0E9477176BA3B5
:1018F0007CA3382E292E282D392D4A2D5B2D642DC1
:10190000752D8C2D9D2D0E947717962E872E8EABD0
:101910009FAB78A569A59AA58BA5272F362F492FB0
:10192000582F2B96BFAD2B972C96AFAD2C972D969D
:10193000FFAD2D972E96EFAD2E976B2F7A2F8F2F11
:101940009E2F0E94A9169B01AC01BF8DA8A1F9A1F1
:10195000EAA16B2F7A2F8F2F9E2F0E942B19B8A5EB
:10196000A9A5FAA5EBA52B2F3A2F4F2F5E2F0E948A
:10197000AA1668A779A78AA79BA76EAF7FAF219603
:101980008FAF219722969FAF2297262D372D402F7C
:10199000512FBF8DA8A1F9A1EAA16B2F7A2F8F2F0C
:1019A0009E2F0E942B19262F372F482F592F662D37
:1019B000772D802F912F0E94A916A62EB72E082FC3
:1019C000192F23966FAF239724967FAF24972596E0
:1019D0008FAF259726969FAF2697798D6A8D9B8D21
:1019E0008C8D272F362F492F582FBF8DA8A1F9A1F5
:1019F000EAA16B2F7A2F8F2F9E2F0E942B19262F53
:101A0000372F482F592FB98DAA8DFB8DEC8D6B2F59
:101A10007A2F8F2F9E2F0E94A9166F8F78A389A3EC
:101A20009AA37DA16EA198A989A9272F362F492FA6
:101A3000582FB98DAA8DFB8DEC8D6B2F7A2F8F2FA0
:101A40009E2F0E9477172A2D3B2D402F512F0E9449
:101A50002B199B01AC01B98DAA8DFB8DEC8D6B2FE1
:101A60007A2F8F2F9E2F0E94A91668AB79AB2796ED
:101A70008FAF279728969FAF28977AA96BA99CA923
:101A80008DA9272F362F492F582FBBA1ACA16B2F23
:101A90007A2F832D922D0E942B19BCA5ADA5FEA5F2
:101AA000EFA52B2F3A2F4F2F5E2F0E94AA16698F7A
:101AB0007A8F8B8F9C8F6CA77DA78EA79FA77AA903
:101AC0006BA99CA98DA9272F362F492F582FFEA926
:101AD000EFA9692D782D8F2F9E2F0E942B199B0126
:101AE000AC01BAADABADFCADEDAD6B2F7A2F8F2F46
:101AF0009E2F0E94AA166AAF7BAF8CAF9DAF7D8DE3
:101B00006E8D272F362F4E2D5F2DBBA1ACA16B2FD5
:101B10007A2F832D922D0E942B19262F372F482F95
:101B2000592FBD8DAE8D6B2F7A2F8E2D9F2D0E943C
:101B3000A916E62EF72E082F192F6D8F7E8F8AABF0
:101B40009BAB242D352D4C2D5D2DBBA1ACA16B2F56
:101B50007A2F832D922D0E942B19262F372F482F55
:101B6000592F642D752D8C2D9D2D0E94A9166BA3C8
:101B70007CA38DA39EA32E2D3F2D402F512FFEA978
:101B8000EFA9692D782D8F2F9E2F0E942B199B0175
:101B9000AC01642D752D8C2D9D2D0E94A9166CAB6A
:101BA0007DAB8EAB9FAB82EC92E00E94D1078CEABA
:101BB00092E00E94D107ACE6B2E08D919C91813910
:101BC000910524F083E080937C0212C0ECE6F2E001
:101BD000808191818C38910544F080819181803998
:101BE00091051CF410927C0203C082E080937C0279
:101BF00080917C0290917B02981721F091E0909364
:101C00007A0202C010927A02823009F403C218F4F8
:101C1000882341F077C6833009F4A2C3843009F0E9
:101C200071C6F1C080917A02813021F48DE591E096
:101C30000E9455162091620230916302220F331FD9
:101C4000C901880F991F880F991F880F991F821B40
:101C5000930B8E5D9E4FAA2797FDA095BA2FE0E6C5
:101C6000F0E080839183A283B383A4E6B2E02D9158
:101C70003C91BFE0B29FC001B39F900D11248A56E2
:101C80009F4FAA2797FDA095BA2FE4E6F0E0808346
:101C90009183A283B383A6E6B2E02D913C91BFE08D
:101CA000B29FC001B39F900D1124AA2797FDA09564
:101CB000BA2FE8E6F0E080839183A283B38320917A
:101CC000680230916902220F331FC901880F991FE2
:101CD000880F991F880F991F821B930B8E5D9E4F53
:101CE000AA2797FDA095BA2FECE6F0E080839183B8
:101CF000A283B38380916A0290916B028738910529
:101D00003CF480916A0290916B0289379105FCF452
:101D100080916A0290916B02863991053CF4809122
:101D20006A0290916B0288389105A4F480916A024E
:101D300090916B02803A910584F480916A029091AF
:101D40006B028739910564F486EE95E00BC086EE50
:101D500095E008C08CE697E005C086EE95E002C0ED
:101D60008CEF98E0A0E7B0E04D915D916D917C9192
:101D7000A0E0B0E0481759076A077B0774F4E0E772
:101D8000F0E080819181A281B3810A96A11DB11DED
:101D900080839183A283B3831DC0E0E7F0E040819C
:101DA00051816281738184179507A607B70764F490
:101DB00080819181A281B3810A97A109B1098083B1
:101DC0009183A283B38306C0E0E7F0E08083918330
:101DD000A283B3838AEC98E0A0E0B0E08093740023
:101DE00090937500A0937600B093770085E892E019
:101DF000A0E0B0E08093780090937900A0937A00FF
:101E0000B0937B007FC580917A02813039F589E6F5
:101E100091E00E945516AC960EAD1FADAC97B8017F
:101E2000882777FD8095982F0E94121867966FAFCC
:101E3000679768967FAF689769968FAF69976A963C
:101E40009FAF6A9763961FAE639764961FAE6497C1
:101E500065961FAE659766961FAE6697A4E6B2E0DC
:101E60002D913C91BFE0B29FC001B39F900D112412
:101E70008A569F4FAA2797FDA095BA2FE4E6F0E077
:101E800080839183A283B383A6E6B2E02D913C9137
:101E9000BFE0B29FC001B39F900D1124AA2797FD08
:101EA000A095BA2FE8E6F0E080839183A283B38304
:101EB0002091680230916902220F331FC901880FF7
:101EC000991F880F991F880F991F821B930B8E5D96
:101ED0009E4FAA2797FDA095BA2FECE6F0E08083ED
:101EE0009183A283B38367967FAD679768966FAD42
:101EF000689769969FAD69976A968FAD6A97272F05
:101F0000362F492F582F6396BFAD63976496AFADB8
:101F100064976596FFAD65976696EFAD66976B2FF4
:101F20007A2F8F2F9E2F0E94AA16A62EB72E082F2B
:101F3000192F63966FAF639764967FAF649765962A
:101F40008FAF659766969FAF6697A4966CAD7DAD93
:101F50008EAD9FADA4970E9412186B017C01209159
:101F600074023091750240917602509177026A2D89
:101F70007B2D802F912F0E942B199B01AC0167961E
:101F8000BFAD67976896AFAD68976996FFAD6997E3
:101F90006A96EFAD6A976B2F7A2F8F2F9E2F0E9434
:101FA000AA169B01AC01C701B6010E94AA160E94A5
:101FB000DF17A0E6B0E06D937D938D939C9313970C
:101FC0008D919D910D90BC91A02D893B9B40A105C9
:101FD000B1055CF088EB9BE0A0E0B0E0E0E6F0E06B
:101FE00080839183A283B3838DC4E0E6F0E0808197
:101FF0009181A281B381883E9340A105B1050CF087
:1020000081C488EE93E0A0E0B0E080839183A28356
:10201000B38378C480917A02813009F0B9C089E72E
:1020200091E00E945516AC960EAD1FADAC97B8016D
:10203000882777FD8095982F0E941218E62EF72E9C
:10204000082F192F67966FAF679768967FAF6897CD
:1020500069968FAF69976A969FAF6A97A8E6B0E0D6
:102060006D917D918D919C91E6966CAF7DAF8EAF19
:102070009FAFE697A4E6B0E06D917D918D919C9124
:10208000EA966CAF7DAF8EAF9FAFEA97A0E6B0E067
:102090006D917D918D919C91A4966CAF7DAF8EAF2B
:1020A0009FAFA497ECE6F0E080819181A281B3819B
:1020B00088E891E00E9445166C962EAD3FAD6C9776
:1020C000B901882777FD8095982F0E94691687EAC5
:1020D00091E00E944516E296AEADBFADE297BD011C
:1020E000882777FD8095982F0E94691687EA91E0EE
:1020F0000E9445166E2D7F2D802F912F0E94DF1795
:102100000E948716098DAD960FAFAD971A8DAE96CA
:102110001FAFAE970B8DAF960FAFAF971C8DE096AC
:102120001FAFE09708A56D960FAF6D9719A56E9636
:102130001FAF6E970AA56F960FAF6F971BA5A0965E
:102140001FAFA0976C960EAD1FAD6C97CB57DF4FAE
:1021500019830883C558D040AA961FAF0EAFAA971F
:10216000A5961FAEA597A6961FAEA697A7961FAEDB
:10217000A797A8961FAEA89763961FAE639764961D
:102180001FAE649765961FAE659766961FAE6697FD
:10219000A4E6B2E02D913C91BFE0B29FC001B39F95
:1021A000900D11248A569F4FAA2797FDA095BA2F0C
:1021B000E4E6F0E080839183A283B383A6E6B2E0F5
:1021C0002D913C91BFE0B29FC001B39F900D1124AF
:1021D000AA2797FDA095BA2FE8E6F0E080839183C7
:1021E000A283B3832091680230916902220F331FCA
:1021F000C901880F991F880F991F880F991F821B8B
:10220000930B8E5D9E4FAA2797FDA095BA2FECE603
:10221000F0E080839183A283B383AC960EAD1FADB3
:10222000AC97B801882777FD8095982F0E941218E7
:102230009B01AC016796BFAD67976896AFAD689795
:102240006996FFAD69976A96EFAD6A976B2F7A2F03
:102250008F2F9E2F0E94A916C62ED72EE82EF92E5C
:10226000762F272F3D2D4E2D5F2D6396BFAD6397A3
:102270006496AFAD64976596FFAD65976696EFADD2
:1022800066976B2F7A2F8F2F9E2F0E94AA16A62E4D
:10229000B72E082F192F63966FAF639764967FAFA1
:1022A000649765968FAF659766969FAF6697A4967D
:1022B0006CAD7DAD8EAD9FADA4970E9412189B01B1
:1022C000AC016C2D7D2D8E2D9F2D0E94AA166B01C9
:1022D0007C012091740230917502409176025091F8
:1022E00077026A2D7B2D802F912F0E942B199B0145
:1022F000AC01C701B6010E94AA160E94DF17A0E632
:10230000B0E06D937D938D939C9313978D919D91E8
:102310000D90BC91A02D893B9B40A105B1055CF0BF
:1023200088EB9BE0A0E0B0E0E0E6F0E08083918302
:10233000A283B383E7C2E0E6F0E080819181A281CD
:10234000B3818A3E9640A105B1050CF0DBC28AEE4E
:1023500096E0A0E0B0E080839183A283B383D2C2F1
:1023600080917A02813009F097C08BEA91E00E9457
:102370005516A8E6B0E00D911D912D913C91E69681
:102380000CAF1DAF2EAF3FAFE697A4E6B0E00D91C6
:102390001D912D913C91EA960CAF1DAF2EAF3FAF32
:1023A000EA97A0E6B0E00D911D912D913C91A49685
:1023B0000CAF1DAF2EAF3FAFA497ECE6F0E08081ED
:1023C0009181A281B38188E891E00E9445166C96C4
:1023D0000EAD1FAD6C97B801882777FD8095982FBB
:1023E0000E94691687EA91E00E944516E2960EADBA
:1023F0001FADE297B801882777FD8095982F0E943E
:10240000691687EA91E00E94451660E070E0CB0112
:102410000E948716198DAD961FAFAD970A8DAE96A7
:102420000FAFAE971B8DAF961FAFAF970C8DE09699
:102430000FAFE0976C960EAD1FAD6C97CB57DF4F8B
:1024400019830883C558D040AA961FAF0EAFAA972C
:10245000A5961FAEA597A6961FAEA697A7961FAEE8
:10246000A797A8961FAEA89763961FAE639764962A
:102470001FAE649765961FAE659766961FAE66970A
:1024800067961FAE679768961FAE689769961FAEEE
:1024900069976A961FAE6A9780916A0290916B0263
:1024A000873891054CF580916A0290916B028937CB
:1024B000910514F1C058DF4F1881C058D040113039
:1024C000D9F488EB91E00E944516CB57DF4F088185
:1024D0001981C558D040B801882777FD8095982F7D
:1024E0000E948716AA961FAF0EAFAA97C058DF4F5B
:1024F0001882C058D04030C080916A0290916B021F
:10250000803A91054CF580916A0290916B0287396F
:10251000910514F1C058DF4F1881C058D0401111F7
:102520001BC0AA960EAD1FADAA97065F1F4FAA96B5
:102530001FAF0EAFAA9782EC91E00E944516B8013A
:10254000882777FD8095982F0E94871611E0C05844
:10255000DF4F1883C058D040AA966EAD7FADAA97C2
:102560006C960EAD1FAD6C97601B710B882777FDC5
:102570008095982F0E941218E62EF72E082F192FFB
:102580006D966FAF6D976E967FAF6E976F968FAFAC
:102590006F97A0969FAFA09720E030E040E251EC0B
:1025A0000E94701788236CF020E030E040EA51E48C
:1025B0006E2D7F2D802F912F0E942019181684F0E8
:1025C0001DC06D961FAE6D976E961FAE6E9710E292
:1025D0006F961FAF6F9701ECA0960FAFA0970EC03C
:1025E0006D961FAE6D976E961FAE6E9710EA6F9642
:1025F0001FAF6F9701E4A0960FAFA0976D967FADC8
:102600006D976E966FAD6E976F969FAD6F97A09614
:102610008FADA097272F362F492F582FB8A5A9A5E2
:10262000FAA5EBA56B2F7A2F8F2F9E2F0E94A9164C
:10263000662E772E082F192FC0907402D090750245
:10264000E0907602F090770220E030E040E251E442
:102650000E942B194B015C0120E030E0A901662D9E
:10266000772D802F912F0E94AA1620E030E040E2C3
:1026700051E40E942B19A70196010E942B199B017E
:10268000AC01C501B4010E94AA164B015C01262DC4
:10269000372D402F512F60E070E0CB010E94A9162A
:1026A000A70196010E9477179B01AC01C501B401F7
:1026B0000E94AA160E94DF17AEE4B2E06D937D93EC
:1026C0008D939C93139729961FAD2997812F992756
:1026D00087FD9095AC01440F551F440F551F440FC3
:1026E000551F480F591F662757FD6095762FE2E367
:1026F000F2E040835183628373838D919D910D90AD
:10270000BC91A02D4081518162817381E6960CAD10
:102710001DAD2EAD3FADE697800F911FA21FB31FD9
:10272000841B950BA60BB70BE8E6F0E08083918342
:10273000A283B38380819181A281B381893B9B4035
:10274000A105B1054CF088EB9BE0A0E0B0E08083F0
:102750009183A283B38313C0E8E6F0E08081918186
:10276000A281B381883E9340A105B10544F488EE6F
:1027700093E0A0E0B0E080839183A283B383798D5E
:102780006A8D9B8D8C8D272F362F492F582FAD9614
:10279000BFADAD97AE96AFADAE97AF96FFADAF976D
:1027A000E096EFADE0976B2F7A2F8F2F9E2F0E9430
:1027B000A916462E572E682E792E762F272F352DC7
:1027C000462D572DA596BFADA597A696AFADA6975A
:1027D000A796FFADA797A896EFADA8976B2F7A2F76
:1027E0008F2F9E2F0E94AA16262E372E082F192FC4
:1027F000A5966FAFA597A6967FAFA697A7968FAF22
:10280000A797A8969FAFA897EA966CAD7DAD8EADC1
:102810009FADEA970E9412184B015C0120E030E066
:1028200040E751E4642D752D862D972D0E942B19BC
:102830002B013C0120E030E040EA50E4622D732D92
:10284000802F912F0E942B199B01AC01C701B6016B
:102850000E942B199B01AC01C301B2010E94AA1670
:102860009B01AC01C501B4010E94AA160E94DF17AA
:10287000A4E6B0E06D937D938D939C9313978D9117
:102880009D910D90BC91A02D893B9B40A105B10568
:102890005CF088EB9BE0A0E0B0E0E4E6F0E0808351
:1028A0009183A283B38313C0E4E6F0E08081918139
:1028B000A281B381883E9340A105B10544F488EE1E
:1028C00093E0A0E0B0E080839183A283B383209162
:1028D000620230916302220F331FC901880F991FD2
:1028E000880F991F880F991F821B930B8E5D9E4F37
:1028F000AA2797FDA095BA2FE0E6F0E080839183A8
:10290000A283B38380917D0290917E02019709F0AA
:102910000CC1A0E6B0E06D917D918D919C910E94DB
:1029200069168DEC91E00E944516E4E6F0E06081C6
:102930007181828193810E9469168DEC91E00E94E1
:102940004516A8E6B0E06D917D918D919C910E9415
:1029500069168DEC91E00E944516ECE6F0E060818E
:102960007181828193810E9469168DEC91E00E94B1
:102970004516A0E7B0E06D917D918D919C910E94EC
:1029800069168DEC91E00E944516598D4A8D3B8D5C
:102990002C8D652F742F832F922F0E94DF170E949A
:1029A00069168DEC91E00E94451658A549A53AA5F7
:1029B0002BA5652F742F832F922F0E94DF170E9463
:1029C00069168DEC91E00E944516E2960EAD1FADA2
:1029D000E297B801882777FD8095982F0E946916A5
:1029E0008DEC91E00E9445166C960EAD1FAD6C9774
:1029F000B801882777FD8095982F0E9469168DEC85
:102A000091E00E944516AC960EAD1FADAC97B80193
:102A1000882777FD8095982F0E9469168DEC91E0AC
:102A20000E944516AA960EAD1FADAA97B801882739
:102A300077FD8095982F0E9469168DEC91E00E9499
:102A40004516AD965FADAD97AE964FADAE97AF96CE
:102A50003FADAF97E0962FADE097652F742F832F92
:102A6000922F0E94DF170E9469168DEC91E00E9460
:102A700045166D965FAD6D976E964FAD6E976F96DE
:102A80003FAD6F97A0962FADA097652F742F832F22
:102A9000922F0E94DF170E9469168DEC91E00E9430
:102AA000451667965FAD679768964FAD68976996CC
:102AB0003FAD69976A962FAD6A97652F742F832F64
:102AC000922F0E94DF170E9469168091C20288230C
:102AD00041F18DEC91E00E94451686E992E00E945A
:102AE00045168DEC91E00E94451682EC92E00E9422
:102AF00045168DEC91E00E9445168CEA92E00E940A
:102B000045168DEC91E00E94451683EE92E00E94FE
:102B100045168DEC91E00E9445168EE993E00E94E7
:102B200045168DEC91E00E94551680917C028093B1
:102B30007B021FA11F5F1FA3113231F4DE9A979809
:102B4000969A959A949A12C00FA1023431F4DE98A5
:102B5000979A9698959A949A12C01FA1133631F4B9
:102B6000DE9A979A969A9598949A09C00FA104387C
:102B700031F4DE98979A969A959A94981FA2A89500
:102B80000C94F008F89488E98AB986E880BD10BCF6
:102B90008CE089B978948CB15F99FDCF08951F922C
:102BA0000F920FB60F9211242F938F939F93EF9351
:102BB000FF938CB18093EC031092ED038093EB03B1
:102BC00010928A028091EB038432A1F4E091890291
:102BD0008091C9042BE0E202F0011124E80FF11DFD
:102BE00087FDFA95E251FC4F10821092C9041092B1
:102BF00089023DC08091EB038C32A9F48091890257
:102C00009091C9042BE08202F0011124E90FF11D1B
:102C100097FDFA95E251FC4F10821092C9048F5F24
:102C20008093890224C08091EB038E3201F1809160
:102C3000EB038A3021F481E080938A0218C08091EE
:102C4000EB038A30A1F0E09189028091C904909150
:102C5000EB032BE0E202F0011124E80FF11D87FDE8
:102C6000FA95E251FC4F90838F5F8093C904FF91E6
:102C7000EF919F918F912F910F900FBE0F901F900A
:102C800018955D9BFECF8CB90895CF93DF93EC012F
:102C90008881882339F0219690E00E94411689911D
:102CA0008111FACFDF91CF910895CF93DF93EC019B
:102CB0008881882339F0219690E00E9441168991FD
:102CC0008111FACF8FEC91E00E944516DF91CF91F0
:102CD0000895CF93DF93CDB7DEB76F970FB6F89413
:102CE000DEBF0FBECDBF2AE030E0AE014F5F5F4FC9
:102CF0000E94E719CE0101960E9445166F960FB605
:102D0000F894DEBF0FBECDBFDF91CF910895CF9372
:102D1000DF93CDB7DEB76F970FB6F894DEBF0FBE67
:102D2000CDBF2AE030E0AE014F5F5F4F0E94E71950
:102D3000CE0101960E9445168FEC91E00E94451647
:102D40006F960FB6F894DEBF0FBECDBFDF91CF9167
:102D500008955058BB27AA270ED027C2F0D130F0D3
:102D6000F5D120F031F49F3F11F41EF4C0C10EF4F0
:102D7000E095E7FBB6C1E92F3AD280F3BA176207B4
:102D800073078407950718F071F49EF552C20EF48C
:102D9000E0950B2EBA2FA02D0B01B90190010C016B
:102DA000CA01A0011124FF27591B99F0593F50F483
:102DB000503E68F11A16F040A22F232F342F4427DB
:102DC000585FF3CF469537952795A795F0405395D3
:102DD000C9F77EF41F16BA0B620B730B840BBAF0A3
:102DE0009150A1F0FF0FBB1F661F771F881FC2F70E
:102DF0000EC0BA0F621F731F841F48F48795779522
:102E00006795B795F7959E3F08F0B3CF9395880FD8
:102E100008F09927EE0F97958795089590D158F06F
:102E200080E891E009F49EEF91D128F040E851E06C
:102E300059F45EEF09C05BC1FCC1E92FE078D7D13E
:102E400068F3092E052AC1F32617370748075907E3
:102E500038F00E2E07F8E02569F0E025E0640AC09E
:102E6000EF6307F8009407FADB01B9019D01DC016B
:102E7000CA01AD01EF934AD098D10AD05F91552392
:102E800031F02BED3FE049E450FD49EC63CF08956C
:102E9000DF93DD27B92FBF7740E85FE316161706EB
:102EA00048075B0710F4D92FCFD19F938F937F935F
:102EB0006F933AD2E4E5F0E01DD177D12F913F91A5
:102EC0004F915F91D4D1DD2349F09058A2EA2AEDC9
:102ED0003FE049EC5FE3D0785D274DDFDF9165C1CE
:102EE000DCD008F481E0089539D1E3956FC10CD0AE
:102EF0005CC12CD140F023D130F021F45F3F19F0B8
:102F0000F0C0511197C1F3C072D198F39923C9F35E
:102F10005523B1F3951B550BBB27AA2762177307DF
:102F2000840738F09F5F5F4F220F331F441FAA1F93
:102F3000A9F333D00E2E3AF0E0E830D09150504053
:102F4000E695001CCAF729D0FE2F27D0660F771F01
:102F5000881FBB1F261737074807AB07B0E809F0E3
:102F6000BB0B802DBF01FF2793585F4F2AF09E3F78
:102F7000510568F0B6C05EC15F3FECF3983EDCF3EC
:102F8000869577956795B795F7959F5FC9F7880FF1
:102F9000911D9695879597F90895E1E0660F771F43
:102FA000881FBB1F621773078407BA0720F0621BD4
:102FB000730B840BBA0BEE1F88F7E095089504D0CD
:102FC0006894B11137C108951AD188F09F5790F0D5
:102FD000B92F9927B751A0F0D1F0660F771F881F3E
:102FE000991F1AF0BA95C9F712C0B13081F021D1FA
:102FF000B1E008951EC1672F782F8827B85F39F098
:10300000B93FCCF3869577956795B395D9F73EF49C
:1030100090958095709561957F4F8F4F9F4F089544
:10302000E89409C097FB3EF4909580957095619562
:103030007F4F8F4F9F4F9923A9F0F92F96E9BB2718
:103040009395F695879577956795B795F111F8CF94
:10305000FAF4BB0F11F460FF1BC06F5F7F4F8F4FFF
:103060009F4F16C0882311F096E911C0772321F0F5
:103070009EE8872F762F05C0662371F096E8862F8D
:1030800070E060E02AF09A95660F771F881FDAF7E4
:10309000880F9695879597F90895990F0008550F11
:1030A000AA0BE0E8FEEF16161706E807F907C0F0CE
:1030B00012161306E407F50798F0621B730B840BD6
:1030C000950B39F40A2661F0232B242B252B21F4B0
:1030D00008950A2609F4A140A6958FEF811D811D50
:1030E000089597F99F6780E870E060E008959FEF8A
:1030F00080EC0895DF93CF931F930F93FF92EF928D
:10310000DF927B018C01689405C0DA2EEF01AFD00D
:10311000FE01E894A5912591359145915591AEF325
:10312000EF0129DEFE019701A801DA9479F7DF901B
:10313000EF90FF900F911F91CF91DF9108950024A0
:103140000A941616170618060906089500240A940C
:1031500012161306140605060895C9CF50D0E8F3D9
:10316000E894E0E0BB279F57F0F02AED3FE049EC00
:1031700006C0EE0FBB0F661F771F881F28F0B23AFC
:1031800062077307840728F0B25A620B730B840B33
:10319000E3959A9572F7803830F49A95BB0F661FC5
:1031A000771F881FD2F79048C4C0092E0394000CE3
:1031B00011F4882352F0BB0F40F4BF2B11F460FFD1
:1031C00004C06F5F7F4F8F4F9F4F0895EF93E0FFD5
:1031D00006C0A2EA2AED3FE049EC5FEBCCDDE5DF7B
:1031E0000F90039401FC9058E1E8F0E0AEC057FD69
:1031F0009058440F551F59F05F3F71F04795880F65
:1032000097FB991F61F09F3F79F0879508951216FB
:1032100013061406551FF2CF4695F1DF08C01616A7
:1032200017061806991FF1CF869571056105089458
:103230000895E894BB2766277727CB0197F908956F
:103240002CDF08F48FEF08959B01AC0160E070E083
:1032500080E89FE34CCE0BD0A8CF71DF28F076DF5B
:1032600018F0952309F03DCF42CF1124E3CFBFDF03
:10327000A0F3959FD1F3950F50E0551F629FF00189
:10328000729FBB27F00DB11D639FAA27F00DB11DE2
:10329000AA1F649F6627B00DA11D661F829F22276B
:1032A000B00DA11D621F739FB00DA11D621F839FF2
:1032B000A00D611D221F749F3327A00D611D231FC8
:1032C000849F600D211D822F762F6A2F11249F5716
:1032D00050408AF0E1F088234AF0EE0FFF1FBB1F39
:1032E000661F771F881F91505040A9F79E3F5105D8
:1032F00070F0F7CE9FCF5F3FECF3983EDCF38695FE
:1033000077956795B795F795E7959F5FC1F7FE2B82
:10331000880F911D9695879597F908959F931EDFC5
:103320000F9007FCEE5F52CF9B01AC0194CF9F3F03
:1033300031F0915020F4879577956795B795880F70
:10334000911D9695879597F908959F938F937F93F5
:103350006F93FF93EF939B01AC017DDFEF91FF91A2
:10336000C9DE2F913F914F915F9175CF97FB072E4B
:1033700016F4009407D077FD09D00E94CA1907FC03
:1033800005D03EF4909581959F4F08957095619575
:103390007F4F0895AA1BBB1B51E107C0AA1FBB1F8B
:1033A000A617B70710F0A61BB70B881F991F5A95D1
:1033B000A9F780959095BC01CD010895FB01DC0132
:1033C0008D91019080190110D9F3990B0895FA019C
:1033D000CF93FF93EF93223044F1253234F5C22F7F
:1033E000E894CA3049F497FB3EF490958095709527
:1033F00061957F4F8F4F9F4F2C2F332744275527A1
:10340000FF93EF930E942B1AEF91FF91605D6A3357
:103410000CF0695D6193B901CA0160507040804051
:10342000904051F716F4CDE2C19310828F919F9195
:10343000CF910C941B1ADC01FC01672F719177234B
:10344000E1F7329704C07C916D9370836291AE175F
:10345000BF07C8F30895A1E21A2EAA1BBB1BFD01EA
:103460000DC0AA1FBB1FEE1FFF1FA217B307E40763
:10347000F50720F0A21BB30BE40BF50B661F771FBB
:10348000881F991F1A9469F760957095809590959B
:0E3490009B01AC01BD01CF010895F894FFCF60
:10349E00CA080000CA080000CA080000CA080000D6
:1034AE00E6050000CA080000850200006163632083
:1034BE0073746172746564006261726F20737461FB
:1034CE0072746564006261726F5F6F6666736574B5
:1034DE002000414443206F6B004144435F6F66669A
:1034EE007365743A20006779726F20737461727419
:1034FE006564004779726F204F66667365743A2073
:10350E0000703A2000713A2000723A20004779721A
:10351E006F2043616C20436F6D706C657465006D38
:10352E006167207374617274656400536572766F9F
:10353E0054696D657253746172746564005461737D
:10354E006B54696D6572537461727465640057646F
:10355E006F6744697361626C0057646F675273746E
:10356E00005077725570527374004272776E4F75B9
:10357E007452737400457874527374004750524DF0
:10358E004300475047474100546573740044495205
:10359E00454354204354524C002A537065656420B1
:1035AE00436F6E74726F6C2A0044616D7065642097
:1035BE00434F4E54524F4C00546172676574204114
:1035CE006C74202D2048656164696E67202D205330
:1035DE00706565643A2000202D2000484F4C442031
:1035EE00434F4E54524F4C00414C5420486F6C6424
:1035FE00200020416C7420486F6C6420003B000D4D
:02360E000A00B0
:00000001FF
