S015000053696D706C6554657374696E672E73726563C7
S11300000C9450000C940D070C946D000C946D002E
S11300100C946D000C943C070C946D000C94BD057D
S11300200C946D000C946D000C9467070C946D0097
S11300300C946D000C94021B0C946D000C946D00D8
S11300400C946D000C946D000C946D000C946D0078
S11300500C946D00084AD73B3BCE016E84BCBFFDB7
S1130060C12F3D6C74319ABD56833DDA3D00C77F84
S113007011BED9E4BB4C3E916BAAAABE000000801D
S11300803F05A84CCDB2D44EB93836A9020C50B9AC
S1130090918688083CA6AAAA2ABE000000803F00D8
S11300A011241FBECFE5D8E0DEBFCDBF12E0A0E62D
S11300B0B0E0EAE9FFE302C005900D92A431B10774
S11300C0D9F726E0A4E1B2E001C01D92A934B20739
S11300D0E1F70E94C7070C94CB1F0C940000CF9348
S11300E0DF93D82FC62F0E944A0582E390E00E9436
S11300F066058D2F90E00E9471058C2F90E00E9480
S11301007C050E949705DF91CF91089567E480E212
S11301100E946F0060E183E20E946F0084EA90E035
S11301200E94881B08950F931F93CF93DF93EC01D4
S11301300E944A0582E390E00E94660588EA90E006
S11301400E9471050E94540583E390E00E945A05C1
S11301500E948F05809324020E948F0580932502BC
S11301600E948F0580931E020E948F0580931F02B8
S11301700E948F05809318020E94870580931902BC
S11301800E94970580912502992787FD9095982FC5
S1130190882720912402822B95958795959587959C
S11301A09595879595958795909323028093220240
S11301B000911F02112707FD1095102F0027209191
S11301C01E02022B1595079515950795159507950C
S11301D01595079510931D0200931C024091190276
S11301E0552747FD5095542F442720911802422B40
S11301F055954795559547955595479555954795E3
S11302005093170240931602880F991F909321026E
S113021080932002000F111F10931B0200931A02F7
S1130220440F551F5093150240931402AA2797FDBB
S1130230A095BA2F88839983AA83BB83222717FDAD
S11302402095322F0C831D832E833F83662757FD11
S11302506095762F488759876A877B87CE01DF911F
S1130260CF911F910F910895CF93DF93D82FC62F6D
S11302700E944A0580EC90E00E9466058D2F90E074
S11302800E9471058C2F90E00E947C050E949705C6
S1130290DF91CF91089569EB86E20E94340160E812
S11302A089E20E94340166EC84E10E9434016BE52A
S11302B085E10E94340167E083E10E94340180EB10
S11302C090E00E94881B0895CF930E944A0580EC19
S11302D090E00E94660580E090E00E9471050E9413
S11302E0540581EC90E00E945A050E948705C82FAE
S11302F00E94970580912C0232C0CE3E81F50E9467
S11303004A0580EC90E00E94660581E090E00E943E
S113031071050E94540581EC90E00E945A050E94E8
S11303208F0580932F020E948F0580932E020E94D6
S1130330870580932D020E94970520912F02332771
S113034027FD3095322F222780912E02282B3093BF
S113035029022093280281E080932C023FC0882345
S113036061F2CE3EB9F50E944A0580EC90E00E940D
S1130370660581E090E00E9471050E94540581ECBD
S113038090E00E945A050E948F0580932F020E94DC
S11303908F0580932E020E94870580932D020E9470
S11303A0970520912F02332727FD3095322F2227DE
S11303B080912E02282B30932902209328028091C9
S11303C02A0290912B02281B390B30932702209389
S11303D0260204C02091260230912702822F932FF7
S11303E0CF9108950E94640190932B0280932A0276
S11303F08DEB90E00E94781B60912A0270912B0291
S1130400882777FD8095982F0E94BA1B08951ABA01
S113041080E487B987E886B98AEC90E00E94881B5B
S1130420089583E087B9369A3699FECF24B130E037
S1130430309335022093340245B1942F80E0282B69
S1130440392B3093350220933402822F932F089551
S1130450CF93DF93D82FC62F0E944A0586ED90E0F4
S11304600E9466058D2F90E00E9471058C2F90E00C
S11304700E947C050E949705DF91CF9108956FE05B
S113048080E20E94280260E281E20E94280260E188
S113049084E20E9428028EED90E00E94881B089559
S11304A08F929F92AF92BF92CF92DF92EF92FF9280
S11304B00F931F93CF93DF93EC010E944A0586EDBF
S11304C090E00E94660588EA90E00E9471050E940F
S11304D0540587ED90E00E945A050E948F05809391
S11304E04A020E948F0580934B020E948F058093DD
S11304F046020E948F05809347020E948F058093D5
S113050042020E948705809343020E9497056091EE
S11305104B02772767FD7095762F662780914A02F4
S1130520682B7093490260934802E0904702FF24CD
S1130530E7FCF094FE2CEE2480914602E82AF09227
S11305404502E092440200914302112707FD1095F1
S1130550102F002780914202082B10934102009330
S11305604002882777FD8095982F0E94451D29E237
S11305703CE54FE05CE30E945E1E0E94121D4B01AD
S11305805C01B701882777FD8095982F0E94451D4F
S113059029E23CE54FE05CE30E945E1E0E94121DCE
S11305A06B017C01B801882777FD8095982F0E9404
S11305B0451D29E23CE54FE05CE30E945E1E0E947B
S11305C0121D20913602309137022130310521F578
S11305D000913C0210913D02222717FD2095322FF5
S11305E0801A910AA20AB30A00913A0210913B02BE
S11305F0222717FD2095322FC01AD10AE20AF30AE6
S11306000091380210913902222717FD2095322FCC
S1130610601B710B820B930B88829982AA82BB8226
S1130620CC82DD82EE82FF82688779878A879B8706
S1130630CE01DF91CF911F910F91FF90EF90DF904A
S1130640CF90BF90AF909F908F900895CF93DF93FA
S1130650CDB7DEB72C970FB6F894DEBF0FBECDBF73
S113066020913E0230913F022A303105ACF52F5FD4
S11306703F4F30933F0220933E02CE0101960E94E9
S1130680500220913C0230913D0289819A81820F6F
S1130690931F90933D0280933C0220913A02309143
S11306A03B028D819E81820F931F90933B02809326
S11306B03A02209138023091390289859A85820F55
S11306C0931F909339028093380220913E02309117
S11306D03F022A3031055CF280913C0290913D0248
S11306E0B9010E94F91E70933D0260933C0280910F
S11306F03A0290913B02B9010E94F91E70933B02A9
S113070060933A028091380290913902B9010E94B3
S1130710F91E70933902609338028BEE90E00E94C8
S1130720881B89EF90E00E94781B60913C027091D5
S11307303D02882777FD8095982F0E94BA1B8DEF84
S113074090E00E94781B60913A0270913B028827E6
S113075077FD8095982F0E94BA1B81E091E00E945A
S1130760781B6091380270913902882777FD809553
S1130770982F0E94BA1B2FE986E891E0215080400F
S11307809040E1F700C0000081E090E090933702D0
S11307908093360285E091E00E94881B2C960FB668
S11307A0F894DEBF0FBECDBFDF91CF910895CF93F4
S11307B0DF93D82FC62F0E944A058CE390E00E9455
S11307C066058D2F90E00E9471058C2F90E00E94A9
S11307D07C050E949705DF91CF91089560E082E047
S11307E00E94D70387E191E00E94881B08952F920D
S11307F03F924F925F926F927F928F929F92AF92AD
S1130800BF92CF92DF92EF92FF920F931F93CF93F9
S1130810DF93CDB7DEB728970FB6F894DEBF0FBECF
S1130820CDBF4B015C0129013A010E944A058CE3CA
S113083090E00E94660583E090E00E9471050E94AA
S113084054058DE390E00E945A050E948F05809321
S113085061020E948F05809360020E948F0580933D
S113086051020E948F05809350020E948F0580934D
S113087059020E948705809358020E949705E090D0
S11308806102FF24E7FCF094FE2CEE2480916002C8
S1130890E82AF0925F02E0925E0280915902992761
S11308A087FD9095382F222780915802A901482B63
S11308B058874F83509357024093560280915102B8
S11308C0992787FD9095982F882720915002822B95
S11308D090934F0280934E0225E33AEF4EE85CE397
S11308E0C301B2010E945E1E062F172F382E292E37
S11308F00E94A71C2B013C01B701882777FD809536
S1130900982F0E94451D6B017C0120E030E04AE7EE
S113091054E4C301B2010E945E1EA70196010E9425
S11309205E1E20E030E04AE754E40E94AA1C0E94C4
S1130930121D7E836D8370935D0260935C0225E3D8
S11309403AEF4EE85CE3C501B4010E945E1E698380
S11309507A838B839C830E94A71C4B015C01EF81EB
S1130960F885BF01882777FD8095982F0E94451D43
S11309702B013C0120E030E04AE754E4C501B40116
S11309800E945E1EA30192010E945E1E20E030E0E0
S11309904AE754E40E94AA1C0E94121D5B01709352
S11309A0550260935402602F712F832D922D0E9463
S11309B0C11E9B01AC01C701B6010E945E1E0E94CC
S11309C0121D70935B0260935A0259814A813B81E4
S11309D02C81652F742F832F922F0E94C11E9B019F
S11309E0AC01C301B2010E945E1E0E94121D7093ED
S11309F05302609352022D813E81B901882777FD0D
S1130A008095982F0E94451D6B017C01B5018827B4
S1130A1077FD8095982F0E94451DA70196010E949D
S1130A20501C905820EE3EE245E652E40E945E1EC1
S1130A300E94121D77232CF070934D0260934C0298
S1130A4006C068597E4F70934D0260934C028091AA
S1130A504C0290914D0228960FB6F894DEBF0FBE5B
S1130A60CDBFDF91CF911F910F91FF90EF90DF9059
S1130A70CF90BF90AF909F908F907F906F905F903A
S1130A804F903F902F90089584E380B986B7856492
S1130A9086BF089584EA86BF06B607FEFDCF81B1FE
S1130AA0887F8830E1F7089584EA86BF06B607FE9A
S1130AB0FDCF089583B986B7846C86BF06B607FE5A
S1130AC0FDCF81B1887F8034E1F7089583B984E84C
S1130AD086BF06B607FEFDCF81B1887F8831E1F776
S1130AE0089583B984E886BF06B607FEFDCF81B1B9
S1130AF0887F8832E1F7089583B984E886BF06B613
S1130B0007FEFDCF81B1887F8832E1F7089584E83C
S1130B1086BF06B607FEFDCF83B190E0089584EC4E
S1130B2086BF06B607FEFDCF83B190E0089586B771
S1130B30846986BF06B604FCFDCF089587B38F6130
S1130B4087BB8AB383608ABB88B3807E88BB8BB340
S1130B508C7F8BBB1FBC8AE08EBD8AEC98E09BBD6A
S1130B608ABD80E48BBF83E085BF85E085BD14BC6E
S1130B7083E291E00E94881B08951F920F920FB6A2
S1130B800F9211242F933F934F935F938F939F93CF
S1130B90AF93BF9380916502863009F499C084F4C1
S1130BA0823009F447C034F48823E9F0813009F035
S1130BB027C12AC0843009F464C00CF073C04BC050
S1130BC08A3009F4D3C034F4883009F4A8C00CF096
S1130BD0B7C08FC08C3009F4F0C00CF4D8C08D308D
S1130BE009F00EC1FBC0C09A809160009091610031
S1130BF0A0916200B09163009BBD8ABD80916502A3
S1130C008F5F80936502FCC0C098809160009091D2
S1130C106100A0916200B091630020EA3FE0A90165
S1130C20481B590B5BBD4ABD809165028F5F809361
S1130C306502E6C0C19A8091640090916500A0911C
S1130C406600B09167009BBD8ABD809165028F5F8D
S1130C5080936502D5C0C19880916400909165002D
S1130C60A0916600B091670020EA3FE0A901481B0B
S1130C70590B5BBD4ABD809165028F5F809365020D
S1130C80BFC0C29A8091680090916900A0916A00E7
S1130C90B0916B009BBD8ABD809165028F5F80938C
S1130CA06502AEC0C2988091680090916900A091DD
S1130CB06A00B0916B0020EA3FE0A901481B590B80
S1130CC05BBD4ABD809165028F5F8093650298C0C9
S1130CD0C39A80916C0090916D00A0916E00B091C8
S1130CE06F009BBD8ABD809165028F5F8093650212
S1130CF087C0C39880916C0090916D00A0916E00A4
S1130D00B0916F0020EA3FE0A901481B590B5BBD7D
S1130D104ABD809165028F5F8093650271C0C49A59
S1130D208091700090917100A0917200B091730055
S1130D309BBD8ABD809165028F5F8093650260C010
S1130D40C4988091700090917100A0917200B0914C
S1130D50730020EA3FE0A901481B590B5BBD4ABD63
S1130D60809165028F5F809365024AC0D89A809112
S1130D70740090917500A0917600B09177009BBDAE
S1130D808ABD809165028F5F8093650239C0D898CF
S1130D908091740090917500A0917600B0917700D5
S1130DA020EA3FE0A901481B590B5BBD4ABD809175
S1130DB065028F5F8093650223C0D99A8091780081
S1130DC090917900A0917A00B0917B009BBD8ABD7F
S1130DD0809165028F5F8093650212C0D9988091DB
S1130DE0780090917900A0917A00B0917B0020EA7C
S1130DF03FE0A901481B590B5BBD4ABD1092650237
S1130E00BF91AF919F918F915F914F913F912F919E
S1130E100F900FBE0F901F9018951F920F920FB650
S1130E200F9211242F938F939F93EF93FF938091AD
S1130E30620290916302019729F410926302109266
S1130E4062020FC020916402E22FF0E084B590E0CA
S1130E50EE0FFF1FE256FD4F918380832F5F209397
S1130E60640214BCFF91EF919F918F912F910F9089
S1130E700FBE0F901F9018951F920F920FB60F92EE
S1130E8011248F939F931092640281E090E09093D9
S1130E906302809362029F918F910F900FBE0F9017
S1130EA01F9018958DE083BF85E78CBF8FE892EC87
S1130EB0A5EFBCE38093B0029093B102A093B20279
S1130EC0B093B30285E391E00E94881B08951F92BA
S1130ED00F920FB60F9211248F938091B4028F5FFB
S1130EE08093B402833028F081E08093B50210929D
S1130EF0B4028F910F900FBE0F901F90189581B57B
S1130F008D6081BD08950F931F93FC01419144238B
S1130F1081F1842F80538A3080F500E010E098013D
S1130F2004C0842F80538A3058F5D901C801880F32
S1130F30991FAA1FBB1F8C019D01000F111F221FA7
S1130F40331F000F111F221F331F800F911FA21F79
S1130F50B31F042F10E000531109222717FD209519
S1130F60322F080F191F2A1F3B1F41914111D9CF5E
S1130F7007C000E010E0980103C000E010E0980111
S1130F80602F712F822F932F1F910F910895CF936C
S1130F90DF93CDB7DEB7C355D1090FB6F894DEBFE2
S1130FA00FBECDBF0E94F51A04B603FE05C081E54D
S1130FB091E00E94781B1EC004B600FE05C089E5BE
S1130FC091E00E94781B16C004B602FE05C082E6BA
S1130FD091E00E94781B0EC004B601FE05C08DE6A8
S1130FE091E00E94781B06C064B770E080E090E056
S1130FF00E949C1B84B7807F84BF2FE73FE482E17B
S1131000215030408040E1F700C000000E944405B8
S11310108091A2009091A300019721F40E943F02C5
S11310200E9426038091A0009091A100019711F4E1
S11310300E94860080919E0090919F00019721F468
S11310400E944B010E94F20180912B0390912C038A
S1131050019711F40E94EE0380919C0090919D00F1
S1131060019711F40E940702F8940E9452070E940B
S11310709E0582E589BF78940E947F0780912E03A4
S11310808130B1F564E771E082E994E00E947E1F4B
S1131090282F392F232B81F4E2E9F4E0AFE2B3E007
S11310A080EB01900D928A95E1F7E2E9F4E0DF012B
S11310B020EB1D922A95E9F76AE771E082E994E052
S11310C00E947E1F282F392F232B81F4E2E9F4E0BC
S11310D0AFEDB3E080EB01900D928A95E1F7E2E980
S11310E0F4E0DF0120EB1D922A95E9F710922E031C
S11310F08091B502813011F00C94F21A1092B5026D
S11311008091A2009091A300019709F0A8C0CE019C
S11311100D960E945002ED84E092F00539883092D9
S113112031064D884092E2058090910090909200A3
S1131130A0909300B0909400A501940160E070E049
S113114080E89FE30E94DC1B562E772E082F192F70
S11311506E2D772767FD7095872F972F0E94451D69
S1131160252D372D402F512F0E945E1E6B017C01CF
S113117060911606772767FD7095872F972F0E9439
S1131180451D9B01AC01C501B4010E945E1E9B017B
S1131190AC01C701B6010E94DD1B0E94121D662E20
S11311A060931606632D772767FD7095872F972F19
S11311B00E94451D9B01AC01652D772D802F912F39
S11311C00E945E1E6B017C016091FF05772767FD1D
S11311D07095872F972F0E94451D9B01AC01C50177
S11311E0B4010E945E1E9B01AC01C701B6010E94BE
S11311F0DD1B0E94121DF62E6093FF05642D7727D8
S113120067FD7095872F972F0E94451D9B01AC01A8
S1131210652D772D802F912F0E945E1E1B012C01BE
S113122060913206772767FD7095872F972F0E946C
S1131230451D9B01AC01C501B4010E945E1E9B01CA
S1131240AC01C201B1010E94DD1B0E94121D60931A
S11312503206F09245066092D705609303038091AD
S1131260A0009091A100019709F062C0CE010196FF
S11312700E949300A980BA80B092E505A092E4058B
S11312800D811E8110932A060093290669857A85AB
S11312907093FA056093F905719561957109882732
S11312A077FD8095982F0E94451D6B017C01B50147
S11312B0882777FD8095982F0E94451DA7019601E8
S11312C00E94501C20E030E044E353E40E945E1E80
S11312D02BED3FE049E450E40E94AA1C6093E7022E
S11312E07093E8028093E9029093EA0266277727D5
S11312F0601B710B882777FD8095982F0E94451DF0
S1131300A70196010E94501C20E030E044E353E41E
S11313100E945E1E2BED3FE049E450E40E94AA1CAB
S11313206093E3027093E4028093E5029093E602F3
S113133080919E0090919F00019709F043C00E9404
S113134064019093110680931006C0909800D09089
S11313509900E0909A00F0909B00BC01882777FDEB
S11313608095982F0E94451D4B015C01A7019601B1
S113137060E070E080E89FE30E94DC1B9B01AC010D
S1131380C501B4010E945E1E4B015C01609104061C
S113139070910506882777FD8095982F0E94451D3A
S11313A09B01AC01C701B6010E945E1E9B01AC010A
S11313B0C501B4010E94DD1B0E94121D7093050635
S11313C06093040680912B0390912C030197B1F450
S11313D020911706309118064091190650911A066B
S11313E06091FB027091FC028091FD029091FE02DB
S11313F00E94F703909347068093460680919C00D1
S113140090919D00019709F08CC08091040388306D
S113141009F082C00E9411029093AA058093A90545
S11314208091B60281113AC08F5F8093B6020E9408
S11314301102BC01882777FD8095982F0E94451DD5
S11314409B01AC016091090370910A0380910B0325
S113145090910C030E94DD1B6093090370930A03AF
S113146080930B0390930C038091B6028A30E0F2D0
S113147020E030E040E251E46091090370910A03F6
S113148080910B0390910C030E94AA1C60930903A2
S113149070930A0380930B0390930C036091A90546
S11314A07091AA05882777FD8095982F0E94451D85
S11314B02091090330910A0340910B0350910C03CE
S11314C00E94DC1B2DEC3CEC4CEC5DE30E945E1EA8
S11314D06B017C016091B5057091B605882777FD95
S11314E08095982F0E94451D26E636E646E65FE382
S11314F00E945E1E9B01AC01C701B6010E94DD1B68
S11315000E94121D7093AE056093AD057093B605ED
S11315106093B50510920403809104038F5F809358
S113152004038091DF029091E002A091E102B09166
S1131530E2028CAF9DAFAEAFBFAF8090B00290908F
S1131540B102A090B202B090B3026091FF05772778
S113155067FD7095872F972F0E94451D2CAD3DADDB
S11315604EAD5FAD0E94DC1BA50194010E945E1E7E
S113157020911706309118064091190650911A06C9
S11315800E94DD1B29966FAF29972A967FAF2A9771
S11315902B968FAF2B972C969FAF2C9775016401D8
S11315A0F7FAF094F7F8F0944090CF055090D005F6
S11315B06090D1057090D20580918600909187004B
S11315C0A0918800B09189008D8F9E8FAF8FB8A3B2
S11315D02091DE053091DF054091E0055091E10551
S11315E0C301B2010E94DD1B2D8D3E8D4F8D58A18C
S11315F00E94DC1B9B01AC01C701B6010E945E1E68
S11316002091F1053091F2054091F3055091F405D4
S11316100E94DD1B698F7A8F8B8F9C8F8091DB02F8
S11316209091DC02A091DD02B091DE0224968CAF91
S11316309DAFAEAFBFAF24979C01AD01C701B6010A
S11316400E945E1E9B01AC01C301B2010E94DD1B1E
S113165069A37AA38BA39CA3209182003091830079
S11316604091840050918500C501B4010E945E1E22
S11316702D966FAF2D972E967FAF2E972F968FAF07
S11316802F9760969FAF60978091D3029091D40278
S1131690A091D502B091D60228968CAF9DAFAEAF83
S11316A0BFAF289760911606772767FD7095872F3F
S11316B0972F0E94451D28962CAD3DAD4EAD5FADD4
S11316C028970E94DC1B9B01AC01C501B4010E9458
S11316D05E1E2091FB023091FC024091FD0250916C
S11316E0FE020E94DD1B61966FAF619762967FAF29
S11316F0629763968FAF639764969FAF64974090A9
S11317001F065090200660902106709022062091BA
S11317101B0630911C0640911D0650911E06C30104
S1131720B2010E94DD1B2D8D3E8D4F8D58A10E946C
S1131730DC1B9B01AC01C701B6010E945E1E209117
S1131740B7053091B8054091B9055091BA050E948A
S1131750DD1B6D8F7DA38EA39FA38090CF029090FD
S1131760D002A090D102B090D202A5019401C70189
S1131770B6010E945E1E9B01AC01C301B2010E942E
S1131780DD1B68A779A78AA79BA729967FAD299710
S11317902A966FAD2A972B969FAD2B972C968FADDB
S11317A02C97272F362F492F582F6091E7027091DD
S11317B0E8028091E9029091EA020E94DC1B6CAB82
S11317C07DAB8EAB9FAB472F382F292F862F942FBD
S11317D0A32FB22F8093E6059093E705A093E80525
S11317E0B093E905C0907E00D0907F00E090800027
S11317F0F0908100A7019601B98DAA8DFB8DEC8D27
S11318006B2F7A2F8F2F9E2F0E94DD1B162F072FF1
S1131810782E692E862F902FA72DB62D8093A305A1
S11318209093A405A093A505B093A605212F302F6E
S11318304A2F5B2FB98DAA8DFB8DEC8D6B2F7A2FE0
S11318408F2F9E2F0E94AA1C562E472E382E292EEB
S1131850862F942DA32DB22D8093910590939205FC
S1131860A0939305B0939405212F302F472D562D27
S1131870B9A1AAA1FBA1ECA16B2F7A2F8F2F9E2FC8
S11318800E94AA1C6CA77DA78EA79FA7472F382F5D
S1131890292F862F942FA32FB22F8093D7029093B2
S11318A0D802A093D902B093DA0261967FAD619712
S11318B062966FAD629763969FAD639764968FADA2
S11318C06497272F362F492F582F6091E302709188
S11318D0E4028091E5029091E6020E94DC1B68AF6D
S11318E079AF8AAF9BAF472F382F292F862F942F9C
S11318F0A32FB22F80932B0690932C06A0932D0632
S1131900B0932E06A7019601BD8DADA1FEA1EFA156
S11319106B2F7A2F8F2F9E2F0E94DD1B162F072FE0
S1131920F82EE92E862F902FAF2DBE2D8093120610
S113193090931306A0931406B0931506212F302F0D
S11319404A2F5B2FBD8DADA1FEA1EFA16B2F7A2F86
S11319508F2F9E2F0E94AA1C662E772EC82ED92E5A
S1131960862F972DAC2DBD2D80933306909334068E
S1131970A0933506B0933606212F302F4F2D5E2DC0
S1131980B8A5A9A5FAA5EBA56B2F7A2F8F2F9E2FAB
S11319900E94AA1C68AB79AB8AAB9BAB472F382F4C
S11319A0292F862F942FA32FB22F8093CB029093AD
S11319B0CC02A093CD02B093CE02252D342D432D1D
S11319C0522DBCA9ADA9FEA9EFA96B2F7A2F8F2F99
S11319D09E2F0E945E1E9B01AC012996BFAD2997E4
S11319E02A96AFAD2A972B96FFAD2B972C96EFAD89
S11319F02C976B2F7A2F8F2F9E2F0E94DD1B6093C5
S1131A001706709318068093190690931A067CA5FE
S1131A106DA59EA58FA5272F362F492F582FBCA91A
S1131A20ADA9FEA9EFA96B2F7A2F8F2F9E2F0E94AD
S1131A305E1E9B01AC016CAD7DAD8EAD9FAD0E9471
S1131A40DD1B6093DF027093E0028093E1029093C8
S1131A50E202252D342D432D522DB98DAA8DFB8DF7
S1131A60EC8D6B2F7A2F8F2F9E2F0E945E1E9B0171
S1131A70AC01B98DAA8DFB8DEC8D6B2F7A2F8F2F36
S1131A809E2F0E94DC1BE62EF72E082F192F862F7F
S1131A909F2DA02FB12F8093F1059093F205A09371
S1131AA0F305B093F405252D342D432D522DB9A102
S1131AB0AAA1FBA1ECA16B2F7A2F8F2F9E2F0E943E
S1131AC05E1E9B01AC01B9A1AAA1FBA1ECA16B2FE5
S1131AD07A2F8F2F9E2F0E94DC1B698F7A8F8B8F1A
S1131AE09C8F472F382F292F862F942FA32FB22F67
S1131AF08093CF059093D005A093D105B093D205E0
S1131B002E2D3F2D402F512FBCA5ADA5FEA5EFA531
S1131B106B2F7A2F8F2F9E2F0E945E1E9B01AC018C
S1131B20B9A1AAA1FBA1ECA16B2F7A2F8F2F9E2F15
S1131B300E94DC1B6093DE057093DF058093E00553
S1131B409093E1052D967FAD2D972E966FAD2E9730
S1131B502F969FAD2F9760968FAD6097272F362FC6
S1131B60492F582F24966CAD7DAD8EAD9FAD249733
S1131B700E94DD1B1B012C01798D6A8D9B8D8C8D40
S1131B80272F362F492F582FBCA5ADA5FEA5EFA5AD
S1131B906B2F7A2F8F2F9E2F0E945E1E9B01AC010C
S1131BA0C201B1010E94DC1B6093DB027093DC0272
S1131BB08093DD029093DE02262D372D4C2D5D2D72
S1131BC0B8ADA9ADFAADEBAD6B2F7A2F8F2F9E2F49
S1131BD00E945E1E9B01AC016196BFAD6197629647
S1131BE0AFAD62976396FFAD63976496EFAD64976C
S1131BF06B2F7A2F8F2F9E2F0E94DD1B6093FB0289
S1131C007093FC028093FD029093FE0278A969A967
S1131C109AA98BA9272F362F492F582FB8ADA9ADD4
S1131C20FAADEBAD6B2F7A2F8F2F9E2F0E945E1E85
S1131C309B01AC0128966CAD7DAD8EAD9FAD289710
S1131C400E94DD1B6093D3027093D4028093D5026B
S1131C509093D602262D372D4C2D5D2DBD8DADA133
S1131C60FEA1EFA16B2F7A2F8F2F9E2F0E945E1E55
S1131C709B01AC01BD8DADA1FEA1EFA16B2F7A2F0D
S1131C808F2F9E2F0E94DC1BE62EF72E082F192F74
S1131C90862F9F2DA02FB12F8093B7059093B80561
S1131CA0A093B905B093BA05262D372D4C2D5D2D83
S1131CB0B8A5A9A5FAA5EBA56B2F7A2F8F2F9E2F78
S1131CC00E945E1E9B01AC01B8A5A9A5FAA5EBA5CF
S1131CD06B2F7A2F8F2F9E2F0E94DC1B662E772E60
S1131CE0C82ED92E862F972DAC2DBD2D80931F067F
S1131CF090932006A0932106B09322062E2D3F2D0B
S1131D00402F512FB8A9A9A9FAA9EBA96B2F7A2FB3
S1131D108F2F9E2F0E945E1E9B01AC01B8A5A9A522
S1131D20FAA5EBA56B2F7A2F8F2F9E2F0E94DC1B19
S1131D3060931B0670931C0680931D0690931E06E9
S1131D40A50194012D96BFAD2D972E96AFAD2E977C
S1131D502F96FFAD2F976096EFAD60976B2F7A2F7C
S1131D608F2F9E2F0E94DD1B4B015C01262D372DEA
S1131D704C2D5D2DB8A9A9A9FAA9EBA96B2F7A2F2F
S1131D808F2F9E2F0E945E1E9B01AC01C501B401E2
S1131D900E94DC1B6093CF027093D0028093D10227
S1131DA09093D20286E693E00E948307609308062C
S1131DB07093090680930A0690930B0680E593E0DE
S1131DC00E9483076093EA057093EB058093EC050A
S1131DD09093ED0587E893E00E94830724E630E0C2
S1131DE040E050E00E940D1F3093CA022093C902C4
S1131DF0C090C102D090C202E090C302F090C4022D
S1131E00C701B60120E836E948E950E00E942F1FD7
S1131E10822E2093E305C701B60120EA36E841E0AB
S1131E2050E00E942F1F122F94E6899E101911244E
S1131E301093C002992487FC9094A92CB92CA12F4B
S1131E40BB27A7FDB09520E639E74EEF5FEF0E9470
S1131E50561F2B013C01A501940160E879E687E651
S1131E609FEF0E94E91E460E571E681E791EC40C81
S1131E70D51CE61CF71CC092BC02D092BD02E092B5
S1131E80BE02F092BF0268E971EB81E090E00E942B
S1131E90E91E2AE337E012034001139F900C11243A
S1131EA0AA2497FCA094BA2C860E971EA81EB91ECD
S1131EB0A4E4B7E0A70196010E944B1F20EA36E88C
S1131EC041E050E00E942F1F820E931EA41EB51EF7
S1131ED08092B8029092B902A092BA02B092BB0268
S1131EE0AEE9B2E08D919C918E3691050CF052C012
S1131EF08091A4029091A502803B91050CF44AC004
S1131F008091A2029091A3028B3A91050CF442C0F5
S1131F108091A0029091A1028B3A9105DCF180910D
S1131F20B702811137C081E08093B70286E693E05F
S1131F300E9483076093990570939A0580939B058B
S1131F4090939C0580E593E00E9483076093C3050A
S1131F507093C4058093C5059093C60580E891E00D
S1131F600E94781B6091C3057091C4058091C505DA
S1131F709091C6050E949C1B8EE891E00E94781BFC
S1131F806091990570919A0580919B0590919C05AB
S1131F900E94BA1BE8EAF2E08081918181399105BF
S1131FA024F083E08093280313C0A8EAB2E08D9163
S1131FB09C9111978C38910544F08D919C918039B6
S1131FC091051CF41092280303C082E08093280337
S1131FD08091280390912703981721F091E0909322
S1131FE0260302C010922603823009F438C220F47A
S1131FF0882351F00C94EA19833009F44BC48430DB
S113200011F00C94EA19FDC080912603813021F46B
S113201085E991E00E94881BEEE9F2E0208131819C
S1132020220F331FC901880F991F880F991F880F2A
S1132030991F821B930B8E5D9E4FAA2797FDA09537
S1132040BA2FE0E6F0E080839183A283B3832091EA
S1132050A0023091A1024FE0429FC001439F900D26
S113206011248A569F4FAA2797FDA095BA2FE4E61C
S1132070F0E080839183A283B3832091A202309104
S1132080A302429FC001439F900D1124AA2797FDEC
S1132090A095BA2F8093680090936900A0936A007A
S11320A0B0936B002091A4023091A502220F331F3C
S11320B0C901880F991F880F991F880F991F821BC8
S11320C0930B8E5D9E4FAA2797FDA095BA2F809300
S11320D06C0090936D00A0936E00B0936F0080919C
S11320E0A6029091A702873891053CF48091A6023C
S11320F09091A70289379105FCF48091A6029091F2
S1132100A702863991053CF48091A6029091A7021A
S113211088389105A4F48091A6029091A702803A90
S1132120910584F48091A6029091A70287399105C4
S113213064F486EE95E00BC086EE95E008C08CE66C
S113214097E005C086EE95E002C08CEF98E04091E0
S11321507000509171006091720070917300A0E062
S1132160B0E0481759076A077B0774F4E0E7F0E02A
S113217080819181A281B3810A96A11DB11D8083C2
S11321809183A283B38323C0409170005091710066
S1132190609172007091730084179507A607B707C2
S11321A074F4E0E7F0E080819181A281B3810A9721
S11321B0A109B10980839183A283B38308C080936A
S11321C0700090937100A0937200B09373008AEC36
S11321D098E0A0E0B0E08093740090937500A09321
S11321E07600B093770085E892E0A0E0B0E08093B9
S11321F0780090937900A0937A00B0937B000C94BC
S1132200EA19809126038130F1F481EA91E00E9479
S1132210881B10920C0610920D0610920E06109256
S11322200F066091AD057091AE05882777FD809506
S1132230982F0E94451D6093390670933A06809347
S11322403B0690933C062091A0023091A1024FE0FE
S1132250429FC001439F900D11248A569F4FAA2785
S113226097FDA095BA2FE4E6F0E080839183A283E2
S1132270B3832091A2023091A302429FC001439FE5
S1132280900D1124AA2797FDA095BA2F809368007A
S113229090936900A0936A00B0936B002091A4020C
S11322A03091A502220F331FC901880F991F880F8F
S11322B0991F880F991F821B930B8E5D9E4FAA272F
S11322C097FDA095BA2F80936C0090936D00A09316
S11322D06E00B0936F002091300230913102409132
S11322E03202509133026091390670913A0680911E
S11322F03B0690913C060E94DC1B262E372E082FAD
S1132300192F862F932DA02FB12F8093CB05909357
S1132310CC05A093CD05B093CE0520910C06309149
S11323200D0640910E0650910F06622D732D802FDD
S1132330912F0E94DD1BC62ED72EE82EF92E862F54
S11323409D2DAE2DBF2D80930C0690930D06A0936A
S11323500E06B0930F0660911D0370911E038091C9
S11323601F03909120030E94451D4B015C01609165
S11323709600772767FD7095872F972F0E94451D3C
S11323809B01AC01622D732D802F912F0E945E1E44
S11323902B013C0160919500772767FD7095872F8D
S11323A0972F0E94451D9B01AC016C2D7D2D8E2D18
S11323B09F2D0E945E1E2091B0023091B102409187
S11323C0B2025091B3020E945E1E9B01AC01C30194
S11323D0B2010E94DD1B9B01AC01C501B4010E9446
S11323E0DD1B0E94121DA0E6B0E06D937D938D93DA
S11323F09C9313978D919D910D90BC91A02D893B39
S11324009B40A105B1055CF088EB9BE0A0E0B0E047
S1132410E0E6F0E080839183A283B38313C0E0E617
S1132420F0E080819181A281B381883E9340A1052F
S1132430B10544F488EE93E0A0E0B0E0808391839A
S1132440A283B383822D932DA02FB12F80930503F4
S113245090930603A0930703B0930803BBC780912E
S11324602603813009F006C181EB91E00E94881BAC
S113247080910406909105069093B0058093AF0572
S1132480909314038093130380914606909147061A
S11324909093300680932F068091FB029091FC026A
S11324A0A091FD02B091FE028093F7029093F8028E
S11324B0A093F902B093FA028093B1059093B20508
S11324C0A093B305B093B4058091170690911806B4
S11324D0A0911906B0911A068093D3059093D40560
S11324E0A093D505B093D6056091AD057091AE0566
S11324F0882777FD8095982F0E94451D60933906A3
S113250070933A0680933B0690933C068091680052
S113251090916900A0916A00B0916B0080932103AF
S113252090932203A0932303B0932403E4E6F0E002
S113253080819181A281B3818093190390931A03BE
S1132540A0931B03B0931C03E0E6F0E0808191812B
S1132550A281B38180931D0390931E03A0931F0354
S1132560B093200380916C0090916D00A0916E0057
S1132570B0916F008093150390931603A0931703F3
S1132580B0931803109212031092110310921003C7
S113259010920F0310920E0310920D031092CB05AC
S11325A01092CC051092CD051092CE0510920C0617
S11325B010920D0610920E0610920F061092BB0593
S11325C01092BC051092BD051092BE051092000633
S11325D01092010610920206109203061092FF0256
S11325E01092000310920103109202031092F3025E
S11325F01092F4021092F5021092F6021092EF0279
S11326001092F0021092F1021092F2021092EB0278
S11326101092EC021092ED021092EE0280EC91E026
S11326200E94781B6091AF057091B005882777FDF3
S11326308095982F0E949C1B8DED91E00E94781B41
S113264060912F0670913006882777FD8095982F2A
S11326500E949C1B8DED91E00E94781B60913906CD
S113266070913A0680913B0690913C060E94121D9F
S11326700E94BA1B2091A0023091A1024FE0429F18
S1132680C001439F900D11248A569F4FAA2797FD9E
S1132690A095BA2FE4E6F0E080839183A283B3830C
S11326A02091A2023091A302429FC001439F900D4A
S11326B01124AA2797FDA095BA2F809368009093C0
S11326C06900A0936A00B0936B002091A40230913A
S11326D0A502220F331FC901880F991F880F991F64
S11326E0880F991F821B930B8E5D9E4FAA2797FD1F
S11326F0A095BA2F80936C0090936D00A0936E0008
S1132700B0936F006091AD057091AE05882777FD99
S11327108095982F0E94451D9B01AC01609139065C
S113272070913A0680913B0690913C060E94DC1B16
S1132730662E772E082F192F862F972DA02FB12FB5
S11327408093CB059093CC05A093CD05B093CE0593
S113275020910C0630910D0640910E0650910F0603
S1132760662D772D802F912F0E94DD1B262E372E6C
S1132770482E592E862F932DA42DB52D80930C060B
S113278090930D06A0930E06B0930F0660911D035F
S113279070911E0380911F03909120030E94451D98
S11327A06B017C0160919600772767FD7095872FF8
S11327B0972F0E94451D9B01AC01662D772D802F1C
S11327C0912F0E945E1E9B01AC01C701B6010E94BD
S11327D0DD1B4B015C0160919500772767FD7095C7
S11327E0872F972F0E94451D9B01AC01622D732DED
S11327F0842D952D0E945E1E2091B0023091B1026D
S11328004091B2025091B3020E945E1E9B01AC0142
S1132810C501B4010E94DD1B0E94121DA0E6B0E0B8
S11328206D937D938D939C9313978D919D910D90B2
S1132830BC91A02D893B9B40A105B1055CF088EBC0
S11328409BE0A0E0B0E0E0E6F0E080839183A28327
S1132850B38313C0E0E6F0E080819181A281B3816B
S11328608A3E9640A105B10544F48AEE96E0A0E0C4
S1132870B0E080839183A283B383862D972DA02F0C
S1132880B12F8093050390930603A0930703B0939D
S11328900803A0C580912603813009F004C181EEAC
S11328A091E00E94881B8091040690910506909304
S11328B0B0058093AF059093140380931303809124
S11328C0C9029091CA029093300680932F0680919A
S11328D0FB029091FC02A091FD02B091FE02809354
S11328E0F7029093F802A093F902B093FA0280934E
S11328F0B1059093B205A093B305B093B40580914C
S1132900170690911806A0911906B0911A068093A3
S1132910D3059093D405A093D505B093D6058091A3
S1132920300290913102A0913202B091330280932F
S1132930390690933A06A0933B06B0933C068091E7
S1132940680090916900A0916A00B0916B00809337
S1132950210390932203A0932303B0932403E4E67A
S1132960F0E080819181A281B381809319039093D7
S11329701A03A0931B03B0931C03E0E6F0E08081EC
S11329809181A281B38180931D0390931E03A09330
S11329901F03B093200380916C0090916D00A0916F
S11329A06E00B0916F008093150390931603A0936B
S11329B01703B0931803109212031092110310928C
S11329C0100310920F0310920E0310920D03109235
S11329D0CB051092CC051092CD051092CE05109225
S11329E00C0610920D0610920E0610920F0610920D
S11329F0BB051092BC051092BD051092BE05109245
S1132A00000610920106109202061092030610921C
S1132A10FF0210920003109201031092020310921D
S1132A20F3021092F4021092F5021092F602109240
S1132A30EF021092F0021092F1021092F202109240
S1132A40EB021092EC021092ED021092EE0280EC76
S1132A5091E00E94781B6091AF057091B0058827C2
S1132A6077FD8095982F0E949C1B8DED91E00E942C
S1132A70781B60912F0670913006882777FD80952A
S1132A80982F0E949C1B8DED91E00E94781B609111
S1132A90390670913A0680913B0690913C060E945B
S1132AA0121D0E94BA1B8091AA029091AB028B590D
S1132AB091094E974CF480911303909114039093D1
S1132AC0B0058093AF0509C080911303909114035E
S1132AD00A969093B0058093AF052091AF0530918D
S1132AE0B0058091040690910506281B390B30939C
S1132AF0120320931103409197004203B001439FB6
S1132B00700D1124882777FD8095982F0E94451D0C
S1132B106B017C0120E030E040E251EC0E94A31CF8
S1132B2088236CF480E090E0A0E2B1EC8093D305BC
S1132B309093D405A093D505B093D6051FC020E08B
S1132B4030E040EA51E4C701B6010E94531E181652
S1132B504CF0C092D305D092D405E092D505F09202
S1132B60D6050CC080E090E0A0EAB1E48093D305E0
S1132B709093D405A093D505B093D6052091D305A1
S1132B803091D4054091D5055091D6056091170632
S1132B90709118068091190690911A060E94DC1B08
S1132BA0262E372E082F192F862F932DA02FB12FC5
S1132BB08093BB059093BC05A093BD05B093BE055F
S1132BC020910006309101064091020650910306BF
S1132BD0622D732D802F912F0E94DD1B462E572EC0
S1132BE0682E792E862F952DA62DB72D809300065D
S1132BF090930106A0930206B0930306C090B0021E
S1132C00D090B102E090B202F090B30260919000D3
S1132C10772767FD7095872F972F0E94451D9B018D
S1132C20AC01622D732D802F912F0E945E1E4B01EB
S1132C305C0160918E00772767FD7095872F972F31
S1132C400E94451D9B01AC01642D752D862D972D89
S1132C500E945E1EA70196010E945E1E9B01AC01AC
S1132C60C501B4010E94DD1B4B015C0160918F0022
S1132C70772767FD7095872F972F0E94451D2B019D
S1132C803C01222D332D402F512F6091FF02709172
S1132C90000380910103909102030E94DC1B9B01BD
S1132CA0AC01C301B2010E945E1EA70196010E94FD
S1132CB0AA1C9B01AC01C501B4010E94DD1B0E944A
S1132CC0121D0F2EFAE8EF2EF2E0FF2EF02DD701A1
S1132CD06D937D938D939C931397822D932DA02FA9
S1132CE0B12F8093FF0290930003A0930103B0934C
S1132CF0020390918D008091FF059802C001112478
S1132D00AA2797FDA095BA2F4EE652E0FA018083D8
S1132D109183A283B383D7010D911D912D913C9191
S1132D2040815181628173818091210390912203BA
S1132D30A0912303B0912403800F911FA21FB31FFE
S1132D40841B950BA60BB70BE8E6F0E08083918318
S1132D50A283B38380819181A281B381893B9B400B
S1132D60A105B1056CF088EB9BE0A0E0B0E0809396
S1132D70680090936900A0936A00B0936B0019C037
S1132D808091680090916900A0916A00B0916B00F5
S1132D90883E9340A105B10564F488EE93E0A0E079
S1132DA0B0E08093680090936900A0936A00B093A8
S1132DB06B008091A6029091A7028738910524F5B3
S1132DC08091A6029091A70289379105ECF0809139
S1132DD025038130C9F4109225038091C902909192
S1132DE0CA029093300680932F068EEE91E00E94E3
S1132DF0781B60912F0670913006882777FD8095A7
S1132E00982F0E94BA1B98C08091A6029091A702A5
S1132E10803A91050CF090C08091A6029091A7028F
S1132E20873991050CF488C080912503811184C0F1
S1132E3081E080932503C0909905D0909A05E09095
S1132E409B05F0909C05C0929D05D0929E05E09252
S1132E509F05F092A0058091C3059091C405A091AF
S1132E60C505B091C6058093FB059093FC05A0931E
S1132E70FD05B093FE050091080610910906209106
S1132E800A0630910B06C01AD10AE20AF30AC0926C
S1132E909505D0929605E0929705F09298050091D9
S1132EA0EA051091EB052091EC053091ED05BC018C
S1132EB0CD01601B710B820B930B6093C102709365
S1132EC0C2028093C3029093C4020E94451D4B0129
S1132ED05C01C701B6010E94451DA50194010E9431
S1132EE0501C20EE3EE245E652E40E945E1E0E9423
S1132EF0121D77232CF07093C8026093C70206C09A
S1132F0068597E4F7093C8026093C7028091C702CC
S1132F109091C8029093300680932F068CEF91E035
S1132F200E94781B60912F0670913006882777FDE8
S1132F308095982F0E94BA1B2091C9023091CA0231
S1132F4080912F0690913006281B390BC9018859AE
S1132F509E4F843B91052CF03093AC052093AB0538
S1132F6004C09093AC058093AB050091AB05109120
S1132F70AC058091C5029091C602800F911F909379
S1132F80C6028093C502C090B002D090B102E09016
S1132F90B202F090B30220917D002003B001219F82
S1132FA0700D1124882777FD8095982F0E94451D68
S1132FB04B015C0140917C008091DC059091DD0522
S1132FC09801281B390B4203B001439F700D112453
S1132FD0882777FD8095982F0E94451DA7019601AB
S1132FE00E945E1E9B01AC01C501B4010E94DD1B61
S1132FF04B015C01B7FAB094B7F8B0948092B10574
S11330009092B205A092B305B092B4051093DD0579
S11330100093DC0520E030E040E251ECC501B4014E
S11330200E94A31C88236CF480E090E0A0E2B1EC41
S11330308093B1059093B205A093B305B093B40502
S113304016C020E030E040E251E4C501B4010E9422
S1133050531E181664F480E090E0A0E2B1E480937B
S1133060B1059093B205A093B305B093B405209134
S1133070FB023091FC024091FD025091FE026091EE
S1133080B1057091B2058091B3059091B4050E9489
S1133090DC1B262E372E082F192F862F932DA02FB9
S11330A0B12F8093F3029093F402A093F502B093AE
S11330B0F6022091EF023091F0024091F10250911A
S11330C0F202622D732D802F912F0E94DD1B698FD8
S11330D07A8F8B8F9C8F472F382F292F862F942FF1
S11330E0A32FB22F8093EF029093F002A093F102EA
S11330F0B093F2026091190370911A0380911B033B
S113310090911C030E94451D4B015C0160918C0051
S1133110772767FD7095872F972F0E94451D9B0188
S1133120AC01622D732D802F912F0E945E1E2B0106
S11331303C0160918A00772767FD7095872F972F50
S11331400E94451D9B01AC01B98DAA8DFB8DEC8DB0
S11331506B2F7A2F8F2F9E2F0E945E1E9B01AC0136
S1133160C701B6010E945E1E9B01AC01C301B201FE
S11331700E94DD1B9B01AC01C501B4010E94DD1B53
S11331804B015C0160918B00772767FD7095872F59
S1133190972F0E94451D2B013C01222D332D402FDA
S11331A0512F6091EB027091EC028091ED029091AD
S11331B0EE020E94DC1B9B01AC01C301B2010E9420
S11331C05E1EA70196010E94AA1C9B01AC01C501C9
S11331D0B4010E94DD1B0E94121DA4E6B0E06D93B1
S11331E07D938D939C931397822D932DA02FB12FB4
S11331F08093EB029093EC02A093ED02B093EE0265
S1133200E4E6F0E080819181A281B381893B9B4017
S1133210A105B1054CF088EB9BE0A0E0B0E0808311
S11332209183A283B38313C0E4E6F0E080819181AB
S1133230A281B381883E9340A105B10544F488EE90
S113324093E0A0E0B0E080839183A283B383609194
S1133250AD057091AE05882777FD8095982F0E9463
S1133260451D9B01AC016091390670913A0680912D
S11332703B0690913C060E94DC1B762E072F182FEC
S1133280292E862F902FA12FB22D8093CB059093BA
S1133290CC05A093CD05B093CE0520910C063091BA
S11332A00D0640910E0650910F06672D702F812F49
S11332B0922D0E94DD1B362E472E582E692E862F06
S11332C0942DA52DB62D80930C0690930D06A093F6
S11332D00E06B0930F0660911D0370911E0380913A
S11332E01F03909120030E94451D4B015C016091D6
S11332F09600772767FD7095872F972F0E94451DAD
S11333009B01AC01672D702F812F922D0E945E1EB0
S11333109B01AC01C501B4010E94DD1B4B015C01A2
S113332060919500772767FD7095872F972F0E94EE
S1133330451D9B01AC01632D742D852D962D0E9496
S11333405E1E9B01AC01C701B6010E945E1E9B017B
S1133350AC01C501B4010E94DD1B0E94121DA0E650
S1133360B0E06D937D938D939C9313978D919D9174
S11333700D90BC91A02D893B9B40A105B1055CF04B
S113338088EB9BE0A0E0B0E0E0E6F0E0808391838E
S1133390A283B38313C0E0E6F0E080819181A2812F
S11333A0B3818A3E9640A105B10544F48AEE96E0C5
S11333B0A0E0B0E080839183A283B383872D902F14
S11333C0A12FB22D8093050390930603A0930703C6
S11333D0B09308038091290390912A03019709F07F
S11333E0F6C0A0E6B0E06D917D918D919C910E9414
S11333F09C1B8EE092E00E94781BE4E6F0E0608182
S11334007181828193810E949C1B8EE092E00E94D4
S1133410781B609168007091690080916A009091B6
S11334206B000E949C1B8EE092E00E94781B6091CE
S11334306C0070916D0080916E0090916F000E94FD
S11334409C1B8EE092E00E94781B6091700070914A
S1133450710080917200909173000E949C1B8EE019
S113346092E00E94781B6091FB027091FC028091B3
S1133470FD029091FE020E94121D0E949C1B8EE090
S113348092E00E94781B6091170670911806809153
S1133490190690911A060E94121D0E949C1B8EE030
S11334A092E00E94781B6091C9027091CA02882739
S11334B077FD8095982F0E949C1B8EE092E00E94DD
S11334C0781B6091040670910506882777FD809526
S11334D0982F0E949C1B8EE092E00E94781B6091C2
S11334E0AD057091AE05882777FD8095982F0E94D1
S11334F09C1B8EE092E00E94781B6091AF05709156
S1133500B005882777FD8095982F0E949C1B8EE03C
S113351092E00E94781B6091B1057091B205809190
S1133520B3059091B4050E94121D0E949C1B8EE06D
S113353092E00E94781B6091D3057091D40580912C
S1133540D5059091D6050E94121D0E949C1B8EE009
S113355092E00E94781B6091390670913A0680913E
S11335603B0690913C060E94121D0E949C1B809178
S11335706603882341F18EE092E00E94781B8AE37F
S113358093E00E94781B8EE092E00E94781B86E60E
S113359093E00E94781B8EE092E00E94781B80E505
S11335A093E00E94781B8EE092E00E94781B87E8EB
S11335B093E00E94781B8EE092E00E94781B82E4E4
S11335C094E00E94781B8EE092E00E94881B809118
S11335D0280380932703EEE9F2E0AFE7B5E0119604
S11335E0FC93EE93A8950C943E08F89488E98AB964
S11335F086E880BD10BC8CE089B978948CB15F9961
S1133600FDCF08951F920F920FB60F9211242F939E
S11336108F939F93EF93FF938CB1809390041092B8
S1133620910480938F0410922E0380918F0484322E
S1133630A1F4E0912D03809148062BE0E202F00111
S11336401124E80FF11D87FDFA95EE56FB4F108209
S11336501092480610922D033DC080918F048C3245
S1133660A9F480912D03909148062BE08202F00189
S11336701124E90FF11D97FDFA95EE56FB4F1082C8
S1133680109248068F5F80932D0324C080918F048D
S11336908E3201F180918F048A3021F481E080938D
S11336A02E0318C080918F048A30A1F0E0912D037D
S11336B08091480690918F042BE0E202F0011124DE
S11336C0E80FF11D87FDFA95EE56FB4F90838F5F4F
S11336D080934806FF91EF919F918F912F910F90C6
S11336E00FBE0F901F9018955D9BFECF8CB9089567
S11336F0CF93DF93EC018881882339F0219690E001
S11337000E94741B89918111FACFDF91CF910895A2
S1133710CF93DF93EC018881882339F0219690E0E0
S11337200E94741B89918111FACF80E192E00E947A
S1133730781BDF91CF910895CF93DF93CDB7DEB798
S11337406F970FB6F894DEBF0FBECDBF2AE030E00E
S1133750AE014F5F5F4F0E94871FCE0101960E940A
S1133760781B6F960FB6F894DEBF0FBECDBFDF9106
S1133770CF910895CF93DF93CDB7DEB76F970FB690
S1133780F894DEBF0FBECDBF2AE030E0AE014F5F3C
S11337905F4F0E94871FCE0101960E94781B80E133
S11337A092E00E94781B6F960FB6F894DEBF0FBEAE
S11337B0CDBFDF91CF9108955058BB27AA270ED0D3
S11337C027C2F0D130F0F5D120F031F49F3F11F44D
S11337D01EF4C0C10EF4E095E7FBB6C1E92F3AD25E
S11337E080F3BA17620773078407950718F071F41A
S11337F09EF552C20EF4E0950B2EBA2FA02D0B01AC
S1133800B90190010C01CA01A0011124FF27591B21
S113381099F0593F50F4503E68F11A16F040A22F27
S1133820232F342F4427585FF3CF46953795279598
S1133830A795F0405395C9F77EF41F16BA0B620B97
S1133840730B840BBAF09150A1F0FF0FBB1F661FDE
S1133850771F881FC2F70EC0BA0F621F731F841F21
S113386048F4879577956795B795F7959E3F08F047
S1133870B3CF9395880F08F09927EE0F9795879506
S1133880089590D158F080E891E009F49EEF91D129
S113389028F040E851E059F45EEF09C05BC1FCC177
S11338A0E92FE078D7D168F3092E052AC1F326174A
S11338B037074807590738F00E2E07F8E02569F056
S11338C0E025E0640AC0EF6307F8009407FADB011F
S11338D0B9019D01DC01CA01AD01EF934AD098D131
S11338E00AD05F91552331F02BED3FE049E450FDC0
S11338F049EC63CF0895DF93DD27B92FBF7740E804
S11339005FE31616170648075B0710F4D92FCFD1CB
S11339109F938F937F936F933AD2E4E5F0E01DD1A8
S113392077D12F913F914F915F91D4D1DD2349F00D
S11339309058A2EA2AED3FE049EC5FE3D0785D2796
S11339404DDFDF9165C1DCD008F481E0089539D101
S1133950E3956FC10CD05CC12CD140F023D130F081
S113396021F45F3F19F0F0C0511197C1F3C072D137
S113397098F39923C9F35523B1F3951B550BBB2732
S1133980AA2762177307840738F09F5F5F4F220FDF
S1133990331F441FAA1FA9F333D00E2E3AF0E0E8D8
S11339A030D091505040E695001CCAF729D0FE2F24
S11339B027D0660F771F881FBB1F261737074807B6
S11339C0AB07B0E809F0BB0B802DBF01FF2793586C
S11339D05F4F2AF09E3F510568F0B6C05EC15F3F5D
S11339E0ECF3983EDCF3869577956795B795F79554
S11339F09F5FC9F7880F911D9695879597F908954C
S1133A00E1E0660F771F881FBB1F621773078407E7
S1133A10BA0720F0621B730B840BBA0BEE1F88F7F6
S1133A20E095089504D06894B11137C108951AD16E
S1133A3088F09F5790F0B92F9927B751A0F0D1F093
S1133A40660F771F881F991F1AF0BA95C9F712C01D
S1133A50B13081F021D1B1E008951EC1672F782FD4
S1133A608827B85F39F0B93FCCF386957795679589
S1133A70B395D9F73EF490958095709561957F4FF5
S1133A808F4F9F4F0895E89409C097FB3EF490959B
S1133A908095709561957F4F8F4F9F4F9923A9F023
S1133AA0F92F96E9BB279395F695879577956795B2
S1133AB0B795F111F8CFFAF4BB0F11F460FF1BC0F6
S1133AC06F5F7F4F8F4F9F4F16C0882311F096E989
S1133AD011C0772321F09EE8872F762F05C0662337
S1133AE071F096E8862F70E060E02AF09A95660FF0
S1133AF0771F881FDAF7880F9695879597F90895A9
S1133B00990F0008550FAA0BE0E8FEEF16161706EA
S1133B10E807F907C0F012161306E407F50798F052
S1133B20621B730B840B950B39F40A2661F0232B6B
S1133B30242B252B21F408950A2609F4A140A695E7
S1133B408FEF811D811D089597F99F6780E870E0CC
S1133B5060E008959FEF80EC0895DF93CF931F9367
S1133B600F93FF92EF92DF927B018C01689405C062
S1133B70DA2EEF01AFD0FE01E894A591259135919D
S1133B8045915591AEF3EF0129DEFE019701A8019D
S1133B90DA9479F7DF90EF90FF900F911F91CF9116
S1133BA0DF91089500240A941616170618060906CC
S1133BB0089500240A94121613061406050608959F
S1133BC0C9CF50D0E8F3E894E0E0BB279F57F0F06A
S1133BD02AED3FE049EC06C0EE0FBB0F661F771FCE
S1133BE0881F28F0B23A62077307840728F0B25A94
S1133BF0620B730B840BE3959A9572F7803830F45B
S1133C009A95BB0F661F771F881FD2F79048C4C0D0
S1133C10092E0394000C11F4882352F0BB0F40F4D6
S1133C20BF2B11F460FF04C06F5F7F4F8F4F9F4F16
S1133C300895EF93E0FF06C0A2EA2AED3FE049ECC5
S1133C405FEBCCDDE5DF0F90039401FC9058E1E8D5
S1133C50F0E0AEC057FD9058440F551F59F05F3F38
S1133C6071F04795880F97FB991F61F09F3F79F09A
S1133C7087950895121613061406551FF2CF46951C
S1133C80F1DF08C0161617061806991FF1CF86959E
S1133C907105610508940895E894BB276627772782
S1133CA0CB0197F908952CDF08F48FEF08959B0159
S1133CB0AC0160E070E080E89FE34CCE0BD0A8CF6D
S1133CC071DF28F076DF18F0952309F03DCF42CF5D
S1133CD01124E3CFBFDFA0F3959FD1F3950F50E0FC
S1133CE0551F629FF001729FBB27F00DB11D639FAA
S1133CF0AA27F00DB11DAA1F649F6627B00DA11D50
S1133D00661F829F2227B00DA11D621F739FB00DF5
S1133D10A11D621F839FA00D611D221F749F332765
S1133D20A00D611D231F849F600D211D822F762FFE
S1133D306A2F11249F5750408AF0E1F088234AF0FB
S1133D40EE0FFF1FBB1F661F771F881F9150504047
S1133D50A9F79E3F510570F0F7CE9FCF5F3FECF37C
S1133D60983EDCF3869577956795B795F795E79533
S1133D709F5FC1F7FE2B880F911D9695879597F944
S1133D8008959F931EDF0F9007FCEE5F52CF9B01B7
S1133D90AC0194CF9F3F31F0915020F487957795F3
S1133DA06795B795880F911D9695879597F908950E
S1133DB09F938F937F936F93FF93EF939B01AC013A
S1133DC07DDFEF91FF91C9DE2F913F914F915F917C
S1133DD075CFDB018F939F930E944B1FBF91AF91CF
S1133DE0A29F800D911DA39F900DB29F900D112451
S1133DF0089597FB072E16F4009407D077FD09D099
S1133E000E945E1F07FC05D03EF4909581959F4F5C
S1133E100895709561957F4F0895A1E21A2EAA1B0B
S1133E20BB1BFD010DC0AA1FBB1FEE1FFF1FA21766
S1133E30B307E407F50720F0A21BB30BE40BF50B63
S1133E40661F771F881F991F1A9469F760957095EC
S1133E50809590959B01AC01BD01CF010895052E7D
S1133E6097FB16F4009407D057FD0DD00E940D1F48
S1133E7007FC09D07EF490958095709561957F4FED
S1133E808F4F9F4F089550954095309521953F4F02
S1133E904F4F5F4F08950E94721FA59F900DB49FCE
S1133EA0900DA49F800D911D11240895B7FF0C94CB
S1133EB04B1F0E944B1F821B930B0895AA1BBB1B15
S1133EC051E107C0AA1FBB1FA617B70710F0A61B16
S1133ED0B70B881F991F5A95A9F780959095BC0137
S1133EE0CD010895A29FB001B39FC001A39F01D04B
S1133EF0B29F700D811D1124911D0895FB01DC01F9
S1133F008D91019080190110D9F3990B0895FA014C
S1133F10CF93FF93EF93223044F1253234F5C22F2F
S1133F20E894CA3049F497FB3EF4909580957095D7
S1133F3061957F4F8F4F9F4F2C2F33274427552751
S1133F40FF93EF930E940D1FEF91FF91605D6A3321
S1133F500CF0695D6193B901CA0160507040804002
S1133F60904051F716F4CDE2C19310828F919F9146
S1133F70CF910C94BB1FDC01FC01672F7191772357
S1133F80E1F7329704C07C916D9370836291AE1710
S10D3F90BF07C8F30895F894FFCFAB
S1133F9ACA080000CA080000CA080000CA080000CB
S1133FAAE6050000CA0800008502000001010AD7DC
S1133FBAA33C0AD7A33B0AD7A33B0A0314090A0161
S1133FCA0A3333333F0101019A99993E01000100F2
S1133FDA0100010061636320737461727465640093
S1133FEA6261726F207374617274656400626172D3
S1133FFA6F5F6F66667365742000414443206F6B7C
S113400A004144435F6F66667365743A20006779BA
S113401A726F2073746172746564004779726F20D9
S113402A4F66667365743A2000703A2000713A202C
S113403A00723A20004779726F2043616C20436F03
S113404A6D706C657465006D616720737461727458
S113405A656400536572766F54696D657253746151
S113406A72746564005461736B54696D6572537438
S113407A61727465640057646F6744697361626C42
S113408A0057646F67527374005077725570527395
S113409A74004272776E4F75745273740045787463
S11340AA527374004750524D4300475047474100EA
S11340BA486F6D6520536574204C61742000204C50
S11340CA6F6E672000444952454354204354524C6E
S11340DA002A537065656420436F6E74726F6C2A8C
S11340EA0044616D70656420434F4E54524F4C0036
S11340FA476F616C20416C74202D204865616469A6
S113410A6E67202D2053706565643A2000202D20A7
S113411A00484F4C4420434F4E54524F4C0048657C
S113412A6164696E6720486F6C6420005265747517
S113413A726E20486F6D65204865616420003B00FB
S107414A0D0A000056
S9030000FC
