:100000000C9441000C94C5060C945E000C945E00A8
:100010000C945E000C94F4060C945E000C94C805DD
:100020000C945E000C945E000C9413070C945E001C
:100030000C945E000C94D10F0C945E000C945E0046
:100040000C945E000C945E000C945E000C945E00B8
:100050000C945E00084AD73B3BCE016E84BCBFFDCA
:10006000C12F3D6C74319ABD56833DDA3D00C77F88
:1000700011BED9E4BB4C3E916BAAAABE0000008021
:100080003F0011241FBECFE5D8E0DEBFCDBF11E099
:10009000A0E6B0E0E4E6F8E202C005900D92AA39CD
:1000A000B107D9F722E0AAE9B1E001C01D92A63A52
:1000B000B207E1F70E942F070C9430140C94000053
:1000C000CF93DF93D82FC62F0E945B0582E390E089
:1000D0000E9477058D2F90E00E9482058C2F90E082
:1000E0000E948D050E94A805DF91CF91089567E4D5
:1000F00080E20E94600060E183E20E9460008FE77E
:1001000090E00E94641008950F931F93CF93DF93A4
:10011000EC010E945B0582E390E00E94770588EA8B
:1001200090E00E9482050E94650583E390E00E94B2
:100130006B050E94A0058093AA010E94A0058093F0
:10014000AB010E94A0058093A4010E94A0058093AA
:10015000A5010E94A00580939E010E9498058093AE
:100160009F010E94A8058091AB01992787FD90957A
:10017000982F88272091AA01822B95958795959590
:10018000879595958795959587959093A9018093E7
:10019000A8010091A501112707FD1095102F002738
:1001A0002091A401022B1595079515950795159596
:1001B0000795159507951093A3010093A20140910F
:1001C0009F01552747FD5095542F442720919E01AC
:1001D000422B559547955595479555954795559576
:1001E000479550939D0140939C01880F991F9093D0
:1001F000A7018093A601000F111F1093A101009386
:10020000A001440F551F50939B0140939A01AA27C8
:1002100097FDA095BA2F88839983AA83BB83222751
:1002200017FD2095322F0C831D832E833F83662775
:1002300057FD6095762F488759876A877B87CE015F
:10024000DF91CF911F910F910895CF93DF93D82F16
:10025000C62F0E945B0580EC90E00E9477058D2FF1
:1002600090E00E9482058C2F90E00E948D050E94F4
:10027000A805DF91CF91089569EB86E20E942501E0
:1002800060E889E20E94250166EC84E10E94250174
:100290006BE585E10E94250167E083E10E9425016D
:1002A0008BE890E00E9464100895CF930E945B0554
:1002B00080EC90E00E94770580E090E00E9482054B
:1002C0000E94650581EC90E00E946B050E949805F4
:1002D000C82F0E94A8058091B20132C0CE3E81F5A0
:1002E0000E945B0580EC90E00E94770581E090E041
:1002F0000E9482050E94650581EC90E00E946B05DA
:100300000E94A0058093B5010E94A0058093B401CE
:100310000E9498058093B3010E94A8052091B50121
:10032000332727FD3095322F22278091B401282BC7
:100330003093AF012093AE0181E08093B2013FC0C2
:10034000882361F2CE3EB9F50E945B0580EC90E017
:100350000E94770581E090E00E9482050E94650579
:1003600081EC90E00E946B050E94A0058093B5018E
:100370000E94A0058093B4010E9498058093B30168
:100380000E94A8052091B501332727FD3095322F13
:1003900022278091B401282B3093AF012093AE0126
:1003A0008091B0019091B101281B390B3093AD01C0
:1003B0002093AC0104C02091AC013091AD01822F9B
:1003C000932FCF9108950E9455019093B10180938E
:1003D000B00188E990E00E9454106091B0017091E2
:1003E000B101882777FD8095982F0E949610089577
:1003F0001ABA83E487B987E886B985EA90E00E9453
:1004000064100895CF93DF93369A3699FECFC4B126
:10041000D0E0D093C101C093C00125B1922F80E0FC
:10042000C82BD92BD093C101C093C001BE01660F68
:10043000771F6C0F7D1F6A5F7540882777FD809559
:10044000982F0E941A126093BA017093BB01809397
:10045000BC019093BD018091B8019091B9010197C1
:1004600051F48091B6019091B701C81BD90BD0937C
:10047000BF01C093BE018C2F9D2FDF91CF910895B6
:10048000CF93DF93C2E3D0E00E9402022091B60135
:100490003091B701820F931F9093B7018093B601FB
:1004A000219791F762E370E00E9481137093B70186
:1004B0006093B6018CEA90E00E9454106091B601FE
:1004C0007091B701882777FD8095982F0E9496102C
:1004D00081E090E09093B9018093B8012FE986E81C
:1004E00091E0215080409040E1F700C00000DF9192
:1004F000CF910895CF93DF93D82FC62F0E945B052D
:1005000086ED90E00E9477058D2F90E00E94820595
:100510008C2F90E00E948D050E94A805DF91CF915D
:1005200008956FE080E20E947A0260E281E20E9418
:100530007A0260E184E20E947A0289EB90E00E94F4
:10054000641008958F929F92AF92BF92CF92DF92E4
:10055000EF92FF920F931F93CF93DF93EC010E94D2
:100560005B0586ED90E00E94770588EA90E00E94A6
:1005700082050E94650587ED90E00E946B050E9450
:10058000A0058093D6010E94A0058093D7010E9408
:10059000A0058093D2010E94A0058093D3010E9400
:1005A000A0058093CE010E9498058093CF010E9400
:1005B000A8056091D701772767FD7095762F66278C
:1005C0008091D601682B7093D5016093D401E0909F
:1005D000D301FF24E7FCF094FE2CEE248091D2019D
:1005E000E82AF092D101E092D0010091CF011127C9
:1005F00007FD1095102F00278091CE01082B109336
:10060000CD010093CC01882777FD8095982F0E941B
:100610001A1229E23CE54FE05CE30E94D2120E94EC
:10062000E7114B015C01B701882777FD8095982F72
:100630000E941A1229E23CE54FE05CE30E94D212CC
:100640000E94E7116B017C01B801882777FD809536
:10065000982F0E941A1229E23CE54FE05CE30E94C9
:10066000D2120E94E7112091C2013091C3012130C2
:10067000310521F50091C8011091C901222717FD0C
:100680002095322F801A910AA20AB30A0091C6015E
:100690001091C701222717FD2095322FC01AD10AC9
:1006A000E20AF30A0091C4011091C501222717FD47
:1006B0002095322F601B710B820B930B88829982DD
:1006C000AA82BB82CC82DD82EE82FF826887798734
:1006D0008A879B87CE01DF91CF911F910F91FF9069
:1006E000EF90DF90CF90BF90AF909F908F90089544
:1006F000CF93DF93CDB7DEB72C970FB6F894DEBF5C
:100700000FBECDBF2091CA013091CB012A303105F7
:10071000ACF52F5F3F4F3093CB012093CA01CE0140
:1007200001960E94A2022091C8013091C9018981DD
:100730009A81820F931F9093C9018093C8012091E1
:10074000C6013091C7018D819E81820F931F9093C6
:10075000C7018093C6012091C4013091C5018985EC
:100760009A85820F931F9093C5018093C4012091B5
:10077000CA013091CB012A3031055CF28091C80169
:100780009091C901B9010E9481137093C9016093CE
:10079000C8018091C6019091C701B9010E948113DF
:1007A0007093C7016093C6018091C4019091C50107
:1007B000B9010E9481137093C5016093C40186EC56
:1007C00090E00E94641084ED90E00E9454106091CB
:1007D000C8017091C901882777FD8095982F0E94E4
:1007E000961088ED90E00E9454106091C6017091BF
:1007F000C701882777FD8095982F0E94961082E781
:1008000091E00E9454106091C4017091C501882745
:1008100077FD8095982F0E9496102FE986E891E049
:10082000215080409040E1F700C0000081E090E05E
:100830009093C3018093C2018CED90E00E946410FC
:100840002C960FB6F894DEBF0FBECDBFDF91CF91CF
:100850000895CF93DF93D82FC62F0E945B058CE3BA
:1008600090E00E9477058D2F90E00E9482058C2FEA
:1008700090E00E948D050E94A805DF91CF91089518
:1008800060E082E00E9429048EEE90E00E946410F5
:100890000895CF92DF92EF92FF92CF93DF930E9461
:1008A0005B058CE390E00E94770583E090E00E9476
:1008B00082050E9465058DE390E00E946B050E9411
:1008C000A0058093E5010E94A0058093E4010E94A9
:1008D000A0058093DD010E94A0058093DC010E94A9
:1008E000A0058093E1010E9498058093E0010E9499
:1008F000A805C091E501DD27C7FDD095DC2FCC27E9
:100900008091E401C82BD093E301C093E201609190
:10091000E101772767FD7095762F66278091E001CA
:10092000682B7093DF016093DE018091DD019927D0
:1009300087FD9095982F88272091DC01822B90933A
:10094000DB018093DA01DD230CF453C0772354F1EB
:10095000882777FD8095982F0E941A126B017C01E1
:10096000BE01882777FD8095982F0E941A129B015F
:10097000AC01C701B6010E947F110E94571120EE01
:100980003EE245E652E40E94D2120E9435130E94D4
:10099000E71188E691E0861B970B9093D90180932D
:1009A000D8017CC0882777FD8095982F0E941A1265
:1009B0006B017C01BE01882777FD8095982F0E94EE
:1009C0001A129B01AC01C701B6010E947F110E945F
:1009D000571120EE3EE245E652E40E94D2120E94F8
:1009E000351390580E94E7117093D9016093D80194
:1009F00055C0772354F1882777FD8095982F0E9462
:100A00001A126B017C01BE01882777FD8095982F13
:100A10000E941A129B01AC01C701B6010E947F110E
:100A20000E94571120EE3EE245E652E40E94D212A7
:100A30000E9435130E94E71184EB90E0861B970B10
:100A40009093D9018093D80129C0882777FD80959C
:100A5000982F0E941A126B017C01BE01882777FD36
:100A60008095982F0E941A129B01AC01C701B60114
:100A70000E947F110E94571120EE3EE245E652E4AB
:100A80000E94D2120E9435130E94E71184EB90E07D
:100A9000861B970B9093D9018093D801DF91CF915A
:100AA000FF90EF90DF90CF90089584E380B986B7F0
:100AB000856486BF089584EA86BF06B607FEFDCF2B
:100AC00081B1887F8830E1F7089584EA86BF06B651
:100AD00007FEFDCF089583B986B7846C86BF06B63E
:100AE00007FEFDCF81B1887F8034E1F7089583B997
:100AF00084E886BF06B607FEFDCF81B1887F8831C6
:100B0000E1F7089583B984E886BF06B607FEFDCFF6
:100B100081B1887F8832E1F7089583B984E886BF80
:100B200006B607FEFDCF81B1887F8832E1F70895D0
:100B300084E886BF06B607FEFDCF83B190E0089536
:100B400084EC86BF06B607FEFDCF83B190E0089522
:100B500086B7846986BF06B604FCFDCF089587B3C7
:100B60008F6187BB88B3807E88BB1FBC8AE08EBD47
:100B70008AEC98E09BBD8ABD80E48BBF83E085BF93
:100B800085E085BD14BC8AEF90E00E946410089552
:100B90001F920F920FB60F9211242F933F934F93F2
:100BA0005F938F939F93AF93BF938091E9018430BC
:100BB00009F46DC064F4813069F11CF48823C9F034
:100BC000D7C08230E9F1833009F0D2C04AC0873003
:100BD00009F495C03CF4853009F46AC0863009F008
:100BE000C7C07CC0883009F4A0C0893009F0C0C0FB
:100BF000ADC0C09A8091600090916100A0916200A8
:100C0000B09163009BBD8ABD8091E9018F5F8093A5
:100C1000E901AEC0C0988091600090916100A09100
:100C20006200B091630020E737E1A901481B590B2E
:100C30005BBD4ABD8091E9018F5F8093E90198C057
:100C4000C19A8091640090916500A0916600B09176
:100C500067009BBD8ABD8091E9018F5F8093E901A8
:100C600087C0C1988091640090916500A091660052
:100C7000B091670020E737E1A901481B590B5BBD24
:100C80004ABD8091E9018F5F8093E90171C0C29AEA
:100C90008091680090916900A0916A00B0916B000A
:100CA0009BBD8ABD8091E9018F5F8093E90160C09F
:100CB000C2988091680090916900A0916A00B091FB
:100CC0006B0020E737E1A901481B590B5BBD4ABD0A
:100CD0008091E9018F5F8093E9014AC0C39A8091B6
:100CE0006C0090916D00A0916E00B0916F009BBD63
:100CF0008ABD8091E9018F5F8093E90139C0C39873
:100D000080916C0090916D00A0916E00B0916F0089
:100D100020E737E1A901481B590B5BBD4ABD809113
:100D2000E9018F5F8093E90123C0C49A809170002C
:100D300090917100A0917200B09173009BBD8ABD2B
:100D40008091E9018F5F8093E90112C0C49880917E
:100D5000700090917100A0917200B091730020E733
:100D600037E1A901481B590B5BBD4ABD1092E9014F
:100D7000BF91AF919F918F915F914F913F912F9133
:100D80000F900FBE0F901F9018951F920F920FB6E5
:100D90000F9211242F938F939F93EF93FF93809142
:100DA000E6019091E701019729F41092E701109272
:100DB000E6010FC02091E801E22FF0E084B590E059
:100DC000EE0FFF1FE651FE4F918380832F5F20932C
:100DD000E80114BCFF91EF919F918F912F910F909B
:100DE0000FBE0F901F9018951F920F920FB60F9283
:100DF00011248F939F931092E80181E090E09093EB
:100E0000E7018093E6019F918F910F900FBE0F90A5
:100E10001F9018958DE083BF83EC8CBF8CE091E030
:100E20000E94641008951F920F920FB60F92112422
:100E30008F938091FC018F5F8093FC01833028F0B9
:100E400081E08093FD011092FC018F910F900FBE05
:100E50000F901F90189581B58D6081BD0895CF9337
:100E6000DF93CDB7DEB7C257D1090FB6F894DEBF16
:100E70000FBECDBF0E94C40F04B603FE05C087E2BB
:100E800091E00E9454101CC004B600FE05C08FE221
:100E900091E00E94541014C004B602FE05C088E31D
:100EA00091E00E9454100CC004B601FE05C083E41A
:100EB00091E00E94541004C084B790E00E94781022
:100EC00084B7807F84BF2FE73FE482E12150304028
:100ED0008040E1F700C000000E94550580917D0030
:100EE00090917E00019721F40E9491020E94780364
:100EF00080917B0090917C00019711F40E94770013
:100F00008091770090917800019721F40E943C0134
:100F10000E94E3018091790090917A00019711F489
:100F20000E9440048091750090917600019721F411
:100F30000E94F8010E944002F8940E940A070E9451
:100F4000AF0582E589BF78940E942B071DAE1EAEC7
:100F50001FAE21961FAE219768961FAE68976996BF
:100F60001FAE69976A961FAE6A976B961FAE6B9716
:100F700064961FAE649765961FAE659766961FAE22
:100F8000669767961FAE6797AB961CAE1DAE1EAEFA
:100F90001FAEAB976C961FAE6C976D961FAE6D979C
:100FA0006E961FAE6E976F961FAE6F972A961FAE06
:100FB0002A972B961FAE2B972C961FAE2C972D960B
:100FC0001FAE2D97AC961FAEAC97AD961FAEAD97EA
:100FD000AE961FAEAE97AF961FAEAF9719A21AA2EC
:100FE0001BA21CA261961FAE1EAE6197A7961CAEF7
:100FF0001DAE1EAE1FAEA7978091FD01813009F096
:10100000C1C71092FD0180917D0090917E000197F3
:1010100009F05CC0CE010D960E94A2026D85772773
:1010200067FD7095872F972F0E941A122AE939E9D8
:1010300049E95EE30E94D2126B017C016296AFAD7A
:1010400062976A2F772767FD7095872F972F0E94E9
:101050001A1223E333E343E35FE30E94D2129B01BE
:10106000AC01C701B6010E94B9100E94E711629657
:101070006FAF62976989772767FD7095872F972FE4
:101080000E941A122AE939E949E95EE30E94D21264
:101090006B017C016396BFAD63976B2F772767FD6C
:1010A0007095872F972F0E941A1223E333E343E3AF
:1010B0005FE30E94D2129B01AC01C701B6010E94FE
:1010C000B9100E94E71163966FAF639780917B0020
:1010D00090917C00019709F05CC0CE0101960E94BE
:1010E000840069857A85719561957109882777FDF6
:1010F0008095982F0E941A126B017C0169817A8178
:10110000882777FD8095982F0E941A12A7019601D3
:101110000E942C1120E030E044E353E40E94D212FC
:101120002BED3FE049E450E40E947F1164966FAFDD
:10113000649765967FAF659766968FAF669767965B
:101140009FAF67976D817E81719561957109882741
:1011500077FD8095982F0E941A12A70196010E9490
:101160002C1120E030E044E353E40E94D2122BED36
:101170003FE049E450E40E947F1168966FAF6897A2
:1011800069967FAF69976A968FAF6A976B969FAFA4
:101190006B978091770090917800019771F50E948C
:1011A0005501BC01882777FD8095982F0E941A125F
:1011B00023E333E343E35FE30E94D2126B017C013C
:1011C0002F96EEADFFAD2F97BF01882777FD809555
:1011D000982F0E941A122AE939E949E95EE30E9430
:1011E000D2129B01AC01C701B6010E94B9100E9446
:1011F000E7112F967FAF6EAF2F9780917900909176
:101200007A00019711F40E94490480917500909131
:101210007600019771F50E940202BC01882777FDD4
:101220008095982F0E941A122CEC3CEC4CE45EE363
:101230000E94D2126B017C0161962EAD3FAD619789
:10124000B901882777FD8095982F0E941A122DECFE
:101250003CEC4CE45FE30E94D2129B01AC01C7015D
:10126000B6010E94B9100E94E71161967FAF6EAF80
:10127000619763963FAD6397632F772767FD7095FE
:10128000872F972F0E941A122DEC3CEC4CE45DE363
:101290000E94D2122296BFAD22972396AFAD23971C
:1012A0002496FFAD24972596EFAD25972B2F3A2F47
:1012B0004F2F5E2F0E94B910698F7A8F8B8F9C8F72
:1012C0007DA56EA59FA588A9272F362F492F582FBA
:1012D000B9A9AAA9FBA9ECA96B2F7A2F8F2F9E2F52
:1012E0000E94B9102FE632E143E85AE30E94B81099
:1012F0002DEC3CEC4CE45DEB0E94D2122696BFAD87
:1013000026972796AFAD27972896FFAD2897299661
:10131000EFAD29972B2F3A2F4F2F5E2F0E94B91038
:10132000A62EB72EC82ED92E6296AFAD62976A2F21
:10133000772767FD7095872F972F0E941A12BDADF2
:10134000AEADFFAD2196EFAD21972B2F3A2F4F2F4A
:101350005E2F0E94B8102DEC3CEC4CE45DE30E9443
:10136000D212B9A1AAA1FBA1ECA12B2F3A2F4F2F8A
:101370005E2F0E94B9106D8F7E8F8F8F98A37DA9ED
:101380006EA99FA988AD272F362F492F582FB9ADA9
:10139000AAADFBADECAD6B2F7A2F8F2F9E2F0E9445
:1013A000B9102DEC3CEC4CE45DEB0E94D21228E12C
:1013B00037EB41E558E30E94B910BDA1AEA1FFA1F2
:1013C000E8A52B2F3A2F4F2F5E2F0E94B910E62E43
:1013D000F72E082F192F2DEC3CEC4CE45DE36A2D21
:1013E0007B2D8C2D9D2D0E94B91069A37AA38BA310
:1013F0009CA3762F6AA1982F8CA1272F362F492FD7
:10140000582F6A2D7B2D8C2D9D2D0E947F11662ECD
:10141000772E882E992E7D8D6E8D9F8D88A1272FFA
:10142000362F492F582F6896BFAD68976996AFAD94
:1014300069976A96FFAD6A976B96EFAD6B976B2FC6
:101440007A2F8F2F9E2F0E94B8106DA37EA38FA39B
:1014500098A72DEC3CEC4CE45DE36E2D7F2D802FA6
:10146000912F0E94B910262E372E482E592E762FF6
:10147000272F332D442D552D6E2D7F2D802F912F0D
:101480000E947F1169A77AA78BA79CA7222D332DD5
:10149000442D552DB9ADAAADFBADECAD6B2F7A2F18
:1014A0008F2F9E2F0E947F11562E472E382E292EC9
:1014B000798D6A8D9B8D8C8D272F362F492F582F34
:1014C0006496BFAD64976596AFAD65976696FFADC0
:1014D00066976796EFAD67976B2F7A2F8F2F9E2FAA
:1014E0000E94B8109B01AC01662D772D882D992D97
:1014F0000E94D212B98DAA8DFB8DEC8D2B2F3A2F25
:101500004F2F5E2F0E94B910698F7A8F8B8F9C8F1F
:1015100022966FAF229723967FAF239724968FAFA3
:10152000249725969FAF25972A2D3B2D4C2D5D2D79
:10153000662D772D882D992D0E94D212262F372FB8
:10154000482F592F6A2D7B2D8C2D9D2D0E94B81070
:10155000A62EB72EC82ED92E26966FAF2697279681
:101560007FAF279728968FAF289729969FAF299707
:10157000262D372D482D592DBDA5AEA5FFA5E8A9CF
:101580006B2F7A2F8F2F9E2F0E94D212262F372F4C
:10159000482F592FBDA5AEA5FFA5E8A96B2F7A2F1F
:1015A0008F2F9E2F0E94B8106DA77EA78FA798AB94
:1015B00079A16AA19BA18CA1272F362F492F582FE3
:1015C000B9A9AAA9FBA9ECA96B2F7A2F8F2F9E2F5F
:1015D0000E947F112A2D3B2D4C2D5D2D0E94D21291
:1015E000262F372F482F592FB9A9AAA9FBA9ECA953
:1015F0006B2F7A2F8F2F9E2F0E94B81069AB7AAB7A
:101600008BAB9CAB7DA16EA19FA188A5272F362F08
:10161000492F582FB9A5AAA5FBA5ECA56B2F7A2FAA
:101620008F2F9E2F0E94D212BD8DAE8DFF8DE8A10F
:101630002B2F3A2F4F2F5E2F0E94B9106D8F7E8F68
:101640008F8F98A369A37AA38BA39CA37DA16EA17E
:101650009FA188A5272F362F492F582F652D742D30
:10166000832D922D0E94D2129B01AC01BDADAEAD77
:10167000FFAD2196EFAD21976B2F7A2F8F2F9E2FE5
:101680000E94B9106DAF7EAF8FAF21969FAF2197AB
:101690002E2D3F2D402F512FB9A5AAA5FBA5ECA5B6
:1016A0006B2F7A2F8F2F9E2F0E94D212262F372F2B
:1016B000482F592F6E2D7F2D802F912F0E94B8100B
:1016C000E62EF72E082F192F6DA37EA38FA398A7C0
:1016D00079A56AA59BA58CA5272F362F492F582FB2
:1016E000BDA9AEA9FFA9E8AD6B2F7A2F8F2F9E2F32
:1016F0000E94D212262F372F482F592FBDA9AEA9ED
:10170000FFA9E8AD6B2F7A2F8F2F9E2F0E94B81064
:101710006DAB7EAB8FAB98AF2E2D3F2D402F512F51
:10172000652D742D832D922D0E94D2129B01AC0148
:10173000B9ADAAADFBADECAD6B2F7A2F8F2F9E2FDD
:101740000E94B81069AF7AAF8BAF9CAFE4EFF1E0C5
:10175000808191818139910524F083E0809300029A
:1017600012C0A4EFB1E08D919C9111978C38910536
:1017700044F08D919C91803991051CF410920002E7
:1017800002C010920002809100029091FF01981710
:1017900021F091E09093FE0102C01092FE01882397
:1017A00021F0833009F04EC3BEC08091FE0181302C
:1017B00021F48AE491E00E946410EAEEF1E02081D5
:1017C0003181220F331FC901880F991F880F991F7C
:1017D000880F991F821B930B8E5D9E4FAA2797FD42
:1017E000A095BA2FE0E6F0E080839183A283B383D3
:1017F000ACEEB1E02D913C91220F331FC901880F4F
:10180000991F880F991F880F991F821B930B8E5D5C
:101810009E4FAA2797FDA095BA2FE4E6F0E08083BB
:101820009183A283B383AEEEB1E02D913C91220F60
:10183000331FC901880F991F880F991F880F991F9F
:10184000821B930B8E5D9E4FAA2797FDA095BA2F02
:10185000E8E6F0E080839183A283B383A0EFB1E058
:101860002D913C91220F331FC901880F991F880FBA
:10187000991F880F991F821B930B8E5D9E4FAA277D
:1018800097FDA095BA2FECE6F0E080839183A283C8
:10189000B383A2EFB1E08D919C91119787389105A8
:1018A00084F48D919C91893791055CF086EE95E0EA
:1018B000A0E0B0E0E0E7F0E080839183A283B3830F
:1018C000C1C2A2EFB1E08D919C911197863991052B
:1018D00084F48D919C91883891055CF08CE697E0BA
:1018E000A0E0B0E0E0E7F0E080839183A283B383DF
:1018F000A9C2A2EFB1E08D919C911197803A910518
:101900000CF0A0C28D919C91873991050CF49AC27C
:101910008CEF98E0A0E0B0E0E0E7F0E08083918316
:10192000A283B3838FC28091FE01813009F07EC013
:1019300086E591E00E946410A8E6B0E08D919D914B
:101940000D90BC91A02DA7968CAF9DAFAEAFBFAF51
:10195000A79783E691E00E945410A7966CAD7DADE9
:101960008EAD9FADA7970E949610A4E6B0E08D9132
:101970009D910D90BC91A02DAB968CAF9DAFAEAF5D
:10198000BFAFAB9786E791E00E945410AB966CAD69
:101990007DAD8EAD9FADAB970E94961088E891E02B
:1019A0000E9454102F96EEADFFAD2F97BF018827F0
:1019B00077FD8095982F0E949610FD8DAC96FFAF15
:1019C000AC972E8DAD962FAFAD973F8DAE963FAFB6
:1019D000AE9788A1AF968FAFAF97998DE0969FAFE6
:1019E000E097AA8DE196AFAFE197BB8DE296BFAFCE
:1019F000E297EC8DE396EFAFE397A0961FAEA0972A
:101A0000A1961FAEA197A2961FAEA297A3961FAE56
:101A1000A3976C961FAE6C976D961FAE6D976E96E2
:101A20001FAE6E976F961FAE6F9718C02A96FFADC8
:101A30002A97A096FFAFA0972B962FAD2B97A19634
:101A40002FAFA1972C963FAD2C97A2963FAFA297B0
:101A50002D968FAD2D97A3968FAFA397AAEEB1E0E9
:101A60002D913C91220F331FC901880F991F880FB8
:101A7000991F880F991F821B930B8E5D9E4FAA277B
:101A800097FDA095BA2FE0E6F0E080839183A283D2
:101A9000B383A0EFB1E02D913C91220F331FC90118
:101AA000880F991F880F991F880F991F821B930B0E
:101AB0008E5D9E4FAA2797FDA095BA2FECE6F0E029
:101AC00080839183A283B383A2EFB1E08D919C9137
:101AD0001197873891054CF48D919C918937910528
:101AE00024F081E08093740020C0E2EFF1E0808177
:101AF0009181863991054CF48081918188389105D6
:101B000024F082E08093740010C0A2EFB1E08D91C8
:101B10009C911197803A910544F48D919C9187395D
:101B200091051CF083E080937400798D6A8D9B8D04
:101B30008C8D272F362F492F582FE096BFADE09779
:101B4000E196AFADE197E296FFADE297E396EFAD98
:101B5000E3976B2F7A2F8F2F9E2F0E94B810362E6F
:101B6000272E082F192F862E972EA82EB92E60917A
:101B7000740070E080E090E00E941A126B017C011A
:101B8000A7966CAD7DAD8EAD9FADA7970E941A1242
:101B90002B013C01C501B401905820E030E040EF3A
:101BA00051E40E94D2124B015C0120E030E0A90117
:101BB000632D722D802F912F0E94B91020E030E00C
:101BC00040EF51E40E94D2122DEC3CEC4CE45DE37A
:101BD0000E94D2129B01AC01C501B4010E94B91050
:101BE0004B015C01232D322D402F512F60E070E01E
:101BF000CB010E94B8102DEC3CEC4CE45DE30E945C
:101C00007F119B01AC01C501B4010E94B9109B0179
:101C1000AC01C701B6010E94D2129B01AC01C30105
:101C2000B2010E94B8100E94E711E8E6F0E060837C
:101C300071838283938380819181A281B381893B67
:101C40009B40A105B1054CF088EB9BE0A0E0B0E023
:101C500080839183A283B38313C0E8E6F0E08081A0
:101C60009181A281B381883E9340A105B10544F4DE
:101C700088EE93E0A0E0B0E080839183A283B383F9
:101C8000AC967FADAC97AD966FADAD97AE969FAD70
:101C9000AE97AF968FADAF97272F362F492F582F7E
:101CA000BD8DAE8DFF8DE8A16B2F7A2F8F2F9E2FCC
:101CB0000E94B810262E372E082F192F2A966FAFA4
:101CC0002A972B967FAF2B972C968FAF2C972D961C
:101CD0009FAF2D97762F272F332D402F512F6C96A6
:101CE000BFAD6C976D96AFAD6D976E96FFAD6E976D
:101CF0006F96EFAD6F976B2F7A2F8F2F9E2F0E94CD
:101D0000B91069A77AA78BA79CA76C966FAF6C9741
:101D10006D967FAF6D976E968FAF6E976F969FAFF4
:101D20006F97AB966CAD7DAD8EAD9FADAB970E94BE
:101D30001A124B015C0120E030E040EF51E4622DCB
:101D4000732D802F912F0E94D2122B013C0120E095
:101D500030E040EF51E4B9A5AAA5FBA5ECA56B2F97
:101D60007A2F8F2F9E2F0E94D2122DEC3CEC4CE448
:101D70005DE30E94D2129B01AC01C301B2010E943B
:101D8000B9102B013C01222D332D402F512FA0964D
:101D9000BFADA097A196AFADA197A296FFADA297B8
:101DA000A396EFADA3976B2F7A2F8F2F9E2F0E94B4
:101DB000B8102DEC3CEC4CE45DE30E947F119B01DC
:101DC000AC01C301B2010E94B9109B01AC01C70173
:101DD000B6010E94D2129B01AC01C501B4010E9460
:101DE000B8100E94E711A4E6B0E06D937D938D9347
:101DF0009C9313978D919D910D90BC91A02D893B43
:101E00009B40A105B1055CF088EB9BE0A0E0B0E051
:101E1000E4E6F0E080839183A283B38313C0E4E619
:101E2000F0E080819181A281B381883E9340A10539
:101E3000B10544F488EE93E0A0E0B0E080839183A4
:101E4000A283B383E0E6F0E080819181A281B38137
:101E50000E94781085E991E00E945410E4E6F0E0D9
:101E600080819181A281B3810E94781085E991E0FF
:101E70000E945410E8E6F0E080819181A281B38154
:101E80000E94781085E991E00E945410ECE6F0E0A1
:101E900080819181A281B3810E94781085E991E0CF
:101EA0000E945410E0E7F0E080819181A281B3812B
:101EB0000E94781085E991E00E9454105D8D4E8D4E
:101EC0003F8D28A1652F742F832F922F0E94E71139
:101ED000CB010E94781085E991E00E945410598D41
:101EE0004A8D3B8D2C8D652F742F832F922F0E944E
:101EF000E711CB010E94781085E991E00E9454100F
:101F00002F968EAD9FAD2F970E94781085E991E0B6
:101F10000E94541061968EAD9FAD61970E9478101B
:101F200085E991E00E94541080E090E00E947810D2
:101F300085E991E00E9454102A965FAD2A972B966E
:101F40004FAD2B972C963FAD2C972D962FAD2D97FF
:101F5000652F742F832F922F0E94E711CB010E94CF
:101F6000781085E991E00E9454108091740090E00F
:101F70000E94781085E991E00E946410809100022F
:101F80008093FF01A89538C8F89488E98AB986E853
:101F900080BD10BC89E189B978948CB15F99FDCF7F
:101FA00008951F920F920FB60F9211242F933F9313
:101FB0008F939F93EF93FF938CB1809303021092C2
:101FC000040280930202809102028C32F1F420918B
:101FD0000102822F992787FD90953091A502FC017F
:101FE000EE0FFF1FEE0FFF1FEE0FFF1FE80FF91F91
:101FF000E30FF11D37FDFA95EB5FFD4F1082109254
:10200000A5022F5F2093010240C0809102028D3013
:10201000E1F480910102992787FD90952091A50216
:10202000FC01EE0FFF1FEE0FFF1FEE0FFF1FE80F6B
:10203000F91FE20FF11D27FDFA95EB5FFD4F1082AE
:102040001092A5021092010220C0809102028A30F3
:10205000E1F080910102992787FD90952091A502DA
:1020600030910202FC01EE0FFF1FEE0FFF1FEE0F7B
:10207000FF1FE80FF91FE20FF11D27FDFA95EB5F37
:10208000FD4F30832F5F2093A502FF91EF919F9129
:102090008F913F912F910F900FBE0F901F90189529
:1020A0005D9BFECF8CB90895CF93DF93EC018881BF
:1020B000882339F0219690E00E9450108991811177
:1020C000FACFDF91CF910895CF93DF93EC01888110
:1020D000882339F0219690E00E9450108991811157
:1020E000FACF87E991E00E945410DF91CF910895D3
:1020F000CF93DF93CDB7DEB72F970FB6F894DEBF3F
:102100000FBECDBF4AE050E0BE016F5F7F4F0E941F
:10211000A913CE0101960E9454102F960FB6F89481
:10212000DEBF0FBECDBFDF91CF910895CF93DF9378
:10213000CDB7DEB76F970FB6F894DEBF0FBECDBF39
:102140002AE030E0AE014F5F5F4F0E94CA13CE011C
:1021500001960E94541087E991E00E9454106F96F6
:102160000FB6F894DEBF0FBECDBFDF91CF910895BB
:102170005058BB27AA270ED0D4C1C5D130F0CAD140
:1021800020F031F49F3F11F41EF495C10EF4E09558
:10219000E7FB8BC1E92FD6D180F3BA17620773072B
:1021A0008407950718F071F49EF5EEC10EF4E095E2
:1021B0000B2EBA2FA02D0B01B90190010C01CA0101
:1021C000A0011124FF27591B99F0593F50F4503EAC
:1021D00068F11A16F040A22F232F342F4427585F9E
:1021E000F3CF469537952795A795F0405395C9F7B6
:1021F0007EF41F16BA0B620B730B840BBAF091506E
:10220000A1F0FF0FBB1F661F771F881FC2F70EC00C
:10221000BA0F621F731F841F48F4879577956795DF
:10222000B795F7959E3F08F0B3CF9395880F08F0C8
:102230009927EE0F97958795089565D158F080E816
:1022400091E009F49EEF66D128F040E851E059F49E
:102250005EEF09C030C198C1E92FE07873D168F30F
:10226000092E052AC1F3261737074807590738F002
:102270000E2E07F8E02569F0E025E0640AC0EF6360
:1022800007F8009407FADB01B9019D01DC01CA01DE
:10229000AD01EF9343D045D10AD05F91552331F082
:1022A0002BED3FE049E450FD49EC63CF0895DF9307
:1022B000DD27B92FBF7740E85FE3161617064807FA
:1022C0005B0710F4D92F67D19F938F937F936F9300
:1022D000ECD1E4E5F0E0F2D024D12F913F914F9181
:1022E0005F916CD1DD2349F09058A2EA2AED3FE0DE
:1022F00049EC5FE3D0785D274DDFDF9112C10CD050
:1023000010C108D140F0FFD030F021F45F3F19F048
:10231000CCC051113AC1CFC015D198F39923C9F35C
:102320005523B1F3951B550BBB27AA2762177307DB
:10233000840738F09F5F5F4F220F331F441FAA1F8F
:10234000A9F333D00E2E3AF0E0E830D0915050404F
:10235000E695001CCAF729D0FE2F27D0660F771FFD
:10236000881FBB1F261737074807AB07B0E809F0DF
:10237000BB0B802DBF01FF2793585F4F2AF09E3F74
:10238000510568F092C001C15F3FECF3983EDCF369
:10239000869577956795B795F7959F5FC9F7880FED
:1023A000911D9695879597F90895E1E0660F771F3F
:1023B000881FBB1F621773078407BA0720F0621BD0
:1023C000730B840BBA0BEE1F88F7E095089504D0C9
:1023D0006894B111DAC00895BDD088F09F5790F08D
:1023E000B92F9927B751A0F0D1F0660F771F881F3A
:1023F000991F1AF0BA95C9F712C0B13081F0C4D054
:10240000B1E00895C1C0672F782F8827B85F39F0F1
:10241000B93FCCF3869577956795B395D9F73EF498
:1024200090958095709561957F4F8F4F9F4F089540
:10243000E89409C097FB3EF490958095709561955E
:102440007F4F8F4F9F4F9923A9F0F92F96E9BB2714
:102450009395F695879577956795B795F111F8CF90
:10246000FAF4BB0F11F460FF1BC06F5F7F4F8F4FFB
:102470009F4F16C0882311F096E911C0772321F0F1
:102480009EE8872F762F05C0662371F096E8862F89
:1024900070E060E02AF09A95660F771F881FDAF7E0
:1024A000880F9695879597F9089597F99F6780E823
:1024B00070E060E008959FEF80EC0895DF93CF9384
:1024C0001F930F93FF92EF92DF927B018C01689430
:1024D00005C0DA2EEF0172D0FE01E894A591259196
:1024E000359145915591AEF3EF0154DEFE01970110
:1024F000A801DA9479F7DF90EF90FF900F911F9188
:10250000CF91DF91089500240A9416161706180635
:102510000906089500240A941216130614060506E7
:102520000895092E0394000C11F4882352F0BB0F78
:1025300040F4BF2B11F460FF04C06F5F7F4F8F4FDB
:102540009F4F089557FD9058440F551F59F05F3F16
:1025500071F04795880F97FB991F61F09F3F79F0C5
:1025600087950895121613061406551FF2CF469547
:10257000F1DF08C0161617061806991FF1CF8695C9
:102580007105610508940895E894BB2766277727AD
:10259000CB0197F908959B01AC0160E070E080E801
:1025A0009FE3ADCE0BD0BDCFAEDF28F0B3DF18F088
:1025B000952309F07ACF7FCF1124E7CFC3DFA0F3B3
:1025C000959FD1F3950F50E0551F629FF001729FC8
:1025D000BB27F00DB11D639FAA27F00DB11DAA1FE7
:1025E000649F6627B00DA11D661F829F2227B00D34
:1025F000A11D621F739FB00DA11D621F839FA00DBF
:10260000611D221F749F3327A00D611D231F849F0E
:10261000600D211D822F762F6A2F11249F57504065
:102620008AF0E1F088234AF0EE0FFF1FBB1F661F00
:10263000771F881F91505040A9F79E3F510570F0B9
:1026400034CFA3CF5F3FECF3983EDCF386957795CC
:102650006795B795F795E7959F5FC1F7FE2B880FB4
:10266000911D9695879597F9089574DFE0F09E3750
:10267000D8F09639B8F49E3848F4672F782F882719
:10268000985FF9CF86957795679593959539D0F3AF
:10269000B62FB1706B0F711D811D20F48795779552
:1026A0006795939505C01FC070CF9B01AC017ACF91
:1026B000882371F4772321F09850872B762F07C059
:1026C000662311F499270DC09051862B70E060E0CD
:1026D0002AF09A95660F771F881FDAF7880F96956C
:1026E000879597F908959F3F31F0915020F4879591
:1026F00077956795B795880F911D9695879597F96A
:10270000089597FB072E16F4009407D077FD09D0A3
:102710000E94951307FC05D03EF4909581959F4F3C
:102720000895709561957F4F0895AA1BBB1B51E1D9
:1027300007C0AA1FBB1FA617B70710F0A61BB70B31
:10274000881F991F5A95A9F780959095BC01CD01D6
:102750000895FB019F01E8944230C4F04532B4F47F
:102760004A3029F497FB1EF4909581959F4F642F72
:1027700077270E949513805D8A330CF0895D8193E1
:10278000CB010097A1F716F45DE251931082C901C5
:102790000C94FE13FA01CF93FF93EF93223044F190
:1027A000253234F5C22FE894CA3049F497FB3EF441
:1027B00090958095709561957F4F8F4F9F4F2C2FEF
:1027C000332744275527FF93EF930E940E14EF9170
:1027D000FF91605D6A330CF0695D6193B901CA01D4
:1027E000605070408040904051F716F4CDE2C193A4
:1027F00010828F919F91CF910C94FE13DC01FC010C
:10280000672F71917723E1F7329704C07C916D9324
:1028100070836291AE17BF07C8F30895A1E21A2E24
:10282000AA1BBB1BFD010DC0AA1FBB1FEE1FFF1F74
:10283000A217B307E407F50720F0A21BB30BE40BC4
:10284000F50B661F771F881F991F1A9469F760950B
:102850007095809590959B01AC01BD01CF010895C5
:04286000F894FFCF1A
:10286400CA080000CA080000CA080000CA0800001C
:10287400E605000001010001000100010001006102
:1028840063632073746172746564006261726F20A3
:1028940073746172746564006261726F5F6F6666FF
:1028A4007365742000414443206F6B004144435FCF
:1028B4006F66667365743A20006779726F2073746B
:1028C4006172746564004779726F204F6666736540
:1028D400743A2000703A2000713A20004779726FF0
:1028E4002043616C20436F6D706C657465006D618D
:1028F40067207374617274656400536572766F54F3
:10290400696D657253746172746564005461736BAC
:1029140054696D6572537461727465640057646FB1
:1029240067456E61626C0057646F67527374005040
:1029340077725570527374004272776E4F75745289
:102944007374004578745273740044495245435477
:10295400204354524C00484F4C4420434F4E545251
:102964004F4C005472696D6D656420456C657661E9
:10297400746F723A20005472696D6D656420416908
:102984006C65726F6E3A2000546172676574204101
:0A2994006C743A20003B000D0A00AD
:00000001FF
