:100000000C9441000C9465090C945E000C945E0005
:100010000C945E000C9494090C945E000C941508EA
:100020000C945E000C945E000C94BF090C945E006E
:100030000C945E000C946B1B0C945E000C945E00A0
:100040000C945E000C945E000C945E000C945E00B8
:100050000C945E00084AD73B3BCE016E84BCBFFDCA
:10006000C12F3D6C74319ABD56833DDA3D00C77F88
:1000700011BED9E4BB4C3E916BAAAABE0000008021
:100080003F0011241FBECFE5D8E0DEBFCDBF11E099
:10009000A0E6B0E0E4E1FFE302C005900D92A23DCE
:1000A000B107D9F725E0A2EDB1E001C01D92A73A52
:1000B000B207E1F70E941F0A0C94881F0C940000FD
:1000C000CF93DF93D82FC62F0E94820782E390E060
:1000D0000E949E078D2F90E00E94A9078C2F90E030
:1000E0000E94B4070E94CF07DF91CF91089567E483
:1000F00080E20E94600060E183E20E9460008AE882
:1001000090E00E94F11B08950F931F93CF93DF930C
:10011000EC010E94820782E390E00E949E0788EA39
:1001200090E00E94A9070E948C0783E390E00E9460
:1001300092070E94C7078093E2010E94C70780933D
:10014000E3010E94C7078093DC010E94C7078093E8
:10015000DD010E94C7078093D6010E94BF078093EC
:10016000D7010E94CF078091E301992787FD9095E1
:10017000982F88272091E201822B95958795959558
:10018000879595958795959587959093E1018093AF
:10019000E0010091DD01112707FD1095102F0027C8
:1001A0002091DC01022B159507951595079515955E
:1001B0000795159507951093DB010093DA0140919F
:1001C000D701552747FD5095542F44272091D6013C
:1001D000422B559547955595479555954795559576
:1001E00047955093D5014093D401880F991F909360
:1001F000DF018093DE01000F111F1093D9010093DE
:10020000D801440F551F5093D3014093D201AA2720
:1002100097FDA095BA2F88839983AA83BB83222751
:1002200017FD2095322F0C831D832E833F83662775
:1002300057FD6095762F488759876A877B87CE015F
:10024000DF91CF911F910F910895CF93DF93D82F16
:10025000C62F0E94820786ED90E00E949E078D2F98
:1002600090E00E94A9078C2F90E00E94B4070E94A2
:10027000CF07DF91CF9108956FE080E20E942501C2
:1002800060E281E20E94250160E184E20E94250192
:1002900086E990E00E94F11B08958F929F92AF92A1
:1002A000BF92CF92DF92EF92FF920F931F93CF9363
:1002B000DF93EC010E94820786ED90E00E949E078A
:1002C00088EA90E00E94A9070E948C0787ED90E0E1
:1002D0000E9492070E94C7078093F6010E94C707F9
:1002E0008093F7010E94C7078093F2010E94C7071D
:1002F0008093F3010E94C7078093EE010E94BF071D
:100300008093EF010E94CF076091F701772767FD87
:100310007095762F66278091F601682B7093F50112
:100320006093F401E090F301FF24E7FCF094FE2CCD
:10033000EE248091F201E82AF092F101E092F001BE
:100340000091EF01112707FD1095102F00278091D4
:10035000EE01082B1093ED010093EC01882777FD47
:100360008095982F0E94AB1D29E23CE54FE05CE3AD
:100370000E948B1E0E94781D4B015C01B7018827EB
:1003800077FD8095982F0E94AB1D29E23CE54FE058
:100390005CE30E948B1E0E94781D6B017C01B801FA
:1003A000882777FD8095982F0E94AB1D29E23CE5B8
:1003B0004FE05CE30E948B1E0E94781D2091E401B7
:1003C0003091E5012130310521F50091EA011091CC
:1003D000EB01222717FD2095322F801A910AA20ADD
:1003E000B30A0091E8011091E901222717FD209539
:1003F000322FC01AD10AE20AF30A0091E6011091E5
:10040000E701222717FD2095322F601B710B820B0D
:10041000930B88829982AA82BB82CC82DD82EE8293
:10042000FF82688779878A879B87CE01DF91CF918A
:100430001F910F91FF90EF90DF90CF90BF90AF9002
:100440009F908F9008951F93CF93DF93CDB7DEB722
:100450002C970FB6F894DEBF0FBECDBF12E3CE01CE
:1004600001960E944D012091EA013091EB018981B2
:100470009A81820F931F9093EB018093EA01209160
:10048000E8013091E9018D819E81820F931F909345
:10049000E9018093E8012091E6013091E701898527
:1004A0009A85820F931F9093E7018093E601115084
:1004B000B1F68091EA019091EB0122E330E0B901BD
:1004C0000E94F11E7093EB016093EA018091E801B4
:1004D0009091E901B9010E94F11E7093E9016093C6
:1004E000E8018091E6019091E701B9010E94F11EB7
:1004F0007093E7016093E60183EA90E00E94F11BAC
:1005000081EB90E00E94E11B6091EA017091EB01A8
:10051000882777FD8095982F0E94231C85EB90E01B
:100520000E94E11B6091E8017091E901882777FD45
:100530008095982F0E94231C89EB90E00E94E11B7C
:100540006091E6017091E701882777FD8095982FEB
:100550000E94231C2FE986E891E0215080409040C2
:10056000E1F700C0000081E090E09093E501809306
:10057000E4018DEB90E00E94F11B2C960FB6F894ED
:10058000DEBF0FBECDBFDF91CF911F910895CF93F6
:10059000C82F0E94F1074C2F60E888E70E94DB0714
:1005A0000E94CF07CF910895CF93C82F0E94F107E3
:1005B0004C2F60E488E70E94DB070E94CF07CF91B1
:1005C00008958EEA0E94C70284EA0E94C70280E270
:1005D0000E94C70282E00E94C70281EA0E94C7020D
:1005E00088EC0E94C70286EA0E94C70281E80E9446
:1005F000C7028FEA0E94C70286ED0E94C70281E00F
:100600000E94C7022FE789EA93E021508040904082
:10061000E1F700C000008FEA0E94C7020895CF935F
:10062000DF9386EA0E94C7028EEA0E94C70280E238
:100630000E94C70280E00E94C70280EB0E94C702AE
:1006400080E40E94C70280E00E94C70280E10E940D
:10065000C702C0E0D4E080E00E94D4022197D9F71D
:1006600081E80E94C7028FEA0E94C7028FEA0E94B7
:10067000C70280EB0E94C702DF91CF910895CF930C
:10068000C82F862F80550E94C7028C2F880F880F95
:10069000880F88700E94C7028C2F90E096958795EE
:1006A0008F709927805F0E94C702CF91089580EBD9
:1006B0000E94C70280E00E94C70280E10E94C70238
:1006C00008958EE70E94D40281E10E94D40281E164
:1006D0000E94D40281E10E94D4028EE70E94D402DB
:1006E00080E00E94D40280E00E94D40208958FE747
:1006F0000E94D40281E40E94D40281E40E94D402C8
:1007000082E20E94D4028CE10E94D40280E00E9426
:10071000D40280E00E94D40208958FE70E94D402A0
:1007200089E40E94D40289E40E94D40289E40E94F0
:10073000D40281E40E94D40280E00E94D40280E0CE
:100740000E94D40208958FE70E94D40289E00E949B
:10075000D40289E00E94D40289E00E94D40281E0A0
:100760000E94D40280E00E94D40280E00E94D40261
:1007700008958EE30E94D40281E40E94D40289E4A9
:100780000E94D40289E40E94D4028AE70E94D40223
:1007900080E00E94D40280E00E94D40208958FE796
:1007A0000E94D40288E00E94D40288E00E94D40211
:1007B00088E00E94D4028FE70E94D40280E00E9469
:1007C000D40280E00E94D402089580E00E94D40206
:1007D00081E40E94D4028FE70E94D40281E40E9447
:1007E000D40280E00E94D40280E00E94D40280E023
:1007F0000E94D40208958FE70E94D40280E40E94F0
:10080000D40280E40E94D40280E40E94D40280E4F6
:100810000E94D40280E00E94D40280E00E94D402B0
:1008200008958FE70E94D40282E00E94D4028CE0F7
:100830000E94D40282E00E94D4028FE70E94D40278
:1008400080E00E94D40280E00E94D40208958FE7E5
:100850000E94D40284E00E94D40288E00E94D40264
:1008600080E10E94D4028FE70E94D40280E00E94BF
:10087000D40280E00E94D40208958EE30E94D40244
:1008800081E40E94D40281E40E94D40281E40E94A7
:10089000D4028EE30E94D40280E00E94D40280E061
:1008A0000E94D40208958FE70E94D40289E00E943A
:1008B000D40289E00E94D40289E00E94D40286E03A
:1008C0000E94D40280E00E94D40280E00E94D40200
:1008D00008958FE70E94D40289E00E94D40289E142
:1008E0000E94D40289E20E94D40286E40E94D402CB
:1008F00080E00E94D40280E00E94D402089586E441
:100900000E94D40289E40E94D40289E40E94D402A5
:1009100089E40E94D40281E30E94D40280E00E9414
:10092000D40280E00E94D402089581E00E94D402A3
:1009300081E00E94D4028FE70E94D40281E00E94ED
:10094000D40281E00E94D40280E00E94D40280E0C0
:100950000E94D4020895811130C00E94FB030E94BE
:10096000E5030E94B9030E94CF030E94950461E051
:1009700080E00E943F030E94CF030E943D040E943A
:1009800011040E948D0362E080E00E943F030E94F8
:1009900011040E943D040E9477030E948D0363E0CE
:1009A00080E00E943F030E94CF030E948D030E94BB
:1009B00061030E9477030E945703089580E00E941C
:1009C000D40280E00E94D40280E00E94D40280E041
:1009D0000E94D40280E00E94D40280E00E94D402EF
:1009E00080E00E94D4020895CF93DF93C82FD62FC2
:1009F0000E9457036D2F8C2F0E943F0388EF0E94A7
:100A0000D40288EF0E94D40288E00E94D40288EFCA
:100A10000E94D4028CEF0E94D40284EF0E94D40280
:100A200084EF0E94D40284EF0E94D40284EF0E94DB
:100A3000D40284EF0E94D4028CEF0E94D40288EF8B
:100A40000E94D40288E00E94D40288EF0E94D4025F
:100A500088EF0E94D4026D2F6F5F8C2F0E943F039E
:100A60008FEF0E94D4028FEF0E94D40280E80E9490
:100A7000D4028FEF0E94D4028FEF0E94D4028FEF36
:100A80000E94D4028FEF0E94D4028FEF0E94D40202
:100A90008FEF0E94D4028FEF0E94D4028FEF0E944A
:100AA000D4028FEF0E94D40280E80E94D4028FEF1C
:100AB0000E94D4028FEF0E94D402DF91CF9108955B
:100AC000CF93DF93C82FD62F0E9457036D2F8C2F03
:100AD0000E943F0388EF0E94D40288EF0E94D40254
:100AE00088E00E94D40288EC0E94D4028CEC0E9420
:100AF000D40284EC0E94D40284EC0E94D40284ECE0
:100B00000E94D40284EC0E94D40284EC0E94D4029D
:100B10008CEC0E94D40288EC0E94D40288E00E94EF
:100B2000D40288EF0E94D40288EF0E94D4026D2F75
:100B30006F5F8C2F0E943F038FEF0E94D4028FEFD4
:100B40000E94D40280E80E94D4028FEF0E94D40257
:100B50008FEF0E94D4028FEF0E94D4028FEF0E9489
:100B6000D4028FEF0E94D4028FEF0E94D4028FEF45
:100B70000E94D4028FEF0E94D4028FEF0E94D40211
:100B800080E80E94D4028FEF0E94D4028FEF0E946F
:100B9000D402DF91CF910895CF93DF93C82FD62F42
:100BA0000E9457036D2F8C2F0E943F0388EF0E94F5
:100BB000D40288EF0E94D40288E00E94D40288E028
:100BC0000E94D4028CE00E94D40284E00E94D402ED
:100BD00084E00E94D40284E00E94D40284E00E9457
:100BE000D40284E00E94D4028CE00E94D40288E007
:100BF0000E94D40288E00E94D40288EF0E94D402AE
:100C000088EF0E94D4026D2F6F5F8C2F0E943F03EC
:100C10008FEF0E94D4028FEF0E94D40280E80E94DE
:100C2000D4028FEF0E94D4028FEF0E94D4028FEF84
:100C30000E94D4028FEF0E94D4028FEF0E94D40250
:100C40008FEF0E94D4028FEF0E94D4028FEF0E9498
:100C5000D4028FEF0E94D40280E80E94D4028FEF6A
:100C60000E94D4028FEF0E94D402DF91CF910895A9
:100C7000CF93DF93C82FD62F0E9457036D2F8C2F51
:100C80000E943F0388EF0E94D40288EF0E94D402A2
:100C900088E00E94D40288E00E94D4028CE00E9486
:100CA000D40284E00E94D40284E00E94D40284E052
:100CB0000E94D40284E00E94D40284E00E94D40204
:100CC0008CE00E94D40288E00E94D40288E00E9456
:100CD000D40288EF0E94D40288EF0E94D4026D2FC4
:100CE0006F5F8C2F0E943F038FEF0E94D4028FEF23
:100CF0000E94D40280E80E94D4028CEF0E94D402A9
:100D00008CEF0E94D4028CEF0E94D4028CEF0E94E0
:100D1000D4028CEF0E94D4028CEF0E94D4028CEF9C
:100D20000E94D4028CEF0E94D4028CEF0E94D40265
:100D300080E80E94D4028FEF0E94D4028FEF0E94BD
:100D4000D402DF91CF910895CF93DF93C82FD62F90
:100D50000E9457036D2F8C2F0E943F0388EF0E9443
:100D6000D40288EF0E94D40288E00E94D40288E076
:100D70000E94D4028CE00E94D40284E00E94D4023B
:100D800084E00E94D40284E00E94D40284E00E94A5
:100D9000D40284E00E94D4028CE00E94D40288E055
:100DA0000E94D40288E00E94D40288EF0E94D402FC
:100DB00088EF0E94D4026D2F6F5F8C2F0E943F033B
:100DC0008FEF0E94D4028FEF0E94D40280E80E942D
:100DD000D40280EF0E94D40280EF0E94D40280EF00
:100DE0000E94D40280EF0E94D40280EF0E94D402BD
:100DF00080EF0E94D40280EF0E94D40280EF0E9414
:100E0000D40280EF0E94D40280E80E94D4028FEFC7
:100E10000E94D4028FEF0E94D402DF91CF910895F7
:100E2000CF93DF93C82FD62F0E9457036D2F8C2F9F
:100E30000E943F0388EF0E94D40288EF0E94D402F0
:100E400088E00E94D40288E00E94D4028CE00E94D4
:100E5000D40284E00E94D40284E00E94D40284E0A0
:100E60000E94D40284E00E94D40284E00E94D40252
:100E70008CE00E94D40288E00E94D40288E00E94A4
:100E8000D40288EF0E94D40288EF0E94D4026D2F12
:100E90006F5F8C2F0E943F038FEF0E94D4028FEF71
:100EA0000E94D40280E80E94D40280E80E94D4020A
:100EB00080E80E94D40280E80E94D40280E80E9468
:100EC000D40280E80E94D40280E80E94D40280E824
:100ED0000E94D40280E80E94D40280E80E94D402DA
:100EE00080E80E94D4028FEF0E94D4028FEF0E940C
:100EF000D402DF91CF91089587E080B986B78564E9
:100F000086BF089584EA86BF06B607FEFDCF81B18D
:100F1000887F8830E1F7089584EA86BF06B607FE29
:100F2000FDCF089583B986B7846C86BF06B607FEE9
:100F3000FDCF81B1887F8034E1F7089583B984E8DB
:100F400086BF06B607FEFDCF81B1887F8831E1F705
:100F5000089583B984E886BF06B607FEFDCF81B148
:100F6000887F8832E1F7089583B984E886BF06B6A2
:100F700007FEFDCF81B1887F8832E1F7089584E8CC
:100F800086BF06B607FEFDCF83B190E0089584ECDE
:100F900086BF06B607FEFDCF83B190E0089513B873
:100FA00086B7846986BF06B604FCFDCF089506B6F1
:100FB00007FEFDCF08951F93CF93DF93162FD42FF5
:100FC00083B9C4E8C6BF0E94D70713B9C6BF0E9441
:100FD000D707D3B9C6BF0E94D707DF91CF911F9122
:100FE000089584EA86BF0E94D707089587B38F616A
:100FF00087BB8AB383608ABB88B3807E88BB8BB390
:101000008C7F8BBB1FBC8AE08EBD8AEC98E09BBDB9
:101010008ABD80E48BBF83E085BF85E085BD14BCBD
:101020008FEC90E00E94F11B08951F920F920FB673
:101030000F9211242F933F934F935F938F939F931E
:10104000AF93BF938091FB01863009F499C084F47B
:10105000823009F447C034F48823E9F0813009F084
:1010600027C12AC0843009F464C00CF073C04BC09F
:101070008A3009F4D3C034F4883009F4A8C00CF0E5
:10108000B7C08FC08C3009F4F0C00CF4D8C08D30DC
:1010900009F00EC1FBC0C09A809160009091610080
:1010A000A0916200B09163009BBD8ABD8091FB015D
:1010B0008F5F8093FB01FCC0C0988091600090918D
:1010C0006100A0916200B091630020EA3FE0A901B5
:1010D000481B590B5BBD4ABD8091FB018F5F80931C
:1010E000FB01E6C0C19A8091640090916500A091D7
:1010F0006600B09167009BBD8ABD8091FB018F5F48
:101100008093FB01D5C0C1988091640090916500E7
:10111000A0916600B091670020EA3FE0A901481B5A
:10112000590B5BBD4ABD8091FB018F5F8093FB0132
:10113000BFC0C29A8091680090916900A0916A0036
:10114000B0916B009BBD8ABD8091FB018F5F809346
:10115000FB01AEC0C2988091680090916900A09197
:101160006A00B0916B0020EA3FE0A901481B590BCF
:101170005BBD4ABD8091FB018F5F8093FB0198C0EE
:10118000C39A80916C0090916D00A0916E00B09117
:101190006F009BBD8ABD8091FB018F5F8093FB0137
:1011A00087C0C39880916C0090916D00A0916E00F3
:1011B000B0916F0020EA3FE0A901481B590B5BBDCD
:1011C0004ABD8091FB018F5F8093FB0171C0C49A7F
:1011D0008091700090917100A0917200B0917300A5
:1011E0009BBD8ABD8091FB018F5F8093FB0160C036
:1011F000C4988091700090917100A0917200B0919C
:10120000730020EA3FE0A901481B590B5BBD4ABDB2
:101210008091FB018F5F8093FB014AC0D89A809137
:10122000740090917500A0917600B09177009BBDFD
:101230008ABD8091FB018F5F8093FB0139C0D898F4
:101240008091740090917500A0917600B091770024
:1012500020EA3FE0A901481B590B5BBD4ABD8091C4
:10126000FB018F5F8093FB0123C0D99A80917800A6
:1012700090917900A0917A00B0917B009BBD8ABDCE
:101280008091FB018F5F8093FB0112C0D998809100
:10129000780090917900A0917A00B0917B0020EACB
:1012A0003FE0A901481B590B5BBD4ABD1092FB01F1
:1012B000BF91AF919F918F915F914F913F912F91EE
:1012C0000F900FBE0F901F9018951F920F920FB6A0
:1012D0000F9211242F938F939F93EF93FF938091FD
:1012E000F8019091F901019729F41092F9011092F7
:1012F000F8010FC02091FA01E22FF0E084B590E0F0
:10130000EE0FFF1FEC5CFD4F918380832F5F2093D6
:10131000FA0114BCFF91EF919F918F912F910F9043
:101320000FBE0F901F9018951F920F920FB60F923D
:1013300011248F939F931092FA0181E090E0909393
:10134000F9018093F8019F918F910F900FBE0F903C
:101350001F9018958DE083BF85E78CBF8FE892ECD6
:10136000A5EFBCE38093460290934702A093480206
:10137000B093490281EE90E00E94F11B08951F9204
:101380000F920FB60F9211248F9380914A028F5FB4
:1013900080934A02833028F081E080934B021092C0
:1013A0004A028F910F900FBE0F901F90189581B534
:1013B0008D6081BD08950F931F93FC0141914423DB
:1013C00081F1842F80538A3080F500E010E098018D
:1013D00004C0842F80538A3058F5D901C801880F82
:1013E000991FAA1FBB1F8C019D01000F111F221FF7
:1013F000331F000F111F221F331F800F911FA21FC9
:10140000B31F042F10E000531109222717FD209568
:10141000322F080F191F2A1F3B1F41914111D9CFAD
:1014200007C000E010E0980103C000E010E0980160
:10143000602F712F822F932F1F910F910895CF93BB
:10144000DF93CDB7DEB7C555D1090FB6F894DEBF2F
:101450000FBECDBF0E945E1B04B603FE05C08DEF1C
:1014600090E00E94E11B1EC004B600FE05C085E0AE
:1014700091E00E94E11B16C004B602FE05C08EE09A
:1014800091E00E94E11B0EC004B601FE05C089E197
:1014900091E00E94E11B06C064B770E080E090E03C
:1014A0000E94051C84B7807F84BF2FE73FE482E160
:1014B000215030408040E1F700C000000E947C07CE
:1014C0000E943C010E9423020E9477000E94E102D8
:1014D0000E940F0380E00E94AB04F8940E94AA09C6
:1014E0000E94F60782E589BF78940E94D70981B3EC
:1014F000806F81BB82B38F7082BB949A8091B3025C
:101500008130B1F560E271E087E194E00E943B1F19
:10151000282F392F232B81F4E7E1F4E0A4EBB2E08C
:1015200080EB01900D928A95E1F7E7E1F4E0DF01AD
:1015300020EB1D922A95E9F766E271E087E194E0DD
:101540000E943B1F282F392F232B81F4E7E1F4E081
:10155000A4E6B3E080EB01900D928A95E1F7E7E114
:10156000F4E0DF0120EB1D922A95E9F71092B30217
:1015700080914B02813011F00C945B1B10924B0256
:10158000CE010D960E944D012D8520936405998909
:10159000909397058D8980935805209382059093A9
:1015A0006F0580939102CE0101960E94840009810B
:1015B0001A8110935B0500935A05ED80FE80F0922E
:1015C0009005E0928F0569857A8570936A0560932E
:1015D0006905719561957109882777FD8095982F28
:1015E0000E94AB1D4B015C01B801882777FD8095F7
:1015F000982F0E94AB1DA50194010E94B91C20E008
:1016000030E044E353E40E948B1E2BED3FE049E4BD
:1016100050E40E94101D162F072F382E292E862FDA
:10162000902FA32DB22D8093790290937A02A093EC
:101630007B02B0937C02662777276E197F09882783
:1016400077FD8095982F0E94AB1DA50194010E9403
:10165000B91C20E030E044E353E40E948B1E2BEDE4
:101660003FE049E450E40E94101D6D8F7E8F8F8F04
:1016700098A3472F382F292F862F942FA32FB22FCF
:101680008093750290937602A0937702B0937802CC
:101690008091710290917202A0917302B0917402D4
:1016A00026968CAF9DAFAEAFBFAF26978090460217
:1016B00090904702A0904802B09049026091830543
:1016C00070918405882777FD8095982F0E94AB1D27
:1016D0006B017C0160916F05772767FD7095872FFF
:1016E000972F0E94AB1D26962CAD3DAD4EAD5FAD44
:1016F00026970E94451CA50194010E948B1E9B0108
:10170000AC01C701B6010E94461C0E94781D7AA355
:1017100069A375016401F7FAF094F7F8F09440902A
:1017200048055090490560904A0570904B0580919E
:10173000840090918500A0918600B0918700898FE8
:101740009A8FAB8FBC8F20915405309155054091F5
:10175000560550915705C301B2010E94461C298DC0
:101760003A8D4B8D5C8D0E94451C9B01AC01C701DD
:10177000B6010E948B1E209165053091660540914F
:101780006705509168050E94461C6DA37EA38FA338
:1017900098A780916D0290916E02A0916F02B09116
:1017A00070022A968CAF9DAFAEAFBFAF2A979C0157
:1017B000AD01C701B6010E948B1E9B01AC01C301A4
:1017C000B2010E94461C69A77AA78BA79CA720910B
:1017D0008000309181004091820050918300C501CA
:1017E000B4010E948B1E63966FAF639764967FAFC0
:1017F000649765968FAF659766969FAF6697809161
:10180000650290916602A0916702B09168022E96DF
:101810008CAF9DAFAEAFBFAF2E9760918D02709130
:101820008E02882777FD8095982F0E94AB1D2B0193
:101830003C0160918205772767FD7095872F972F70
:101840000E94AB1D2E962CAD3DAD4EAD5FAD2E97DB
:101850000E94451C9B01AC01C501B4010E948B1E76
:101860009B01AC01C301B2010E94461C0E94781D7D
:101870007CA36BA34090890550908A0560908B05EE
:1018800070908C05209185053091860540918705E3
:1018900050918805C301B2010E94461C298D3A8DE2
:1018A0004B8D5C8D0E94451C9B01AC01C701B601AC
:1018B0000E948B1E20913A0530913B0540913C05DA
:1018C00050913D050E94461C698F7DA78EA79FA75A
:1018D0008091610290916202A0916302B0916402D2
:1018E00062968CAF9DAFAEAFBFAF62979C01AD016A
:1018F000C701B6010E948B1E9B01AC01C301B2015E
:101900000E94461C68AB79AB8AAB9BABA9A1BAA17C
:10191000BD01882777FD8095982F0E94AB1D4B0154
:101920005C019B01AC01612F702F832D922D0E94D1
:10193000451C6AAF7BAF8CAF9DAF472F382F292F47
:10194000862F942FA32FB22F80935C0590935D0573
:10195000A0935E05B0935F0540907C0050907D00A1
:1019600060907E0070907F00A3019201BDA1AEA1A6
:10197000FFA1E8A56B2F7A2F8F2F9E2F0E94461C68
:10198000162F072FF82EE92E862F902FAF2DBE2D64
:101990008093280590932905A0932A05B0932B05E1
:1019A000212F302F4A2F5B2FBDA1AEA1FFA1E8A5AB
:1019B0006B2F7A2F8F2F9E2F0E94101D362E272ED1
:1019C00089A39CAB382F292F862F922DA32FB22FBE
:1019D0008093160590931705A0931805B0931905E9
:1019E000212F302F4F2D5E2DB9A5AAA5FBA5ECA563
:1019F0006B2F7A2F8F2F9E2F0E94101D6DAB7EAB09
:101A00008FAB98AF472F382F292F862F942FA32FD6
:101A1000B22F8093690290936A02A0936B02B093F5
:101A20006C02EBA1FCA1BF01882777FD8095982F60
:101A30000E94AB1D6B017C019B01AC01BD8DAE8D85
:101A4000FF8DE8A16B2F7A2F8F2F9E2F0E94451CB0
:101A50006EAF7FAF21968FAF219722969FAF2297CF
:101A6000472F382F292F862F942FA32FB22F809303
:101A7000910590939205A0939305B0939405A301CB
:101A80009201B98DADA5FEA5EFA56B2F7A2F8F2FF3
:101A90009E2F0E94461C162F072F782E692E862F08
:101AA000902FA72DB62D80937E0590937F05A09350
:101AB0008005B0938105212F302F4A2F5B2FB98DE0
:101AC000ADA5FEA5EFA56B2F7A2F8F2F9E2F0E941D
:101AD000101D6D8F7E8F482E592E472F862F942FE5
:101AE000A42DB52D80939C0590939D05A0939E05F4
:101AF000B0939F05212F302F472D562DB8A9A9A9A6
:101B0000FAA9EBA96B2F7A2F8F2F9E2F0E94101D01
:101B10006F8F78A38BA399AF472F382F292F862F4C
:101B2000942FA32FB22F80935D0290935E02A09317
:101B30005F02B093600299A18CA9232D322D492F09
:101B4000582FBAADABADFCADEDAD6B2F7A2F8F2F0B
:101B50009E2F0E948B1E9B01AC01C501B4010E9407
:101B6000461C0E94781D70938405609383057DA9AF
:101B70006EA99FA988AD272F362F492F582FBAADB0
:101B8000ABADFCADEDAD6B2F7A2F8F2F9E2F0E944A
:101B90008B1E9B01AC0126966CAD7DAD8EAD9FADCD
:101BA00026970E94461C6093710270937202809384
:101BB00073029093740299A18CA9232D322D492F81
:101BC000582FBDA1AEA1FFA1E8A56B2F7A2F8F2FB3
:101BD0009E2F0E948B1E9B01AC01BDA1AEA1FFA157
:101BE000E8A56B2F7A2F8F2F9E2F0E94451C162F52
:101BF000072FB82EA92E862F902FAB2DBA2D8093AC
:101C0000650590936605A0936705B093680599A153
:101C10008CA9232D322D492F582FB9A5AAA5FBA594
:101C2000ECA56B2F7A2F8F2F9E2F0E948B1E9B016E
:101C3000AC01B9A5AAA5FBA5ECA56B2F7A2F8F2F18
:101C40009E2F0E94451C762E672E282E392E862F19
:101C5000962DA22DB32D8093480590934905A0930E
:101C60004A05B0934B05212F302F4B2D5A2DBDA97E
:101C7000AEA9FFA9E8AD6B2F7A2F8F2F9E2F0E9460
:101C80008B1E9B01AC01B9A5AAA5FBA5ECA56B2FEA
:101C90007A2F8F2F9E2F0E94451C609354057093BE
:101CA0005505809356059093570563967FAD6397CE
:101CB00064966FAD649765969FAD659766968FAD98
:101CC0006697272F362F492F582F2A966CAD7DAD5A
:101CD0008EAD9FAD2A970E94461C4B015C01272DBB
:101CE000362D422D532DBDA9AEA9FFA9E8AD6B2F0E
:101CF0007A2F8F2F9E2F0E948B1E9B01AC01C50156
:101D0000B4010E94451C60936D0270936E02809333
:101D10006F02909370027D8D6E8D272F362F442D8C
:101D2000552DBEADAFAD2196FFAD21972296EFADFB
:101D300022976B2F7A2F8F2F9E2F0E948B1E9B0135
:101D4000AC01C701B6010E94461C0E94781D709329
:101D50008E0260938D027F8D68A19BA189AD272F94
:101D6000362F492F582FBEADAFAD2196FFAD21972D
:101D70002296EFAD22976B2F7A2F8F2F9E2F0E94E6
:101D80008B1E9B01AC012E966CAD7DAD8EAD9FADD3
:101D90002E970E94461C60936502709366028093A2
:101DA0006702909368027D8D6E8D272F362F442D0C
:101DB000552DB98DADA5FEA5EFA56B2F7A2F8F2FD1
:101DC0009E2F0E948B1E9B01AC01B98DADA5FEA577
:101DD000EFA56B2F7A2F8F2F9E2F0E94451CE62E8A
:101DE000F72E082F192F862F9F2DA02FB12F80930C
:101DF0003A0590933B05A0933C05B0933D057D8D3E
:101E00006E8D272F362F442D552DB8A9A9A9FAA9D3
:101E1000EBA96B2F7A2F8F2F9E2F0E948B1E9B0179
:101E2000AC01B8A9A9A9FAA9EBA96B2F7A2F8F2F1A
:101E30009E2F0E94451CA62EB72EC82ED92E862F67
:101E40009B2DAC2DBD2D8093890590938A05A09381
:101E50008B05B0938C052E2D3F2D402F512FBF8D1C
:101E6000A8A1FBA1E9AD6B2F7A2F8F2F9E2F0E9487
:101E70008B1E9B01AC01B8A9A9A9FAA9EBA96B2FEC
:101E80007A2F8F2F9E2F0E94451C6093850570939B
:101E90008605809387059093880562962CAD3DADAD
:101EA0004EAD5FAD62976396BFAD63976496AFAD7D
:101EB00064976596FFAD65976696EFAD66976B2F55
:101EC0007A2F8F2F9E2F0E94461C2B013C012A2D1A
:101ED0003B2D4C2D5D2DBF8DA8A1FBA1E9AD6B2F36
:101EE0007A2F8F2F9E2F0E948B1E9B01AC01C30166
:101EF000B2010E94451C609361027093620280935C
:101F00006302909364028BEE92E00E94DB0960937F
:101F1000740570937505809376059093770585ED2C
:101F200092E00E94DB0960936005709361058093E5
:101F30006205909363058CE093E00E94DB0924E640
:101F400030E040E050E00E94051F30935C02209397
:101F50005B02A4E3B2E08D919C918E3691050CF06A
:101F60007AC080913A0290913B02803B91050CF43B
:101F700072C080913802909139028B3A91050CF42D
:101F80006AC0E6E3F2E0808191818B3A91050CF41E
:101F900062C08091520281113EC080915102811134
:101FA0005CC081E080935102809352028BEE92E0FC
:101FB0000E94DB0960931E0570931F058093200526
:101FC0009093210585ED92E00E94DB096093400526
:101FD0007093410580934205909343058CE291E014
:101FE0000E94E11B6091400570914105809142057E
:101FF000909143050E94051C8AE391E00E94E11B39
:1020000060911E0570911F0580912005909121051A
:102010000E94231C22C0813001F580915102811160
:102020001CC081E0809351021092520210921E0552
:1020300010921F0510922005109221051092400564
:1020400010924105109242051092430581E491E0FF
:102050000E94F11B02C010925102A4E3B2E08D91E4
:102060009C918E3691057CF580913A0290913B02CD
:10207000803B910544F180913802909139028E366F
:1020800091050CF5E6E3F2E0808191818B3A9105B0
:10209000D4F08091500281110AC090914F029111A9
:1020A0003FC081E080934F028093500212C0813084
:1020B000B9F580914F0281110CC081E080934F02ED
:1020C000109250022FC010924F0280915002813026
:1020D00039F5959A80918800909189008C36F7E0C7
:1020E0009F0719F08C3F984009F4969A80914E0210
:1020F0008F5F80934E028E3609F4949A80914E023F
:10210000803709F4949880914E02843709F4949AA8
:1021100080914E02863749F4949810924E0205C081
:10212000811103C082B38F7082BBAEE3B2E08D91A8
:102130009C918139910524F083E08093B10212C013
:10214000EEE3F2E0808191818C38910544F080814A
:102150009181803991051CF41092B10203C082E094
:102160008093B1028091B1029091B002981721F052
:1021700091E09093AF0202C01092AF02823009F456
:1021800014C220F4882351F00C94B019833009F460
:10219000EFC3843011F00C94B019FAC08091AF02F3
:1021A000813021F483E591E00E94F11BA4E3B2E0C9
:1021B0002D913C91220F331FC901880F991F880F61
:1021C000991F880F991F821B930B8E5D9E4FAA2724
:1021D00097FDA095BA2FE0E6F0E080839183A2837B
:1021E000B383A6E3B2E02D913C914FE0429FC00142
:1021F000439F900D11248A569F4FAA2797FDA095C3
:10220000BA2FE4E6F0E080839183A283B383209128
:10221000380230913902429FC001439F900D112432
:10222000AA2797FDA095BA2FE8E6F0E08083918376
:10223000A283B38320913A0230913B02220F331FD5
:10224000C901880F991F880F991F880F991F821B3A
:10225000930B8E5D9E4FAA2797FDA095BA2FECE6B3
:10226000F0E080839183A283B38380913C029091BC
:102270003D028738910574F480913C0290913D02B3
:10228000893791053CF086EE95E090938900809324
:10229000880029C080913C0290913D0286399105C9
:1022A00074F480913C0290913D02883891053CF095
:1022B0008CE697E0909389008093880014C0809109
:1022C0003C0290913D02803A91056CF480913C0271
:1022D00090913D028739910534F08CEF98E090930E
:1022E000890080938800A0E7B0E04D915D916D91E9
:1022F0007C918091880090918900A0E0B0E048171F
:1023000059076A077B0774F4E0E7F0E08081918168
:10231000A281B3810A96A11DB11D80839183A283FE
:10232000B3831DC0E0E7F0E0408151816281738199
:1023300084179507A607B70764F480819181A2816D
:10234000B3810A97A109B10980839183A283B383E2
:1023500006C0E0E7F0E080839183A283B3838AEC38
:1023600098E0A0E0B0E08093740090937500A09393
:102370007600B093770085E892E0A0E0B0E080932B
:10238000780090937900A0937A00B0937B00E8C71F
:102390008091AF028130F1F48FE591E00E94F11B52
:1023A000109278051092790510927A0510927B05AB
:1023B0006091320570913305882777FD8095982FBD
:1023C0000E94AB1D6093A0057093A1058093A205A8
:1023D0009093A305A6E3B2E02D913C914FE0429F7C
:1023E000C001439F900D11248A569F4FAA2797FD45
:1023F000A095BA2FE4E6F0E080839183A283B383B3
:102400002091380230913902429FC001439F900DC4
:102410001124AA2797FDA095BA2FE8E6F0E0808363
:102420009183A283B38320913A0230913B02220F21
:10243000331FC901880F991F880F991F880F991F93
:10244000821B930B8E5D9E4FAA2797FDA095BA2FF6
:10245000ECE6F0E080839183A283B383209198051A
:102460003091990540919A0550919B056091A00586
:102470007091A1058091A2059091A3050E94451C31
:10248000662E772E082F192F862F972DA02FB12F6C
:102490008093440590934505A0934605B093470566
:1024A000209178053091790540917A0550917B050E
:1024B000662D772D802F912F0E94461CC62ED72E79
:1024C000E82EF92E982F4C2D5D2D692F7F2D4093EE
:1024D00078055093790560937A0570937B05609138
:1024E000A6027091A7028091A8029091A9020E9471
:1024F000AB1D4B015C012091460230914702409197
:102500004802509149026C2D7D2D8E2D9F2D0E94E9
:102510008B1E9B01AC01662D772D802F912F0E9481
:10252000461C9B01AC01C501B4010E94461C0E94DF
:10253000781DA0E6B0E06D937D938D939C931397E7
:102540008D919D910D90BC91A02D893B9B40A10543
:10255000B1055CF088EB9BE0A0E0B0E0E0E6F0E0E5
:1025600080839183A283B38313C0E0E6F0E080818F
:102570009181A281B381883E9340A105B10544F4C5
:1025800088EE93E0A0E0B0E080839183A283B383E0
:10259000862D972DA02FB12F8093920290939302B6
:1025A000A0939402B0939502DBC68091AF02813074
:1025B00009F0F0C08FE691E00E94F11B8091720556
:1025C00090917305909335058093340590939D0207
:1025D00080939C028091A4059091A5059093960507
:1025E0008093950560918D0270918E02882777FD0A
:1025F0008095982F0E94AB1D6093890270938A0288
:1026000080938B0290938C0260933605709337050C
:1026100080933805909339058091830590918405C6
:1026200090934D0580934C05609132057091330570
:10263000882777FD8095982F0E94AB1D6093A00599
:102640007093A1058093A2059093A305E8E6F0E0BE
:1026500080819181A281B3818093AA029093AB0281
:10266000A093AC02B093AD02E4E6F0E080819181EA
:10267000A281B3818093A2029093A302A093A402AB
:10268000B093A502E0E6F0E080819181A281B38160
:102690008093A6029093A702A093A802B093A902E8
:1026A000ECE6F0E080819181A281B38180939E026B
:1026B00090939F02A093A002B093A10210929B025C
:1026C00010929A0210929902109298021092970218
:1026D00010929602109244051092450510924605FC
:1026E00010924705109278051092790510927A059C
:1026F00010927B0510923F0510923E0510927105D5
:10270000109270051092900210928F021092850222
:102710001092860210928702109288021092810213
:1027200010928202109283021092840210927D0213
:1027300010927E0210927F02109280028EE791E04A
:102740000E94E11B6091340570913505882777FD63
:102750008095982F0E94051C8BE991E00E94E11B57
:102760006091950570919605882777FD8095982F43
:102770000E94051C8BE991E00E94E11B6091A0057D
:102780007091A1058091A2059091A3050E94781DEA
:102790000E94231CA6E3B2E02D913C914FE0429FA2
:1027A000C001439F900D11248A569F4FAA2797FD81
:1027B000A095BA2FE4E6F0E080839183A283B383EF
:1027C0002091380230913902429FC001439F900D01
:1027D0001124AA2797FDA095BA2FE8E6F0E08083A0
:1027E0009183A283B38320913A0230913B02220F5E
:1027F000331FC901880F991F880F991F880F991FD0
:10280000821B930B8E5D9E4FAA2797FDA095BA2F32
:10281000ECE6F0E080839183A283B383609132057C
:1028200070913305882777FD8095982F0E94AB1D06
:102830009B01AC016091A0057091A1058091A2055A
:102840009091A3050E94451CA62EB72E082F192F84
:10285000862F9B2DA02FB12F809344059093450583
:10286000A0934605B09347052091780530917905EE
:1028700040917A0550917B056A2D7B2D802F912FF9
:102880000E94461CC62ED72EE82EF92E862F9D2D8F
:10289000AE2DBF2D8093780590937905A0937A058E
:1028A000B0937B056091A6027091A7028091A80267
:1028B0009091A9020E94AB1D9B01AC016A2D7B2D5A
:1028C000802F912F0E94461C2B013C012091460233
:1028D0003091470240914802509149026C2D7D2D64
:1028E0008E2D9F2D0E948B1E9B01AC01C301B20156
:1028F0000E94461C0E94781DA0E6B0E06D937D9377
:102900008D939C9313978D919D910D90BC91A02DCB
:10291000893B9B40A105B1055CF088EB9BE0A0E002
:10292000B0E0E0E6F0E080839183A283B38313C03C
:10293000E0E6F0E080819181A281B3818A3E9640F9
:10294000A105B10544F48AEE96E0A0E0B0E08083F2
:102950009183A283B3838A2D9B2DA02FB12F8093C7
:10296000920290939302A0939402B0939502F8C4BC
:102970008091AF02813009F0FAC08FE991E00E94A6
:10298000F11B8091720590917305909335058093AA
:10299000340590939D0280939C0280915B029091FC
:1029A0005C02909396058093950560918D027091DD
:1029B0008E02882777FD8095982F0E94AB1D60932B
:1029C000890270938A0280938B0290938C026093A9
:1029D00036057093370580933805909339058091BB
:1029E00083059091840590934D0580934C058091CB
:1029F000980590919905A0919A05B0919B058093B7
:102A0000A0059093A105A093A205B093A305E8E6C5
:102A1000F0E080819181A281B3818093AA0290939A
:102A2000AB02A093AC02B093AD02E4E6F0E080818B
:102A30009181A281B3818093A2029093A302A0937B
:102A4000A402B093A502E0E6F0E080819181A2812A
:102A5000B3818093A6029093A702A093A802B0939B
:102A6000A902ECE6F0E080819181A281B38180939C
:102A70009E0290939F02A093A002B093A102109295
:102A80009B0210929A021092990210929802109250
:102A900097021092960210924405109245051092EA
:102AA000460510924705109278051092790510920C
:102AB0007A0510927B0510923F0510923E05109208
:102AC0007105109270051092900210928F02109270
:102AD000850210928602109287021092880210924C
:102AE000810210928202109283021092840210924C
:102AF0007D0210927E0210927F021092800263E0AB
:102B000085E00E943F030E94CF030E943D040E9483
:102B1000FB030E9477038EE791E00E94E11B609126
:102B2000340570913505882777FD8095982F0E9490
:102B3000051C8BE991E00E94E11B60919505709165
:102B40009605882777FD8095982F0E94051C8BE9B4
:102B500091E00E94E11B6091A0057091A105809118
:102B6000A2059091A3050E94781D0E94231C8091CC
:102B70004002909141028B5991094E974CF48091FB
:102B80009C0290919D02909335058093340509C075
:102B900080919C0290919D020A96909335058093B6
:102BA000340580913405909135052091720530915E
:102BB0007305821B930B90939B0280939A02863F2E
:102BC000FFEF9F073CF486EF9FEF90934D058093B6
:102BD0004C050EC0853191052CF490934D058093E2
:102BE0004C0506C084E190E090934D0580934C0520
:102BF000009183051091840580914C0590914D05BD
:102C0000081B190B10933F0500933E05A09070051B
:102C1000B0907105A00EB11EB0927105A092700522
:102C2000C0904602D0904702E0904802F0904902DE
:102C3000B801660F771FC801880F991F880F991F69
:102C4000880F991F680F791F882777FD8095982F27
:102C50000E94AB1D2B013C01B501660F771FAA0C2A
:102C6000BB1CAA0CBB1CAA0CBB1C6A0D7B1D8827B5
:102C700077FD8095982F0E94AB1DA70196010E94B9
:102C80008B1E9B01AC01C301B2010E94461C4B018B
:102C90005C0160918F0270919002601B710B88271C
:102CA00077FD8095982F0E94AB1DA70196010E9489
:102CB000101D9B01AC01C501B4010E94461C0E947D
:102CC000781D20E232E0D9016D937D938D939C9322
:102CD00013971093900200938F0280916F059927AC
:102CE00087FD9095AC01440F551F440F551F440FAD
:102CF000551F840F951FAA2797FDA095BA2FE4E0D2
:102D0000F2E080839183A283B383D9010D911D9159
:102D10002D913C9140815181628173818091AA0201
:102D20009091AB02A091AC02B091AD02800F911FC7
:102D3000A21FB31F841B950BA60BB70BE8E6F0E0B0
:102D400080839183A283B38380819181A281B381A7
:102D5000893B9B40A105B1054CF088EB9BE0A0E0CE
:102D6000B0E080839183A283B38313C0E8E6F0E0F0
:102D700080819181A281B381883E9340A105B105F4
:102D800044F488EE93E0A0E0B0E080839183A283D6
:102D9000B38380913C0290913D028738910584F580
:102DA00080913C0290913D02893791054CF18091D0
:102DB000AE02813029F51092AE0280915B029091B3
:102DC0005C0290939605809395058CEA91E00E94B1
:102DD000E11B6091950570919605882777FD809598
:102DE000982F0E94231C63E085E00E943F030E940D
:102DF000CF030E943D040E94FB030E947703A4C0FE
:102E000080913C0290913D02803A91050CF09CC06B
:102E100080913C0290913D02873991050CF494C059
:102E20008091AE02811190C081E08093AE02C0908B
:102E30001E05D0901F05E0902005F0902105C0925E
:102E40002205D0922305E0922405F0922505809179
:102E5000400590914105A0914205B09143058093B2
:102E60006B0590936C05A0936D05B0936E05009172
:102E70007405109175052091760530917705C01A7B
:102E8000D10AE20AF30AC0921A05D0921B05E09219
:102E90001C05F0921D0500916005109161052091BF
:102EA000620530916305BC01CD01601B710B820B83
:102EB000930B609353027093540280935502909346
:102EC00056020E94AB1D4B015C01C701B6010E9476
:102ED000AB1DA50194010E94B91C20EE3EE245E61F
:102EE00052E40E948B1E0E94781D77232CF0709371
:102EF0005A026093590206C068597E4F70935A0275
:102F0000609359028091590290915A0290939605CC
:102F1000809395058AEB91E00E94E11B60919505F5
:102F200070919605882777FD8095982F0E94231C25
:102F300063E085E00E943F030E94CF030E943D04AE
:102F40000E9411040E948D0320915B0230915C026B
:102F50008091950590919605281B390BC9018859D8
:102F60009E4F843B91052CF0309331052093300522
:102F700004C0909331058093300500913005109185
:102F800031058091570290915802800F911F9093C4
:102F9000580280935702C0904602D0904702E090BA
:102FA0004802F0904902B801882777FD8095982F54
:102FB0000E94AB1D4B015C0180915205909153051D
:102FC000B801681B790B882777FD8095982F0E94A0
:102FD000AB1DA70196010E948B1E9B01AC01C50190
:102FE000B4010E94461C4B015C01B7FAB094B7F8DB
:102FF000B0948092360590923705A0923805B09231
:103000003905109353050093520520E030E040E26B
:1030100051ECC501B4010E940C1D88236CF480E0C2
:1030200090E0A0E2B1EC8093360590933705A09331
:103030003805B093390516C020E030E040E251E495
:10304000C501B4010E94801E181664F480E090E06F
:10305000A0E2B1E48093360590933705A09338053C
:10306000B093390560918D0270918E02882777FDAB
:103070008095982F0E94AB1D9B01AC016091360595
:103080007091370580913805909139050E94451C53
:10309000262E372E082F192F862F932DA02FB12FD4
:1030A0008093850290938602A0938702B093880252
:1030B00020918102309182024091830250918402DA
:1030C000622D732D802F912F0E94461C6DA37EA32D
:1030D0008FA398A7472F382F292F862F942FA32F00
:1030E000B22F8093810290938202A0938302B093C7
:1030F00084026091A2027091A3028091A402909137
:10310000A5020E94AB1D4B015C0120E030E040EACB
:1031100051E4622D732D802F912F0E948B1E2B0165
:103120003C0120E030E040E251E4BDA1AEA1FFA1AE
:10313000E8A56B2F7A2F8F2F9E2F0E948B1E9B014D
:10314000AC01C701B6010E948B1E9B01AC01C301FB
:10315000B2010E94461C9B01AC01C501B4010E9452
:10316000461C4B015C01222D332D402F512F6091C5
:103170007D0270917E0280917F02909180020E9478
:10318000451C20E030E040E450E40E948B1EA70183
:1031900096010E94101D9B01AC01C501B4010E9463
:1031A000461C0E94781DA4E6B0E06D937D938D933C
:1031B0009C931397822D932DA02FB12F80937D0286
:1031C00090937E02A0937F02B0938002E4E6F0E049
:1031D00080819181A281B381893B9B40A105B1058A
:1031E0004CF088EB9BE0A0E0B0E080839183A28369
:1031F000B38313C0E4E6F0E080819181A281B381C2
:10320000883E9340A105B10544F488EE93E0A0E028
:10321000B0E080839183A283B38360913205709183
:103220003305882777FD8095982F0E94AB1D9B0161
:10323000AC016091A0057091A1058091A2059091CB
:10324000A3050E94451C662E772E082F192F862F66
:10325000972DA02FB12F8093440590934505A093FF
:103260004605B09347052091780530917905409146
:103270007A0550917B05662D772D802F912F0E9426
:10328000461C262E372E482E592E862F932DA42DE0
:10329000B52D8093780590937905A0937A05B09326
:1032A0007B056091A6027091A7028091A80290917F
:1032B000A9020E94AB1D9B01AC01662D772D802FCA
:1032C000912F0E94461C4B015C01222D332D442D71
:1032D000552DC701B6010E948B1E9B01AC01C50193
:1032E000B4010E94461C0E94781DA0E6B0E06D93D8
:1032F0007D938D939C9313978D919D910D90BC918F
:10330000A02D893B9B40A105B1055CF088EB9BE0BB
:10331000A0E0B0E0E0E6F0E080839183A283B38395
:1033200013C0E0E6F0E080819181A281B3818A3E02
:103330009640A105B10544F48AEE96E0A0E0B0E025
:1033400080839183A283B383862D972DA02FB12FE5
:103350008093920290939302A0939402B09395026B
:1033600080914C028F5F813219F080934C02AFC084
:1033700010924C0280915202813059F461E085E054
:103380000E943F030E947F040E948D030E949504C7
:103390000AC061E085E00E943F030E9427040E946A
:1033A0003D040E94DE0480915002813059F460E0B7
:1033B00085E00E943F030E943D040E9427040E9472
:1033C000DE040AC060E085E00E943F030E943D04E5
:1033D0000E94A3030E94A30380914D02813538F01F
:1033E00061E070E08EE090E00E94F4042AC08D332A
:1033F00038F061E070E08EE090E00E94600521C04E
:10340000893238F061E070E08EE090E00E94CC05F7
:1034100018C08F3138F061E070E08EE090E00E94DB
:1034200038060FC0803138F061E070E08EE090E047
:103430000E94A40606C061E070E08EE090E00E9469
:1034400010078091B102811119C062E085E00E94ED
:103450003F030E9477030E94E5030E9469040E94D3
:10346000DE0463E085E00E943F030E94DE040E94C8
:10347000DE040E94DE040E94DE0429C0833069F469
:1034800062E085E00E943F030E94CF030E943D045A
:103490000E94FB030E9477031AC08230C1F462E0ED
:1034A00085E00E943F030E9477030E9461030E940F
:1034B00011040E94530463E085E00E943F030E94D0
:1034C000DE040E94DE040E94DE040E94DE04A0E608
:1034D000B0E06D917D918D919C910E94051C8CECCA
:1034E00091E00E94E11BE4E6F0E06081718182815D
:1034F00093810E94051C8CEC91E00E94E11BA8E6E0
:10350000B0E06D917D918D919C910E94051C8CEC99
:1035100091E00E94E11BECE6F0E060817181828124
:1035200093810E94051C8CEC91E00E94E11BA0E7B6
:10353000B0E06D917D918D919C910E94051C8CEC69
:1035400091E00E94E11B60918D0270918E028827AC
:1035500077FD8095982F0E94051C8CEC91E00E94CD
:10356000E11B6091830570918405882777FD809524
:10357000982F0E94051C8CEC91E00E94E11B609149
:103580005B0270915C02882777FD8095982F0E94DE
:10359000051C8CEC91E00E94E11B6091720570911A
:1035A0007305882777FD8095982F0E94051C8CEC69
:1035B00091E00E94E11B60913205709133058827EC
:1035C00077FD8095982F0E94051C8CEC91E00E945D
:1035D000E11B6091340570913505882777FD809552
:1035E000982F0E94051C8CEC91E00E94E11B6091D9
:1035F00036057091370580913805909139050E9404
:10360000781D0E94051C8CEC91E00E94E11B6091EA
:103610004C0570914D05882777FD8095982F0E9465
:10362000051C8CEC91E00E94E11B6091A00570915B
:10363000A1058091A2059091A3050E94781D0E948A
:10364000051C8091EB02882341F18CEC91E00E94F3
:10365000E11B8FEB92E00E94E11B8CEC91E00E9459
:10366000E11B8BEE92E00E94E11B8CEC91E00E944A
:10367000E11B85ED92E00E94E11B8CEC91E00E9441
:10368000E11B8CE093E00E94E11B8CEC91E00E9436
:10369000E11B87EC93E00E94E11B8CEC91E00E941F
:1036A000F11B8091B1028093B00224E332E0E4E0A8
:1036B000F5E031832083A8950C947E0AF89488E97C
:1036C0008AB986E880BD10BC8CE089B978948CB149
:1036D0005F99FDCF08951F920F920FB60F9211249C
:1036E0002F938F939F93EF93FF938CB18093150447
:1036F00010921604809314041092B3028091140463
:103700008432A1F4E091B2028091A6052BE0E2029E
:10371000F0011124E80FF11D87FDFA95E95EFB4FDA
:1037200010821092A6051092B2023DC0809114043E
:103730008C32A9F48091B2029091A6052BE082020E
:10374000F0011124E90FF11D97FDFA95E95EFB4F99
:1037500010821092A6058F5F8093B20224C08091E0
:1037600014048E3201F1809114048A3021F481E036
:103770008093B30218C0809114048A30A1F0E091C4
:10378000B2028091A605909114042BE0E202F001B0
:103790001124E80FF11D87FDFA95E95EFB4F908338
:1037A0008F5F8093A605FF91EF919F918F912F914D
:1037B0000F900FBE0F901F9018955D9BFECF8CB998
:1037C0000895CF93DF93EC018881882339F0219607
:1037D00090E00E94DD1B89918111FACFDF91CF919A
:1037E0000895CF93DF93EC018881882339F02196E7
:1037F00090E00E94DD1B89918111FACF8EEC91E05F
:103800000E94E11BDF91CF910895CF93DF93CDB755
:10381000DEB76F970FB6F894DEBF0FBECDBF2AE0BC
:1038200030E0AE014F5F5F4F0E94441FCE01019612
:103830000E94E11B6F960FB6F894DEBF0FBECDBF9E
:10384000DF91CF910895CF93DF93CDB7DEB76F9718
:103850000FB6F894DEBF0FBECDBF2AE030E0AE0158
:103860004F5F5F4F0E94441FCE0101960E94E11BF3
:103870008EEC91E00E94E11B6F960FB6F894DEBFCC
:103880000FBECDBFDF91CF9108955058BB27AA2717
:103890000ED0FCC1EDD130F0F2D120F031F49F3FD9
:1038A00011F41EF4BDC10EF4E095E7FBB3C1E92F9E
:1038B000FED180F3BA17620773078407950718F0E3
:1038C00071F49EF516C20EF4E0950B2EBA2FA02DC2
:1038D0000B01B90190010C01CA01A0011124FF27BD
:1038E000591B99F0593F50F4503E68F11A16F040B8
:1038F000A22F232F342F4427585FF3CF46953795B7
:103900002795A795F0405395C9F77EF41F16BA0B7B
:10391000620B730B840BBAF09150A1F0FF0FBB1F29
:10392000661F771F881FC2F70EC0BA0F621F731F72
:10393000841F48F4879577956795B795F7959E3FCF
:1039400008F0B3CF9395880F08F09927EE0F97955D
:10395000879508958DD158F080E891E009F49EEFA5
:103960008ED128F040E851E059F45EEF09C058C10B
:10397000C0C1E92FE0789BD168F3092E052AC1F375
:10398000261737074807590738F00E2E07F8E025A5
:1039900069F0E025E0640AC0EF6307F8009407FAD5
:1039A000DB01B9019D01DC01CA01AD01EF9347D0F4
:1039B0006DD10AD05F91552331F02BED3FE049E402
:1039C00050FD49EC63CF0895DF93DD27B92FBF7712
:1039D00040E85FE31616170648075B0710F4D92F77
:1039E00093D19F938F937F936F93F8D1E4E5F0E0A9
:1039F0001AD14CD12F913F914F915F9198D1DD23F6
:103A000049F09058A2EA2AED3FE049EC5FE3D07814
:103A10005D274DDFDF913AC1D9D008F481E00895E8
:103A20000CD034C12CD140F023D130F021F45F3FD1
:103A300019F0F0C051115EC1F3C039D198F3992348
:103A4000C9F35523B1F3951B550BBB27AA27621762
:103A50007307840738F09F5F5F4F220F331F441FA7
:103A6000AA1FA9F333D00E2E3AF0E0E830D09150DF
:103A70005040E695001CCAF729D0FE2F27D0660FCC
:103A8000771F881FBB1F261737074807AB07B0E80B
:103A900009F0BB0B802DBF01FF2793585F4F2AF021
:103AA0009E3F510568F0B6C025C15F3FECF3983EDC
:103AB000DCF3869577956795B795F7959F5FC9F77E
:103AC000880F911D9695879597F90895E1E0660F07
:103AD000771F881FBB1F621773078407BA0720F080
:103AE000621B730B840BBA0BEE1F88F7E0950895E9
:103AF00004D06894B111FEC00895E1D088F09F57BA
:103B000090F0B92F9927B751A0F0D1F0660F771F29
:103B1000881F991F1AF0BA95C9F712C0B13081F009
:103B2000E8D0B1E00895E5C0672F782F8827B85F07
:103B300039F0B93FCCF3869577956795B395D9F76A
:103B40003EF490958095709561957F4F8F4F9F4F74
:103B50000895E89409C097FB3EF490958095709580
:103B600061957F4F8F4F9F4F9923A9F0F92F96E9C9
:103B7000BB279395F695879577956795B795F1113E
:103B8000F8CFFAF4BB0F11F460FF1BC06F5F7F4FDB
:103B90008F4F9F4F16C0882311F096E911C07723ED
:103BA00021F09EE8872F762F05C0662371F096E8F6
:103BB000862F70E060E02AF09A95660F771F881FC5
:103BC000DAF7880F9695879597F90895990F000869
:103BD000550FAA0BE0E8FEEF16161706E807F907DF
:103BE000C0F012161306E407F50798F0621B730B7A
:103BF000840B950B39F40A2661F0232B242B252BFB
:103C000021F408950A2609F4A140A6958FEF811D9D
:103C1000811D089597F99F6780E870E060E008953E
:103C20009FEF80EC0895DF93CF931F930F93FF9244
:103C3000EF92DF927B018C01689405C0DA2EEF01D0
:103C400076D0FE01E894A591259135914591559145
:103C5000AEF3EF012CDEFE019701A801DA9479F7AB
:103C6000DF90EF90FF900F911F91CF91DF9108951A
:103C700000240A941616170618060906089500244B
:103C80000A9412161306140605060895092E0394C5
:103C9000000C11F4882352F0BB0F40F4BF2B11F439
:103CA00060FF04C06F5F7F4F8F4F9F4F089557FD98
:103CB0009058440F551F59F05F3F71F04795880F9A
:103CC00097FB991F61F09F3F79F087950895121631
:103CD00013061406551FF2CF4695F1DF08C01616DD
:103CE00017061806991FF1CF86957105610508948E
:103CF0000895E894BB2766277727CB0197F90895A5
:103D000065DF08F48FEF08959B01AC0160E070E07F
:103D100080E89FE385CE0BD0B9CFAADF28F0AFDFD4
:103D200018F0952309F076CF7BCF1124E3CFBFDFC6
:103D3000A0F3959FD1F3950F50E0551F629FF001BE
:103D4000729FBB27F00DB11D639FAA27F00DB11D17
:103D5000AA1F649F6627B00DA11D661F829F2227A0
:103D6000B00DA11D621F739FB00DA11D621F839F27
:103D7000A00D611D221F749F3327A00D611D231FFD
:103D8000849F600D211D822F762F6A2F11249F574B
:103D900050408AF0E1F088234AF0EE0FFF1FBB1F6E
:103DA000661F771F881F91505040A9F79E3F51050D
:103DB00070F030CF9FCF5F3FECF3983EDCF38695F9
:103DC00077956795B795F795E7959F5FC1F7FE2BB8
:103DD000880F911D9695879597F908959B01AC01E1
:103DE0009ACF97FB072E16F4009407D077FD09D0E1
:103DF0000E94271F07FC05D03EF4909581959F4FA8
:103E00000895709561957F4F0895A1E21A2EAA1B1F
:103E1000BB1BFD010DC0AA1FBB1FEE1FFF1FA2177A
:103E2000B307E407F50720F0A21BB30BE40BF50B77
:103E3000661F771F881F991F1A9469F76095709500
:103E4000809590959B01AC01BD01CF010895AA1BFF
:103E5000BB1B51E107C0AA1FBB1FA617B70710F075
:103E6000A61BB70B881F991F5A95A9F780959095A7
:103E7000BC01CD010895FB01DC018D9101908019F9
:103E80000110D9F3990B0895FA01CF93FF93EF93A3
:103E9000223044F1253234F5C22FE894CA3049F477
:103EA00097FB3EF490958095709561957F4F8F4F6D
:103EB0009F4F2C2F332744275527FF93EF930E94C2
:103EC000051FEF91FF91605D6A330CF0695D6193AE
:103ED000B901CA01605070408040904051F716F41B
:103EE000CDE2C19310828F919F91CF910C94781F56
:103EF000DC01FC01672F71917723E1F7329704C051
:103F00007C916D9370836291AE17BF07C8F30895DB
:043F1000F894FFCF53
:103F1400CA080000CA080000CA080000CA08000055
:103F2400E6050000CA080000850200000AD7A33C89
:103F34000AD7A33B0AD7A33BE605616363207374E6
:103F44006172746564006779726F2073746172744E
:103F54006564004779726F204F66667365743A2012
:103F640000703A2000713A2000723A2000477972BA
:103F74006F2043616C20436F6D706C6574650053F2
:103F84006572766F54696D65725374617274656499
:103F9400005461736B54696D657253746172746516
:103FA400640057646F6744697361626C0057646F9F
:103FB4006752737400507772557052737400427272
:103FC400776E4F757452737400457874527374002D
:103FD4004750524D4300475047474100486F6D6575
:103FE40020536574204C61742000204C6F6E672050
:103FF40000486F6D652053657420436C656172657C
:10400400642000444952454354204354524C002AEE
:10401400537065656420436F6E74726F6C2A00443C
:10402400616D70656420434F4E54524F4C00476F8E
:10403400616C20416C74202D2048656164696E6751
:10404400202D2053706565643A2000202D200048FF
:104054004F4C4420434F4E54524F4C0048656164CA
:10406400696E6720486F6C64200052657475726EC7
:1040740020486F6D65204865616420003B000D0A8F
:0240840000003A
:00000001FF
