S015000053696D706C6554657374696E672E73726563C7
S11300000C9441000C94C5060C945E000C945E00A4
S11300100C945E000C94F4060C945E000C94C805D9
S11300200C945E000C945E000C9413070C945E0018
S11300300C945E000C9469100C945E000C945E00A9
S11300400C945E000C945E000C945E000C945E00B4
S11300500C945E00084AD73B3BCE016E84BCBFFDC6
S1130060C12F3D6C74319ABD56833DDA3D00C77F84
S113007011BED9E4BB4C3E916BAAAABE000000801D
S11300803F0011241FBECFE5D8E0DEBFCDBF11E095
S1130090A0E6B0E0EAEBF9E202C005900D92A639C1
S11300A0B107D9F724E0A6E9B1E001C01D92A0325E
S11300B0B207E1F70E942F070C94DB140C940000A4
S11300C0CF93DF93D82FC62F0E945B0582E390E085
S11300D00E9477058D2F90E00E9482058C2F90E07E
S11300E00E948D050E94A805DF91CF91089567E4D1
S11300F080E20E94600060E183E20E94600085E784
S113010090E00E94061108950F931F93CF93DF93FD
S1130110EC010E945B0582E390E00E94770588EA87
S113012090E00E9482050E94650583E390E00E94AE
S11301306B050E94A0058093A6010E94A0058093F0
S1130140A7010E94A0058093A0010E94A0058093AE
S1130150A1010E94A00580939A010E9498058093B2
S11301609B010E94A8058091A701992787FD90957E
S1130170982F88272091A601822B95958795959590
S1130180879595958795959587959093A5018093E7
S1130190A4010091A101112707FD1095102F00273C
S11301A02091A001022B1595079515950795159596
S11301B007951595079510939F0100939E01409113
S11301C09B01552747FD5095542F442720919A01B0
S11301D0422B559547955595479555954795559572
S11301E047955093990140939801880F991F9093D4
S11301F0A3018093A201000F111F10939D0100938E
S11302009C01440F551F5093970140939601AA27D0
S113021097FDA095BA2F88839983AA83BB8322274D
S113022017FD2095322F0C831D832E833F83662771
S113023057FD6095762F488759876A877B87CE015B
S1130240DF91CF911F910F910895CF93DF93D82F12
S1130250C62F0E945B0580EC90E00E9477058D2FED
S113026090E00E9482058C2F90E00E948D050E94F0
S1130270A805DF91CF91089569EB86E20E942501DC
S113028060E889E20E94250166EC84E10E94250170
S11302906BE585E10E94250167E083E10E94250169
S11302A081E890E00E9406110895CF930E945B05B7
S11302B080EC90E00E94770580E090E00E94820547
S11302C00E94650581EC90E00E946B050E949805F0
S11302D0C82F0E94A8058091AE0132C0CE3E81F5A0
S11302E00E945B0580EC90E00E94770581E090E03D
S11302F00E9482050E94650581EC90E00E946B05D6
S11303000E94A0058093B1010E94A0058093B001D2
S11303100E9498058093AF010E94A8052091B10125
S1130320332727FD3095322F22278091B001282BC7
S11303303093AB012093AA0181E08093AE013FC0CA
S1130340882361F2CE3EB9F50E945B0580EC90E013
S11303500E94770581E090E00E9482050E94650575
S113036081EC90E00E946B050E94A0058093B1018E
S11303700E94A0058093B0010E9498058093AF016C
S11303800E94A8052091B101332727FD3095322F13
S113039022278091B001282B3093AB012093AA012E
S11303A08091AC019091AD01281B390B3093A901C8
S11303B02093A80104C02091A8013091A901822FA3
S11303C0932FCF9108950E9455019093AD0180938E
S11303D0AC018EE890E00E94F6106091AC0170913F
S11303E0AD01882777FD8095982F0E9438110895D4
S11303F01ABA83E487B987E886B98BE990E00E944A
S113040006110895CF93DF93369A3699FECFC4B17F
S1130410D0E0D093BD01C093BC0125B1922F80E000
S1130420C82BD92BD093BD01C093BC01BE01660F6C
S1130430771F6C0F7D1F6A5F7540882777FD809555
S1130440982F0E94BC126093B6017093B7018093F9
S1130450B8019093B9018091B4019091B5010197CD
S113046051F48091B2019091B301C81BD90BD09380
S1130470BB01C093BA018C2F9D2FDF91CF910895BA
S1130480CF93DF93C2E3D0E00E9402022091B20135
S11304903091B301820F931F9093B3018093B20103
S11304A0219791F762E370E00E9423147093B301E3
S11304B06093B20182EA90E00E94F6106091B2016A
S11304C07091B301882777FD8095982F0E94381189
S11304D081E090E09093B5018093B4012FE986E820
S11304E091E0215080409040E1F700C00000DF918E
S11304F0CF910895CF93DF93D82FC62F0E945B0529
S113050086ED90E00E9477058D2F90E00E94820591
S11305108C2F90E00E948D050E94A805DF91CF9159
S113052008956FE080E20E947A0260E281E20E9414
S11305307A0260E184E20E947A028FEA90E00E94EB
S1130540061108958F929F92AF92BF92CF92DF923D
S1130550EF92FF920F931F93CF93DF93EC010E94CE
S11305605B0586ED90E00E94770588EA90E00E94A2
S113057082050E94650587ED90E00E946B050E944C
S1130580A0058093D2010E94A0058093D3010E940C
S1130590A0058093CE010E94A0058093CF010E9404
S11305A0A0058093CA010E9498058093CB010E9404
S11305B0A8056091D301772767FD7095762F66278C
S11305C08091D201682B7093D1016093D001E090A7
S11305D0CF01FF24E7FCF094FE2CEE248091CE01A1
S11305E0E82AF092CD01E092CC010091CB011127D1
S11305F007FD1095102F00278091CA01082B109336
S1130600C9010093C801882777FD8095982F0E941F
S1130610BC1229E23CE54FE05CE30E9474130E94A3
S113062089124B015C01B701882777FD8095982FCB
S11306300E94BC1229E23CE54FE05CE30E94741383
S11306400E9489126B017C01B801882777FD80958F
S1130650982F0E94BC1229E23CE54FE05CE30E9423
S113066074130E9489122091BE013091BF01213080
S1130670310521F50091C4011091C501222717FD10
S11306802095322F801A910AA20AB30A0091C2015E
S11306901091C301222717FD2095322FC01AD10AC9
S11306A0E20AF30A0091C0011091C101222717FD4B
S11306B02095322F601B710B820B930B88829982D9
S11306C0AA82BB82CC82DD82EE82FF826887798730
S11306D08A879B87CE01DF91CF911F910F91FF9065
S11306E0EF90DF90CF90BF90AF909F908F90089540
S11306F0CF93DF93CDB7DEB72C970FB6F894DEBF58
S11307000FBECDBF2091C6013091C7012A303105FB
S1130710ACF52F5F3F4F3093C7012093C601CE0144
S113072001960E94A2022091C4013091C5018981E1
S11307309A81820F931F9093C5018093C4012091E5
S1130740C2013091C3018D819E81820F931F9093CA
S1130750C3018093C2012091C0013091C1018985F8
S11307609A85820F931F9093C1018093C0012091B9
S1130770C6013091C7012A3031055CF28091C40171
S11307809091C501B9010E9423147093C50160932F
S1130790C4018091C2019091C301B9010E94231444
S11307A07093C3016093C2018091C0019091C10113
S11307B0B9010E9423147093C1016093C0018CEBB2
S11307C090E00E9406118AEC90E00E94F61060917D
S11307D0C4017091C501882777FD8095982F0E94E8
S11307E038118EEC90E00E94F6106091C201709175
S11307F0C301882777FD8095982F0E94381182EDD8
S113080090E00E94F6106091C0017091C1018827A8
S113081077FD8095982F0E9438112FE986E891E0A2
S1130820215080409040E1F700C0000081E090E05A
S11308309093BF018093BE0186ED90E00E94061163
S11308402C960FB6F894DEBF0FBECDBFDF91CF91CB
S11308500895CF93DF93D82FC62F0E945B058CE3B6
S113086090E00E9477058D2F90E00E9482058C2FE6
S113087090E00E948D050E94A805DF91CF91089514
S113088060E082E00E94290488EE90E00E94061154
S11308900895CF92DF92EF92FF92CF93DF930E945D
S11308A05B058CE390E00E94770583E090E00E9472
S11308B082050E9465058DE390E00E946B050E940D
S11308C0A0058093E1010E94A0058093E0010E94AD
S11308D0A0058093D9010E94A0058093D8010E94AD
S11308E0A0058093DD010E9498058093DC010E949D
S11308F0A805C091E101DD27C7FDD095DC2FCC27E9
S11309008091E001C82BD093DF01C093DE01609198
S1130910DD01772767FD7095762F66278091DC01CE
S1130920682B7093DB016093DA018091D9019927D8
S113093087FD9095982F88272091D801822B90933A
S1130940D7018093D601DD230CF453C0772354F1EF
S1130950882777FD8095982F0E94BC126B017C013B
S1130960BE01882777FD8095982F0E94BC129B01B9
S1130970AC01C701B6010E9421120E94F91120EEB8
S11309803EE245E652E40E9474130E94D7130E948B
S1130990891288E691E0861B970B9093D50180938A
S11309A0D4017CC0882777FD8095982F0E94BC12C3
S11309B06B017C01BE01882777FD8095982F0E94EA
S11309C0BC129B01AC01C701B6010E9421120E9416
S11309D0F91120EE3EE245E652E40E9474130E94AF
S11309E0D71390580E9489127093D5016093D40153
S11309F055C0772354F1882777FD8095982F0E945E
S1130A00BC126B017C01BE01882777FD8095982F6D
S1130A100E94BC129B01AC01C701B6010E942112C5
S1130A200E94F91120EE3EE245E652E40E9474135E
S1130A300E94D7130E94891284EB90E0861B970BC7
S1130A409093D5018093D40129C0882777FD8095A0
S1130A50982F0E94BC126B017C01BE01882777FD90
S1130A608095982F0E94BC129B01AC01C701B6016E
S1130A700E9421120E94F91120EE3EE245E652E462
S1130A800E9474130E94D7130E94891284EB90E091
S1130A90861B970B9093D5018093D401DF91CF915E
S1130AA0FF90EF90DF90CF90089584E380B986B7EC
S1130AB0856486BF089584EA86BF06B607FEFDCF27
S1130AC081B1887F8830E1F7089584EA86BF06B64D
S1130AD007FEFDCF089583B986B7846C86BF06B63A
S1130AE007FEFDCF81B1887F8034E1F7089583B993
S1130AF084E886BF06B607FEFDCF81B1887F8831C2
S1130B00E1F7089583B984E886BF06B607FEFDCFF2
S1130B1081B1887F8832E1F7089583B984E886BF7C
S1130B2006B607FEFDCF81B1887F8832E1F70895CC
S1130B3084E886BF06B607FEFDCF83B190E0089532
S1130B4084EC86BF06B607FEFDCF83B190E008951E
S1130B5086B7846986BF06B604FCFDCF089587B3C3
S1130B608F6187BB88B3807E88BB1FBC8AE08EBD43
S1130B708AEC98E09BBD8ABD80E48BBF83E085BF8F
S1130B8085E085BD14BC84EF90E00E9406110895B1
S1130B901F920F920FB60F9211242F933F934F93EE
S1130BA05F938F939F93AF93BF938091E5018430BC
S1130BB009F46DC064F4813069F11CF48823C9F030
S1130BC0D7C08230E9F1833009F0D2C04AC08730FF
S1130BD009F495C03CF4853009F46AC0863009F004
S1130BE0C7C07CC0883009F4A0C0893009F0C0C0F7
S1130BF0ADC0C09A8091600090916100A0916200A4
S1130C00B09163009BBD8ABD8091E5018F5F8093A5
S1130C10E501AEC0C0988091600090916100A09100
S1130C206200B091630020E737E1A901481B590B2A
S1130C305BBD4ABD8091E5018F5F8093E50198C05B
S1130C40C19A8091640090916500A0916600B09172
S1130C5067009BBD8ABD8091E5018F5F8093E501AC
S1130C6087C0C1988091640090916500A09166004E
S1130C70B091670020E737E1A901481B590B5BBD20
S1130C804ABD8091E5018F5F8093E50171C0C29AEE
S1130C908091680090916900A0916A00B0916B0006
S1130CA09BBD8ABD8091E5018F5F8093E50160C0A3
S1130CB0C2988091680090916900A0916A00B091F7
S1130CC06B0020E737E1A901481B590B5BBD4ABD06
S1130CD08091E5018F5F8093E5014AC0C39A8091BA
S1130CE06C0090916D00A0916E00B0916F009BBD5F
S1130CF08ABD8091E5018F5F8093E50139C0C39877
S1130D0080916C0090916D00A0916E00B0916F0085
S1130D1020E737E1A901481B590B5BBD4ABD80910F
S1130D20E5018F5F8093E50123C0C49A8091700030
S1130D3090917100A0917200B09173009BBD8ABD27
S1130D408091E5018F5F8093E50112C0C498809182
S1130D50700090917100A0917200B091730020E72F
S1130D6037E1A901481B590B5BBD4ABD1092E5014F
S1130D70BF91AF919F918F915F914F913F912F912F
S1130D800F900FBE0F901F9018951F920F920FB6E1
S1130D900F9211242F938F939F93EF93FF9380913E
S1130DA0E2019091E301019729F41092E30110927A
S1130DB0E2010FC02091E401E22FF0E084B590E05D
S1130DC0EE0FFF1FEA51FE4F918380832F5F209324
S1130DD0E40114BCFF91EF919F918F912F910F909B
S1130DE00FBE0F901F9018951F920F920FB60F927F
S1130DF011248F939F931092E40181E090E09093EB
S1130E00E3018093E2019F918F910F900FBE0F90A9
S1130E101F9018958DE083BF83EC8CBF86E091E032
S1130E200E94061108951F920F920FB60F9211247B
S1130E308F938091F8018F5F8093F801833028F0BD
S1130E4081E08093F9011092F8018F910F900FBE09
S1130E500F901F90189581B58D6081BD0895CF9333
S1130E60DF93CDB7DEB7C657D1090FB6F894DEBF0E
S1130E700FBECDBF0E945C1004B603FE05C081E224
S1130E8091E00E94F6101CC004B600FE05C089E281
S1130E9091E00E94F61014C004B602FE05C082E37D
S1130EA091E00E94F6100CC004B601FE05C08DE36B
S1130EB091E00E94F61004C084B790E00E941A11D9
S1130EC084B7807F84BF2FE73FE482E12150304024
S1130ED08040E1F700C000000E94550580910502A2
S1130EE090910602019721F40E9491020E947803D6
S1130EF08091030290910402019711F40E947700FB
S1130F008091FF0190910002019721F40E943C011D
S1130F100E94E3018091010290910202019711F471
S1130F200E9440048091FD019091FE01019721F4FB
S1130F300E94F8010E944002F8940E940A070E944D
S1130F40AF0582E589BF78940E942B071DAA1EAACB
S1130F501FAA18AE68961FAE689769961FAE699768
S1130F606A961FAE6A976B961FAE6B9764961FAE18
S1130F70649765961FAE659766961FAE66976796EB
S1130F801FAE6797AF961CAE1DAE1EAE1FAEAF97D9
S1130F90A0961FAEA097A1961FAEA197A2961FAED2
S1130FA0A297A3961FAEA3972A961FAE2A972B96B5
S1130FB01FAE2B972C961FAE2C972D961FAE2D97F8
S1130FC0E0961FAEE097E1961FAEE197E2961FAE62
S1130FD0E297E3961FAEE39719A61AA61BA61CA6D2
S1130FE061961FAE1EAE6197AB961CAE1DAE1EAED3
S1130FF01FAEAB9780E690E0AA2797FDA095BA2F85
S11310006F968CAF9DAFAEAFBFAF6F978091080264
S11310108130B1F564E471E08CE293E00E944B14FA
S1131020282F392F232B81F4ECE2F3E0A9E0B2E07E
S113103080E901900D928A95E1F7ECE2F3E0DF019B
S113104020E91D922A95E9F76AE471E08CE293E0C5
S11310500E944B14282F392F232B81F4ECE2F3E068
S1131060A9E9B2E080E901900D928A95E1F7ECE2FA
S1131070F3E0DF0120E91D922A95E9F710920802B6
S11310808091F901813011F00C9459101092F901FA
S11310908091050290910602019709F05CC0CE018F
S11310A00D960E94A2026D85772767FD7095872FA4
S11310B0972F0E94BC122AE939E949E95EE30E94AC
S11310C074136B017C0162963FAD6297632F77279F
S11310D067FD7095872F972F0E94BC1223E333E39B
S11310E043E35FE30E9474139B01AC01C701B601A3
S11310F00E945B110E94891262966FAF62976989A0
S1131100772767FD7095872F972F0E94BC122AE9D5
S113111039E949E95EE30E9474136B017C0163962B
S1131120AFAD63976A2F772767FD7095872F972F49
S11311300E94BC1223E333E343E35FE30E9474138E
S11311409B01AC01C701B6010E945B110E94891288
S113115063966FAF639780910302909104020197A5
S113116009F05CC0CE0101960E94840069857A85ED
S1131170719561957109882777FD8095982F0E9454
S1131180BC126B017C0169817A81882777FD809587
S1131190982F0E94BC12A70196010E94CE1120E054
S11311A030E044E353E40E9474132BED3FE049E440
S11311B050E40E94211264966FAF649765967FAFE6
S11311C0659766968FAF669767969FAF67976D81B1
S11311D07E81719561957109882777FD8095982F97
S11311E00E94BC12A70196010E94CE1120E030E0BB
S11311F044E353E40E9474132BED3FE049E450E4CC
S11312000E94211268966FAF689769967FAF6997BD
S11312106A968FAF6A976B969FAF6B978091FF0129
S113122090910002019771F50E945501BC01882735
S113123077FD8095982F0E94BC1223E333E343E3A8
S11312405FE30E9474136B017C012F96EEADFFAD3A
S11312502F97BF01882777FD8095982F0E94BC1295
S11312602AE939E949E95EE30E9474139B01AC0160
S1131270C701B6010E945B110E9489122F967FAFAD
S11312806EAF2F978091010290910202019711F4A1
S11312900E9449048091FD019091FE01019771F52E
S11312A00E940202BC01882777FD8095982F0E9436
S11312B0BC122CEC3CEC4CE45EE30E9474136B0116
S11312C07C0161962EAD3FAD6197B901882777FD0A
S11312D08095982F0E94BC122DEC3CEC4CE45FE30B
S11312E00E9474139B01AC01C701B6010E945B11FB
S11312F00E94891261967FAF6EAF619763963FAD8E
S11313006397632F772767FD7095872F972F0E9428
S1131310BC122DEC3CEC4CE45DE30E947413B9ADBB
S1131320AAADFBADECAD2B2F3A2F4F2F5E2F0E94B1
S11313305B1169A37AA38BA39CA3292D382D472D78
S1131340562DBDA5AEA5FFA5E8A96B2F7A2F8F2F2B
S11313509E2F0E945B112FE632E143E85AE30E947C
S11313605A112DEC3CEC4CE45DEB0E947413BDADC2
S1131370AEADFFAD2196EFAD21972B2F3A2F4F2F16
S11313805E2F0E945B11A62EB72EC82ED92E629610
S1131390AFAD62976A2F772767FD7095872F972FD8
S11313A00E94BC12BDA9AEA9FFA9E8AD2B2F3A2F0C
S11313B04F2F5E2F0E945A112DEC3CEC4CE45DE360
S11313C00E947413B9A5AAA5FBA5ECA52B2F3A2F4F
S11313D04F2F5E2F0E945B1169A77AA78BA79CA74A
S11313E09D8D8E8D252D342D492F582FBDA1AEA155
S11313F0FFA1E8A56B2F7A2F8F2F9E2F0E945B11E0
S11314002FE632E143E85AE30E945A112DEC3CECFA
S11314104CE45DEB0E947413B9A9AAA9FBA9ECA939
S11314202B2F3A2F4F2F5E2F0E945B11E62EF72EA3
S1131430082F192F2DEC3CEC4CE45DE36A2D7B2D39
S11314408C2D9D2D0E945B116DA77EA78FA798AB55
S1131450762F6EA5982F88A9272F362F492F582F1E
S11314606A2D7B2D8C2D9D2D0E942112698F7A8FE0
S11314708B8F9C8F79A56AA59BA58CA5272F362FCA
S1131480492F582F6896BFAD68976996AFAD699795
S11314906A96FFAD6A976B96EFAD6B976B2F7A2FB9
S11314A08F2F9E2F0E945A1169AB7AAB8BAB9CABEA
S11314B02DEC3CEC4CE45DE36E2D7F2D802F912FC1
S11314C00E945B11262E372E8F8F98A3762F982F8C
S11314D088A1272F332D492F582F6E2D7F2D802F34
S11314E0912F0E9421126DA37EA38FA398A79F8D95
S11314F088A1222D332D492F582FFD8DEE8D652D7A
S1131500742D8F2F9E2F0E9421126F8F78A3382E57
S1131510292E79A16AA19BA18CA1272F362F492FAF
S1131520582F6496BFAD64976596AFAD6597669680
S1131530FFAD66976796EFAD67976B2F7A2F8F2F66
S11315409E2F0E945A119B01AC01B98DAA8DFB8D6F
S1131550EC8D6B2F7A2F8F2F9E2F0E947413B9A1BD
S1131560AAA1FBA1ECA12B2F3A2F4F2F5E2F0E9493
S11315705B1169A37AA38BA39CA369AF7AAF8BAFEA
S11315809CAF2A2D3B2D4C2D5D2DB98DAA8DFB8D45
S1131590EC8D6B2F7A2F8F2F9E2F0E947413262F82
S11315A0372F482F592F6A2D7B2D8C2D9D2D0E946E
S11315B05A11A62EB72EC82ED92E6DAF7EAF8FAF7F
S11315C021969FAF2197798D6A8D9B8D8C8D272FC6
S11315D0362F492F582F692D782D872D962D0E944F
S11315E07413262F372F482F592F692D782D872DC7
S11315F0962D0E945A1122966FAF229723967FAFA1
S1131600239724968FAF249725969FAF25977DA582
S11316106EA59FA588A9272F362F492F582F692DEE
S1131620782D872D962D0E9421122A2D3B2D4C2D8D
S11316305D2D0E9474139B01AC01692D782D872DBB
S1131640962D0E945A116DA77EA78FA798AB79A9F2
S11316506AA99BA98CA9272F362F492F582FBDA1E2
S1131660AEA1FFA1E8A56B2F7A2F8F2F9E2F0E948A
S11316707413B9A5AAA5FBA5ECA52B2F3A2F4F2FC0
S11316805E2F0E945B11698F7A8F8B8F9C8F69A765
S11316907AA78BA79CA779A96AA99BA98CA9272FAC
S11316A0362F492F582FBF8DA8A16B2F7A2F832D4A
S11316B0922D0E9474139B01AC01BDA9AEA9FFA990
S11316C0E8AD6B2F7A2F8F2F9E2F0E945B116DAB8D
S11316D07EAB8FAB98AF2E2D3F2D402F512FBDA148
S11316E0AEA1FFA1E8A56B2F7A2F8F2F9E2F0E940A
S11316F07413262F372F482F592F6E2D7F2D802FAF
S1131700912F0E945A11E62EF72E082F192F69AB3C
S11317107AAB8BAB9CAB7DA16EA19FA188A5272F33
S1131720362F492F582FFD8DEE8D652D742D8F2F5B
S11317309E2F0E947413262F372F482F592FFD8D6B
S1131740EE8D652D742D8F2F9E2F0E945A11269693
S11317506FAF269727967FAF279728968FAF289746
S113176029969FAF29972E2D3F2D402F512FBF8DA6
S1131770A8A16B2F7A2F832D922D0E9474139B01A5
S1131780AC01FD8DEE8D652D742D8F2F9E2F0E9443
S11317905A116DA37EA38FA398A7E0EFF1E0808197
S11317A091818139910524F083E08093FC0112C07A
S11317B0A0EFB1E08D919C9111978C38910544F084
S11317C08D919C91803991051CF41092FC0102C00A
S11317D01092FC018091FC019091FB01981721F07B
S11317E091E09093FA0102C01092FA01882321F04B
S11317F0833009F079C3D8C08091FA01813021F493
S113180080E591E00E940611E6EEF1E0208131814D
S1131810220F331FC901880F991F880F991F880F42
S1131820991F821B930B8E5D9E4FAA2797FDA0954F
S1131830BA2FE0E6F0E080839183A283B383209102
S1131840E8013091E9014FE0429FC001439F900DB0
S113185011248A569F4FAA2797FDA095BA2FE4E634
S1131860F0E080839183A283B3832091EA013091D5
S1131870EB01429FC001439F900D1124AA2797FDBD
S1131880A095BA2FE8E6F0E080839183A283B38326
S11318902091EC013091ED01220F331FC901880F13
S11318A0991F880F991F880F991F821B930B8E5DB8
S11318B09E4FAA2797FDA095BA2FECE6F0E080830F
S11318C09183A283B3838091EE019091EF018738D5
S11318D091053CF48091EE019091EF0189379105D7
S11318E0FCF48091EE019091EF01863991053CF46E
S11318F08091EE019091EF0188389105A4F48091D4
S1131900EE019091EF01803A910584F48091EE010B
S11319109091EF018739910564F480E090E00BC069
S113192086EE95E008C08CE697E005C080E090E084
S113193002C08CEF98E0A0E7B0E04D915D916D910D
S11319407C91A0E0B0E0481759076A077B0774F45C
S1131950E0E7F0E080819181A281B3810A96A11D24
S1131960B11D80839183A283B383BEC2E0E7F0E01C
S1131970408151816281738184179507A607B70757
S113198064F480819181A281B3810A97A109B1098C
S113199080839183A283B383A7C2E0E7F0E08083CE
S11319A09183A283B383A0C28091FA01813009F0AC
S11319B087C08CE591E00E940611A8E6B0E08D9105
S11319C09D910D90BC91A02DAB968CAF9DAFAEAF09
S11319D0BFAFAB97A4E6B0E08D919D910D90BC9103
S11319E0A02DAF968CAF9DAFAEAFBFAFAF9789E6DA
S11319F091E00E94F610A9968EAD9FADA9970E9422
S1131A001A1189E791E00E94F610AF966CAD7DAD96
S1131A108EAD9FADAF970E9438118DE791E00E9483
S1131A20F6102F968EAD9FAD2F970E941A1189E75D
S1131A3091E00E94F610598D4A8D3B8D2C8D652FB7
S1131A40742F832F922F0E9489120E943811B98D0E
S1131A50E096BFAFE097EA8DE196EFAFE197FB8D9B
S1131A60E296FFAFE2972C8DE3962FAFE39739A16F
S1131A70E4963FAFE4978AA1E5968FAFE5979BA1E3
S1131A80E6969FAFE697ACA1E796AFAFE797A4962B
S1131A901FAEA497A5961FAEA597A6961FAEA697B0
S1131AA0A7961FAEA797A0961FAEA097A1961FAEAC
S1131AB0A197A2961FAEA297A3961FAEA39718C094
S1131AC02A96BFAD2A97A496BFAFA4972B96EFADE5
S1131AD02B97A596EFAFA5972C96FFAD2C97A696BE
S1131AE0FFAFA6972D962FAD2D97A7962FAFA7974B
S1131AF0A6EEB1E02D913C91220F331FC901880F4E
S1131B00991F880F991F880F991F821B930B8E5D55
S1131B109E4FAA2797FDA095BA2FE0E6F0E08083B8
S1131B209183A283B3832091EC013091ED01220FC4
S1131B30331FC901880F991F880F991F880F991F98
S1131B40821B930B8E5D9E4FAA2797FDA095BA2FFB
S1131B50ECE6F0E080839183A283B3838091EE016D
S1131B609091EF01873891055CF48091EE0190919A
S1131B70EF018937910524F081E08093740023C03C
S1131B808091EE019091EF01863991055CF480918A
S1131B90EE019091EF018838910524F082E0809362
S1131BA0740011C08091EE019091EF01803A91058B
S1131BB054F48091EE019091EF01873991051CF066
S1131BC083E08093740079A16AA19BA18CA1272F43
S1131BD0362F492F582FE496BFADE497E596AFAD65
S1131BE0E597E696FFADE697E796EFADE7976B2F9F
S1131BF07A2F8F2F9E2F0E945A11362E272E082FB0
S1131C00192F862E972EA82EB92E6091740070E09D
S1131C1080E090E00E94BC126B017C01AB966CAD3D
S1131C207DAD8EAD9FADAB970E94BC122B013C01E4
S1131C30C501B401905820E030E040EF51E40E9427
S1131C4074134B015C0120E030E0A901632D722D77
S1131C50802F912F0E945B1120E030E040EF51E48F
S1131C600E9474132DEC3CEC4CE45DE30E9474136D
S1131C709B01AC01C501B4010E945B114B015C01E5
S1131C80232D322D402F512F60E070E0CB010E94B4
S1131C905A112DEC3CEC4CE45DE30E9421129B01B3
S1131CA0AC01C501B4010E945B119B01AC01C701E9
S1131CB0B6010E9474139B01AC01C301B2010E94DE
S1131CC05A110E948912A8E6B0E06D937D938D931A
S1131CD09C9313978D919D910D90BC91A02D893B60
S1131CE09B40A105B1055CF088EB9BE0A0E0B0E06F
S1131CF0E8E6F0E080839183A283B38313C0E8E62F
S1131D00F0E080819181A281B381883E9340A10556
S1131D10B10544F488EE93E0A0E0B0E080839183C1
S1131D20A283B383E0967FADE097E1966FADE19730
S1131D30E2969FADE297E3968FADE397272F362F78
S1131D40492F582FB98DAA8DFB8DEC8D6B2F7A2FCF
S1131D508F2F9E2F0E945A11262E372E082F192FAF
S1131D602A966FAF2A972B967FAF2B972C968FAF1F
S1131D702C972D969FAF2D97762F272F332D402FFD
S1131D80512FA096BFADA097A196AFADA197A296F3
S1131D90FFADA297A396EFADA3976B2F7A2F8F2F4A
S1131DA09E2F0E945B116D8F7E8F8F8F98A3A096BC
S1131DB06FAFA097A1967FAFA197A2968FAFA2977E
S1131DC0A3969FAFA397AF966CAD7DAD8EAD9FAD3F
S1131DD0AF970E94BC124B015C0120E030E040EF61
S1131DE051E4622D732D802F912F0E9474132B01C7
S1131DF03C0120E030E040EF51E4BD8DAE8DFF8D1D
S1131E00E8A16B2F7A2F8F2F9E2F0E9474132DEC35
S1131E103CEC4CE45DE30E9474139B01AC01C301F0
S1131E20B2010E945B112B013C01222D332D402F66
S1131E30512FA496BFADA497A596AFADA597A6962E
S1131E40FFADA697A796EFADA7976B2F7A2F8F2F8D
S1131E509E2F0E945A112DEC3CEC4CE45DE30E9451
S1131E6021129B01AC01C301B2010E945B119B01D1
S1131E70AC01C701B6010E9474139B01AC01C501FA
S1131E80B4010E945A110E948912A4E6B0E06D9335
S1131E907D938D939C9313978D919D910D90BC91FF
S1131EA0A02D893B9B40A105B1055CF088EB9BE02C
S1131EB0A0E0B0E0E4E6F0E080839183A283B38302
S1131EC013C0E4E6F0E080819181A281B381883E71
S1131ED09340A105B10544F488EE93E0A0E0B0E09E
S1131EE080839183A283B383E0E6F0E080819181D3
S1131EF0A281B3810E941A1181E991E00E94F61037
S1131F00E4E6F0E080819181A281B3810E941A11FC
S1131F1081E991E00E94F610E8E6F0E08081918189
S1131F20A281B3810E941A1181E991E00E94F61006
S1131F30ECE6F0E080819181A281B3810E941A11C4
S1131F4081E991E00E94F610E0E7F0E08081918160
S1131F50A281B3810E941A1181E991E00E94F610D6
S1131F60598D4A8D3B8D2C8D652F742F832F922F85
S1131F700E948912CB010E941A1181E991E00E940A
S1131F80F61059A14AA13BA12CA1652F742F832FD0
S1131F90922F0E948912CB010E941A1181E991E0CB
S1131FA00E94F6102F968EAD9FAD2F970E941A11A6
S1131FB081E991E00E94F61061968EAD9FAD619724
S1131FC00E941A1181E991E00E94F61080E090E0ED
S1131FD00E941A1181E991E00E94F6102A965FADE1
S1131FE02A972B964FAD2B972C963FAD2C972D9679
S1131FF02FAD2D97652F742F832F922F0E94891256
S1132000CB010E941A1181E991E00E94F61080919F
S1132010740090E00E941A1180910902811104C099
S113202080919902882381F081E991E00E94F61061
S113203086E392E00E94F61081E991E00E94F61096
S113204084E292E00E94F61081E991E00E94061178
S11320508091FC018093FB016F968CAD9DADAEAD7C
S1132060BFAD6F97EDE0F4E080839183A283B383E7
S1132070E6EEF1E0A9EFB3E01196FC93EE93269619
S11320805FAC269727964FAC27972896FFAD2897E5
S1132090FD8F29962FAD29972E8F22969FAC2297DC
S11320A023968FAC239724967FAC249725966FAC08
S11320B02597A8950C940608F89488E98AB986E8C7
S11320C080BD10BC82E189B978948CB15F99FDCF51
S11320D008951F920F920FB60F9211242F933F93DE
S11320E08F939F93EF93FF938CB180932A03109265
S11320F02B038093290310920802809129038432D0
S1132100E1F480910702992787FD909520911F049F
S1132110FC01EE0FFF1FEE0FFF1FEE0FFF1FE80F76
S1132120F91FE20FF11D27FDFA95E45DFC4F1082C3
S113213010921F04109207024AC0809129038C3226
S1132140F1F420910702822F992787FD9095309111
S11321501F04FC01EE0FFF1FEE0FFF1FEE0FFF1F0A
S1132160E80FF91FE30FF11D37FDFA95E45DFC4F0D
S1132170108210921F042F5F2093070228C08091C1
S113218029038A3021F481E08093080220C08091E1
S113219029038A30E1F080910702992787FD909501
S11321A020911F0430912903FC01EE0FFF1FEE0F55
S11321B0FF1FEE0FFF1FE80FF91FE20FF11D27FDB0
S11321C0FA95E45DFC4F30832F5F20931F04FF9149
S11321D0EF919F918F913F912F910F900FBE0F9090
S11321E01F9018955D9BFECF8CB90895CF93DF9314
S11321F0EC018881882339F0219690E00E94F21046
S113220089918111FACFDF91CF910895CF93DF9314
S1132210EC018881882339F0219690E00E94F21025
S113222089918111FACF83E991E00E94F610DF9140
S1132230CF910895CF93DF93CDB7DEB72F970FB625
S1132240F894DEBF0FBECDBF4AE050E0BE016F5F21
S11322507F4F0E945414CE0101960E94F6102F96CF
S11322600FB6F894DEBF0FBECDBFDF91CF910895B6
S1132270CF93DF93CDB7DEB76F970FB6F894DEBF79
S11322800FBECDBF2AE030E0AE014F5F5F4F0E942A
S11322907514CE0101960E94F61083E991E00E9424
S11322A0F6106F960FB6F894DEBF0FBECDBFDF9168
S11322B0CF9108955058BB27AA270ED0D4C1C5D1B9
S11322C030F0CAD120F031F49F3F11F41EF495C1CF
S11322D00EF4E095E7FB8BC1E92FD6D180F3BA1752
S11322E0620773078407950718F071F49EF5EEC131
S11322F00EF4E0950B2EBA2FA02D0B01B90190011D
S11323000C01CA01A0011124FF27591B99F0593F60
S113231050F4503E68F11A16F040A22F232F342FA8
S11323204427585FF3CF469537952795A795F040F6
S11323305395C9F77EF41F16BA0B620B730B840B0B
S1132340BAF09150A1F0FF0FBB1F661F771F881FC3
S1132350C2F70EC0BA0F621F731F841F48F487951B
S113236077956795B795F7959E3F08F0B3CF93950A
S1132370880F08F09927EE0F97958795089565D1F2
S113238058F080E891E009F49EEF66D128F040E827
S113239051E059F45EEF09C030C198C1E92FE078EB
S11323A073D168F3092E052AC1F3261737074807A6
S11323B0590738F00E2E07F8E02569F0E025E064AF
S11323C00AC0EF6307F8009407FADB01B9019D0125
S11323D0DC01CA01AD01EF9343D045D10AD05F912E
S11323E0552331F02BED3FE049E450FD49EC63CF38
S11323F00895DF93DD27B92FBF7740E85FE3161612
S1132400170648075B0710F4D92F67D19F938F9362
S11324107F936F93ECD1E4E5F0E0F2D024D12F91D7
S11324203F914F915F916CD1DD2349F09058A2EA1E
S11324302AED3FE049EC5FE3D0785D274DDFDF9183
S113244012C10CD010C108D140F0FFD030F021F4FB
S11324505F3F19F0CCC051113AC1CFC015D198F3E8
S11324609923C9F35523B1F3951B550BBB27AA2711
S113247062177307840738F09F5F5F4F220F331F83
S1132480441FAA1FA9F333D00E2E3AF0E0E830D04F
S113249091505040E695001CCAF729D0FE2F27D052
S11324A0660F771F881FBB1F261737074807AB0720
S11324B0B0E809F0BB0B802DBF01FF2793585F4F95
S11324C02AF09E3F510568F092C001C15F3FECF3D2
S11324D0983EDCF3869577956795B795F7959F5F5A
S11324E0C9F7880F911D9695879597F90895E1E0AE
S11324F0660F771F881FBB1F621773078407BA070D
S113250020F0621B730B840BBA0BEE1F88F7E09567
S1132510089504D06894B111DAC00895BDD088F04C
S11325209F5790F0B92F9927B751A0F0D1F0660FBB
S1132530771F881F991F1AF0BA95C9F712C0B130D6
S113254081F0C4D0B1E00895C1C0672F782F8827E7
S1132550B85F39F0B93FCCF3869577956795B39515
S1132560D9F73EF490958095709561957F4F8F4F84
S11325709F4F0895E89409C097FB3EF49095809589
S1132580709561957F4F8F4F9F4F9923A9F0F92F35
S113259096E9BB279395F695879577956795B795B3
S11325A0F111F8CFFAF4BB0F11F460FF1BC06F5F99
S11325B07F4F8F4F9F4F16C0882311F096E911C0AB
S11325C0772321F09EE8872F762F05C0662371F0CC
S11325D096E8862F70E060E02AF09A95660F771FE0
S11325E0881FDAF7880F9695879597F9089597F9D4
S11325F09F6780E870E060E008959FEF80EC0895A5
S1132600DF93CF931F930F93FF92EF92DF927B019F
S11326108C01689405C0DA2EEF0172D0FE01E894B3
S1132620A5912591359145915591AEF3EF0154DE75
S1132630FE019701A801DA9479F7DF90EF90FF90FB
S11326400F911F91CF91DF91089500240A941616DB
S1132650170618060906089500240A94121613068C
S1132660140605060895092E0394000C11F488231A
S113267052F0BB0F40F4BF2B11F460FF04C06F5F36
S11326807F4F8F4F9F4F089557FD9058440F551F0C
S113269059F05F3F71F04795880F97FB991F61F0E0
S11326A09F3F79F087950895121613061406551F57
S11326B0F2CF4695F1DF08C0161617061806991FC3
S11326C0F1CF86957105610508940895E894BB27B8
S11326D066277727CB0197F908959B01AC0160E049
S11326E070E080E89FE3ADCE0BD0BDCFAEDF28F025
S11326F0B3DF18F0952309F07ACF7FCF1124E7CF09
S1132700C3DFA0F3959FD1F3950F50E0551F629F4F
S1132710F001729FBB27F00DB11D639FAA27F00D36
S1132720B11DAA1F649F6627B00DA11D661F829F5D
S11327302227B00DA11D621F739FB00DA11D621F42
S1132740839FA00D611D221F749F3327A00D611D5F
S1132750231F849F600D211D822F762F6A2F112441
S11327609F5750408AF0E1F088234AF0EE0FFF1F94
S1132770BB1F661F771F881F91505040A9F79E3FCB
S1132780510570F034CFA3CF5F3FECF3983EDCF3F8
S1132790869577956795B795F795E7959F5FC1F708
S11327A0FE2B880F911D9695879597F9089574DFF0
S11327B0E0F09E37D8F09639B8F49E3848F4672F85
S11327C0782F8827985FF9CF8695779567959395A5
S11327D09539D0F3B62FB1706B0F711D811D20F4A4
S11327E0879577956795939505C01FC070CF9B011A
S11327F0AC017ACF882371F4772321F09850872B8A
S1132800762F07C0662311F499270DC09051862BAB
S113281070E060E02AF09A95660F771F881FDAF758
S1132820880F9695879597F908959F3F31F09150B9
S113283020F4879577956795B795880F911D9695A0
S1132840879597F9089597FB072E16F4009407D0FF
S113285077FD09D00E94371407FC05D03EF490950B
S113286081959F4F0895709561957F4F0895AA1B98
S1132870BB1B51E107C0AA1FBB1FA617B70710F067
S1132880A61BB70B881F991F5A95A9F78095909599
S1132890BC01CD010895FB01DC018D9101908019EB
S11328A00110D9F3990B0895FB019F01E89442307C
S11328B0C4F04532B4F44A3029F497FB1EF49095E1
S11328C081959F4F642F77270E943714805D8A3348
S11328D00CF0895D8193CB010097A1F716F45DE2BA
S11328E051931082C9010C94A914FA01CF93FF9358
S11328F0EF93223044F1253234F5C22FE894CA30E4
S113290049F497FB3EF490958095709561957F4FBF
S11329108F4F9F4F2C2F332744275527FF93EF9337
S11329200E94B914EF91FF91605D6A330CF0695D08
S11329306193B901CA01605070408040904051F7E2
S113294016F4CDE2C19310828F919F91CF910C9494
S1132950A914DC01FC01672F71917723E1F7329709
S113296004C07C916D9370836291AE17BF07C8F366
S11329700895A1E21A2EAA1BBB1BFD010DC0AA1FBC
S1132980BB1FEE1FFF1FA217B307E407F50720F0D4
S1132990A21BB30BE40BF50B661F771F881F991F4F
S11329A01A9469F760957095809590959B01AC0198
S10D29B0BD01CF010895F894FFCF94
S11329BACA080000CA080000CA080000CA080000C1
S11329CAE6050000016163632073746172746564CF
S11329DA006261726F20737461727465640062616B
S11329EA726F5F6F66667365742000414443206F9B
S11329FA6B004144435F6F66667365743A200067EF
S1132A0A79726F2073746172746564004779726FA6
S1132A1A204F66667365743A2000703A2000713A52
S1132A2A2000723A20004779726F2043616C204378
S1132A3A6F6D706C657465006D6167207374617283
S1132A4A74656400536572766F54696D6572537464
S1132A5A6172746564005461736B54696D65725371
S1132A6A7461727465640057646F67456E61626C61
S1132A7A0057646F675273740050777255705273BB
S1132A8A74004272776E4F75745273740045787489
S1132A9A527374004750524D430047504747410010
S1132AAA444952454354204354524C00484F4C44E1
S1132ABA20434F4E54524F4C005472696D20456C5A
S1132ACA202F2041696C3A2000202D200054617285
S1132ADA67657420416C74202F2042616E6B3A2022
S1092AEA003B000D0A0090
S9030000FC
